{
  "contractName": "Lottery",
  "abi": [
    {
      "inputs": [
        {
          "internalType": "uint256",
          "name": "_ticketCost",
          "type": "uint256"
        },
        {
          "internalType": "uint256",
          "name": "_totalNumbers",
          "type": "uint256"
        },
        {
          "internalType": "uint256",
          "name": "_totalSeries",
          "type": "uint256"
        },
        {
          "internalType": "address",
          "name": "_owner",
          "type": "address"
        },
        {
          "internalType": "uint256",
          "name": "_minimumParticipants",
          "type": "uint256"
        },
        {
          "internalType": "uint256",
          "name": "_totalPrize",
          "type": "uint256"
        },
        {
          "internalType": "uint32",
          "name": "_numWinners",
          "type": "uint32"
        },
        {
          "internalType": "uint256",
          "name": "_date",
          "type": "uint256"
        },
        {
          "internalType": "string",
          "name": "_lotteryName",
          "type": "string"
        }
      ],
      "stateMutability": "payable",
      "type": "constructor"
    },
    {
      "anonymous": false,
      "inputs": [
        {
          "indexed": true,
          "internalType": "address",
          "name": "owner",
          "type": "address"
        },
        {
          "indexed": true,
          "internalType": "address",
          "name": "approved",
          "type": "address"
        },
        {
          "indexed": true,
          "internalType": "uint256",
          "name": "tokenId",
          "type": "uint256"
        }
      ],
      "name": "Approval",
      "type": "event"
    },
    {
      "anonymous": false,
      "inputs": [
        {
          "indexed": true,
          "internalType": "address",
          "name": "owner",
          "type": "address"
        },
        {
          "indexed": true,
          "internalType": "address",
          "name": "operator",
          "type": "address"
        },
        {
          "indexed": false,
          "internalType": "bool",
          "name": "approved",
          "type": "bool"
        }
      ],
      "name": "ApprovalForAll",
      "type": "event"
    },
    {
      "anonymous": false,
      "inputs": [
        {
          "indexed": true,
          "internalType": "address",
          "name": "from",
          "type": "address"
        },
        {
          "indexed": true,
          "internalType": "address",
          "name": "to",
          "type": "address"
        },
        {
          "indexed": true,
          "internalType": "uint256",
          "name": "tokenId",
          "type": "uint256"
        }
      ],
      "name": "Transfer",
      "type": "event"
    },
    {
      "stateMutability": "payable",
      "type": "fallback"
    },
    {
      "inputs": [
        {
          "internalType": "address",
          "name": "to",
          "type": "address"
        },
        {
          "internalType": "uint256",
          "name": "tokenId",
          "type": "uint256"
        }
      ],
      "name": "approve",
      "outputs": [],
      "stateMutability": "nonpayable",
      "type": "function"
    },
    {
      "inputs": [
        {
          "internalType": "address",
          "name": "owner",
          "type": "address"
        }
      ],
      "name": "balanceOf",
      "outputs": [
        {
          "internalType": "uint256",
          "name": "",
          "type": "uint256"
        }
      ],
      "stateMutability": "view",
      "type": "function"
    },
    {
      "inputs": [
        {
          "internalType": "uint256",
          "name": "tokenId",
          "type": "uint256"
        }
      ],
      "name": "getApproved",
      "outputs": [
        {
          "internalType": "address",
          "name": "",
          "type": "address"
        }
      ],
      "stateMutability": "view",
      "type": "function"
    },
    {
      "inputs": [
        {
          "internalType": "address",
          "name": "owner",
          "type": "address"
        },
        {
          "internalType": "address",
          "name": "operator",
          "type": "address"
        }
      ],
      "name": "isApprovedForAll",
      "outputs": [
        {
          "internalType": "bool",
          "name": "",
          "type": "bool"
        }
      ],
      "stateMutability": "view",
      "type": "function"
    },
    {
      "inputs": [],
      "name": "name",
      "outputs": [
        {
          "internalType": "string",
          "name": "",
          "type": "string"
        }
      ],
      "stateMutability": "view",
      "type": "function"
    },
    {
      "inputs": [
        {
          "internalType": "uint256",
          "name": "tokenId",
          "type": "uint256"
        }
      ],
      "name": "ownerOf",
      "outputs": [
        {
          "internalType": "address",
          "name": "",
          "type": "address"
        }
      ],
      "stateMutability": "view",
      "type": "function"
    },
    {
      "inputs": [
        {
          "internalType": "address",
          "name": "from",
          "type": "address"
        },
        {
          "internalType": "address",
          "name": "to",
          "type": "address"
        },
        {
          "internalType": "uint256",
          "name": "tokenId",
          "type": "uint256"
        }
      ],
      "name": "safeTransferFrom",
      "outputs": [],
      "stateMutability": "nonpayable",
      "type": "function"
    },
    {
      "inputs": [
        {
          "internalType": "address",
          "name": "from",
          "type": "address"
        },
        {
          "internalType": "address",
          "name": "to",
          "type": "address"
        },
        {
          "internalType": "uint256",
          "name": "tokenId",
          "type": "uint256"
        },
        {
          "internalType": "bytes",
          "name": "data",
          "type": "bytes"
        }
      ],
      "name": "safeTransferFrom",
      "outputs": [],
      "stateMutability": "nonpayable",
      "type": "function"
    },
    {
      "inputs": [
        {
          "internalType": "address",
          "name": "operator",
          "type": "address"
        },
        {
          "internalType": "bool",
          "name": "approved",
          "type": "bool"
        }
      ],
      "name": "setApprovalForAll",
      "outputs": [],
      "stateMutability": "nonpayable",
      "type": "function"
    },
    {
      "inputs": [
        {
          "internalType": "bytes4",
          "name": "interfaceId",
          "type": "bytes4"
        }
      ],
      "name": "supportsInterface",
      "outputs": [
        {
          "internalType": "bool",
          "name": "",
          "type": "bool"
        }
      ],
      "stateMutability": "view",
      "type": "function"
    },
    {
      "inputs": [],
      "name": "symbol",
      "outputs": [
        {
          "internalType": "string",
          "name": "",
          "type": "string"
        }
      ],
      "stateMutability": "view",
      "type": "function"
    },
    {
      "inputs": [
        {
          "internalType": "uint256",
          "name": "tokenId",
          "type": "uint256"
        }
      ],
      "name": "tokenURI",
      "outputs": [
        {
          "internalType": "string",
          "name": "",
          "type": "string"
        }
      ],
      "stateMutability": "view",
      "type": "function"
    },
    {
      "inputs": [
        {
          "internalType": "address",
          "name": "from",
          "type": "address"
        },
        {
          "internalType": "address",
          "name": "to",
          "type": "address"
        },
        {
          "internalType": "uint256",
          "name": "tokenId",
          "type": "uint256"
        }
      ],
      "name": "transferFrom",
      "outputs": [],
      "stateMutability": "nonpayable",
      "type": "function"
    },
    {
      "stateMutability": "payable",
      "type": "receive"
    },
    {
      "inputs": [
        {
          "internalType": "address",
          "name": "_to",
          "type": "address"
        }
      ],
      "name": "getBenefits",
      "outputs": [],
      "stateMutability": "nonpayable",
      "type": "function"
    },
    {
      "inputs": [
        {
          "internalType": "uint256",
          "name": "_weiToPay",
          "type": "uint256"
        },
        {
          "internalType": "address",
          "name": "_to",
          "type": "address"
        }
      ],
      "name": "payPrize",
      "outputs": [],
      "stateMutability": "nonpayable",
      "type": "function"
    },
    {
      "inputs": [
        {
          "internalType": "address",
          "name": "_to",
          "type": "address"
        },
        {
          "internalType": "uint256",
          "name": "_tokenId",
          "type": "uint256"
        },
        {
          "internalType": "uint256",
          "name": "_totalShares",
          "type": "uint256"
        }
      ],
      "name": "mintBoleto",
      "outputs": [],
      "stateMutability": "nonpayable",
      "type": "function"
    },
    {
      "inputs": [],
      "name": "infoLottery",
      "outputs": [
        {
          "internalType": "string",
          "name": "",
          "type": "string"
        },
        {
          "internalType": "uint256",
          "name": "",
          "type": "uint256"
        },
        {
          "internalType": "address",
          "name": "",
          "type": "address"
        },
        {
          "internalType": "uint256",
          "name": "",
          "type": "uint256"
        },
        {
          "internalType": "uint256",
          "name": "",
          "type": "uint256"
        },
        {
          "internalType": "uint256",
          "name": "",
          "type": "uint256"
        },
        {
          "internalType": "uint256",
          "name": "",
          "type": "uint256"
        },
        {
          "internalType": "uint256",
          "name": "",
          "type": "uint256"
        },
        {
          "internalType": "uint32",
          "name": "",
          "type": "uint32"
        },
        {
          "internalType": "uint256[]",
          "name": "",
          "type": "uint256[]"
        }
      ],
      "stateMutability": "view",
      "type": "function"
    },
    {
      "inputs": [],
      "name": "setLotteryFinished",
      "outputs": [],
      "stateMutability": "nonpayable",
      "type": "function"
    },
    {
      "inputs": [],
      "name": "setLotteryFailed",
      "outputs": [],
      "stateMutability": "nonpayable",
      "type": "function"
    },
    {
      "inputs": [],
      "name": "isLotteryFinished",
      "outputs": [
        {
          "internalType": "bool",
          "name": "",
          "type": "bool"
        }
      ],
      "stateMutability": "view",
      "type": "function"
    },
    {
      "inputs": [],
      "name": "isLotteryFailed",
      "outputs": [
        {
          "internalType": "bool",
          "name": "",
          "type": "bool"
        }
      ],
      "stateMutability": "view",
      "type": "function"
    },
    {
      "inputs": [],
      "name": "getTotalPurchasedTickets",
      "outputs": [
        {
          "internalType": "uint256",
          "name": "",
          "type": "uint256"
        }
      ],
      "stateMutability": "view",
      "type": "function"
    },
    {
      "inputs": [
        {
          "internalType": "uint256[]",
          "name": "randomWords",
          "type": "uint256[]"
        }
      ],
      "name": "setWinnerTickets",
      "outputs": [
        {
          "internalType": "uint256[]",
          "name": "",
          "type": "uint256[]"
        }
      ],
      "stateMutability": "nonpayable",
      "type": "function"
    },
    {
      "inputs": [],
      "name": "getPrizeLottery",
      "outputs": [
        {
          "internalType": "uint256",
          "name": "",
          "type": "uint256"
        }
      ],
      "stateMutability": "view",
      "type": "function"
    },
    {
      "inputs": [
        {
          "internalType": "uint256",
          "name": "_tokenId",
          "type": "uint256"
        }
      ],
      "name": "isWinnerTicket",
      "outputs": [
        {
          "internalType": "bool",
          "name": "",
          "type": "bool"
        }
      ],
      "stateMutability": "view",
      "type": "function"
    },
    {
      "inputs": [
        {
          "internalType": "uint256",
          "name": "_tokenId",
          "type": "uint256"
        }
      ],
      "name": "getTicketToShare",
      "outputs": [
        {
          "components": [
            {
              "internalType": "uint256",
              "name": "tokenId",
              "type": "uint256"
            },
            {
              "internalType": "address",
              "name": "shares",
              "type": "address"
            }
          ],
          "internalType": "struct Lottery.share",
          "name": "",
          "type": "tuple"
        }
      ],
      "stateMutability": "view",
      "type": "function"
    }
  ],
  "bytecode": "0x60806040526040516200633f3803806200633f8339818101604052810190620000299190620005e5565b808181600090816200003c919062000924565b5080600190816200004e919062000924565b50505083341462000096576040517f08c379a00000000000000000000000000000000000000000000000000000000081526004016200008d9062000a92565b60405180910390fd5b60008911620000dc576040517f08c379a0000000000000000000000000000000000000000000000000000000008152600401620000d39062000b2a565b60405180910390fd5b6000881162000122576040517f08c379a0000000000000000000000000000000000000000000000000000000008152600401620001199062000bc2565b60405180910390fd5b6000871162000168576040517f08c379a00000000000000000000000000000000000000000000000000000000081526004016200015f9062000c5a565b60405180910390fd5b60008511620001ae576040517f08c379a0000000000000000000000000000000000000000000000000000000008152600401620001a59062000cf2565b60405180910390fd5b60008363ffffffff1611620001fa576040517f08c379a0000000000000000000000000000000000000000000000000000000008152600401620001f19062000d8a565b60405180910390fd5b4282116200023f576040517f08c379a0000000000000000000000000000000000000000000000000000000008152600401620002369062000e22565b60405180910390fd5b6000841162000285576040517f08c379a00000000000000000000000000000000000000000000000000000000081526004016200027c9062000eba565b60405180910390fd5b8360098190555083600d8190555082600b60006101000a81548163ffffffff021916908363ffffffff16021790555088600881905550876006819055508660078190555085601360006101000a81548173ffffffffffffffffffffffffffffffffffffffff021916908373ffffffffffffffffffffffffffffffffffffffff16021790555084600c819055506000601360146101000a81548160ff021916908360028111156200033a576200033962000edc565b5b021790555081600e8190555080600a908162000357919062000924565b5050505050505050505062000f0b565b6000604051905090565b600080fd5b600080fd5b6000819050919050565b62000390816200037b565b81146200039c57600080fd5b50565b600081519050620003b08162000385565b92915050565b600073ffffffffffffffffffffffffffffffffffffffff82169050919050565b6000620003e382620003b6565b9050919050565b620003f581620003d6565b81146200040157600080fd5b50565b6000815190506200041581620003ea565b92915050565b600063ffffffff82169050919050565b62000436816200041b565b81146200044257600080fd5b50565b60008151905062000456816200042b565b92915050565b600080fd5b600080fd5b6000601f19601f8301169050919050565b7f4e487b7100000000000000000000000000000000000000000000000000000000600052604160045260246000fd5b620004b18262000466565b810181811067ffffffffffffffff82111715620004d357620004d262000477565b5b80604052505050565b6000620004e862000367565b9050620004f68282620004a6565b919050565b600067ffffffffffffffff82111562000519576200051862000477565b5b620005248262000466565b9050602081019050919050565b60005b838110156200055157808201518184015260208101905062000534565b8381111562000561576000848401525b50505050565b60006200057e6200057884620004fb565b620004dc565b9050828152602081018484840111156200059d576200059c62000461565b5b620005aa84828562000531565b509392505050565b600082601f830112620005ca57620005c96200045c565b5b8151620005dc84826020860162000567565b91505092915050565b60008060008060008060008060006101208a8c0312156200060b576200060a62000371565b5b60006200061b8c828d016200039f565b99505060206200062e8c828d016200039f565b9850506040620006418c828d016200039f565b9750506060620006548c828d0162000404565b9650506080620006678c828d016200039f565b95505060a06200067a8c828d016200039f565b94505060c06200068d8c828d0162000445565b93505060e0620006a08c828d016200039f565b9250506101008a015167ffffffffffffffff811115620006c557620006c462000376565b5b620006d38c828d01620005b2565b9150509295985092959850929598565b600081519050919050565b7f4e487b7100000000000000000000000000000000000000000000000000000000600052602260045260246000fd5b600060028204905060018216806200073657607f821691505b6020821081036200074c576200074b620006ee565b5b50919050565b60008190508160005260206000209050919050565b60006020601f8301049050919050565b600082821b905092915050565b600060088302620007b67fffffffffffffffffffffffffffffffffffffffffffffffffffffffffffffffff8262000777565b620007c2868362000777565b95508019841693508086168417925050509392505050565b6000819050919050565b600062000805620007ff620007f9846200037b565b620007da565b6200037b565b9050919050565b6000819050919050565b6200082183620007e4565b6200083962000830826200080c565b84845462000784565b825550505050565b600090565b6200085062000841565b6200085d81848462000816565b505050565b5b8181101562000885576200087960008262000846565b60018101905062000863565b5050565b601f821115620008d4576200089e8162000752565b620008a98462000767565b81016020851015620008b9578190505b620008d1620008c88562000767565b83018262000862565b50505b505050565b600082821c905092915050565b6000620008f960001984600802620008d9565b1980831691505092915050565b6000620009148383620008e6565b9150826002028217905092915050565b6200092f82620006e3565b67ffffffffffffffff8111156200094b576200094a62000477565b5b6200095782546200071d565b6200096482828562000889565b600060209050601f8311600181146200099c576000841562000987578287015190505b62000993858262000906565b86555062000a03565b601f198416620009ac8662000752565b60005b82811015620009d657848901518255600182019150602085019450602081019050620009af565b86831015620009f65784890151620009f2601f891682620008e6565b8355505b6001600288020188555050505b505050505050565b600082825260208201905092915050565b7f4e656365736974617320656e76696172206d617320455448207061726120656c60008201527f207072656d696f00000000000000000000000000000000000000000000000000602082015250565b600062000a7a60278362000a0b565b915062000a878262000a1c565b604082019050919050565b6000602082019050818103600083015262000aad8162000a6b565b9050919050565b7f456c20636f7374652064652063616461207469636b6574207469656e6520717560008201527f6520736572207375706572696f72206120300000000000000000000000000000602082015250565b600062000b1260328362000a0b565b915062000b1f8262000ab4565b604082019050919050565b6000602082019050818103600083015262000b458162000b03565b9050919050565b7f456c20746f74616c206465206e756d65726f73207469656e652071756520736560008201527f72207375706572696f7220612030000000000000000000000000000000000000602082015250565b600062000baa602e8362000a0b565b915062000bb78262000b4c565b604082019050919050565b6000602082019050818103600083015262000bdd8162000b9b565b9050919050565b7f456c20746f74616c20646520736572696573207469656e65207175652073657260008201527f207375706572696f722061203000000000000000000000000000000000000000602082015250565b600062000c42602d8362000a0b565b915062000c4f8262000be4565b604082019050919050565b6000602082019050818103600083015262000c758162000c33565b9050919050565b7f456c206e756d65726f206d696e696d6f206465207061727469636970616e746560008201527f73207469656e652071756520736572207375706572696f722061203000000000602082015250565b600062000cda603c8362000a0b565b915062000ce78262000c7c565b604082019050919050565b6000602082019050818103600083015262000d0d8162000ccb565b9050919050565b7f456c206e756d65726f2064652067616e61646f726573207469656e652071756560008201527f20736572207375706572696f7220612030000000000000000000000000000000602082015250565b600062000d7260318362000a0b565b915062000d7f8262000d14565b604082019050919050565b6000602082019050818103600083015262000da58162000d63565b9050919050565b7f4c61206665636861207469656e652071756520736572207375706572696f722060008201527f61206c612061637475616c000000000000000000000000000000000000000000602082015250565b600062000e0a602b8362000a0b565b915062000e178262000dac565b604082019050919050565b6000602082019050818103600083015262000e3d8162000dfb565b9050919050565b7f456c207072656d696f20746f74616c207469656e65207175652073657220737560008201527f706572696f722061203000000000000000000000000000000000000000000000602082015250565b600062000ea2602a8362000a0b565b915062000eaf8262000e44565b604082019050919050565b6000602082019050818103600083015262000ed58162000e93565b9050919050565b7f4e487b7100000000000000000000000000000000000000000000000000000000600052602160045260246000fd5b6154248062000f1b6000396000f3fe608060405260043610620001ab5760003560e01c80636352211e11620000e5578063be2e69051162000097578063da9d9331116200006d578063da9d93311462000630578063dae782ef146200065e578063e985e9c514620006a2578063fe020b8014620006e657620001b3565b8063be2e69051462000599578063c87b56dd14620005d2578063d726c730146200061657620001b3565b80636352211e146200044157806370a08231146200048557806378591f0814620004c957806395d89b41146200050d578063a22cb465146200053d578063b88d4fde146200056b57620001b3565b80631091ce5f116200015d57806335cc590f116200013357806335cc590f14620003735780633d0d832214620003b757806342842e0e14620003e55780634d0f8201146200041357620001b3565b80631091ce5f14620002e55780631609443a146200031557806323b872dd146200034557620001b3565b806301561df114620001b557806301ffc9a714620001cf57806306fdde03146200021357806307a805051462000243578063081812fc1462000273578063095ea7b314620002b757620001b3565b36620001b357005b005b348015620001c257600080fd5b50620001cd62000716565b005b348015620001dc57600080fd5b50620001fb6004803603810190620001f59190620026fe565b620007d9565b6040516200020a91906200274d565b60405180910390f35b3480156200022057600080fd5b506200022b620008bf565b6040516200023a91906200280e565b60405180910390f35b3480156200025057600080fd5b506200025b62000959565b6040516200026a91906200274d565b60405180910390f35b3480156200028057600080fd5b506200029f60048036038101906200029991906200286d565b6200099c565b604051620002ae9190620028e4565b60405180910390f35b348015620002c457600080fd5b50620002e36004803603810190620002dd919062002932565b620009e4565b005b348015620002f257600080fd5b50620002fd62000b0c565b6040516200030c91906200274d565b60405180910390f35b3480156200032257600080fd5b506200032d62000b50565b6040516200033c91906200298a565b60405180910390f35b3480156200035257600080fd5b506200037160048036038101906200036b9190620029a7565b62000b5d565b005b3480156200038057600080fd5b506200039f60048036038101906200039991906200286d565b62000bc6565b604051620003ae919062002a58565b60405180910390f35b348015620003c457600080fd5b50620003e36004803603810190620003dd919062002a75565b62000c55565b005b348015620003f257600080fd5b506200041160048036038101906200040b9190620029a7565b62000db6565b005b3480156200042057600080fd5b506200043f600480360381019062000439919062002abc565b62000dd8565b005b3480156200044e57600080fd5b506200046d60048036038101906200046791906200286d565b62000f7d565b6040516200047c9190620028e4565b60405180910390f35b3480156200049257600080fd5b50620004b16004803603810190620004ab919062002abc565b62001031565b604051620004c091906200298a565b60405180910390f35b348015620004d657600080fd5b50620004f56004803603810190620004ef91906200286d565b620010eb565b6040516200050491906200274d565b60405180910390f35b3480156200051a57600080fd5b506200052562001115565b6040516200053491906200280e565b60405180910390f35b3480156200054a57600080fd5b5062000569600480360381019062000563919062002b1f565b620011af565b005b3480156200057857600080fd5b5062000597600480360381019062000591919062002cb7565b620011c9565b005b348015620005a657600080fd5b50620005b162001234565b604051620005c99a9998979695949392919062002e26565b60405180910390f35b348015620005df57600080fd5b50620005fe6004803603810190620005f891906200286d565b62001398565b6040516200060d91906200280e565b60405180910390f35b3480156200062357600080fd5b506200062e6200140a565b005b3480156200063d57600080fd5b506200065c600480360381019062000656919062002ee4565b620014cd565b005b3480156200066b57600080fd5b506200068a60048036038101906200068491906200301b565b62001690565b6040516200069991906200306c565b60405180910390f35b348015620006af57600080fd5b50620006ce6004803603810190620006c8919062003090565b62001887565b604051620006dd91906200274d565b60405180910390f35b348015620006f357600080fd5b50620006fe6200191b565b6040516200070d91906200298a565b60405180910390f35b601360009054906101000a900473ffffffffffffffffffffffffffffffffffffffff1673ffffffffffffffffffffffffffffffffffffffff163373ffffffffffffffffffffffffffffffffffffffff1614620007a9576040517f08c379a0000000000000000000000000000000000000000000000000000000008152600401620007a09062003127565b60405180910390fd5b6002601360146101000a81548160ff02191690836002811115620007d257620007d162003149565b5b0217905550565b60007f80ac58cd000000000000000000000000000000000000000000000000000000007bffffffffffffffffffffffffffffffffffffffffffffffffffffffff1916827bffffffffffffffffffffffffffffffffffffffffffffffffffffffff19161480620008a557507f5b5e139f000000000000000000000000000000000000000000000000000000007bffffffffffffffffffffffffffffffffffffffffffffffffffffffff1916827bffffffffffffffffffffffffffffffffffffffffffffffffffffffff1916145b80620008b85750620008b78262001937565b5b9050919050565b606060008054620008d090620031a7565b80601f0160208091040260200160405190810160405280929190818152602001828054620008fe90620031a7565b80156200094f5780601f1062000923576101008083540402835291602001916200094f565b820191906000526020600020905b8154815290600101906020018083116200093157829003601f168201915b5050505050905090565b600060028081111562000971576200097062003149565b5b601360149054906101000a900460ff16600281111562000996576200099562003149565b5b14905090565b6000620009a982620019a1565b6004600083815260200190815260200160002060009054906101000a900473ffffffffffffffffffffffffffffffffffffffff169050919050565b6000620009f18262000f7d565b90508073ffffffffffffffffffffffffffffffffffffffff168373ffffffffffffffffffffffffffffffffffffffff160362000a64576040517f08c379a000000000000000000000000000000000000000000000000000000000815260040162000a5b9062003252565b60405180910390fd5b8073ffffffffffffffffffffffffffffffffffffffff1662000a85620019f1565b73ffffffffffffffffffffffffffffffffffffffff16148062000ab9575062000ab88162000ab2620019f1565b62001887565b5b62000afb576040517f08c379a000000000000000000000000000000000000000000000000000000000815260040162000af290620032ea565b60405180910390fd5b62000b078383620019f9565b505050565b60006001600281111562000b255762000b2462003149565b5b601360149054906101000a900460ff16600281111562000b4a5762000b4962003149565b5b14905090565b6000600f80549050905090565b62000b7262000b6b620019f1565b8262001ab4565b62000bb4576040517f08c379a000000000000000000000000000000000000000000000000000000000815260040162000bab9062003382565b60405180910390fd5b62000bc183838362001b51565b505050565b62000bd06200264f565b60106000838152602001908152602001600020604051806040016040529081600082015481526020016001820160009054906101000a900473ffffffffffffffffffffffffffffffffffffffff1673ffffffffffffffffffffffffffffffffffffffff1673ffffffffffffffffffffffffffffffffffffffff16815250509050919050565b601360009054906101000a900473ffffffffffffffffffffffffffffffffffffffff1673ffffffffffffffffffffffffffffffffffffffff163373ffffffffffffffffffffffffffffffffffffffff161462000ce8576040517f08c379a000000000000000000000000000000000000000000000000000000000815260040162000cdf9062003127565b60405180910390fd5b60008173ffffffffffffffffffffffffffffffffffffffff168360405162000d1090620033d9565b60006040518083038185875af1925050503d806000811462000d4f576040519150601f19603f3d011682016040523d82523d6000602084013e62000d54565b606091505b505090508062000d9b576040517f08c379a000000000000000000000000000000000000000000000000000000000815260040162000d929062003440565b60405180910390fd5b82600d5462000dab919062003491565b600d81905550505050565b62000dd383838360405180602001604052806000815250620011c9565b505050565b601360009054906101000a900473ffffffffffffffffffffffffffffffffffffffff1673ffffffffffffffffffffffffffffffffffffffff163373ffffffffffffffffffffffffffffffffffffffff161462000e6b576040517f08c379a000000000000000000000000000000000000000000000000000000000815260040162000e629062003127565b60405180910390fd5b6000600d544762000e7d919062003491565b90506000811162000ec5576040517f08c379a000000000000000000000000000000000000000000000000000000000815260040162000ebc906200351c565b60405180910390fd5b60008273ffffffffffffffffffffffffffffffffffffffff168260405162000eed90620033d9565b60006040518083038185875af1925050503d806000811462000f2c576040519150601f19603f3d011682016040523d82523d6000602084013e62000f31565b606091505b505090508062000f78576040517f08c379a000000000000000000000000000000000000000000000000000000000815260040162000f6f9062003440565b60405180910390fd5b505050565b6000806002600084815260200190815260200160002060009054906101000a900473ffffffffffffffffffffffffffffffffffffffff169050600073ffffffffffffffffffffffffffffffffffffffff168173ffffffffffffffffffffffffffffffffffffffff160362001028576040517f08c379a00000000000000000000000000000000000000000000000000000000081526004016200101f906200358e565b60405180910390fd5b80915050919050565b60008073ffffffffffffffffffffffffffffffffffffffff168273ffffffffffffffffffffffffffffffffffffffff1603620010a4576040517f08c379a00000000000000000000000000000000000000000000000000000000081526004016200109b9062003626565b60405180910390fd5b600360008373ffffffffffffffffffffffffffffffffffffffff1673ffffffffffffffffffffffffffffffffffffffff168152602001908152602001600020549050919050565b60006012600083815260200190815260200160002060009054906101000a900460ff169050919050565b6060600180546200112690620031a7565b80601f01602080910402602001604051908101604052809291908181526020018280546200115490620031a7565b8015620011a55780601f106200117957610100808354040283529160200191620011a5565b820191906000526020600020905b8154815290600101906020018083116200118757829003601f168201915b5050505050905090565b620011c5620011bd620019f1565b838362001dc9565b5050565b620011de620011d7620019f1565b8362001ab4565b62001220576040517f08c379a0000000000000000000000000000000000000000000000000000000008152600401620012179062003382565b60405180910390fd5b6200122e8484848462001f3a565b50505050565b60606000806000806000806000806060600a600e54601360009054906101000a900473ffffffffffffffffffffffffffffffffffffffff16600654600754600854600c54600954600b60009054906101000a900463ffffffff1660118980546200129e90620031a7565b80601f0160208091040260200160405190810160405280929190818152602001828054620012cc90620031a7565b80156200131d5780601f10620012f1576101008083540402835291602001916200131d565b820191906000526020600020905b815481529060010190602001808311620012ff57829003601f168201915b50505050509950808054806020026020016040519081016040528092919081815260200182805480156200137157602002820191906000526020600020905b8154815260200190600101908083116200135c575b50505050509050995099509950995099509950995099509950995090919293949596979899565b6060620013a582620019a1565b6000620013b162001f9d565b90506000815111620013d3576040518060200160405280600081525062001402565b80620013df8462001fb4565b604051602001620013f29291906200368a565b6040516020818303038152906040525b915050919050565b601360009054906101000a900473ffffffffffffffffffffffffffffffffffffffff1673ffffffffffffffffffffffffffffffffffffffff163373ffffffffffffffffffffffffffffffffffffffff16146200149d576040517f08c379a0000000000000000000000000000000000000000000000000000000008152600401620014949062003127565b60405180910390fd5b6001601360146101000a81548160ff02191690836002811115620014c657620014c562003149565b5b0217905550565b601360009054906101000a900473ffffffffffffffffffffffffffffffffffffffff1673ffffffffffffffffffffffffffffffffffffffff163373ffffffffffffffffffffffffffffffffffffffff161462001560576040517f08c379a0000000000000000000000000000000000000000000000000000000008152600401620015579062003127565b60405180910390fd5b6200156c83836200212d565b60008382601360009054906101000a900473ffffffffffffffffffffffffffffffffffffffff16604051620015a1906200267f565b620015af93929190620036b2565b604051809103906000f080158015620015cc573d6000803e3d6000fd5b50905060405180604001604052808481526020018273ffffffffffffffffffffffffffffffffffffffff16815250601060008581526020019081526020016000206000820151816000015560208201518160010160006101000a81548173ffffffffffffffffffffffffffffffffffffffff021916908373ffffffffffffffffffffffffffffffffffffffff160217905550905050600f83908060018154018082558091505060019003906000526020600020016000909190919091505550505050565b6060601360009054906101000a900473ffffffffffffffffffffffffffffffffffffffff1673ffffffffffffffffffffffffffffffffffffffff163373ffffffffffffffffffffffffffffffffffffffff161462001725576040517f08c379a00000000000000000000000000000000000000000000000000000000081526004016200171c9062003127565b60405180910390fd5b60005b82518110156200182c576000600f8080549050858481518110620017515762001750620036ef565b5b60200260200101516200176591906200374d565b81548110620017795762001778620036ef565b5b90600052602060002001549050601181908060018154018082558091505060019003906000526020600020016000909190919091505560016012600083815260200190815260200160002060006101000a81548160ff02191690831515021790555062001815600f80549050858481518110620017fb57620017fa620036ef565b5b60200260200101516200180f91906200374d565b6200214d565b508080620018239062003785565b91505062001728565b5060118054806020026020016040519081016040528092919081815260200182805480156200187b57602002820191906000526020600020905b81548152602001906001019080831162001866575b50505050509050919050565b6000600560008473ffffffffffffffffffffffffffffffffffffffff1673ffffffffffffffffffffffffffffffffffffffff16815260200190815260200160002060008373ffffffffffffffffffffffffffffffffffffffff1673ffffffffffffffffffffffffffffffffffffffff16815260200190815260200160002060009054906101000a900460ff16905092915050565b6000601180549050600954620019329190620037d2565b905090565b60007f01ffc9a7000000000000000000000000000000000000000000000000000000007bffffffffffffffffffffffffffffffffffffffffffffffffffffffff1916827bffffffffffffffffffffffffffffffffffffffffffffffffffffffff1916149050919050565b620019ac81620021d5565b620019ee576040517f08c379a0000000000000000000000000000000000000000000000000000000008152600401620019e5906200358e565b60405180910390fd5b50565b600033905090565b816004600083815260200190815260200160002060006101000a81548173ffffffffffffffffffffffffffffffffffffffff021916908373ffffffffffffffffffffffffffffffffffffffff160217905550808273ffffffffffffffffffffffffffffffffffffffff1662001a6e8362000f7d565b73ffffffffffffffffffffffffffffffffffffffff167f8c5be1e5ebec7d5bd14f71427d1e84f3dd0314c0f7b2291e5b200ac8c7c3b92560405160405180910390a45050565b60008062001ac28362000f7d565b90508073ffffffffffffffffffffffffffffffffffffffff168473ffffffffffffffffffffffffffffffffffffffff16148062001b07575062001b06818562001887565b5b8062001b4857508373ffffffffffffffffffffffffffffffffffffffff1662001b30846200099c565b73ffffffffffffffffffffffffffffffffffffffff16145b91505092915050565b8273ffffffffffffffffffffffffffffffffffffffff1662001b738262000f7d565b73ffffffffffffffffffffffffffffffffffffffff161462001bcc576040517f08c379a000000000000000000000000000000000000000000000000000000000815260040162001bc39062003880565b60405180910390fd5b600073ffffffffffffffffffffffffffffffffffffffff168273ffffffffffffffffffffffffffffffffffffffff160362001c3e576040517f08c379a000000000000000000000000000000000000000000000000000000000815260040162001c359062003918565b60405180910390fd5b62001c4b83838362002241565b62001c58600082620019f9565b6001600360008573ffffffffffffffffffffffffffffffffffffffff1673ffffffffffffffffffffffffffffffffffffffff168152602001908152602001600020600082825462001caa919062003491565b925050819055506001600360008473ffffffffffffffffffffffffffffffffffffffff1673ffffffffffffffffffffffffffffffffffffffff168152602001908152602001600020600082825462001d0391906200393a565b92505081905550816002600083815260200190815260200160002060006101000a81548173ffffffffffffffffffffffffffffffffffffffff021916908373ffffffffffffffffffffffffffffffffffffffff160217905550808273ffffffffffffffffffffffffffffffffffffffff168473ffffffffffffffffffffffffffffffffffffffff167fddf252ad1be2c89b69c2b068fc378daa952ba7f163c4a11628f55a4df523b3ef60405160405180910390a462001dc483838362002246565b505050565b8173ffffffffffffffffffffffffffffffffffffffff168373ffffffffffffffffffffffffffffffffffffffff160362001e3a576040517f08c379a000000000000000000000000000000000000000000000000000000000815260040162001e3190620039e7565b60405180910390fd5b80600560008573ffffffffffffffffffffffffffffffffffffffff1673ffffffffffffffffffffffffffffffffffffffff16815260200190815260200160002060008473ffffffffffffffffffffffffffffffffffffffff1673ffffffffffffffffffffffffffffffffffffffff16815260200190815260200160002060006101000a81548160ff0219169083151502179055508173ffffffffffffffffffffffffffffffffffffffff168373ffffffffffffffffffffffffffffffffffffffff167f17307eab39ab6107e8899845ad3d59bd9653f200f220920489ca2b5937696c318360405162001f2d91906200274d565b60405180910390a3505050565b62001f4784848462001b51565b62001f55848484846200224b565b62001f97576040517f08c379a000000000000000000000000000000000000000000000000000000000815260040162001f8e9062003a7f565b60405180910390fd5b50505050565b606060405180602001604052806000815250905090565b60606000820362001ffd576040518060400160405280600181526020017f3000000000000000000000000000000000000000000000000000000000000000815250905062002128565b600082905060005b60008214620020355780806200201b9062003785565b915050600a826200202d9190620037d2565b915062002005565b60008167ffffffffffffffff81111562002054576200205362002b70565b5b6040519080825280601f01601f191660200182016040528015620020875781602001600182028036833780820191505090505b5090505b600085146200212157600182620020a3919062003491565b9150600a85620020b491906200374d565b6030620020c291906200393a565b60f81b818381518110620020db57620020da620036ef565b5b60200101907effffffffffffffffffffffffffffffffffffffffffffffffffffffffffffff1916908160001a905350600a85620021199190620037d2565b94506200208b565b8093505050505b919050565b62002149828260405180602001604052806000815250620023e3565b5050565b600f6001600f8054905062002163919062003491565b81548110620021775762002176620036ef565b5b9060005260206000200154600f8281548110620021995762002198620036ef565b5b9060005260206000200181905550600f805480620021bc57620021bb62003aa1565b5b6001900381819060005260206000200160009055905550565b60008073ffffffffffffffffffffffffffffffffffffffff166002600084815260200190815260200160002060009054906101000a900473ffffffffffffffffffffffffffffffffffffffff1673ffffffffffffffffffffffffffffffffffffffff1614159050919050565b505050565b505050565b60006200226e8473ffffffffffffffffffffffffffffffffffffffff1662002445565b15620023d6578373ffffffffffffffffffffffffffffffffffffffff1663150b7a026200229a620019f1565b8786866040518563ffffffff1660e01b8152600401620022be949392919062003b2d565b6020604051808303816000875af1925050508015620022fd57506040513d601f19601f82011682018060405250810190620022fa919062003b98565b60015b62002385573d806000811462002330576040519150601f19603f3d011682016040523d82523d6000602084013e62002335565b606091505b5060008151036200237d576040517f08c379a0000000000000000000000000000000000000000000000000000000008152600401620023749062003a7f565b60405180910390fd5b805181602001fd5b63150b7a0260e01b7bffffffffffffffffffffffffffffffffffffffffffffffffffffffff1916817bffffffffffffffffffffffffffffffffffffffffffffffffffffffff191614915050620023db565b600190505b949350505050565b620023ef838362002468565b620023fe60008484846200224b565b62002440576040517f08c379a0000000000000000000000000000000000000000000000000000000008152600401620024379062003a7f565b60405180910390fd5b505050565b6000808273ffffffffffffffffffffffffffffffffffffffff163b119050919050565b600073ffffffffffffffffffffffffffffffffffffffff168273ffffffffffffffffffffffffffffffffffffffff1603620024da576040517f08c379a0000000000000000000000000000000000000000000000000000000008152600401620024d19062003c1a565b60405180910390fd5b620024e581620021d5565b1562002528576040517f08c379a00000000000000000000000000000000000000000000000000000000081526004016200251f9062003c8c565b60405180910390fd5b620025366000838362002241565b6001600360008473ffffffffffffffffffffffffffffffffffffffff1673ffffffffffffffffffffffffffffffffffffffff16815260200190815260200160002060008282546200258891906200393a565b92505081905550816002600083815260200190815260200160002060006101000a81548173ffffffffffffffffffffffffffffffffffffffff021916908373ffffffffffffffffffffffffffffffffffffffff160217905550808273ffffffffffffffffffffffffffffffffffffffff16600073ffffffffffffffffffffffffffffffffffffffff167fddf252ad1be2c89b69c2b068fc378daa952ba7f163c4a11628f55a4df523b3ef60405160405180910390a46200264b6000838362002246565b5050565b604051806040016040528060008152602001600073ffffffffffffffffffffffffffffffffffffffff1681525090565b6117408062003caf83390190565b6000604051905090565b600080fd5b600080fd5b60007fffffffff0000000000000000000000000000000000000000000000000000000082169050919050565b620026d881620026a1565b8114620026e457600080fd5b50565b600081359050620026f881620026cd565b92915050565b60006020828403121562002717576200271662002697565b5b60006200272784828501620026e7565b91505092915050565b60008115159050919050565b620027478162002730565b82525050565b60006020820190506200276460008301846200273c565b92915050565b600081519050919050565b600082825260208201905092915050565b60005b83811015620027a657808201518184015260208101905062002789565b83811115620027b6576000848401525b50505050565b6000601f19601f8301169050919050565b6000620027da826200276a565b620027e6818562002775565b9350620027f881856020860162002786565b6200280381620027bc565b840191505092915050565b600060208201905081810360008301526200282a8184620027cd565b905092915050565b6000819050919050565b620028478162002832565b81146200285357600080fd5b50565b60008135905062002867816200283c565b92915050565b60006020828403121562002886576200288562002697565b5b6000620028968482850162002856565b91505092915050565b600073ffffffffffffffffffffffffffffffffffffffff82169050919050565b6000620028cc826200289f565b9050919050565b620028de81620028bf565b82525050565b6000602082019050620028fb6000830184620028d3565b92915050565b6200290c81620028bf565b81146200291857600080fd5b50565b6000813590506200292c8162002901565b92915050565b600080604083850312156200294c576200294b62002697565b5b60006200295c858286016200291b565b92505060206200296f8582860162002856565b9150509250929050565b620029848162002832565b82525050565b6000602082019050620029a1600083018462002979565b92915050565b600080600060608486031215620029c357620029c262002697565b5b6000620029d3868287016200291b565b9350506020620029e6868287016200291b565b9250506040620029f98682870162002856565b9150509250925092565b62002a0e8162002832565b82525050565b62002a1f81620028bf565b82525050565b60408201600082015162002a3d600085018262002a03565b50602082015162002a52602085018262002a14565b50505050565b600060408201905062002a6f600083018462002a25565b92915050565b6000806040838503121562002a8f5762002a8e62002697565b5b600062002a9f8582860162002856565b925050602062002ab2858286016200291b565b9150509250929050565b60006020828403121562002ad55762002ad462002697565b5b600062002ae5848285016200291b565b91505092915050565b62002af98162002730565b811462002b0557600080fd5b50565b60008135905062002b198162002aee565b92915050565b6000806040838503121562002b395762002b3862002697565b5b600062002b49858286016200291b565b925050602062002b5c8582860162002b08565b9150509250929050565b600080fd5b600080fd5b7f4e487b7100000000000000000000000000000000000000000000000000000000600052604160045260246000fd5b62002baa82620027bc565b810181811067ffffffffffffffff8211171562002bcc5762002bcb62002b70565b5b80604052505050565b600062002be16200268d565b905062002bef828262002b9f565b919050565b600067ffffffffffffffff82111562002c125762002c1162002b70565b5b62002c1d82620027bc565b9050602081019050919050565b82818337600083830152505050565b600062002c5062002c4a8462002bf4565b62002bd5565b90508281526020810184848401111562002c6f5762002c6e62002b6b565b5b62002c7c84828562002c2a565b509392505050565b600082601f83011262002c9c5762002c9b62002b66565b5b813562002cae84826020860162002c39565b91505092915050565b6000806000806080858703121562002cd45762002cd362002697565b5b600062002ce4878288016200291b565b945050602062002cf7878288016200291b565b935050604062002d0a8782880162002856565b925050606085013567ffffffffffffffff81111562002d2e5762002d2d6200269c565b5b62002d3c8782880162002c84565b91505092959194509250565b600063ffffffff82169050919050565b62002d638162002d48565b82525050565b600081519050919050565b600082825260208201905092915050565b6000819050602082019050919050565b600062002da3838362002a03565b60208301905092915050565b6000602082019050919050565b600062002dc98262002d69565b62002dd5818562002d74565b935062002de28362002d85565b8060005b8381101562002e1957815162002dfd888262002d95565b975062002e0a8362002daf565b92505060018101905062002de6565b5085935050505092915050565b600061014082019050818103600083015262002e43818d620027cd565b905062002e54602083018c62002979565b62002e63604083018b620028d3565b62002e72606083018a62002979565b62002e81608083018962002979565b62002e9060a083018862002979565b62002e9f60c083018762002979565b62002eae60e083018662002979565b62002ebe61010083018562002d58565b81810361012083015262002ed3818462002dbc565b90509b9a5050505050505050505050565b60008060006060848603121562002f005762002eff62002697565b5b600062002f10868287016200291b565b935050602062002f238682870162002856565b925050604062002f368682870162002856565b9150509250925092565b600067ffffffffffffffff82111562002f5e5762002f5d62002b70565b5b602082029050602081019050919050565b600080fd5b600062002f8b62002f858462002f40565b62002bd5565b9050808382526020820190506020840283018581111562002fb15762002fb062002f6f565b5b835b8181101562002fde578062002fc9888262002856565b84526020840193505060208101905062002fb3565b5050509392505050565b600082601f830112620030005762002fff62002b66565b5b81356200301284826020860162002f74565b91505092915050565b60006020828403121562003034576200303362002697565b5b600082013567ffffffffffffffff8111156200305557620030546200269c565b5b620030638482850162002fe8565b91505092915050565b6000602082019050818103600083015262003088818462002dbc565b905092915050565b60008060408385031215620030aa57620030a962002697565b5b6000620030ba858286016200291b565b9250506020620030cd858286016200291b565b9150509250929050565b7f43616c6c6572206973206e6f7420746865206f776e6572000000000000000000600082015250565b60006200310f60178362002775565b91506200311c82620030d7565b602082019050919050565b60006020820190508181036000830152620031428162003100565b9050919050565b7f4e487b7100000000000000000000000000000000000000000000000000000000600052602160045260246000fd5b7f4e487b7100000000000000000000000000000000000000000000000000000000600052602260045260246000fd5b60006002820490506001821680620031c057607f821691505b602082108103620031d657620031d562003178565b5b50919050565b7f4552433732313a20617070726f76616c20746f2063757272656e74206f776e6560008201527f7200000000000000000000000000000000000000000000000000000000000000602082015250565b60006200323a60218362002775565b91506200324782620031dc565b604082019050919050565b600060208201905081810360008301526200326d816200322b565b9050919050565b7f4552433732313a20617070726f76652063616c6c6572206973206e6f7420746f60008201527f6b656e206f776e6572206e6f7220617070726f76656420666f7220616c6c0000602082015250565b6000620032d2603e8362002775565b9150620032df8262003274565b604082019050919050565b600060208201905081810360008301526200330581620032c3565b9050919050565b7f4552433732313a2063616c6c6572206973206e6f7420746f6b656e206f776e6560008201527f72206e6f7220617070726f766564000000000000000000000000000000000000602082015250565b60006200336a602e8362002775565b915062003377826200330c565b604082019050919050565b600060208201905081810360008301526200339d816200335b565b9050919050565b600081905092915050565b50565b6000620033c1600083620033a4565b9150620033ce82620033af565b600082019050919050565b6000620033e682620033b2565b9150819050919050565b7f5472616e73666572206661696c65640000000000000000000000000000000000600082015250565b600062003428600f8362002775565b91506200343582620033f0565b602082019050919050565b600060208201905081810360008301526200345b8162003419565b9050919050565b7f4e487b7100000000000000000000000000000000000000000000000000000000600052601160045260246000fd5b60006200349e8262002832565b9150620034ab8362002832565b925082821015620034c157620034c062003462565b5b828203905092915050565b7f4e6f206861792062656e65666963696f73000000000000000000000000000000600082015250565b60006200350460118362002775565b91506200351182620034cc565b602082019050919050565b600060208201905081810360008301526200353781620034f5565b9050919050565b7f4552433732313a20696e76616c696420746f6b656e2049440000000000000000600082015250565b60006200357660188362002775565b915062003583826200353e565b602082019050919050565b60006020820190508181036000830152620035a98162003567565b9050919050565b7f4552433732313a2061646472657373207a65726f206973206e6f74206120766160008201527f6c6964206f776e65720000000000000000000000000000000000000000000000602082015250565b60006200360e60298362002775565b91506200361b82620035b0565b604082019050919050565b600060208201905081810360008301526200364181620035ff565b9050919050565b600081905092915050565b600062003660826200276a565b6200366c818562003648565b93506200367e81856020860162002786565b80840191505092915050565b600062003698828562003653565b9150620036a6828462003653565b91508190509392505050565b6000606082019050620036c96000830186620028d3565b620036d8602083018562002979565b620036e76040830184620028d3565b949350505050565b7f4e487b7100000000000000000000000000000000000000000000000000000000600052603260045260246000fd5b7f4e487b7100000000000000000000000000000000000000000000000000000000600052601260045260246000fd5b60006200375a8262002832565b9150620037678362002832565b9250826200377a57620037796200371e565b5b828206905092915050565b6000620037928262002832565b91507fffffffffffffffffffffffffffffffffffffffffffffffffffffffffffffffff8203620037c757620037c662003462565b5b600182019050919050565b6000620037df8262002832565b9150620037ec8362002832565b925082620037ff57620037fe6200371e565b5b828204905092915050565b7f4552433732313a207472616e736665722066726f6d20696e636f72726563742060008201527f6f776e6572000000000000000000000000000000000000000000000000000000602082015250565b60006200386860258362002775565b915062003875826200380a565b604082019050919050565b600060208201905081810360008301526200389b8162003859565b9050919050565b7f4552433732313a207472616e7366657220746f20746865207a65726f2061646460008201527f7265737300000000000000000000000000000000000000000000000000000000602082015250565b60006200390060248362002775565b91506200390d82620038a2565b604082019050919050565b600060208201905081810360008301526200393381620038f1565b9050919050565b6000620039478262002832565b9150620039548362002832565b9250827fffffffffffffffffffffffffffffffffffffffffffffffffffffffffffffffff038211156200398c576200398b62003462565b5b828201905092915050565b7f4552433732313a20617070726f766520746f2063616c6c657200000000000000600082015250565b6000620039cf60198362002775565b9150620039dc8262003997565b602082019050919050565b6000602082019050818103600083015262003a0281620039c0565b9050919050565b7f4552433732313a207472616e7366657220746f206e6f6e20455243373231526560008201527f63656976657220696d706c656d656e7465720000000000000000000000000000602082015250565b600062003a6760328362002775565b915062003a748262003a09565b604082019050919050565b6000602082019050818103600083015262003a9a8162003a58565b9050919050565b7f4e487b7100000000000000000000000000000000000000000000000000000000600052603160045260246000fd5b600081519050919050565b600082825260208201905092915050565b600062003af98262003ad0565b62003b05818562003adb565b935062003b1781856020860162002786565b62003b2281620027bc565b840191505092915050565b600060808201905062003b446000830187620028d3565b62003b536020830186620028d3565b62003b62604083018562002979565b818103606083015262003b76818462003aec565b905095945050505050565b60008151905062003b9281620026cd565b92915050565b60006020828403121562003bb15762003bb062002697565b5b600062003bc18482850162003b81565b91505092915050565b7f4552433732313a206d696e7420746f20746865207a65726f2061646472657373600082015250565b600062003c0260208362002775565b915062003c0f8262003bca565b602082019050919050565b6000602082019050818103600083015262003c358162003bf3565b9050919050565b7f4552433732313a20746f6b656e20616c7265616479206d696e74656400000000600082015250565b600062003c74601c8362002775565b915062003c818262003c3c565b602082019050919050565b6000602082019050818103600083015262003ca78162003c65565b905091905056fe60806040523480156200001157600080fd5b506040516200174038038062001740833981810160405281019062000037919062000288565b80600260006101000a81548173ffffffffffffffffffffffffffffffffffffffff021916908373ffffffffffffffffffffffffffffffffffffffff1602179055506200008a83836200009360201b60201c565b50505062000421565b600073ffffffffffffffffffffffffffffffffffffffff168273ffffffffffffffffffffffffffffffffffffffff160362000105576040517f08c379a0000000000000000000000000000000000000000000000000000000008152600401620000fc9062000345565b60405180910390fd5b806003600082825462000119919062000396565b92505081905550806000808473ffffffffffffffffffffffffffffffffffffffff1673ffffffffffffffffffffffffffffffffffffffff168152602001908152602001600020600082825462000170919062000396565b925050819055508173ffffffffffffffffffffffffffffffffffffffff16600073ffffffffffffffffffffffffffffffffffffffff167fddf252ad1be2c89b69c2b068fc378daa952ba7f163c4a11628f55a4df523b3ef83604051620001d7919062000404565b60405180910390a35050565b600080fd5b600073ffffffffffffffffffffffffffffffffffffffff82169050919050565b60006200021582620001e8565b9050919050565b620002278162000208565b81146200023357600080fd5b50565b60008151905062000247816200021c565b92915050565b6000819050919050565b62000262816200024d565b81146200026e57600080fd5b50565b600081519050620002828162000257565b92915050565b600080600060608486031215620002a457620002a3620001e3565b5b6000620002b48682870162000236565b9350506020620002c78682870162000271565b9250506040620002da8682870162000236565b9150509250925092565b600082825260208201905092915050565b7f45524332303a206d696e7420746f20746865207a65726f206164647265737300600082015250565b60006200032d601f83620002e4565b91506200033a82620002f5565b602082019050919050565b6000602082019050818103600083015262000360816200031e565b9050919050565b7f4e487b7100000000000000000000000000000000000000000000000000000000600052601160045260246000fd5b6000620003a3826200024d565b9150620003b0836200024d565b9250827fffffffffffffffffffffffffffffffffffffffffffffffffffffffffffffffff03821115620003e857620003e762000367565b5b828201905092915050565b620003fe816200024d565b82525050565b60006020820190506200041b6000830184620003f3565b92915050565b61130f80620004316000396000f3fe608060405234801561001057600080fd5b506004361061007d5760003560e01c806370a082311161005b57806370a08231146100ee5780639dc29fac1461011e578063dd62ed3e1461013a578063e1f21c671461016a5761007d565b806318160ddd1461008257806323b872dd146100a0578063313ce567146100d0575b600080fd5b61008a61019a565b6040516100979190610b22565b60405180910390f35b6100ba60048036038101906100b59190610bcc565b6101a4565b6040516100c79190610c3a565b60405180910390f35b6100d861024c565b6040516100e59190610c71565b60405180910390f35b61010860048036038101906101039190610c8c565b610251565b6040516101159190610b22565b60405180910390f35b61013860048036038101906101339190610cb9565b610299565b005b610154600480360381019061014f9190610cf9565b6104d7565b6040516101619190610b22565b60405180910390f35b610184600480360381019061017f9190610bcc565b6105ee565b6040516101919190610c3a565b60405180910390f35b6000600354905090565b6000600260009054906101000a900473ffffffffffffffffffffffffffffffffffffffff1673ffffffffffffffffffffffffffffffffffffffff163373ffffffffffffffffffffffffffffffffffffffff1614610236576040517f08c379a000000000000000000000000000000000000000000000000000000000815260040161022d90610d96565b60405180910390fd5b61024184848461084f565b600190509392505050565b600090565b60008060008373ffffffffffffffffffffffffffffffffffffffff1673ffffffffffffffffffffffffffffffffffffffff168152602001908152602001600020549050919050565b600260009054906101000a900473ffffffffffffffffffffffffffffffffffffffff1673ffffffffffffffffffffffffffffffffffffffff163373ffffffffffffffffffffffffffffffffffffffff1614610329576040517f08c379a000000000000000000000000000000000000000000000000000000000815260040161032090610d96565b60405180910390fd5b600073ffffffffffffffffffffffffffffffffffffffff168273ffffffffffffffffffffffffffffffffffffffff1603610398576040517f08c379a000000000000000000000000000000000000000000000000000000000815260040161038f90610e28565b60405180910390fd5b60008060008473ffffffffffffffffffffffffffffffffffffffff1673ffffffffffffffffffffffffffffffffffffffff1681526020019081526020016000205490508181101561041e576040517f08c379a000000000000000000000000000000000000000000000000000000000815260040161041590610eba565b60405180910390fd5b818161042a9190610f09565b6000808573ffffffffffffffffffffffffffffffffffffffff1673ffffffffffffffffffffffffffffffffffffffff16815260200190815260200160002081905550600073ffffffffffffffffffffffffffffffffffffffff168373ffffffffffffffffffffffffffffffffffffffff167fddf252ad1be2c89b69c2b068fc378daa952ba7f163c4a11628f55a4df523b3ef846040516104ca9190610b22565b60405180910390a3505050565b6000600260009054906101000a900473ffffffffffffffffffffffffffffffffffffffff1673ffffffffffffffffffffffffffffffffffffffff163373ffffffffffffffffffffffffffffffffffffffff1614610569576040517f08c379a000000000000000000000000000000000000000000000000000000000815260040161056090610d96565b60405180910390fd5b600160008473ffffffffffffffffffffffffffffffffffffffff1673ffffffffffffffffffffffffffffffffffffffff16815260200190815260200160002060008373ffffffffffffffffffffffffffffffffffffffff1673ffffffffffffffffffffffffffffffffffffffff16815260200190815260200160002054905092915050565b6000600260009054906101000a900473ffffffffffffffffffffffffffffffffffffffff1673ffffffffffffffffffffffffffffffffffffffff163373ffffffffffffffffffffffffffffffffffffffff1614610680576040517f08c379a000000000000000000000000000000000000000000000000000000000815260040161067790610d96565b60405180910390fd5b600073ffffffffffffffffffffffffffffffffffffffff168473ffffffffffffffffffffffffffffffffffffffff16036106ef576040517f08c379a00000000000000000000000000000000000000000000000000000000081526004016106e690610faf565b60405180910390fd5b600073ffffffffffffffffffffffffffffffffffffffff168373ffffffffffffffffffffffffffffffffffffffff160361075e576040517f08c379a000000000000000000000000000000000000000000000000000000000815260040161075590611041565b60405180910390fd5b81600160008673ffffffffffffffffffffffffffffffffffffffff1673ffffffffffffffffffffffffffffffffffffffff16815260200190815260200160002060008573ffffffffffffffffffffffffffffffffffffffff1673ffffffffffffffffffffffffffffffffffffffff168152602001908152602001600020819055508273ffffffffffffffffffffffffffffffffffffffff168473ffffffffffffffffffffffffffffffffffffffff167f8c5be1e5ebec7d5bd14f71427d1e84f3dd0314c0f7b2291e5b200ac8c7c3b9258460405161083c9190610b22565b60405180910390a3600190509392505050565b600073ffffffffffffffffffffffffffffffffffffffff168373ffffffffffffffffffffffffffffffffffffffff16036108be576040517f08c379a00000000000000000000000000000000000000000000000000000000081526004016108b5906110d3565b60405180910390fd5b600073ffffffffffffffffffffffffffffffffffffffff168273ffffffffffffffffffffffffffffffffffffffff160361092d576040517f08c379a000000000000000000000000000000000000000000000000000000000815260040161092490611165565b60405180910390fd5b600061093984846104d7565b905081811461097d576040517f08c379a0000000000000000000000000000000000000000000000000000000008152600401610974906111d1565b60405180910390fd5b60008060008673ffffffffffffffffffffffffffffffffffffffff1673ffffffffffffffffffffffffffffffffffffffff16815260200190815260200160002054905082811015610a03576040517f08c379a00000000000000000000000000000000000000000000000000000000081526004016109fa90611263565b60405180910390fd5b8281036000808773ffffffffffffffffffffffffffffffffffffffff1673ffffffffffffffffffffffffffffffffffffffff16815260200190815260200160002081905550826000808673ffffffffffffffffffffffffffffffffffffffff1673ffffffffffffffffffffffffffffffffffffffff1681526020019081526020016000206000828254610a969190611283565b925050819055508373ffffffffffffffffffffffffffffffffffffffff168573ffffffffffffffffffffffffffffffffffffffff167fddf252ad1be2c89b69c2b068fc378daa952ba7f163c4a11628f55a4df523b3ef85604051610afa9190610b22565b60405180910390a35050505050565b6000819050919050565b610b1c81610b09565b82525050565b6000602082019050610b376000830184610b13565b92915050565b600080fd5b600073ffffffffffffffffffffffffffffffffffffffff82169050919050565b6000610b6d82610b42565b9050919050565b610b7d81610b62565b8114610b8857600080fd5b50565b600081359050610b9a81610b74565b92915050565b610ba981610b09565b8114610bb457600080fd5b50565b600081359050610bc681610ba0565b92915050565b600080600060608486031215610be557610be4610b3d565b5b6000610bf386828701610b8b565b9350506020610c0486828701610b8b565b9250506040610c1586828701610bb7565b9150509250925092565b60008115159050919050565b610c3481610c1f565b82525050565b6000602082019050610c4f6000830184610c2b565b92915050565b600060ff82169050919050565b610c6b81610c55565b82525050565b6000602082019050610c866000830184610c62565b92915050565b600060208284031215610ca257610ca1610b3d565b5b6000610cb084828501610b8b565b91505092915050565b60008060408385031215610cd057610ccf610b3d565b5b6000610cde85828601610b8b565b9250506020610cef85828601610bb7565b9150509250929050565b60008060408385031215610d1057610d0f610b3d565b5b6000610d1e85828601610b8b565b9250506020610d2f85828601610b8b565b9150509250929050565b600082825260208201905092915050565b7f43616c6c6572206973206e6f7420746865206f776e6572000000000000000000600082015250565b6000610d80601783610d39565b9150610d8b82610d4a565b602082019050919050565b60006020820190508181036000830152610daf81610d73565b9050919050565b7f45524332303a206275726e2066726f6d20746865207a65726f2061646472657360008201527f7300000000000000000000000000000000000000000000000000000000000000602082015250565b6000610e12602183610d39565b9150610e1d82610db6565b604082019050919050565b60006020820190508181036000830152610e4181610e05565b9050919050565b7f45524332303a206275726e20616d6f756e7420657863656564732062616c616e60008201527f6365000000000000000000000000000000000000000000000000000000000000602082015250565b6000610ea4602283610d39565b9150610eaf82610e48565b604082019050919050565b60006020820190508181036000830152610ed381610e97565b9050919050565b7f4e487b7100000000000000000000000000000000000000000000000000000000600052601160045260246000fd5b6000610f1482610b09565b9150610f1f83610b09565b925082821015610f3257610f31610eda565b5b828203905092915050565b7f45524332303a20617070726f76652066726f6d20746865207a65726f2061646460008201527f7265737300000000000000000000000000000000000000000000000000000000602082015250565b6000610f99602483610d39565b9150610fa482610f3d565b604082019050919050565b60006020820190508181036000830152610fc881610f8c565b9050919050565b7f45524332303a20617070726f766520746f20746865207a65726f20616464726560008201527f7373000000000000000000000000000000000000000000000000000000000000602082015250565b600061102b602283610d39565b915061103682610fcf565b604082019050919050565b6000602082019050818103600083015261105a8161101e565b9050919050565b7f45524332303a207472616e736665722066726f6d20746865207a65726f20616460008201527f6472657373000000000000000000000000000000000000000000000000000000602082015250565b60006110bd602583610d39565b91506110c882611061565b604082019050919050565b600060208201905081810360008301526110ec816110b0565b9050919050565b7f45524332303a207472616e7366657220746f20746865207a65726f206164647260008201527f6573730000000000000000000000000000000000000000000000000000000000602082015250565b600061114f602383610d39565b915061115a826110f3565b604082019050919050565b6000602082019050818103600083015261117e81611142565b9050919050565b7f45524332303a20696e73756666696369656e7420616c6c6f77616e6365000000600082015250565b60006111bb601d83610d39565b91506111c682611185565b602082019050919050565b600060208201905081810360008301526111ea816111ae565b9050919050565b7f45524332303a207472616e7366657220616d6f756e742065786365656473206260008201527f616c616e63650000000000000000000000000000000000000000000000000000602082015250565b600061124d602683610d39565b9150611258826111f1565b604082019050919050565b6000602082019050818103600083015261127c81611240565b9050919050565b600061128e82610b09565b915061129983610b09565b9250827fffffffffffffffffffffffffffffffffffffffffffffffffffffffffffffffff038211156112ce576112cd610eda565b5b82820190509291505056fea26469706673582212209152cd9bd33107228d866c4b1994826a0fa9df36c4bd5046424ab77be18e929264736f6c634300080f0033a26469706673582212209f11d33acc84c69c2ed15875b01d32076ef23c8c59b56ce79bba0e07543a304e64736f6c634300080f0033",
  "immutableReferences": {},
  "source": "// SPDX-License-Identifier: MIT\npragma solidity ^0.8.4;\nimport \"@openzeppelin/contracts/token/ERC721/ERC721.sol\";\nimport \"./Shares.sol\";\n\n\ncontract Lottery is ERC721 {\n    uint256 private totalNumbers;\n    uint256 private totalSeries;\n    uint256 private ticketCost;\n    uint256 private totalPrize;\n    string private lotteryName;\n    uint32 private numWinners;\n    uint256 private minimumParticipants;\n    uint256 private prizeNotClaimed;\n    uint256 private date;\n\n\n    uint256[] private purchasedTickets;\n\n    mapping(uint256 => share) private ticketToShare;\n\n    uint256[] private winnerTickets;\n    mapping(uint256 => bool) private winnerTicketsMap;\n\n\n    address private owner;\n\n    States private state;\n    enum States {\n        LotteryActive,\n        LotteryFinished,\n        LotteryFailed\n    }\n\n    struct share {\n        uint256 tokenId;\n        address shares;\n    }\n\n    constructor(\n        uint256 _ticketCost,\n        uint256 _totalNumbers,\n        uint256 _totalSeries,\n        address _owner,\n        uint256 _minimumParticipants,\n        uint256 _totalPrize,\n        uint32 _numWinners,\n        uint256 _date,\n        string memory _lotteryName\n    ) payable ERC721(_lotteryName, _lotteryName) {\n        require(msg.value == _totalPrize,\"Necesitas enviar mas ETH para el premio\");\n        require( _ticketCost > 0,\"El coste de cada ticket tiene que ser superior a 0\");\n        require( _totalNumbers > 0,\"El total de numeros tiene que ser superior a 0\");\n        require( _totalSeries > 0,\"El total de series tiene que ser superior a 0\");\n        require( _minimumParticipants > 0,\"El numero minimo de participantes tiene que ser superior a 0\");\n        require( _numWinners > 0,\"El numero de ganadores tiene que ser superior a 0\");\n        require( _date > block.timestamp,\"La fecha tiene que ser superior a la actual\");\n        require( _totalPrize > 0,\"El premio total tiene que ser superior a 0\");\n        totalPrize = _totalPrize;\n        prizeNotClaimed = _totalPrize;\n        numWinners = _numWinners;\n        ticketCost = _ticketCost;\n        totalNumbers = _totalNumbers;\n        totalSeries = _totalSeries;\n        owner = _owner;\n        minimumParticipants = _minimumParticipants;\n        state = States.LotteryActive;\n        date = _date;\n        lotteryName = _lotteryName;\n    }\n\n    modifier onlyOwner() {\n        require(msg.sender == owner, \"Caller is not the owner\");\n        _;\n    }\n\n    function getBenefits(address _to) public onlyOwner {\n        uint256 profit = address(this).balance - prizeNotClaimed;\n        require(profit > 0, \"No hay beneficios\");\n        (bool success,)=payable(_to).call{value:profit}(\"\");\n        require(success, \"Transfer failed\");\n    }\n\n    function payPrize(uint256 _weiToPay, address _to) public onlyOwner {\n        (bool success,)=payable(_to).call{value:_weiToPay}(\"\");\n        require(success, \"Transfer failed\");\n        prizeNotClaimed = prizeNotClaimed - _weiToPay;\n    }\n\n    function mintBoleto(\n        address _to,\n        uint256 _tokenId,\n        uint256 _totalShares\n    ) public onlyOwner {\n        _safeMint(_to, _tokenId);\n        Shares _shares = new Shares(_to, _totalShares, owner);\n        ticketToShare[_tokenId] = share(_tokenId, address(_shares));\n        purchasedTickets.push(_tokenId);\n    }\n\n    function infoLottery()\n        public\n        view\n        returns (\n            string memory,\n            uint256,\n            address,\n            uint256,\n            uint256,\n            uint256,\n            uint256,\n            uint256,\n            uint32,\n            uint256[] memory\n        )\n    {\n        return (\n            lotteryName,\n            date,\n            owner,\n            totalNumbers,\n            totalSeries,\n            ticketCost,\n            minimumParticipants,\n            totalPrize,\n            numWinners,\n            winnerTickets\n        );\n    }\n\n    // function setRequestId(uint32 _requestId) public onlyOwner {\n    //     requestId = _requestId;\n    // }\n\n    // function getRequestId() public view returns (uint32) {\n    //     return requestId;\n    // }\n\n    fallback() external payable {}\n    receive() external payable {}\n\n\n    function setLotteryFinished() public onlyOwner {\n        state = States.LotteryFinished;\n    }\n\n    function setLotteryFailed() public onlyOwner {\n        state = States.LotteryFailed;\n    }\n\n    function isLotteryFinished() public view returns (bool) {\n        return state == States.LotteryFinished;\n    }\n\n    function isLotteryFailed() public view returns (bool) {\n        return state == States.LotteryFailed;\n    }\n\n    function getTotalPurchasedTickets() public view returns (uint256) {\n        return purchasedTickets.length;\n    }\n\n    function setWinnerTickets( uint256[] memory randomWords) external onlyOwner returns(uint256[] memory){\n        for (uint256 i = 0; i < randomWords.length; i++) {\n            uint256 winnerTicket = purchasedTickets[randomWords[i]%purchasedTickets.length];\n            winnerTickets.push(winnerTicket);\n            winnerTicketsMap[winnerTicket] = true; \n            removePurchasedTicket(randomWords[i]%purchasedTickets.length);\n        }\n        return winnerTickets;\n    }\n\n    function removePurchasedTicket(uint256 _index) internal{\n        purchasedTickets[_index] = purchasedTickets[purchasedTickets.length - 1];\n        purchasedTickets.pop();\n    }\n\n    function getPrizeLottery() public view returns (uint256) {\n        return totalPrize / winnerTickets.length;\n    }\n\n    function isWinnerTicket(uint256 _tokenId) public view returns (bool) {\n        return winnerTicketsMap[_tokenId];\n    }\n\n    function getTicketToShare(uint256 _tokenId) public view returns (share memory) {\n        return ticketToShare[_tokenId];\n    }\n}\n",
  "sourcePath": "/mnt/d/pardo/Desktop/Treballs/TFG/TFG/src/contracts/Lottery.sol",
  "compiler": {
    "name": "solc",
    "version": "0.8.15+commit.e14f2714.Emscripten.clang"
  },
  "schemaVersion": "3.4.7",
  "updatedAt": "2022-11-22T00:16:18.090Z",
  "devdoc": {
    "kind": "dev",
    "methods": {
      "approve(address,uint256)": {
        "details": "See {IERC721-approve}."
      },
      "balanceOf(address)": {
        "details": "See {IERC721-balanceOf}."
      },
      "getApproved(uint256)": {
        "details": "See {IERC721-getApproved}."
      },
      "isApprovedForAll(address,address)": {
        "details": "See {IERC721-isApprovedForAll}."
      },
      "name()": {
        "details": "See {IERC721Metadata-name}."
      },
      "ownerOf(uint256)": {
        "details": "See {IERC721-ownerOf}."
      },
      "safeTransferFrom(address,address,uint256)": {
        "details": "See {IERC721-safeTransferFrom}."
      },
      "safeTransferFrom(address,address,uint256,bytes)": {
        "details": "See {IERC721-safeTransferFrom}."
      },
      "setApprovalForAll(address,bool)": {
        "details": "See {IERC721-setApprovalForAll}."
      },
      "supportsInterface(bytes4)": {
        "details": "See {IERC165-supportsInterface}."
      },
      "symbol()": {
        "details": "See {IERC721Metadata-symbol}."
      },
      "tokenURI(uint256)": {
        "details": "See {IERC721Metadata-tokenURI}."
      },
      "transferFrom(address,address,uint256)": {
        "details": "See {IERC721-transferFrom}."
      }
    },
    "version": 1
  },
  "userdoc": {
    "kind": "user",
    "methods": {},
    "version": 1
  }
}