{
  "contractName": "Lottery",
  "abi": [
    {
      "inputs": [
        {
          "internalType": "uint256",
          "name": "_ticketCost",
          "type": "uint256"
        },
        {
          "internalType": "uint256",
          "name": "_totalNumbers",
          "type": "uint256"
        },
        {
          "internalType": "uint256",
          "name": "_totalSeries",
          "type": "uint256"
        },
        {
          "internalType": "address",
          "name": "_owner",
          "type": "address"
        },
        {
          "internalType": "uint256",
          "name": "_totalPrize",
          "type": "uint256"
        },
        {
          "internalType": "string",
          "name": "_lotteryName",
          "type": "string"
        }
      ],
      "stateMutability": "payable",
      "type": "constructor"
    },
    {
      "anonymous": false,
      "inputs": [
        {
          "indexed": true,
          "internalType": "address",
          "name": "owner",
          "type": "address"
        },
        {
          "indexed": true,
          "internalType": "address",
          "name": "approved",
          "type": "address"
        },
        {
          "indexed": true,
          "internalType": "uint256",
          "name": "tokenId",
          "type": "uint256"
        }
      ],
      "name": "Approval",
      "type": "event"
    },
    {
      "anonymous": false,
      "inputs": [
        {
          "indexed": true,
          "internalType": "address",
          "name": "owner",
          "type": "address"
        },
        {
          "indexed": true,
          "internalType": "address",
          "name": "operator",
          "type": "address"
        },
        {
          "indexed": false,
          "internalType": "bool",
          "name": "approved",
          "type": "bool"
        }
      ],
      "name": "ApprovalForAll",
      "type": "event"
    },
    {
      "anonymous": false,
      "inputs": [
        {
          "indexed": true,
          "internalType": "address",
          "name": "from",
          "type": "address"
        },
        {
          "indexed": true,
          "internalType": "address",
          "name": "to",
          "type": "address"
        },
        {
          "indexed": true,
          "internalType": "uint256",
          "name": "tokenId",
          "type": "uint256"
        }
      ],
      "name": "Transfer",
      "type": "event"
    },
    {
      "inputs": [
        {
          "internalType": "address",
          "name": "to",
          "type": "address"
        },
        {
          "internalType": "uint256",
          "name": "tokenId",
          "type": "uint256"
        }
      ],
      "name": "approve",
      "outputs": [],
      "stateMutability": "nonpayable",
      "type": "function"
    },
    {
      "inputs": [
        {
          "internalType": "address",
          "name": "owner",
          "type": "address"
        }
      ],
      "name": "balanceOf",
      "outputs": [
        {
          "internalType": "uint256",
          "name": "",
          "type": "uint256"
        }
      ],
      "stateMutability": "view",
      "type": "function"
    },
    {
      "inputs": [
        {
          "internalType": "uint256",
          "name": "tokenId",
          "type": "uint256"
        }
      ],
      "name": "getApproved",
      "outputs": [
        {
          "internalType": "address",
          "name": "",
          "type": "address"
        }
      ],
      "stateMutability": "view",
      "type": "function"
    },
    {
      "inputs": [
        {
          "internalType": "address",
          "name": "owner",
          "type": "address"
        },
        {
          "internalType": "address",
          "name": "operator",
          "type": "address"
        }
      ],
      "name": "isApprovedForAll",
      "outputs": [
        {
          "internalType": "bool",
          "name": "",
          "type": "bool"
        }
      ],
      "stateMutability": "view",
      "type": "function"
    },
    {
      "inputs": [],
      "name": "name",
      "outputs": [
        {
          "internalType": "string",
          "name": "",
          "type": "string"
        }
      ],
      "stateMutability": "view",
      "type": "function"
    },
    {
      "inputs": [
        {
          "internalType": "uint256",
          "name": "tokenId",
          "type": "uint256"
        }
      ],
      "name": "ownerOf",
      "outputs": [
        {
          "internalType": "address",
          "name": "",
          "type": "address"
        }
      ],
      "stateMutability": "view",
      "type": "function"
    },
    {
      "inputs": [
        {
          "internalType": "address",
          "name": "from",
          "type": "address"
        },
        {
          "internalType": "address",
          "name": "to",
          "type": "address"
        },
        {
          "internalType": "uint256",
          "name": "tokenId",
          "type": "uint256"
        }
      ],
      "name": "safeTransferFrom",
      "outputs": [],
      "stateMutability": "nonpayable",
      "type": "function"
    },
    {
      "inputs": [
        {
          "internalType": "address",
          "name": "from",
          "type": "address"
        },
        {
          "internalType": "address",
          "name": "to",
          "type": "address"
        },
        {
          "internalType": "uint256",
          "name": "tokenId",
          "type": "uint256"
        },
        {
          "internalType": "bytes",
          "name": "data",
          "type": "bytes"
        }
      ],
      "name": "safeTransferFrom",
      "outputs": [],
      "stateMutability": "nonpayable",
      "type": "function"
    },
    {
      "inputs": [
        {
          "internalType": "address",
          "name": "operator",
          "type": "address"
        },
        {
          "internalType": "bool",
          "name": "approved",
          "type": "bool"
        }
      ],
      "name": "setApprovalForAll",
      "outputs": [],
      "stateMutability": "nonpayable",
      "type": "function"
    },
    {
      "inputs": [
        {
          "internalType": "bytes4",
          "name": "interfaceId",
          "type": "bytes4"
        }
      ],
      "name": "supportsInterface",
      "outputs": [
        {
          "internalType": "bool",
          "name": "",
          "type": "bool"
        }
      ],
      "stateMutability": "view",
      "type": "function"
    },
    {
      "inputs": [],
      "name": "symbol",
      "outputs": [
        {
          "internalType": "string",
          "name": "",
          "type": "string"
        }
      ],
      "stateMutability": "view",
      "type": "function"
    },
    {
      "inputs": [
        {
          "internalType": "uint256",
          "name": "tokenId",
          "type": "uint256"
        }
      ],
      "name": "tokenURI",
      "outputs": [
        {
          "internalType": "string",
          "name": "",
          "type": "string"
        }
      ],
      "stateMutability": "view",
      "type": "function"
    },
    {
      "inputs": [
        {
          "internalType": "address",
          "name": "from",
          "type": "address"
        },
        {
          "internalType": "address",
          "name": "to",
          "type": "address"
        },
        {
          "internalType": "uint256",
          "name": "tokenId",
          "type": "uint256"
        }
      ],
      "name": "transferFrom",
      "outputs": [],
      "stateMutability": "nonpayable",
      "type": "function"
    },
    {
      "inputs": [
        {
          "internalType": "uint256",
          "name": "weiToPay",
          "type": "uint256"
        },
        {
          "internalType": "address",
          "name": "_to",
          "type": "address"
        }
      ],
      "name": "payPrize",
      "outputs": [],
      "stateMutability": "nonpayable",
      "type": "function"
    },
    {
      "inputs": [
        {
          "internalType": "address",
          "name": "_to",
          "type": "address"
        },
        {
          "internalType": "uint256",
          "name": "_tokenId",
          "type": "uint256"
        },
        {
          "internalType": "uint256",
          "name": "_totalShares",
          "type": "uint256"
        }
      ],
      "name": "mintBoleto",
      "outputs": [],
      "stateMutability": "nonpayable",
      "type": "function"
    },
    {
      "inputs": [],
      "name": "infoLottery",
      "outputs": [
        {
          "internalType": "string",
          "name": "",
          "type": "string"
        },
        {
          "internalType": "address",
          "name": "",
          "type": "address"
        },
        {
          "internalType": "uint256",
          "name": "",
          "type": "uint256"
        },
        {
          "internalType": "uint256",
          "name": "",
          "type": "uint256"
        },
        {
          "internalType": "uint256",
          "name": "",
          "type": "uint256"
        },
        {
          "internalType": "uint256[3]",
          "name": "",
          "type": "uint256[3]"
        }
      ],
      "stateMutability": "view",
      "type": "function"
    },
    {
      "inputs": [
        {
          "internalType": "uint32",
          "name": "_requestId",
          "type": "uint32"
        }
      ],
      "name": "setRequestId",
      "outputs": [],
      "stateMutability": "nonpayable",
      "type": "function"
    },
    {
      "inputs": [],
      "name": "getRequestId",
      "outputs": [
        {
          "internalType": "uint32",
          "name": "",
          "type": "uint32"
        }
      ],
      "stateMutability": "view",
      "type": "function"
    },
    {
      "inputs": [],
      "name": "setLotteryFinished",
      "outputs": [],
      "stateMutability": "nonpayable",
      "type": "function"
    },
    {
      "inputs": [],
      "name": "isLotteryFinished",
      "outputs": [
        {
          "internalType": "bool",
          "name": "",
          "type": "bool"
        }
      ],
      "stateMutability": "view",
      "type": "function"
    },
    {
      "inputs": [],
      "name": "getTotalPurchasedTickets",
      "outputs": [
        {
          "internalType": "uint256",
          "name": "",
          "type": "uint256"
        }
      ],
      "stateMutability": "view",
      "type": "function"
    },
    {
      "inputs": [
        {
          "internalType": "uint256",
          "name": "numBoleto1",
          "type": "uint256"
        },
        {
          "internalType": "uint256",
          "name": "numBoleto2",
          "type": "uint256"
        },
        {
          "internalType": "uint256",
          "name": "numBoleto3",
          "type": "uint256"
        }
      ],
      "name": "setWinnerTickets",
      "outputs": [],
      "stateMutability": "nonpayable",
      "type": "function"
    },
    {
      "inputs": [],
      "name": "getPrizeLottery",
      "outputs": [
        {
          "internalType": "uint256",
          "name": "",
          "type": "uint256"
        }
      ],
      "stateMutability": "view",
      "type": "function"
    },
    {
      "inputs": [
        {
          "internalType": "uint256",
          "name": "_tokenId",
          "type": "uint256"
        }
      ],
      "name": "isWinnerTicket",
      "outputs": [
        {
          "internalType": "bool",
          "name": "",
          "type": "bool"
        }
      ],
      "stateMutability": "view",
      "type": "function"
    },
    {
      "inputs": [
        {
          "internalType": "uint256",
          "name": "_tokenId",
          "type": "uint256"
        }
      ],
      "name": "getTicketToShare",
      "outputs": [
        {
          "components": [
            {
              "internalType": "uint256",
              "name": "tokenId",
              "type": "uint256"
            },
            {
              "internalType": "address",
              "name": "shares",
              "type": "address"
            }
          ],
          "internalType": "struct Lottery._share",
          "name": "",
          "type": "tuple"
        }
      ],
      "stateMutability": "view",
      "type": "function"
    }
  ],
  "bytecode": "0x60806040526040516200556f3803806200556f8339818101604052810190620000299190620003c2565b808181600090816200003c9190620006be565b5080600190816200004e9190620006be565b50505081341462000096576040517f08c379a00000000000000000000000000000000000000000000000000000000081526004016200008d906200082c565b60405180910390fd5b8160098190555060008611620000e3576040517f08c379a0000000000000000000000000000000000000000000000000000000008152600401620000da90620008c4565b60405180910390fd5b85600881905550846006819055508360078190555082601260006101000a81548173ffffffffffffffffffffffffffffffffffffffff021916908373ffffffffffffffffffffffffffffffffffffffff1602179055506000601260146101000a81548160ff02191690836001811115620001625762000161620008e6565b5b021790555080600a9081620001789190620006be565b5050505050505062000915565b6000604051905090565b600080fd5b600080fd5b6000819050919050565b620001ae8162000199565b8114620001ba57600080fd5b50565b600081519050620001ce81620001a3565b92915050565b600073ffffffffffffffffffffffffffffffffffffffff82169050919050565b60006200020182620001d4565b9050919050565b6200021381620001f4565b81146200021f57600080fd5b50565b600081519050620002338162000208565b92915050565b600080fd5b600080fd5b6000601f19601f8301169050919050565b7f4e487b7100000000000000000000000000000000000000000000000000000000600052604160045260246000fd5b6200028e8262000243565b810181811067ffffffffffffffff82111715620002b057620002af62000254565b5b80604052505050565b6000620002c562000185565b9050620002d3828262000283565b919050565b600067ffffffffffffffff821115620002f657620002f562000254565b5b620003018262000243565b9050602081019050919050565b60005b838110156200032e57808201518184015260208101905062000311565b838111156200033e576000848401525b50505050565b60006200035b6200035584620002d8565b620002b9565b9050828152602081018484840111156200037a57620003796200023e565b5b620003878482856200030e565b509392505050565b600082601f830112620003a757620003a662000239565b5b8151620003b984826020860162000344565b91505092915050565b60008060008060008060c08789031215620003e257620003e16200018f565b5b6000620003f289828a01620001bd565b96505060206200040589828a01620001bd565b95505060406200041889828a01620001bd565b94505060606200042b89828a0162000222565b93505060806200043e89828a01620001bd565b92505060a087015167ffffffffffffffff81111562000462576200046162000194565b5b6200047089828a016200038f565b9150509295509295509295565b600081519050919050565b7f4e487b7100000000000000000000000000000000000000000000000000000000600052602260045260246000fd5b60006002820490506001821680620004d057607f821691505b602082108103620004e657620004e562000488565b5b50919050565b60008190508160005260206000209050919050565b60006020601f8301049050919050565b600082821b905092915050565b600060088302620005507fffffffffffffffffffffffffffffffffffffffffffffffffffffffffffffffff8262000511565b6200055c868362000511565b95508019841693508086168417925050509392505050565b6000819050919050565b60006200059f62000599620005938462000199565b62000574565b62000199565b9050919050565b6000819050919050565b620005bb836200057e565b620005d3620005ca82620005a6565b8484546200051e565b825550505050565b600090565b620005ea620005db565b620005f7818484620005b0565b505050565b5b818110156200061f5762000613600082620005e0565b600181019050620005fd565b5050565b601f8211156200066e576200063881620004ec565b620006438462000501565b8101602085101562000653578190505b6200066b620006628562000501565b830182620005fc565b50505b505050565b600082821c905092915050565b6000620006936000198460080262000673565b1980831691505092915050565b6000620006ae838362000680565b9150826002028217905092915050565b620006c9826200047d565b67ffffffffffffffff811115620006e557620006e462000254565b5b620006f18254620004b7565b620006fe82828562000623565b600060209050601f83116001811462000736576000841562000721578287015190505b6200072d8582620006a0565b8655506200079d565b601f1984166200074686620004ec565b60005b82811015620007705784890151825560018201915060208501945060208101905062000749565b868310156200079057848901516200078c601f89168262000680565b8355505b6001600288020188555050505b505050505050565b600082825260208201905092915050565b7f4e656365736974617320656e76696172206d617320455448207061726120656c60008201527f207072656d696f00000000000000000000000000000000000000000000000000602082015250565b600062000814602783620007a5565b91506200082182620007b6565b604082019050919050565b60006020820190508181036000830152620008478162000805565b9050919050565b7f456c20636f7374652064652063616461207469636b6574207469656e6520717560008201527f6520736572207375706572696f72206120300000000000000000000000000000602082015250565b6000620008ac603283620007a5565b9150620008b9826200084e565b604082019050919050565b60006020820190508181036000830152620008df816200089d565b9050919050565b7f4e487b7100000000000000000000000000000000000000000000000000000000600052602160045260246000fd5b614c4a80620009256000396000f3fe60806040523480156200001157600080fd5b5060043610620001965760003560e01c80636e575e3511620000f3578063b88d4fde11620000a5578063d726c730116200007b578063d726c73014620004e6578063da9d933114620004f2578063e985e9c51462000512578063fe020b8014620005485762000196565b8063b88d4fde1462000469578063be2e69051462000489578063c87b56dd14620004b05762000196565b80636e575e35146200037b57806370a08231146200039b5780637847fa5b14620003d157806378591f0814620003f157806395d89b411462000427578063a22cb46514620004495762000196565b80631609443a116200014d5780631609443a146200028d57806323b872dd14620002af57806335cc590f14620002cf5780633d0d8322146200030557806342842e0e14620003255780636352211e14620003455762000196565b806301ffc9a7146200019b57806306fdde0314620001d1578063077001b914620001f3578063081812fc1462000215578063095ea7b3146200024b5780631091ce5f146200026b575b600080fd5b620001b96004803603810190620001b3919062002297565b6200056a565b604051620001c89190620022e6565b60405180910390f35b620001db62000650565b604051620001ea9190620023a7565b60405180910390f35b620001fd620006ea565b6040516200020c9190620023ec565b60405180910390f35b6200023360048036038101906200022d919062002444565b62000704565b604051620002429190620024bb565b60405180910390f35b62000269600480360381019062000263919062002509565b6200074c565b005b6200027562000874565b604051620002849190620022e6565b60405180910390f35b62000297620008b7565b604051620002a6919062002561565b60405180910390f35b620002cd6004803603810190620002c791906200257e565b620008c4565b005b620002ed6004803603810190620002e7919062002444565b6200092d565b604051620002fc91906200262f565b60405180910390f35b6200032360048036038101906200031d91906200264c565b620009bc565b005b6200034360048036038101906200033d91906200257e565b62000a9b565b005b6200036360048036038101906200035d919062002444565b62000abd565b604051620003729190620024bb565b60405180910390f35b62000399600480360381019062000393919062002693565b62000b71565b005b620003b96004803603810190620003b39190620026ef565b62000dad565b604051620003c8919062002561565b60405180910390f35b620003ef6004803603810190620003e9919062002752565b62000e67565b005b6200040f600480360381019062000409919062002444565b62000f1e565b6040516200041e9190620022e6565b60405180910390f35b6200043162000f48565b604051620004409190620023a7565b60405180910390f35b620004676004803603810190620004619190620027b5565b62000fe2565b005b6200048760048036038101906200048191906200294d565b62000ffc565b005b6200049362001067565b604051620004a79695949392919062002a88565b60405180910390f35b620004ce6004803603810190620004c8919062002444565b62001192565b604051620004dd9190620023a7565b60405180910390f35b620004f062001204565b005b6200051060048036038101906200050a919062002afd565b620012c7565b005b6200053060048036038101906200052a919062002b59565b6200148a565b6040516200053f9190620022e6565b60405180910390f35b620005526200151e565b60405162000561919062002561565b60405180910390f35b60007f80ac58cd000000000000000000000000000000000000000000000000000000007bffffffffffffffffffffffffffffffffffffffffffffffffffffffff1916827bffffffffffffffffffffffffffffffffffffffffffffffffffffffff191614806200063657507f5b5e139f000000000000000000000000000000000000000000000000000000007bffffffffffffffffffffffffffffffffffffffffffffffffffffffff1916827bffffffffffffffffffffffffffffffffffffffffffffffffffffffff1916145b80620006495750620006488262001536565b5b9050919050565b606060008054620006619062002bcf565b80601f01602080910402602001604051908101604052809291908181526020018280546200068f9062002bcf565b8015620006e05780601f10620006b457610100808354040283529160200191620006e0565b820191906000526020600020905b815481529060010190602001808311620006c257829003601f168201915b5050505050905090565b6000600b60009054906101000a900463ffffffff16905090565b60006200071182620015a0565b6004600083815260200190815260200160002060009054906101000a900473ffffffffffffffffffffffffffffffffffffffff169050919050565b6000620007598262000abd565b90508073ffffffffffffffffffffffffffffffffffffffff168373ffffffffffffffffffffffffffffffffffffffff1603620007cc576040517f08c379a0000000000000000000000000000000000000000000000000000000008152600401620007c39062002c7a565b60405180910390fd5b8073ffffffffffffffffffffffffffffffffffffffff16620007ed620015f0565b73ffffffffffffffffffffffffffffffffffffffff16148062000821575062000820816200081a620015f0565b6200148a565b5b62000863576040517f08c379a00000000000000000000000000000000000000000000000000000000081526004016200085a9062002d12565b60405180910390fd5b6200086f8383620015f8565b505050565b60006001808111156200088c576200088b62002d34565b5b601260149054906101000a900460ff166001811115620008b157620008b062002d34565b5b14905090565b6000600c80549050905090565b620008d9620008d2620015f0565b82620016b3565b6200091b576040517f08c379a0000000000000000000000000000000000000000000000000000000008152600401620009129062002dd9565b60405180910390fd5b6200092883838362001750565b505050565b62000937620021c6565b600d6000838152602001908152602001600020604051806040016040529081600082015481526020016001820160009054906101000a900473ffffffffffffffffffffffffffffffffffffffff1673ffffffffffffffffffffffffffffffffffffffff1673ffffffffffffffffffffffffffffffffffffffff16815250509050919050565b601260009054906101000a900473ffffffffffffffffffffffffffffffffffffffff1673ffffffffffffffffffffffffffffffffffffffff163373ffffffffffffffffffffffffffffffffffffffff161462000a4f576040517f08c379a000000000000000000000000000000000000000000000000000000000815260040162000a469062002e4b565b60405180910390fd5b8073ffffffffffffffffffffffffffffffffffffffff166108fc839081150290604051600060405180830381858888f1935050505015801562000a96573d6000803e3d6000fd5b505050565b62000ab88383836040518060200160405280600081525062000ffc565b505050565b6000806002600084815260200190815260200160002060009054906101000a900473ffffffffffffffffffffffffffffffffffffffff169050600073ffffffffffffffffffffffffffffffffffffffff168173ffffffffffffffffffffffffffffffffffffffff160362000b68576040517f08c379a000000000000000000000000000000000000000000000000000000000815260040162000b5f9062002ebd565b60405180910390fd5b80915050919050565b601260009054906101000a900473ffffffffffffffffffffffffffffffffffffffff1673ffffffffffffffffffffffffffffffffffffffff163373ffffffffffffffffffffffffffffffffffffffff161462000c04576040517f08c379a000000000000000000000000000000000000000000000000000000000815260040162000bfb9062002e4b565b60405180910390fd5b600c838154811062000c1b5762000c1a62002edf565b5b9060005260206000200154600e60006003811062000c3e5762000c3d62002edf565b5b0181905550600c828154811062000c5a5762000c5962002edf565b5b9060005260206000200154600e60016003811062000c7d5762000c7c62002edf565b5b0181905550600c818154811062000c995762000c9862002edf565b5b9060005260206000200154600e60026003811062000cbc5762000cbb62002edf565b5b0181905550600160116000600c868154811062000cde5762000cdd62002edf565b5b9060005260206000200154815260200190815260200160002060006101000a81548160ff021916908315150217905550600160116000600c858154811062000d2b5762000d2a62002edf565b5b9060005260206000200154815260200190815260200160002060006101000a81548160ff021916908315150217905550600160116000600c848154811062000d785762000d7762002edf565b5b9060005260206000200154815260200190815260200160002060006101000a81548160ff021916908315150217905550505050565b60008073ffffffffffffffffffffffffffffffffffffffff168273ffffffffffffffffffffffffffffffffffffffff160362000e20576040517f08c379a000000000000000000000000000000000000000000000000000000000815260040162000e179062002f84565b60405180910390fd5b600360008373ffffffffffffffffffffffffffffffffffffffff1673ffffffffffffffffffffffffffffffffffffffff168152602001908152602001600020549050919050565b601260009054906101000a900473ffffffffffffffffffffffffffffffffffffffff1673ffffffffffffffffffffffffffffffffffffffff163373ffffffffffffffffffffffffffffffffffffffff161462000efa576040517f08c379a000000000000000000000000000000000000000000000000000000000815260040162000ef19062002e4b565b60405180910390fd5b80600b60006101000a81548163ffffffff021916908363ffffffff16021790555050565b60006011600083815260200190815260200160002060009054906101000a900460ff169050919050565b60606001805462000f599062002bcf565b80601f016020809104026020016040519081016040528092919081815260200182805462000f879062002bcf565b801562000fd85780601f1062000fac5761010080835404028352916020019162000fd8565b820191906000526020600020905b81548152906001019060200180831162000fba57829003601f168201915b5050505050905090565b62000ff862000ff0620015f0565b8383620019c8565b5050565b620010116200100a620015f0565b83620016b3565b62001053576040517f08c379a00000000000000000000000000000000000000000000000000000000081526004016200104a9062002dd9565b60405180910390fd5b620010618484848462001b39565b50505050565b606060008060008062001079620021f6565b600a601260009054906101000a900473ffffffffffffffffffffffffffffffffffffffff16600654600754600854600e858054620010b79062002bcf565b80601f0160208091040260200160405190810160405280929190818152602001828054620010e59062002bcf565b8015620011365780601f106200110a5761010080835404028352916020019162001136565b820191906000526020600020905b8154815290600101906020018083116200111857829003601f168201915b505050505095508060038060200260405190810160405280929190826003801562001177576020028201915b81548152602001906001019080831162001162575b50505050509050955095509550955095509550909192939495565b60606200119f82620015a0565b6000620011ab62001b9c565b90506000815111620011cd5760405180602001604052806000815250620011fc565b80620011d98462001bb3565b604051602001620011ec92919062002fe8565b6040516020818303038152906040525b915050919050565b601260009054906101000a900473ffffffffffffffffffffffffffffffffffffffff1673ffffffffffffffffffffffffffffffffffffffff163373ffffffffffffffffffffffffffffffffffffffff161462001297576040517f08c379a00000000000000000000000000000000000000000000000000000000081526004016200128e9062002e4b565b60405180910390fd5b6001601260146101000a81548160ff02191690836001811115620012c057620012bf62002d34565b5b0217905550565b601260009054906101000a900473ffffffffffffffffffffffffffffffffffffffff1673ffffffffffffffffffffffffffffffffffffffff163373ffffffffffffffffffffffffffffffffffffffff16146200135a576040517f08c379a0000000000000000000000000000000000000000000000000000000008152600401620013519062002e4b565b60405180910390fd5b62001366838362001d2c565b60008382601260009054906101000a900473ffffffffffffffffffffffffffffffffffffffff166040516200139b9062002218565b620013a99392919062003010565b604051809103906000f080158015620013c6573d6000803e3d6000fd5b50905060405180604001604052808481526020018273ffffffffffffffffffffffffffffffffffffffff16815250600d60008581526020019081526020016000206000820151816000015560208201518160010160006101000a81548173ffffffffffffffffffffffffffffffffffffffff021916908373ffffffffffffffffffffffffffffffffffffffff160217905550905050600c83908060018154018082558091505060019003906000526020600020016000909190919091505550505050565b6000600560008473ffffffffffffffffffffffffffffffffffffffff1673ffffffffffffffffffffffffffffffffffffffff16815260200190815260200160002060008373ffffffffffffffffffffffffffffffffffffffff1673ffffffffffffffffffffffffffffffffffffffff16815260200190815260200160002060009054906101000a900460ff16905092915050565b60006003600954620015319190620030ab565b905090565b60007f01ffc9a7000000000000000000000000000000000000000000000000000000007bffffffffffffffffffffffffffffffffffffffffffffffffffffffff1916827bffffffffffffffffffffffffffffffffffffffffffffffffffffffff1916149050919050565b620015ab8162001d4c565b620015ed576040517f08c379a0000000000000000000000000000000000000000000000000000000008152600401620015e49062002ebd565b60405180910390fd5b50565b600033905090565b816004600083815260200190815260200160002060006101000a81548173ffffffffffffffffffffffffffffffffffffffff021916908373ffffffffffffffffffffffffffffffffffffffff160217905550808273ffffffffffffffffffffffffffffffffffffffff166200166d8362000abd565b73ffffffffffffffffffffffffffffffffffffffff167f8c5be1e5ebec7d5bd14f71427d1e84f3dd0314c0f7b2291e5b200ac8c7c3b92560405160405180910390a45050565b600080620016c18362000abd565b90508073ffffffffffffffffffffffffffffffffffffffff168473ffffffffffffffffffffffffffffffffffffffff1614806200170657506200170581856200148a565b5b806200174757508373ffffffffffffffffffffffffffffffffffffffff166200172f8462000704565b73ffffffffffffffffffffffffffffffffffffffff16145b91505092915050565b8273ffffffffffffffffffffffffffffffffffffffff16620017728262000abd565b73ffffffffffffffffffffffffffffffffffffffff1614620017cb576040517f08c379a0000000000000000000000000000000000000000000000000000000008152600401620017c29062003159565b60405180910390fd5b600073ffffffffffffffffffffffffffffffffffffffff168273ffffffffffffffffffffffffffffffffffffffff16036200183d576040517f08c379a00000000000000000000000000000000000000000000000000000000081526004016200183490620031f1565b60405180910390fd5b6200184a83838362001db8565b62001857600082620015f8565b6001600360008573ffffffffffffffffffffffffffffffffffffffff1673ffffffffffffffffffffffffffffffffffffffff1681526020019081526020016000206000828254620018a9919062003213565b925050819055506001600360008473ffffffffffffffffffffffffffffffffffffffff1673ffffffffffffffffffffffffffffffffffffffff16815260200190815260200160002060008282546200190291906200324e565b92505081905550816002600083815260200190815260200160002060006101000a81548173ffffffffffffffffffffffffffffffffffffffff021916908373ffffffffffffffffffffffffffffffffffffffff160217905550808273ffffffffffffffffffffffffffffffffffffffff168473ffffffffffffffffffffffffffffffffffffffff167fddf252ad1be2c89b69c2b068fc378daa952ba7f163c4a11628f55a4df523b3ef60405160405180910390a4620019c383838362001dbd565b505050565b8173ffffffffffffffffffffffffffffffffffffffff168373ffffffffffffffffffffffffffffffffffffffff160362001a39576040517f08c379a000000000000000000000000000000000000000000000000000000000815260040162001a3090620032fb565b60405180910390fd5b80600560008573ffffffffffffffffffffffffffffffffffffffff1673ffffffffffffffffffffffffffffffffffffffff16815260200190815260200160002060008473ffffffffffffffffffffffffffffffffffffffff1673ffffffffffffffffffffffffffffffffffffffff16815260200190815260200160002060006101000a81548160ff0219169083151502179055508173ffffffffffffffffffffffffffffffffffffffff168373ffffffffffffffffffffffffffffffffffffffff167f17307eab39ab6107e8899845ad3d59bd9653f200f220920489ca2b5937696c318360405162001b2c9190620022e6565b60405180910390a3505050565b62001b4684848462001750565b62001b548484848462001dc2565b62001b96576040517f08c379a000000000000000000000000000000000000000000000000000000000815260040162001b8d9062003393565b60405180910390fd5b50505050565b606060405180602001604052806000815250905090565b60606000820362001bfc576040518060400160405280600181526020017f3000000000000000000000000000000000000000000000000000000000000000815250905062001d27565b600082905060005b6000821462001c3457808062001c1a90620033b5565b915050600a8262001c2c9190620030ab565b915062001c04565b60008167ffffffffffffffff81111562001c535762001c5262002806565b5b6040519080825280601f01601f19166020018201604052801562001c865781602001600182028036833780820191505090505b5090505b6000851462001d205760018262001ca2919062003213565b9150600a8562001cb3919062003402565b603062001cc191906200324e565b60f81b81838151811062001cda5762001cd962002edf565b5b60200101907effffffffffffffffffffffffffffffffffffffffffffffffffffffffffffff1916908160001a905350600a8562001d189190620030ab565b945062001c8a565b8093505050505b919050565b62001d4882826040518060200160405280600081525062001f5a565b5050565b60008073ffffffffffffffffffffffffffffffffffffffff166002600084815260200190815260200160002060009054906101000a900473ffffffffffffffffffffffffffffffffffffffff1673ffffffffffffffffffffffffffffffffffffffff1614159050919050565b505050565b505050565b600062001de58473ffffffffffffffffffffffffffffffffffffffff1662001fbc565b1562001f4d578373ffffffffffffffffffffffffffffffffffffffff1663150b7a0262001e11620015f0565b8786866040518563ffffffff1660e01b815260040162001e35949392919062003497565b6020604051808303816000875af192505050801562001e7457506040513d601f19601f8201168201806040525081019062001e71919062003502565b60015b62001efc573d806000811462001ea7576040519150601f19603f3d011682016040523d82523d6000602084013e62001eac565b606091505b50600081510362001ef4576040517f08c379a000000000000000000000000000000000000000000000000000000000815260040162001eeb9062003393565b60405180910390fd5b805181602001fd5b63150b7a0260e01b7bffffffffffffffffffffffffffffffffffffffffffffffffffffffff1916817bffffffffffffffffffffffffffffffffffffffffffffffffffffffff19161491505062001f52565b600190505b949350505050565b62001f66838362001fdf565b62001f75600084848462001dc2565b62001fb7576040517f08c379a000000000000000000000000000000000000000000000000000000000815260040162001fae9062003393565b60405180910390fd5b505050565b6000808273ffffffffffffffffffffffffffffffffffffffff163b119050919050565b600073ffffffffffffffffffffffffffffffffffffffff168273ffffffffffffffffffffffffffffffffffffffff160362002051576040517f08c379a0000000000000000000000000000000000000000000000000000000008152600401620020489062003584565b60405180910390fd5b6200205c8162001d4c565b156200209f576040517f08c379a00000000000000000000000000000000000000000000000000000000081526004016200209690620035f6565b60405180910390fd5b620020ad6000838362001db8565b6001600360008473ffffffffffffffffffffffffffffffffffffffff1673ffffffffffffffffffffffffffffffffffffffff1681526020019081526020016000206000828254620020ff91906200324e565b92505081905550816002600083815260200190815260200160002060006101000a81548173ffffffffffffffffffffffffffffffffffffffff021916908373ffffffffffffffffffffffffffffffffffffffff160217905550808273ffffffffffffffffffffffffffffffffffffffff16600073ffffffffffffffffffffffffffffffffffffffff167fddf252ad1be2c89b69c2b068fc378daa952ba7f163c4a11628f55a4df523b3ef60405160405180910390a4620021c26000838362001dbd565b5050565b604051806040016040528060008152602001600073ffffffffffffffffffffffffffffffffffffffff1681525090565b6040518060600160405280600390602082028036833780820191505090505090565b6115fc806200361983390190565b6000604051905090565b600080fd5b600080fd5b60007fffffffff0000000000000000000000000000000000000000000000000000000082169050919050565b62002271816200223a565b81146200227d57600080fd5b50565b600081359050620022918162002266565b92915050565b600060208284031215620022b057620022af62002230565b5b6000620022c08482850162002280565b91505092915050565b60008115159050919050565b620022e081620022c9565b82525050565b6000602082019050620022fd6000830184620022d5565b92915050565b600081519050919050565b600082825260208201905092915050565b60005b838110156200233f57808201518184015260208101905062002322565b838111156200234f576000848401525b50505050565b6000601f19601f8301169050919050565b6000620023738262002303565b6200237f81856200230e565b9350620023918185602086016200231f565b6200239c8162002355565b840191505092915050565b60006020820190508181036000830152620023c3818462002366565b905092915050565b600063ffffffff82169050919050565b620023e681620023cb565b82525050565b6000602082019050620024036000830184620023db565b92915050565b6000819050919050565b6200241e8162002409565b81146200242a57600080fd5b50565b6000813590506200243e8162002413565b92915050565b6000602082840312156200245d576200245c62002230565b5b60006200246d848285016200242d565b91505092915050565b600073ffffffffffffffffffffffffffffffffffffffff82169050919050565b6000620024a38262002476565b9050919050565b620024b58162002496565b82525050565b6000602082019050620024d26000830184620024aa565b92915050565b620024e38162002496565b8114620024ef57600080fd5b50565b6000813590506200250381620024d8565b92915050565b6000806040838503121562002523576200252262002230565b5b60006200253385828601620024f2565b925050602062002546858286016200242d565b9150509250929050565b6200255b8162002409565b82525050565b600060208201905062002578600083018462002550565b92915050565b6000806000606084860312156200259a576200259962002230565b5b6000620025aa86828701620024f2565b9350506020620025bd86828701620024f2565b9250506040620025d0868287016200242d565b9150509250925092565b620025e58162002409565b82525050565b620025f68162002496565b82525050565b604082016000820151620026146000850182620025da565b506020820151620026296020850182620025eb565b50505050565b6000604082019050620026466000830184620025fc565b92915050565b6000806040838503121562002666576200266562002230565b5b600062002676858286016200242d565b92505060206200268985828601620024f2565b9150509250929050565b600080600060608486031215620026af57620026ae62002230565b5b6000620026bf868287016200242d565b9350506020620026d2868287016200242d565b9250506040620026e5868287016200242d565b9150509250925092565b60006020828403121562002708576200270762002230565b5b60006200271884828501620024f2565b91505092915050565b6200272c81620023cb565b81146200273857600080fd5b50565b6000813590506200274c8162002721565b92915050565b6000602082840312156200276b576200276a62002230565b5b60006200277b848285016200273b565b91505092915050565b6200278f81620022c9565b81146200279b57600080fd5b50565b600081359050620027af8162002784565b92915050565b60008060408385031215620027cf57620027ce62002230565b5b6000620027df85828601620024f2565b9250506020620027f2858286016200279e565b9150509250929050565b600080fd5b600080fd5b7f4e487b7100000000000000000000000000000000000000000000000000000000600052604160045260246000fd5b620028408262002355565b810181811067ffffffffffffffff8211171562002862576200286162002806565b5b80604052505050565b60006200287762002226565b905062002885828262002835565b919050565b600067ffffffffffffffff821115620028a857620028a762002806565b5b620028b38262002355565b9050602081019050919050565b82818337600083830152505050565b6000620028e6620028e0846200288a565b6200286b565b90508281526020810184848401111562002905576200290462002801565b5b62002912848285620028c0565b509392505050565b600082601f830112620029325762002931620027fc565b5b813562002944848260208601620028cf565b91505092915050565b600080600080608085870312156200296a576200296962002230565b5b60006200297a87828801620024f2565b94505060206200298d87828801620024f2565b9350506040620029a0878288016200242d565b925050606085013567ffffffffffffffff811115620029c457620029c362002235565b5b620029d2878288016200291a565b91505092959194509250565b600060039050919050565b600081905092915050565b6000819050919050565b600062002a0c8383620025da565b60208301905092915050565b6000602082019050919050565b62002a3081620029de565b62002a3c8184620029e9565b925062002a4982620029f4565b8060005b8381101562002a8057815162002a648782620029fe565b965062002a718362002a18565b92505060018101905062002a4d565b505050505050565b600061010082019050818103600083015262002aa5818962002366565b905062002ab66020830188620024aa565b62002ac5604083018762002550565b62002ad4606083018662002550565b62002ae3608083018562002550565b62002af260a083018462002a25565b979650505050505050565b60008060006060848603121562002b195762002b1862002230565b5b600062002b2986828701620024f2565b935050602062002b3c868287016200242d565b925050604062002b4f868287016200242d565b9150509250925092565b6000806040838503121562002b735762002b7262002230565b5b600062002b8385828601620024f2565b925050602062002b9685828601620024f2565b9150509250929050565b7f4e487b7100000000000000000000000000000000000000000000000000000000600052602260045260246000fd5b6000600282049050600182168062002be857607f821691505b60208210810362002bfe5762002bfd62002ba0565b5b50919050565b7f4552433732313a20617070726f76616c20746f2063757272656e74206f776e6560008201527f7200000000000000000000000000000000000000000000000000000000000000602082015250565b600062002c626021836200230e565b915062002c6f8262002c04565b604082019050919050565b6000602082019050818103600083015262002c958162002c53565b9050919050565b7f4552433732313a20617070726f76652063616c6c6572206973206e6f7420746f60008201527f6b656e206f776e6572206e6f7220617070726f76656420666f7220616c6c0000602082015250565b600062002cfa603e836200230e565b915062002d078262002c9c565b604082019050919050565b6000602082019050818103600083015262002d2d8162002ceb565b9050919050565b7f4e487b7100000000000000000000000000000000000000000000000000000000600052602160045260246000fd5b7f4552433732313a2063616c6c6572206973206e6f7420746f6b656e206f776e6560008201527f72206e6f7220617070726f766564000000000000000000000000000000000000602082015250565b600062002dc1602e836200230e565b915062002dce8262002d63565b604082019050919050565b6000602082019050818103600083015262002df48162002db2565b9050919050565b7f43616c6c6572206973206e6f7420746865206f776e6572000000000000000000600082015250565b600062002e336017836200230e565b915062002e408262002dfb565b602082019050919050565b6000602082019050818103600083015262002e668162002e24565b9050919050565b7f4552433732313a20696e76616c696420746f6b656e2049440000000000000000600082015250565b600062002ea56018836200230e565b915062002eb28262002e6d565b602082019050919050565b6000602082019050818103600083015262002ed88162002e96565b9050919050565b7f4e487b7100000000000000000000000000000000000000000000000000000000600052603260045260246000fd5b7f4552433732313a2061646472657373207a65726f206973206e6f74206120766160008201527f6c6964206f776e65720000000000000000000000000000000000000000000000602082015250565b600062002f6c6029836200230e565b915062002f798262002f0e565b604082019050919050565b6000602082019050818103600083015262002f9f8162002f5d565b9050919050565b600081905092915050565b600062002fbe8262002303565b62002fca818562002fa6565b935062002fdc8185602086016200231f565b80840191505092915050565b600062002ff6828562002fb1565b915062003004828462002fb1565b91508190509392505050565b6000606082019050620030276000830186620024aa565b62003036602083018562002550565b620030456040830184620024aa565b949350505050565b7f4e487b7100000000000000000000000000000000000000000000000000000000600052601260045260246000fd5b7f4e487b7100000000000000000000000000000000000000000000000000000000600052601160045260246000fd5b6000620030b88262002409565b9150620030c58362002409565b925082620030d857620030d76200304d565b5b828204905092915050565b7f4552433732313a207472616e736665722066726f6d20696e636f72726563742060008201527f6f776e6572000000000000000000000000000000000000000000000000000000602082015250565b6000620031416025836200230e565b91506200314e82620030e3565b604082019050919050565b60006020820190508181036000830152620031748162003132565b9050919050565b7f4552433732313a207472616e7366657220746f20746865207a65726f2061646460008201527f7265737300000000000000000000000000000000000000000000000000000000602082015250565b6000620031d96024836200230e565b9150620031e6826200317b565b604082019050919050565b600060208201905081810360008301526200320c81620031ca565b9050919050565b6000620032208262002409565b91506200322d8362002409565b9250828210156200324357620032426200307c565b5b828203905092915050565b60006200325b8262002409565b9150620032688362002409565b9250827fffffffffffffffffffffffffffffffffffffffffffffffffffffffffffffffff03821115620032a0576200329f6200307c565b5b828201905092915050565b7f4552433732313a20617070726f766520746f2063616c6c657200000000000000600082015250565b6000620032e36019836200230e565b9150620032f082620032ab565b602082019050919050565b600060208201905081810360008301526200331681620032d4565b9050919050565b7f4552433732313a207472616e7366657220746f206e6f6e20455243373231526560008201527f63656976657220696d706c656d656e7465720000000000000000000000000000602082015250565b60006200337b6032836200230e565b915062003388826200331d565b604082019050919050565b60006020820190508181036000830152620033ae816200336c565b9050919050565b6000620033c28262002409565b91507fffffffffffffffffffffffffffffffffffffffffffffffffffffffffffffffff8203620033f757620033f66200307c565b5b600182019050919050565b60006200340f8262002409565b91506200341c8362002409565b9250826200342f576200342e6200304d565b5b828206905092915050565b600081519050919050565b600082825260208201905092915050565b600062003463826200343a565b6200346f818562003445565b9350620034818185602086016200231f565b6200348c8162002355565b840191505092915050565b6000608082019050620034ae6000830187620024aa565b620034bd6020830186620024aa565b620034cc604083018562002550565b8181036060830152620034e0818462003456565b905095945050505050565b600081519050620034fc8162002266565b92915050565b6000602082840312156200351b576200351a62002230565b5b60006200352b84828501620034eb565b91505092915050565b7f4552433732313a206d696e7420746f20746865207a65726f2061646472657373600082015250565b60006200356c6020836200230e565b9150620035798262003534565b602082019050919050565b600060208201905081810360008301526200359f816200355d565b9050919050565b7f4552433732313a20746f6b656e20616c7265616479206d696e74656400000000600082015250565b6000620035de601c836200230e565b9150620035eb82620035a6565b602082019050919050565b600060208201905081810360008301526200361181620035cf565b905091905056fe60806040523480156200001157600080fd5b50604051620015fc380380620015fc83398181016040528101906200003791906200028a565b8080600260006101000a81548173ffffffffffffffffffffffffffffffffffffffff021916908373ffffffffffffffffffffffffffffffffffffffff160217905550506200008c83836200009560201b60201c565b50505062000423565b600073ffffffffffffffffffffffffffffffffffffffff168273ffffffffffffffffffffffffffffffffffffffff160362000107576040517f08c379a0000000000000000000000000000000000000000000000000000000008152600401620000fe9062000347565b60405180910390fd5b80600360008282546200011b919062000398565b92505081905550806000808473ffffffffffffffffffffffffffffffffffffffff1673ffffffffffffffffffffffffffffffffffffffff168152602001908152602001600020600082825462000172919062000398565b925050819055508173ffffffffffffffffffffffffffffffffffffffff16600073ffffffffffffffffffffffffffffffffffffffff167fddf252ad1be2c89b69c2b068fc378daa952ba7f163c4a11628f55a4df523b3ef83604051620001d9919062000406565b60405180910390a35050565b600080fd5b600073ffffffffffffffffffffffffffffffffffffffff82169050919050565b60006200021782620001ea565b9050919050565b62000229816200020a565b81146200023557600080fd5b50565b60008151905062000249816200021e565b92915050565b6000819050919050565b62000264816200024f565b81146200027057600080fd5b50565b600081519050620002848162000259565b92915050565b600080600060608486031215620002a657620002a5620001e5565b5b6000620002b68682870162000238565b9350506020620002c98682870162000273565b9250506040620002dc8682870162000238565b9150509250925092565b600082825260208201905092915050565b7f45524332303a206d696e7420746f20746865207a65726f206164647265737300600082015250565b60006200032f601f83620002e6565b91506200033c82620002f7565b602082019050919050565b60006020820190508181036000830152620003628162000320565b9050919050565b7f4e487b7100000000000000000000000000000000000000000000000000000000600052601160045260246000fd5b6000620003a5826200024f565b9150620003b2836200024f565b9250827fffffffffffffffffffffffffffffffffffffffffffffffffffffffffffffffff03821115620003ea57620003e962000369565b5b828201905092915050565b62000400816200024f565b82525050565b60006020820190506200041d6000830184620003f5565b92915050565b6111c980620004336000396000f3fe608060405234801561001057600080fd5b50600436106100885760003560e01c80639dc29fac1161005b5780639dc29fac14610129578063a9059cbb14610145578063dd62ed3e14610175578063e1f21c67146101a557610088565b806318160ddd1461008d57806323b872dd146100ab578063313ce567146100db57806370a08231146100f9575b600080fd5b6100956101d5565b6040516100a291906109dc565b60405180910390f35b6100c560048036038101906100c09190610a86565b6101df565b6040516100d29190610af4565b60405180910390f35b6100e36101f7565b6040516100f09190610b2b565b60405180910390f35b610113600480360381019061010e9190610b46565b610200565b60405161012091906109dc565b60405180910390f35b610143600480360381019061013e9190610b73565b610248565b005b61015f600480360381019061015a9190610b73565b6103f6565b60405161016c9190610af4565b60405180910390f35b61018f600480360381019061018a9190610bb3565b610419565b60405161019c91906109dc565b60405180910390f35b6101bf60048036038101906101ba9190610a86565b6104a0565b6040516101cc9190610af4565b60405180910390f35b6000600354905090565b60006101ec848484610701565b600190509392505050565b60006012905090565b60008060008373ffffffffffffffffffffffffffffffffffffffff1673ffffffffffffffffffffffffffffffffffffffff168152602001908152602001600020549050919050565b600073ffffffffffffffffffffffffffffffffffffffff168273ffffffffffffffffffffffffffffffffffffffff16036102b7576040517f08c379a00000000000000000000000000000000000000000000000000000000081526004016102ae90610c76565b60405180910390fd5b60008060008473ffffffffffffffffffffffffffffffffffffffff1673ffffffffffffffffffffffffffffffffffffffff1681526020019081526020016000205490508181101561033d576040517f08c379a000000000000000000000000000000000000000000000000000000000815260040161033490610d08565b60405180910390fd5b81816103499190610d57565b6000808573ffffffffffffffffffffffffffffffffffffffff1673ffffffffffffffffffffffffffffffffffffffff16815260200190815260200160002081905550600073ffffffffffffffffffffffffffffffffffffffff168373ffffffffffffffffffffffffffffffffffffffff167fddf252ad1be2c89b69c2b068fc378daa952ba7f163c4a11628f55a4df523b3ef846040516103e991906109dc565b60405180910390a3505050565b6000806104016109bb565b905061040e818585610701565b600191505092915050565b6000600160008473ffffffffffffffffffffffffffffffffffffffff1673ffffffffffffffffffffffffffffffffffffffff16815260200190815260200160002060008373ffffffffffffffffffffffffffffffffffffffff1673ffffffffffffffffffffffffffffffffffffffff16815260200190815260200160002054905092915050565b6000600260009054906101000a900473ffffffffffffffffffffffffffffffffffffffff1673ffffffffffffffffffffffffffffffffffffffff163373ffffffffffffffffffffffffffffffffffffffff1614610532576040517f08c379a000000000000000000000000000000000000000000000000000000000815260040161052990610dd7565b60405180910390fd5b600073ffffffffffffffffffffffffffffffffffffffff168473ffffffffffffffffffffffffffffffffffffffff16036105a1576040517f08c379a000000000000000000000000000000000000000000000000000000000815260040161059890610e69565b60405180910390fd5b600073ffffffffffffffffffffffffffffffffffffffff168373ffffffffffffffffffffffffffffffffffffffff1603610610576040517f08c379a000000000000000000000000000000000000000000000000000000000815260040161060790610efb565b60405180910390fd5b81600160008673ffffffffffffffffffffffffffffffffffffffff1673ffffffffffffffffffffffffffffffffffffffff16815260200190815260200160002060008573ffffffffffffffffffffffffffffffffffffffff1673ffffffffffffffffffffffffffffffffffffffff168152602001908152602001600020819055508273ffffffffffffffffffffffffffffffffffffffff168473ffffffffffffffffffffffffffffffffffffffff167f8c5be1e5ebec7d5bd14f71427d1e84f3dd0314c0f7b2291e5b200ac8c7c3b925846040516106ee91906109dc565b60405180910390a3600190509392505050565b600073ffffffffffffffffffffffffffffffffffffffff168373ffffffffffffffffffffffffffffffffffffffff1603610770576040517f08c379a000000000000000000000000000000000000000000000000000000000815260040161076790610f8d565b60405180910390fd5b600073ffffffffffffffffffffffffffffffffffffffff168273ffffffffffffffffffffffffffffffffffffffff16036107df576040517f08c379a00000000000000000000000000000000000000000000000000000000081526004016107d69061101f565b60405180910390fd5b60006107eb8484610419565b905081811461082f576040517f08c379a00000000000000000000000000000000000000000000000000000000081526004016108269061108b565b60405180910390fd5b60008060008673ffffffffffffffffffffffffffffffffffffffff1673ffffffffffffffffffffffffffffffffffffffff168152602001908152602001600020549050828110156108b5576040517f08c379a00000000000000000000000000000000000000000000000000000000081526004016108ac9061111d565b60405180910390fd5b8281036000808773ffffffffffffffffffffffffffffffffffffffff1673ffffffffffffffffffffffffffffffffffffffff16815260200190815260200160002081905550826000808673ffffffffffffffffffffffffffffffffffffffff1673ffffffffffffffffffffffffffffffffffffffff1681526020019081526020016000206000828254610948919061113d565b925050819055508373ffffffffffffffffffffffffffffffffffffffff168573ffffffffffffffffffffffffffffffffffffffff167fddf252ad1be2c89b69c2b068fc378daa952ba7f163c4a11628f55a4df523b3ef856040516109ac91906109dc565b60405180910390a35050505050565b600033905090565b6000819050919050565b6109d6816109c3565b82525050565b60006020820190506109f160008301846109cd565b92915050565b600080fd5b600073ffffffffffffffffffffffffffffffffffffffff82169050919050565b6000610a27826109fc565b9050919050565b610a3781610a1c565b8114610a4257600080fd5b50565b600081359050610a5481610a2e565b92915050565b610a63816109c3565b8114610a6e57600080fd5b50565b600081359050610a8081610a5a565b92915050565b600080600060608486031215610a9f57610a9e6109f7565b5b6000610aad86828701610a45565b9350506020610abe86828701610a45565b9250506040610acf86828701610a71565b9150509250925092565b60008115159050919050565b610aee81610ad9565b82525050565b6000602082019050610b096000830184610ae5565b92915050565b600060ff82169050919050565b610b2581610b0f565b82525050565b6000602082019050610b406000830184610b1c565b92915050565b600060208284031215610b5c57610b5b6109f7565b5b6000610b6a84828501610a45565b91505092915050565b60008060408385031215610b8a57610b896109f7565b5b6000610b9885828601610a45565b9250506020610ba985828601610a71565b9150509250929050565b60008060408385031215610bca57610bc96109f7565b5b6000610bd885828601610a45565b9250506020610be985828601610a45565b9150509250929050565b600082825260208201905092915050565b7f45524332303a206275726e2066726f6d20746865207a65726f2061646472657360008201527f7300000000000000000000000000000000000000000000000000000000000000602082015250565b6000610c60602183610bf3565b9150610c6b82610c04565b604082019050919050565b60006020820190508181036000830152610c8f81610c53565b9050919050565b7f45524332303a206275726e20616d6f756e7420657863656564732062616c616e60008201527f6365000000000000000000000000000000000000000000000000000000000000602082015250565b6000610cf2602283610bf3565b9150610cfd82610c96565b604082019050919050565b60006020820190508181036000830152610d2181610ce5565b9050919050565b7f4e487b7100000000000000000000000000000000000000000000000000000000600052601160045260246000fd5b6000610d62826109c3565b9150610d6d836109c3565b925082821015610d8057610d7f610d28565b5b828203905092915050565b7f43616c6c6572206973206e6f7420746865206f776e6572000000000000000000600082015250565b6000610dc1601783610bf3565b9150610dcc82610d8b565b602082019050919050565b60006020820190508181036000830152610df081610db4565b9050919050565b7f45524332303a20617070726f76652066726f6d20746865207a65726f2061646460008201527f7265737300000000000000000000000000000000000000000000000000000000602082015250565b6000610e53602483610bf3565b9150610e5e82610df7565b604082019050919050565b60006020820190508181036000830152610e8281610e46565b9050919050565b7f45524332303a20617070726f766520746f20746865207a65726f20616464726560008201527f7373000000000000000000000000000000000000000000000000000000000000602082015250565b6000610ee5602283610bf3565b9150610ef082610e89565b604082019050919050565b60006020820190508181036000830152610f1481610ed8565b9050919050565b7f45524332303a207472616e736665722066726f6d20746865207a65726f20616460008201527f6472657373000000000000000000000000000000000000000000000000000000602082015250565b6000610f77602583610bf3565b9150610f8282610f1b565b604082019050919050565b60006020820190508181036000830152610fa681610f6a565b9050919050565b7f45524332303a207472616e7366657220746f20746865207a65726f206164647260008201527f6573730000000000000000000000000000000000000000000000000000000000602082015250565b6000611009602383610bf3565b915061101482610fad565b604082019050919050565b6000602082019050818103600083015261103881610ffc565b9050919050565b7f45524332303a20696e73756666696369656e7420616c6c6f77616e6365000000600082015250565b6000611075601d83610bf3565b91506110808261103f565b602082019050919050565b600060208201905081810360008301526110a481611068565b9050919050565b7f45524332303a207472616e7366657220616d6f756e742065786365656473206260008201527f616c616e63650000000000000000000000000000000000000000000000000000602082015250565b6000611107602683610bf3565b9150611112826110ab565b604082019050919050565b60006020820190508181036000830152611136816110fa565b9050919050565b6000611148826109c3565b9150611153836109c3565b9250827fffffffffffffffffffffffffffffffffffffffffffffffffffffffffffffffff0382111561118857611187610d28565b5b82820190509291505056fea2646970667358221220d4e29a8af72ebe40e4b5a37535f69a51e9a7d6e1bae2c3bb690627cf7b5a007664736f6c634300080f0033a2646970667358221220e8899f181a157d9bc33c9fb21c95353017b64077d7b82317f7beb8a531b0cc7064736f6c634300080f0033",
  "immutableReferences": {},
  "source": "// SPDX-License-Identifier: MIT\npragma solidity ^0.8.4;\nimport \"@openzeppelin/contracts/token/ERC721/ERC721.sol\";\nimport \"./Shares.sol\";\n\n\ncontract Lottery is ERC721 {\n    uint256 private totalNumbers;\n    uint256 private totalSeries;\n    uint256 private ticketCost;\n    uint256 private totalPrize;\n    string private lotteryName;\n\n    uint32 private requestId;\n\n    uint256[] private purchasedTickets;\n\n    mapping(uint256 => _share) private ticketToShare;\n\n    uint256[3] private winnerTickets;\n    mapping(uint256 => bool) private winnerTicketsMap;\n\n\n    address owner;\n\n    States state;\n    enum States {\n        LotteryActive,\n        LotteryFinished\n    }\n\n    struct _share {\n        uint256 tokenId;\n        address shares;\n    }\n\n    constructor(\n        uint256 _ticketCost,\n        uint256 _totalNumbers,\n        uint256 _totalSeries,\n        address _owner,\n        uint256 _totalPrize,\n        string memory _lotteryName\n    ) payable ERC721(_lotteryName, _lotteryName) {\n        require(\n            msg.value == _totalPrize,\n            \"Necesitas enviar mas ETH para el premio\"\n        );\n        totalPrize = _totalPrize;\n        require(\n            _ticketCost > 0,\n            \"El coste de cada ticket tiene que ser superior a 0\"\n        );\n        ticketCost = _ticketCost;\n        totalNumbers = _totalNumbers;\n        totalSeries = _totalSeries;\n        owner = _owner;\n        state = States.LotteryActive;\n        lotteryName = _lotteryName;\n    }\n\n    modifier onlyOwner() {\n        require(msg.sender == owner, \"Caller is not the owner\");\n        _;\n    }\n\n    function payPrize(uint256 weiToPay, address _to) public onlyOwner {\n        payable(_to).transfer(weiToPay);\n    }\n\n    function mintBoleto(\n        address _to,\n        uint256 _tokenId,\n        uint256 _totalShares\n    ) public onlyOwner {\n        _safeMint(_to, _tokenId);\n        Shares _shares = new Shares(_to, _totalShares, owner);\n        ticketToShare[_tokenId] = _share(_tokenId, address(_shares));\n        purchasedTickets.push(_tokenId);\n    }\n\n    function infoLottery()\n        public\n        view\n        returns (\n            string memory,\n            address,\n            uint256,\n            uint256,\n            uint256,\n            uint256[3] memory\n        )\n    {\n        return (\n            lotteryName,\n            owner,\n            totalNumbers,\n            totalSeries,\n            ticketCost,\n            winnerTickets\n        );\n    }\n\n    function setRequestId(uint32 _requestId) public onlyOwner {\n        requestId = _requestId;\n    }\n\n    function getRequestId() public view returns (uint32) {\n        return requestId;\n    }\n\n    function setLotteryFinished() public onlyOwner {\n        state = States.LotteryFinished;\n    }\n\n    function isLotteryFinished() public view returns (bool) {\n        return state == States.LotteryFinished;\n    }\n\n    function getTotalPurchasedTickets() public view returns (uint256) {\n        return purchasedTickets.length;\n    }\n\n    function setWinnerTickets(\n        uint256 numBoleto1,\n        uint256 numBoleto2,\n        uint256 numBoleto3\n    ) public onlyOwner {\n        winnerTickets[0] = purchasedTickets[numBoleto1];\n        winnerTickets[1] = purchasedTickets[numBoleto2];\n        winnerTickets[2] = purchasedTickets[numBoleto3];\n        winnerTicketsMap[purchasedTickets[numBoleto1]] = true;\n        winnerTicketsMap[purchasedTickets[numBoleto2]] = true;\n        winnerTicketsMap[purchasedTickets[numBoleto3]] = true;\n    }\n\n    function getPrizeLottery() public view returns (uint256) {\n        return totalPrize / winnerTickets.length;\n    }\n\n    function isWinnerTicket(uint256 _tokenId) public view returns (bool) {\n        return winnerTicketsMap[_tokenId];\n    }\n\n    function getTicketToShare(uint256 _tokenId)\n        public\n        view\n        returns (_share memory)\n    {\n        return ticketToShare[_tokenId];\n    }\n}\n",
  "sourcePath": "/mnt/d/pardo/Desktop/Treballs/TFG/TFG/src/contracts/Lottery.sol",
  "compiler": {
    "name": "solc",
    "version": "0.8.15+commit.e14f2714.Emscripten.clang"
  },
  "schemaVersion": "3.4.7",
  "updatedAt": "2022-11-11T12:28:26.427Z",
  "devdoc": {
    "kind": "dev",
    "methods": {
      "approve(address,uint256)": {
        "details": "See {IERC721-approve}."
      },
      "balanceOf(address)": {
        "details": "See {IERC721-balanceOf}."
      },
      "getApproved(uint256)": {
        "details": "See {IERC721-getApproved}."
      },
      "isApprovedForAll(address,address)": {
        "details": "See {IERC721-isApprovedForAll}."
      },
      "name()": {
        "details": "See {IERC721Metadata-name}."
      },
      "ownerOf(uint256)": {
        "details": "See {IERC721-ownerOf}."
      },
      "safeTransferFrom(address,address,uint256)": {
        "details": "See {IERC721-safeTransferFrom}."
      },
      "safeTransferFrom(address,address,uint256,bytes)": {
        "details": "See {IERC721-safeTransferFrom}."
      },
      "setApprovalForAll(address,bool)": {
        "details": "See {IERC721-setApprovalForAll}."
      },
      "supportsInterface(bytes4)": {
        "details": "See {IERC165-supportsInterface}."
      },
      "symbol()": {
        "details": "See {IERC721Metadata-symbol}."
      },
      "tokenURI(uint256)": {
        "details": "See {IERC721Metadata-tokenURI}."
      },
      "transferFrom(address,address,uint256)": {
        "details": "See {IERC721-transferFrom}."
      }
    },
    "version": 1
  },
  "userdoc": {
    "kind": "user",
    "methods": {},
    "version": 1
  }
}