{
  "contractName": "LotteryService",
  "abi": [
    {
      "inputs": [
        {
          "internalType": "uint64",
          "name": "_subscriptionId",
          "type": "uint64"
        }
      ],
      "stateMutability": "nonpayable",
      "type": "constructor"
    },
    {
      "inputs": [
        {
          "internalType": "address",
          "name": "have",
          "type": "address"
        },
        {
          "internalType": "address",
          "name": "want",
          "type": "address"
        }
      ],
      "name": "OnlyCoordinatorCanFulfill",
      "type": "error"
    },
    {
      "anonymous": false,
      "inputs": [
        {
          "indexed": true,
          "internalType": "uint256",
          "name": "requestId",
          "type": "uint256"
        },
        {
          "indexed": true,
          "internalType": "address",
          "name": "lotteryId",
          "type": "address"
        }
      ],
      "name": "RandomNumberRequested",
      "type": "event"
    },
    {
      "anonymous": false,
      "inputs": [
        {
          "indexed": true,
          "internalType": "address",
          "name": "lotteryId",
          "type": "address"
        },
        {
          "indexed": false,
          "internalType": "uint256[]",
          "name": "winnerTickets",
          "type": "uint256[]"
        }
      ],
      "name": "WinnersGenerated",
      "type": "event"
    },
    {
      "anonymous": false,
      "inputs": [
        {
          "indexed": false,
          "internalType": "address",
          "name": "lotteryContract",
          "type": "address"
        }
      ],
      "name": "lotteryAdded",
      "type": "event"
    },
    {
      "anonymous": false,
      "inputs": [
        {
          "indexed": false,
          "internalType": "address",
          "name": "lotteryId",
          "type": "address"
        },
        {
          "indexed": false,
          "internalType": "uint256",
          "name": "tokenId",
          "type": "uint256"
        }
      ],
      "name": "prizeReceived",
      "type": "event"
    },
    {
      "anonymous": false,
      "inputs": [
        {
          "indexed": false,
          "internalType": "address",
          "name": "lotteryId",
          "type": "address"
        },
        {
          "indexed": false,
          "internalType": "address",
          "name": "from",
          "type": "address"
        },
        {
          "indexed": false,
          "internalType": "uint256",
          "name": "tokenId",
          "type": "uint256"
        },
        {
          "indexed": false,
          "internalType": "uint256",
          "name": "amount",
          "type": "uint256"
        }
      ],
      "name": "sharesBought",
      "type": "event"
    },
    {
      "anonymous": false,
      "inputs": [
        {
          "indexed": false,
          "internalType": "address",
          "name": "lotteryId",
          "type": "address"
        },
        {
          "indexed": false,
          "internalType": "address",
          "name": "to",
          "type": "address"
        },
        {
          "indexed": false,
          "internalType": "uint256",
          "name": "tokenId",
          "type": "uint256"
        },
        {
          "indexed": false,
          "internalType": "uint256",
          "name": "amount",
          "type": "uint256"
        }
      ],
      "name": "ticketAllowedToBuy",
      "type": "event"
    },
    {
      "anonymous": false,
      "inputs": [
        {
          "indexed": false,
          "internalType": "address",
          "name": "lotteryId",
          "type": "address"
        },
        {
          "indexed": false,
          "internalType": "uint256",
          "name": "tokenId",
          "type": "uint256"
        },
        {
          "indexed": false,
          "internalType": "uint256",
          "name": "totalShares",
          "type": "uint256"
        }
      ],
      "name": "ticketBought",
      "type": "event"
    },
    {
      "inputs": [],
      "name": "getDecimals",
      "outputs": [
        {
          "internalType": "uint8",
          "name": "",
          "type": "uint8"
        }
      ],
      "stateMutability": "view",
      "type": "function"
    },
    {
      "inputs": [],
      "name": "getLatestPrice",
      "outputs": [
        {
          "internalType": "uint256",
          "name": "",
          "type": "uint256"
        }
      ],
      "stateMutability": "view",
      "type": "function"
    },
    {
      "inputs": [],
      "name": "priceFeed",
      "outputs": [
        {
          "internalType": "contract AggregatorV3Interface",
          "name": "",
          "type": "address"
        }
      ],
      "stateMutability": "view",
      "type": "function"
    },
    {
      "inputs": [
        {
          "internalType": "uint256",
          "name": "requestId",
          "type": "uint256"
        },
        {
          "internalType": "uint256[]",
          "name": "randomWords",
          "type": "uint256[]"
        }
      ],
      "name": "rawFulfillRandomWords",
      "outputs": [],
      "stateMutability": "nonpayable",
      "type": "function"
    },
    {
      "inputs": [
        {
          "internalType": "address",
          "name": "_address",
          "type": "address"
        }
      ],
      "name": "addAuthorized",
      "outputs": [],
      "stateMutability": "nonpayable",
      "type": "function"
    },
    {
      "inputs": [
        {
          "internalType": "address",
          "name": "_address",
          "type": "address"
        }
      ],
      "name": "removeAuthorized",
      "outputs": [],
      "stateMutability": "nonpayable",
      "type": "function"
    },
    {
      "inputs": [
        {
          "internalType": "uint256",
          "name": "ticketCost",
          "type": "uint256"
        }
      ],
      "name": "getCostEth",
      "outputs": [
        {
          "internalType": "uint256",
          "name": "",
          "type": "uint256"
        }
      ],
      "stateMutability": "view",
      "type": "function"
    },
    {
      "inputs": [
        {
          "internalType": "address payable",
          "name": "_lotteryContract",
          "type": "address"
        }
      ],
      "name": "addLottery",
      "outputs": [],
      "stateMutability": "nonpayable",
      "type": "function"
    },
    {
      "inputs": [
        {
          "internalType": "address payable",
          "name": "_lotteryId",
          "type": "address"
        }
      ],
      "name": "getBenefits",
      "outputs": [],
      "stateMutability": "nonpayable",
      "type": "function"
    },
    {
      "inputs": [],
      "name": "finishLotteries",
      "outputs": [],
      "stateMutability": "nonpayable",
      "type": "function"
    },
    {
      "inputs": [
        {
          "internalType": "address payable",
          "name": "_lotteryId",
          "type": "address"
        },
        {
          "internalType": "uint256",
          "name": "_tokenId",
          "type": "uint256"
        }
      ],
      "name": "refundTicket",
      "outputs": [],
      "stateMutability": "nonpayable",
      "type": "function"
    },
    {
      "inputs": [
        {
          "internalType": "address payable",
          "name": "_lotteryId",
          "type": "address"
        },
        {
          "internalType": "uint256",
          "name": "_tokenId",
          "type": "uint256"
        }
      ],
      "name": "getPrize",
      "outputs": [],
      "stateMutability": "nonpayable",
      "type": "function"
    },
    {
      "inputs": [
        {
          "internalType": "address payable",
          "name": "_lotteryId",
          "type": "address"
        },
        {
          "internalType": "uint256",
          "name": "_numTicket",
          "type": "uint256"
        },
        {
          "internalType": "uint256",
          "name": "_numSerie",
          "type": "uint256"
        },
        {
          "internalType": "uint256",
          "name": "_numFraccion",
          "type": "uint256"
        },
        {
          "internalType": "uint256",
          "name": "_totalShares",
          "type": "uint256"
        }
      ],
      "name": "buyTicket",
      "outputs": [],
      "stateMutability": "payable",
      "type": "function"
    },
    {
      "inputs": [
        {
          "internalType": "address payable",
          "name": "_lotteryId",
          "type": "address"
        },
        {
          "internalType": "address",
          "name": "_to",
          "type": "address"
        },
        {
          "internalType": "uint256",
          "name": "_amount",
          "type": "uint256"
        },
        {
          "internalType": "uint256",
          "name": "_tokenId",
          "type": "uint256"
        }
      ],
      "name": "allowBuyShares",
      "outputs": [],
      "stateMutability": "nonpayable",
      "type": "function"
    },
    {
      "inputs": [
        {
          "internalType": "address payable",
          "name": "_lotteryId",
          "type": "address"
        },
        {
          "internalType": "address",
          "name": "_from",
          "type": "address"
        },
        {
          "internalType": "uint256",
          "name": "_tokenId",
          "type": "uint256"
        }
      ],
      "name": "buyShares",
      "outputs": [],
      "stateMutability": "payable",
      "type": "function"
    },
    {
      "inputs": [
        {
          "internalType": "address payable",
          "name": "_lotteryId",
          "type": "address"
        },
        {
          "internalType": "address",
          "name": "_to",
          "type": "address"
        },
        {
          "internalType": "uint256",
          "name": "_tokenId",
          "type": "uint256"
        }
      ],
      "name": "getSharesOfBuyer",
      "outputs": [
        {
          "internalType": "uint256",
          "name": "",
          "type": "uint256"
        }
      ],
      "stateMutability": "view",
      "type": "function"
    },
    {
      "inputs": [
        {
          "internalType": "address payable",
          "name": "_lotteryId",
          "type": "address"
        },
        {
          "internalType": "uint256",
          "name": "_tokenId",
          "type": "uint256"
        }
      ],
      "name": "getTotalSupplyShares",
      "outputs": [
        {
          "internalType": "uint256",
          "name": "",
          "type": "uint256"
        }
      ],
      "stateMutability": "view",
      "type": "function"
    },
    {
      "inputs": [],
      "name": "getLotteries",
      "outputs": [
        {
          "internalType": "address payable[]",
          "name": "",
          "type": "address[]"
        }
      ],
      "stateMutability": "view",
      "type": "function"
    },
    {
      "inputs": [],
      "name": "getUnfinishedLotteries",
      "outputs": [
        {
          "internalType": "address payable[]",
          "name": "",
          "type": "address[]"
        }
      ],
      "stateMutability": "view",
      "type": "function"
    },
    {
      "inputs": [
        {
          "internalType": "address payable",
          "name": "_lotteryId",
          "type": "address"
        }
      ],
      "name": "getLottery",
      "outputs": [
        {
          "internalType": "string",
          "name": "",
          "type": "string"
        },
        {
          "internalType": "uint256",
          "name": "",
          "type": "uint256"
        },
        {
          "internalType": "address",
          "name": "",
          "type": "address"
        },
        {
          "internalType": "uint256",
          "name": "",
          "type": "uint256"
        },
        {
          "internalType": "uint256",
          "name": "",
          "type": "uint256"
        },
        {
          "internalType": "uint256",
          "name": "",
          "type": "uint256"
        },
        {
          "internalType": "uint256",
          "name": "",
          "type": "uint256"
        },
        {
          "internalType": "uint256",
          "name": "",
          "type": "uint256"
        },
        {
          "internalType": "uint32",
          "name": "",
          "type": "uint32"
        },
        {
          "internalType": "uint256[]",
          "name": "",
          "type": "uint256[]"
        }
      ],
      "stateMutability": "view",
      "type": "function"
    },
    {
      "inputs": [
        {
          "internalType": "address payable",
          "name": "_lotteryId",
          "type": "address"
        },
        {
          "internalType": "uint256",
          "name": "_numTicket",
          "type": "uint256"
        },
        {
          "internalType": "uint256",
          "name": "_numSerie",
          "type": "uint256"
        },
        {
          "internalType": "uint256",
          "name": "_numFraccion",
          "type": "uint256"
        }
      ],
      "name": "getTokenId",
      "outputs": [
        {
          "internalType": "uint256",
          "name": "",
          "type": "uint256"
        }
      ],
      "stateMutability": "view",
      "type": "function"
    },
    {
      "inputs": [],
      "name": "owner",
      "outputs": [
        {
          "internalType": "address",
          "name": "",
          "type": "address"
        }
      ],
      "stateMutability": "view",
      "type": "function"
    }
  ],
  "bytecode": "0x60e0604052732ca8e0c643bde4c2e08ab1fa0da3401adad7734d600460006101000a81548173ffffffffffffffffffffffffffffffffffffffff021916908373ffffffffffffffffffffffffffffffffffffffff1602179055503480156200006657600080fd5b50604051620066e3380380620066e383398181016040528101906200008c91906200030e565b600460009054906101000a900473ffffffffffffffffffffffffffffffffffffffff1673d4a33860578de61dbabdc8bfdb98fd742fa7028e6000806101000a81548173ffffffffffffffffffffffffffffffffffffffff021916908373ffffffffffffffffffffffffffffffffffffffff1602179055508073ffffffffffffffffffffffffffffffffffffffff1660808173ffffffffffffffffffffffffffffffffffffffff16815250505033600260006101000a81548173ffffffffffffffffffffffffffffffffffffffff021916908373ffffffffffffffffffffffffffffffffffffffff1602179055506001600360003373ffffffffffffffffffffffffffffffffffffffff1673ffffffffffffffffffffffffffffffffffffffff16815260200190815260200160002060006101000a81548160ff0219169083151502179055508067ffffffffffffffff1660c08167ffffffffffffffff1681525050600460009054906101000a900473ffffffffffffffffffffffffffffffffffffffff1673ffffffffffffffffffffffffffffffffffffffff1660a08173ffffffffffffffffffffffffffffffffffffffff16815250506040516200025190620002b6565b604051809103906000f0801580156200026e573d6000803e3d6000fd5b50600160006101000a81548173ffffffffffffffffffffffffffffffffffffffff021916908373ffffffffffffffffffffffffffffffffffffffff1602179055505062000340565b610fb5806200572e83390190565b600080fd5b600067ffffffffffffffff82169050919050565b620002e881620002c9565b8114620002f457600080fd5b50565b6000815190506200030881620002dd565b92915050565b600060208284031215620003275762000326620002c4565b5b60006200033784828501620002f7565b91505092915050565b60805160a05160c0516153b76200037760003960006135cb0152600061356b01526000818161098101526109d501526153b76000f3fe6080604052600436106101355760003560e01c80638da5cb5b116100ab578063c9bc415d1161006f578063c9bc415d1461042d578063ca964bc014610444578063cf1c316a14610481578063dd06f6bd146104aa578063f0141d84146104c6578063f496ca63146104f157610135565b80638da5cb5b1461035a5780638e15f47314610385578063b9e74f47146103b0578063bcc82ec4146103d9578063c68b875e1461040457610135565b80633a36d669116100fd5780633a36d6691461024e578063485d7d941461028b5780634d0f8201146102b45780635a6329c5146102dd578063705099b914610306578063741bef1a1461032f57610135565b80630868d8e11461013a57806310b0b21f146101655780631e88c9c0146101a25780631fe543e3146101e85780632e9c8aa614610211575b600080fd5b34801561014657600080fd5b5061014f61050d565b60405161015c91906137e3565b60405180910390f35b34801561017157600080fd5b5061018c600480360381019061018791906138b9565b6105aa565b604051610199919061391b565b60405180910390f35b3480156101ae57600080fd5b506101c960048036038101906101c49190613936565b6107fd565b6040516101df9a99989796959493929190613ae8565b60405180910390f35b3480156101f457600080fd5b5061020f600480360381019061020a9190613cda565b61097f565b005b34801561021d57600080fd5b5061023860048036038101906102339190613d36565b610a3f565b604051610245919061391b565b60405180910390f35b34801561025a57600080fd5b5061027560048036038101906102709190613d76565b610c86565b604051610282919061391b565b60405180910390f35b34801561029757600080fd5b506102b260048036038101906102ad9190613da3565b610cb8565b005b3480156102c057600080fd5b506102db60048036038101906102d69190613936565b610da3565b005b3480156102e957600080fd5b5061030460048036038101906102ff9190613936565b611032565b005b34801561031257600080fd5b5061032d60048036038101906103289190613d36565b61114f565b005b34801561033b57600080fd5b50610344611548565b6040516103519190613e2f565b60405180910390f35b34801561036657600080fd5b5061036f61156c565b60405161037c9190613e4a565b60405180910390f35b34801561039157600080fd5b5061039a611596565b6040516103a7919061391b565b60405180910390f35b3480156103bc57600080fd5b506103d760048036038101906103d29190613e65565b611635565b005b3480156103e557600080fd5b506103ee61198c565b6040516103fb91906137e3565b60405180910390f35b34801561041057600080fd5b5061042b60048036038101906104269190613d36565b611a29565b005b34801561043957600080fd5b50610442611eec565b005b34801561045057600080fd5b5061046b60048036038101906104669190613ecc565b61211d565b604051610478919061391b565b60405180910390f35b34801561048d57600080fd5b506104a860048036038101906104a39190613da3565b6122c8565b005b6104c460048036038101906104bf91906138b9565b6123b3565b005b3480156104d257600080fd5b506104db612a0f565b6040516104e89190613f4f565b60405180910390f35b61050b60048036038101906105069190613f6a565b612aa6565b005b6060600160009054906101000a900473ffffffffffffffffffffffffffffffffffffffff1673ffffffffffffffffffffffffffffffffffffffff16630868d8e16040518163ffffffff1660e01b8152600401600060405180830381865afa15801561057c573d6000803e3d6000fd5b505050506040513d6000823e3d601f19601f820116820180604052508101906105a591906140bd565b905090565b600083600160009054906101000a900473ffffffffffffffffffffffffffffffffffffffff1673ffffffffffffffffffffffffffffffffffffffff16635c392b3b826040518263ffffffff1660e01b81526004016106089190613e4a565b602060405180830381865afa158015610625573d6000803e3d6000fd5b505050506040513d601f19601f82011682018060405250810190610649919061413e565b610688576040517f08c379a000000000000000000000000000000000000000000000000000000000815260040161067f906141b7565b60405180910390fd5b60008573ffffffffffffffffffffffffffffffffffffffff166335cc590f856040518263ffffffff1660e01b81526004016106c3919061391b565b6040805180830381865afa1580156106df573d6000803e3d6000fd5b505050506040513d601f19601f820116820180604052508101906107039190614256565b602001519050600073ffffffffffffffffffffffffffffffffffffffff168173ffffffffffffffffffffffffffffffffffffffff1603610778576040517f08c379a000000000000000000000000000000000000000000000000000000000815260040161076f906142cf565b60405180910390fd5b8073ffffffffffffffffffffffffffffffffffffffff166370a08231866040518263ffffffff1660e01b81526004016107b19190613e4a565b602060405180830381865afa1580156107ce573d6000803e3d6000fd5b505050506040513d601f19601f820116820180604052508101906107f291906142ef565b925050509392505050565b606060008060008060008060008060608a600160009054906101000a900473ffffffffffffffffffffffffffffffffffffffff1673ffffffffffffffffffffffffffffffffffffffff16635c392b3b826040518263ffffffff1660e01b81526004016108699190613e4a565b602060405180830381865afa158015610886573d6000803e3d6000fd5b505050506040513d601f19601f820116820180604052508101906108aa919061413e565b6108e9576040517f08c379a00000000000000000000000000000000000000000000000000000000081526004016108e0906141b7565b60405180910390fd5b8b73ffffffffffffffffffffffffffffffffffffffff1663be2e69056040518163ffffffff1660e01b8152600401600060405180830381865afa158015610934573d6000803e3d6000fd5b505050506040513d6000823e3d601f19601f8201168201806040525081019061095d9190614485565b9a509a509a509a509a509a509a509a509a509a50509193959799509193959799565b7f000000000000000000000000000000000000000000000000000000000000000073ffffffffffffffffffffffffffffffffffffffff163373ffffffffffffffffffffffffffffffffffffffff1614610a3157337f00000000000000000000000000000000000000000000000000000000000000006040517f1cf993f4000000000000000000000000000000000000000000000000000000008152600401610a2892919061459c565b60405180910390fd5b610a3b8282612fcd565b5050565b600082600160009054906101000a900473ffffffffffffffffffffffffffffffffffffffff1673ffffffffffffffffffffffffffffffffffffffff16635c392b3b826040518263ffffffff1660e01b8152600401610a9d9190613e4a565b602060405180830381865afa158015610aba573d6000803e3d6000fd5b505050506040513d601f19601f82011682018060405250810190610ade919061413e565b610b1d576040517f08c379a0000000000000000000000000000000000000000000000000000000008152600401610b14906141b7565b60405180910390fd5b60008473ffffffffffffffffffffffffffffffffffffffff166335cc590f856040518263ffffffff1660e01b8152600401610b58919061391b565b6040805180830381865afa158015610b74573d6000803e3d6000fd5b505050506040513d601f19601f82011682018060405250810190610b989190614256565b602001519050600073ffffffffffffffffffffffffffffffffffffffff168173ffffffffffffffffffffffffffffffffffffffff1603610c0d576040517f08c379a0000000000000000000000000000000000000000000000000000000008152600401610c04906142cf565b60405180910390fd5b8073ffffffffffffffffffffffffffffffffffffffff166318160ddd6040518163ffffffff1660e01b8152600401602060405180830381865afa158015610c58573d6000803e3d6000fd5b505050506040513d601f19601f82011682018060405250810190610c7c91906142ef565b9250505092915050565b6000610c90611596565b6a52b7d2dcc80cd2e400000083610ca791906145f4565b610cb1919061467d565b9050919050565b3373ffffffffffffffffffffffffffffffffffffffff16600260009054906101000a900473ffffffffffffffffffffffffffffffffffffffff1673ffffffffffffffffffffffffffffffffffffffff1614610d48576040517f08c379a0000000000000000000000000000000000000000000000000000000008152600401610d3f906146fa565b60405180910390fd5b6000600360008373ffffffffffffffffffffffffffffffffffffffff1673ffffffffffffffffffffffffffffffffffffffff16815260200190815260200160002060006101000a81548160ff02191690831515021790555050565b3373ffffffffffffffffffffffffffffffffffffffff16600260009054906101000a900473ffffffffffffffffffffffffffffffffffffffff1673ffffffffffffffffffffffffffffffffffffffff1614610e33576040517f08c379a0000000000000000000000000000000000000000000000000000000008152600401610e2a906146fa565b60405180910390fd5b80600160009054906101000a900473ffffffffffffffffffffffffffffffffffffffff1673ffffffffffffffffffffffffffffffffffffffff16635c392b3b826040518263ffffffff1660e01b8152600401610e8f9190613e4a565b602060405180830381865afa158015610eac573d6000803e3d6000fd5b505050506040513d601f19601f82011682018060405250810190610ed0919061413e565b610f0f576040517f08c379a0000000000000000000000000000000000000000000000000000000008152600401610f06906141b7565b60405180910390fd5b60008290508073ffffffffffffffffffffffffffffffffffffffff16631091ce5f6040518163ffffffff1660e01b8152600401602060405180830381865afa158015610f5f573d6000803e3d6000fd5b505050506040513d601f19601f82011682018060405250810190610f83919061413e565b610fc2576040517f08c379a0000000000000000000000000000000000000000000000000000000008152600401610fb990614766565b60405180910390fd5b8073ffffffffffffffffffffffffffffffffffffffff16634d0f8201336040518263ffffffff1660e01b8152600401610ffb9190613e4a565b600060405180830381600087803b15801561101557600080fd5b505af1158015611029573d6000803e3d6000fd5b50505050505050565b600360003373ffffffffffffffffffffffffffffffffffffffff1673ffffffffffffffffffffffffffffffffffffffff16815260200190815260200160002060009054906101000a900460ff1661108857600080fd5b600160009054906101000a900473ffffffffffffffffffffffffffffffffffffffff1673ffffffffffffffffffffffffffffffffffffffff1663f298083b826040518263ffffffff1660e01b81526004016110e39190614795565b600060405180830381600087803b1580156110fd57600080fd5b505af1158015611111573d6000803e3d6000fd5b505050507f975665bfcefb0ff5d26e5e5006d1a828ebab0a4ae16997b9ed58d23542c493848160405161114491906147d1565b60405180910390a150565b81600160009054906101000a900473ffffffffffffffffffffffffffffffffffffffff1673ffffffffffffffffffffffffffffffffffffffff16635c392b3b826040518263ffffffff1660e01b81526004016111ab9190613e4a565b602060405180830381865afa1580156111c8573d6000803e3d6000fd5b505050506040513d601f19601f820116820180604052508101906111ec919061413e565b61122b576040517f08c379a0000000000000000000000000000000000000000000000000000000008152600401611222906141b7565b60405180910390fd5b60008390508073ffffffffffffffffffffffffffffffffffffffff166307a805056040518163ffffffff1660e01b8152600401602060405180830381865afa15801561127b573d6000803e3d6000fd5b505050506040513d601f19601f8201168201806040525081019061129f919061413e565b6112de576040517f08c379a00000000000000000000000000000000000000000000000000000000081526004016112d590614838565b60405180910390fd5b60006112eb8533866105aa565b905060008103611330576040517f08c379a0000000000000000000000000000000000000000000000000000000008152600401611327906148ca565b60405180910390fd5b600061133c8686610a3f565b90508273ffffffffffffffffffffffffffffffffffffffff166335cc590f866040518263ffffffff1660e01b8152600401611377919061391b565b6040805180830381865afa158015611393573d6000803e3d6000fd5b505050506040513d601f19601f820116820180604052508101906113b79190614256565b6020015173ffffffffffffffffffffffffffffffffffffffff16639dc29fac33846040518363ffffffff1660e01b81526004016113f59291906148ea565b600060405180830381600087803b15801561140f57600080fd5b505af1158015611423573d6000803e3d6000fd5b505050506000818473ffffffffffffffffffffffffffffffffffffffff16631609443a6040518163ffffffff1660e01b8152600401602060405180830381865afa158015611475573d6000803e3d6000fd5b505050506040513d601f19601f8201168201806040525081019061149991906142ef565b6114a391906145f4565b838873ffffffffffffffffffffffffffffffffffffffff16316114c691906145f4565b6114d0919061467d565b90508373ffffffffffffffffffffffffffffffffffffffff16633d0d832282336040518363ffffffff1660e01b815260040161150d929190614913565b600060405180830381600087803b15801561152757600080fd5b505af115801561153b573d6000803e3d6000fd5b5050505050505050505050565b60008054906101000a900473ffffffffffffffffffffffffffffffffffffffff1681565b6000600260009054906101000a900473ffffffffffffffffffffffffffffffffffffffff16905090565b60008060008054906101000a900473ffffffffffffffffffffffffffffffffffffffff1673ffffffffffffffffffffffffffffffffffffffff1663feaf968c6040518163ffffffff1660e01b815260040160a060405180830381865afa158015611604573d6000803e3d6000fd5b505050506040513d601f19601f8201168201806040525081019061162891906149b4565b5050509150508091505090565b83600160009054906101000a900473ffffffffffffffffffffffffffffffffffffffff1673ffffffffffffffffffffffffffffffffffffffff16635c392b3b826040518263ffffffff1660e01b81526004016116919190613e4a565b602060405180830381865afa1580156116ae573d6000803e3d6000fd5b505050506040513d601f19601f820116820180604052508101906116d2919061413e565b611711576040517f08c379a0000000000000000000000000000000000000000000000000000000008152600401611708906141b7565b60405180910390fd5b60008590508073ffffffffffffffffffffffffffffffffffffffff16631091ce5f6040518163ffffffff1660e01b8152600401602060405180830381865afa158015611761573d6000803e3d6000fd5b505050506040513d601f19601f82011682018060405250810190611785919061413e565b156117c5576040517f08c379a00000000000000000000000000000000000000000000000000000000081526004016117bc90614a7b565b60405180910390fd5b60008173ffffffffffffffffffffffffffffffffffffffff166335cc590f856040518263ffffffff1660e01b8152600401611800919061391b565b6040805180830381865afa15801561181c573d6000803e3d6000fd5b505050506040513d601f19601f820116820180604052508101906118409190614256565b602001519050848173ffffffffffffffffffffffffffffffffffffffff166370a08231336040518263ffffffff1660e01b81526004016118809190613e4a565b602060405180830381865afa15801561189d573d6000803e3d6000fd5b505050506040513d601f19601f820116820180604052508101906118c191906142ef565b1015611902576040517f08c379a00000000000000000000000000000000000000000000000000000000081526004016118f990614b0d565b60405180910390fd5b8073ffffffffffffffffffffffffffffffffffffffff1663e1f21c673388886040518463ffffffff1660e01b815260040161193f93929190614b2d565b6020604051808303816000875af115801561195e573d6000803e3d6000fd5b505050506040513d601f19601f82011682018060405250810190611982919061413e565b5050505050505050565b6060600160009054906101000a900473ffffffffffffffffffffffffffffffffffffffff1673ffffffffffffffffffffffffffffffffffffffff1663bcc82ec46040518163ffffffff1660e01b8152600401600060405180830381865afa1580156119fb573d6000803e3d6000fd5b505050506040513d6000823e3d601f19601f82011682018060405250810190611a2491906140bd565b905090565b81600160009054906101000a900473ffffffffffffffffffffffffffffffffffffffff1673ffffffffffffffffffffffffffffffffffffffff16635c392b3b826040518263ffffffff1660e01b8152600401611a859190613e4a565b602060405180830381865afa158015611aa2573d6000803e3d6000fd5b505050506040513d601f19601f82011682018060405250810190611ac6919061413e565b611b05576040517f08c379a0000000000000000000000000000000000000000000000000000000008152600401611afc906141b7565b60405180910390fd5b60008390508073ffffffffffffffffffffffffffffffffffffffff16631091ce5f6040518163ffffffff1660e01b8152600401602060405180830381865afa158015611b55573d6000803e3d6000fd5b505050506040513d601f19601f82011682018060405250810190611b79919061413e565b611bb8576040517f08c379a0000000000000000000000000000000000000000000000000000000008152600401611baf90614766565b60405180910390fd5b8073ffffffffffffffffffffffffffffffffffffffff166378591f08846040518263ffffffff1660e01b8152600401611bf1919061391b565b602060405180830381865afa158015611c0e573d6000803e3d6000fd5b505050506040513d601f19601f82011682018060405250810190611c32919061413e565b611c71576040517f08c379a0000000000000000000000000000000000000000000000000000000008152600401611c6890614bb0565b60405180910390fd5b6000611c7e8533866105aa565b905060008103611cc3576040517f08c379a0000000000000000000000000000000000000000000000000000000008152600401611cba906148ca565b60405180910390fd5b6000611ccf8686610a3f565b90508273ffffffffffffffffffffffffffffffffffffffff166335cc590f866040518263ffffffff1660e01b8152600401611d0a919061391b565b6040805180830381865afa158015611d26573d6000803e3d6000fd5b505050506040513d601f19601f82011682018060405250810190611d4a9190614256565b6020015173ffffffffffffffffffffffffffffffffffffffff16639dc29fac33846040518363ffffffff1660e01b8152600401611d889291906148ea565b600060405180830381600087803b158015611da257600080fd5b505af1158015611db6573d6000803e3d6000fd5b505050508273ffffffffffffffffffffffffffffffffffffffff16633d0d8322828573ffffffffffffffffffffffffffffffffffffffff1663fe020b806040518163ffffffff1660e01b8152600401602060405180830381865afa158015611e22573d6000803e3d6000fd5b505050506040513d601f19601f82011682018060405250810190611e4691906142ef565b85611e5191906145f4565b611e5b919061467d565b336040518363ffffffff1660e01b8152600401611e79929190614913565b600060405180830381600087803b158015611e9357600080fd5b505af1158015611ea7573d6000803e3d6000fd5b505050507fb990c5fc6a9e17bd9cde91b34490705b9ddd8337dff022c00e14d3a7f51741ae8686604051611edc929190614bd0565b60405180910390a1505050505050565b6000600160009054906101000a900473ffffffffffffffffffffffffffffffffffffffff1673ffffffffffffffffffffffffffffffffffffffff16630868d8e16040518163ffffffff1660e01b8152600401600060405180830381865afa158015611f5b573d6000803e3d6000fd5b505050506040513d6000823e3d601f19601f82011682018060405250810190611f8491906140bd565b905060008060005b835181101561211757838181518110611fa857611fa7614bf9565b5b602002602001015192508273ffffffffffffffffffffffffffffffffffffffff1663be2e69056040518163ffffffff1660e01b8152600401600060405180830381865afa158015611ffd573d6000803e3d6000fd5b505050506040513d6000823e3d601f19601f820116820180604052508101906120269190614485565b90919293949596979850909192939495965090919293949550909192939450909192935090919250909150905050809250508142106121175761208284828151811061207557612074614bf9565b5b60200260200101516130e4565b600160009054906101000a900473ffffffffffffffffffffffffffffffffffffffff1673ffffffffffffffffffffffffffffffffffffffff16638267e0be6040518163ffffffff1660e01b8152600401600060405180830381600087803b1580156120ec57600080fd5b505af1158015612100573d6000803e3d6000fd5b50505050808061210f90614c28565b915050611f8c565b50505050565b600084600160009054906101000a900473ffffffffffffffffffffffffffffffffffffffff1673ffffffffffffffffffffffffffffffffffffffff16635c392b3b826040518263ffffffff1660e01b815260040161217b9190613e4a565b602060405180830381865afa158015612198573d6000803e3d6000fd5b505050506040513d601f19601f820116820180604052508101906121bc919061413e565b6121fb576040517f08c379a00000000000000000000000000000000000000000000000000000000081526004016121f2906141b7565b60405180910390fd5b600086905060008173ffffffffffffffffffffffffffffffffffffffff1663be2e69056040518163ffffffff1660e01b8152600401600060405180830381865afa15801561224d573d6000803e3d6000fd5b505050506040513d6000823e3d601f19601f820116820180604052508101906122769190614485565b505050505094505050505084600a8761228f91906145f4565b600a8361229c91906145f4565b896122a791906145f4565b6122b19190614c70565b6122bb9190614c70565b9350505050949350505050565b3373ffffffffffffffffffffffffffffffffffffffff16600260009054906101000a900473ffffffffffffffffffffffffffffffffffffffff1673ffffffffffffffffffffffffffffffffffffffff1614612358576040517f08c379a000000000000000000000000000000000000000000000000000000000815260040161234f906146fa565b60405180910390fd5b6001600360008373ffffffffffffffffffffffffffffffffffffffff1673ffffffffffffffffffffffffffffffffffffffff16815260200190815260200160002060006101000a81548160ff02191690831515021790555050565b82600160009054906101000a900473ffffffffffffffffffffffffffffffffffffffff1673ffffffffffffffffffffffffffffffffffffffff16635c392b3b826040518263ffffffff1660e01b815260040161240f9190613e4a565b602060405180830381865afa15801561242c573d6000803e3d6000fd5b505050506040513d601f19601f82011682018060405250810190612450919061413e565b61248f576040517f08c379a0000000000000000000000000000000000000000000000000000000008152600401612486906141b7565b60405180910390fd5b60008490508073ffffffffffffffffffffffffffffffffffffffff16631091ce5f6040518163ffffffff1660e01b8152600401602060405180830381865afa1580156124df573d6000803e3d6000fd5b505050506040513d601f19601f82011682018060405250810190612503919061413e565b15612543576040517f08c379a000000000000000000000000000000000000000000000000000000000815260040161253a90614a7b565b60405180910390fd5b60008173ffffffffffffffffffffffffffffffffffffffff166335cc590f856040518263ffffffff1660e01b815260040161257e919061391b565b6040805180830381865afa15801561259a573d6000803e3d6000fd5b505050506040513d601f19601f820116820180604052508101906125be9190614256565b60200151905060008673ffffffffffffffffffffffffffffffffffffffff1663be2e69056040518163ffffffff1660e01b8152600401600060405180830381865afa158015612611573d6000803e3d6000fd5b505050506040513d6000823e3d601f19601f8201168201806040525081019061263a9190614485565b505050509550505050505060008273ffffffffffffffffffffffffffffffffffffffff1663dd62ed3e88336040518363ffffffff1660e01b815260040161268292919061459c565b602060405180830381865afa15801561269f573d6000803e3d6000fd5b505050506040513d601f19601f820116820180604052508101906126c391906142ef565b905080600010612708576040517f08c379a00000000000000000000000000000000000000000000000000000000081526004016126ff90614d38565b60405180910390fd5b60008373ffffffffffffffffffffffffffffffffffffffff166318160ddd6040518163ffffffff1660e01b8152600401602060405180830381865afa158015612755573d6000803e3d6000fd5b505050506040513d601f19601f8201168201806040525081019061277991906142ef565b61278284610c86565b8361278d91906145f4565b612797919061467d565b9050803410156127dc576040517f08c379a00000000000000000000000000000000000000000000000000000000081526004016127d390614dca565b60405180910390fd5b8373ffffffffffffffffffffffffffffffffffffffff166323b872dd8933856040518463ffffffff1660e01b815260040161281993929190614b2d565b6020604051808303816000875af1158015612838573d6000803e3d6000fd5b505050506040513d601f19601f8201168201806040525081019061285c919061413e565b506000813461286b9190614dea565b905060003373ffffffffffffffffffffffffffffffffffffffff168260405161289390614e4f565b60006040518083038185875af1925050503d80600081146128d0576040519150601f19603f3d011682016040523d82523d6000602084013e6128d5565b606091505b5050905080612919576040517f08c379a000000000000000000000000000000000000000000000000000000000815260040161291090614eb0565b60405180910390fd5b8973ffffffffffffffffffffffffffffffffffffffff168360405161293d90614e4f565b60006040518083038185875af1925050503d806000811461297a576040519150601f19603f3d011682016040523d82523d6000602084013e61297f565b606091505b505080915050806129c5576040517f08c379a00000000000000000000000000000000000000000000000000000000081526004016129bc90614f1c565b60405180910390fd5b7f313ea8c33b682632e20873803046b3847fcd44e63b1f381d358d89445c46ab6a8b8b8b876040516129fa9493929190614f3c565b60405180910390a15050505050505050505050565b60008060009054906101000a900473ffffffffffffffffffffffffffffffffffffffff1673ffffffffffffffffffffffffffffffffffffffff1663313ce5676040518163ffffffff1660e01b8152600401602060405180830381865afa158015612a7d573d6000803e3d6000fd5b505050506040513d601f19601f82011682018060405250810190612aa19190614fad565b905090565b84600160009054906101000a900473ffffffffffffffffffffffffffffffffffffffff1673ffffffffffffffffffffffffffffffffffffffff16635c392b3b826040518263ffffffff1660e01b8152600401612b029190613e4a565b602060405180830381865afa158015612b1f573d6000803e3d6000fd5b505050506040513d601f19601f82011682018060405250810190612b43919061413e565b612b82576040517f08c379a0000000000000000000000000000000000000000000000000000000008152600401612b79906141b7565b60405180910390fd5b600086905060008311612bca576040517f08c379a0000000000000000000000000000000000000000000000000000000008152600401612bc19061504c565b60405180910390fd5b8073ffffffffffffffffffffffffffffffffffffffff16631091ce5f6040518163ffffffff1660e01b8152600401602060405180830381865afa158015612c15573d6000803e3d6000fd5b505050506040513d601f19601f82011682018060405250810190612c39919061413e565b15612c79576040517f08c379a0000000000000000000000000000000000000000000000000000000008152600401612c7090614a7b565b60405180910390fd5b60008060008373ffffffffffffffffffffffffffffffffffffffff1663be2e69056040518163ffffffff1660e01b8152600401600060405180830381865afa158015612cc9573d6000803e3d6000fd5b505050506040513d6000823e3d601f19601f82011682018060405250810190612cf29190614485565b50505050955095509550505050612d0c8989898686613519565b612d4b576040517f08c379a0000000000000000000000000000000000000000000000000000000008152600401612d42906150de565b60405180910390fd5b6000612d5682610c86565b905080341015612d9b576040517f08c379a0000000000000000000000000000000000000000000000000000000008152600401612d9290615170565b60405180910390fd5b60008134612da99190614dea565b90506000612db98d8d8d8d61211d565b90508673ffffffffffffffffffffffffffffffffffffffff1663da9d933133838c6040518463ffffffff1660e01b8152600401612df893929190615190565b600060405180830381600087803b158015612e1257600080fd5b505af1158015612e26573d6000803e3d6000fd5b5050505060003373ffffffffffffffffffffffffffffffffffffffff1683604051612e5090614e4f565b60006040518083038185875af1925050503d8060008114612e8d576040519150601f19603f3d011682016040523d82523d6000602084013e612e92565b606091505b5050905080612ed6576040517f08c379a0000000000000000000000000000000000000000000000000000000008152600401612ecd90614eb0565b60405180910390fd5b8d73ffffffffffffffffffffffffffffffffffffffff1684604051612efa90614e4f565b60006040518083038185875af1925050503d8060008114612f37576040519150601f19603f3d011682016040523d82523d6000602084013e612f3c565b606091505b50508091505080612f82576040517f08c379a0000000000000000000000000000000000000000000000000000000008152600401612f7990615213565b60405180910390fd5b7f4c9d4d64e349413d00281dd6ada0347538fd221ffa2eb763ac2838eef575ee5e8e838c604051612fb593929190615233565b60405180910390a15050505050505050505050505050565b60006005600084815260200190815260200160002060009054906101000a900473ffffffffffffffffffffffffffffffffffffffff169050600081905060008173ffffffffffffffffffffffffffffffffffffffff1663dae782ef856040518263ffffffff1660e01b8152600401613045919061526a565b6000604051808303816000875af1158015613064573d6000803e3d6000fd5b505050506040513d6000823e3d601f19601f8201168201806040525081019061308d919061528c565b90508273ffffffffffffffffffffffffffffffffffffffff167fb79199f51db99b1362612d21002e8ff93cf8c01d6e47aaa7057835142d38e615826040516130d5919061526a565b60405180910390a25050505050565b80600160009054906101000a900473ffffffffffffffffffffffffffffffffffffffff1673ffffffffffffffffffffffffffffffffffffffff16635c392b3b826040518263ffffffff1660e01b81526004016131409190613e4a565b602060405180830381865afa15801561315d573d6000803e3d6000fd5b505050506040513d601f19601f82011682018060405250810190613181919061413e565b6131c0576040517f08c379a00000000000000000000000000000000000000000000000000000000081526004016131b7906141b7565b60405180910390fd5b600082905060008060008373ffffffffffffffffffffffffffffffffffffffff1663be2e69056040518163ffffffff1660e01b8152600401600060405180830381865afa158015613215573d6000803e3d6000fd5b505050506040513d6000823e3d601f19601f8201168201806040525081019061323e9190614485565b5050975097505050505093505082421161328d576040517f08c379a000000000000000000000000000000000000000000000000000000000815260040161328490614766565b60405180910390fd5b8373ffffffffffffffffffffffffffffffffffffffff16631091ce5f6040518163ffffffff1660e01b8152600401602060405180830381865afa1580156132d8573d6000803e3d6000fd5b505050506040513d601f19601f820116820180604052508101906132fc919061413e565b1561333c576040517f08c379a000000000000000000000000000000000000000000000000000000000815260040161333390614a7b565b60405180910390fd5b818473ffffffffffffffffffffffffffffffffffffffff16631609443a6040518163ffffffff1660e01b8152600401602060405180830381865afa158015613388573d6000803e3d6000fd5b505050506040513d601f19601f820116820180604052508101906133ac91906142ef565b11156133c1576133bb86613566565b506134b1565b8373ffffffffffffffffffffffffffffffffffffffff16633d0d832282600260009054906101000a900473ffffffffffffffffffffffffffffffffffffffff166040518363ffffffff1660e01b815260040161341e929190614913565b600060405180830381600087803b15801561343857600080fd5b505af115801561344c573d6000803e3d6000fd5b505050508373ffffffffffffffffffffffffffffffffffffffff166301561df16040518163ffffffff1660e01b8152600401600060405180830381600087803b15801561349857600080fd5b505af11580156134ac573d6000803e3d6000fd5b505050505b8373ffffffffffffffffffffffffffffffffffffffff1663d726c7306040518163ffffffff1660e01b8152600401600060405180830381600087803b1580156134f957600080fd5b505af115801561350d573d6000803e3d6000fd5b50505050505050505050565b600080861015801561352a57508286105b8015613537575060008510155b801561354257508185105b801561354f575060008410155b801561355b5750600a84105b905095945050505050565b6000807f000000000000000000000000000000000000000000000000000000000000000073ffffffffffffffffffffffffffffffffffffffff16635d3b1d307f79d3d8832d904592c0bf9818b621522c988bb8b0c05cdc3b15aea1b6e8db0c1560001b7f0000000000000000000000000000000000000000000000000000000000000000600562030d4060016040518663ffffffff1660e01b815260040161361295949392919061532e565b6020604051808303816000875af1158015613631573d6000803e3d6000fd5b505050506040513d601f19601f8201168201806040525081019061365591906142ef565b9050826005600083815260200190815260200160002060006101000a81548173ffffffffffffffffffffffffffffffffffffffff021916908373ffffffffffffffffffffffffffffffffffffffff1602179055508273ffffffffffffffffffffffffffffffffffffffff16817f5c26be7c63c538733cb4a2ce864c2fee740dfcfefd2c08da9cdfb17ce0f65e1960405160405180910390a350919050565b600081519050919050565b600082825260208201905092915050565b6000819050602082019050919050565b600073ffffffffffffffffffffffffffffffffffffffff82169050919050565b600061374a8261371f565b9050919050565b61375a8161373f565b82525050565b600061376c8383613751565b60208301905092915050565b6000602082019050919050565b6000613790826136f3565b61379a81856136fe565b93506137a58361370f565b8060005b838110156137d65781516137bd8882613760565b97506137c883613778565b9250506001810190506137a9565b5085935050505092915050565b600060208201905081810360008301526137fd8184613785565b905092915050565b6000604051905090565b600080fd5b600080fd5b6138228161373f565b811461382d57600080fd5b50565b60008135905061383f81613819565b92915050565b60006138508261371f565b9050919050565b61386081613845565b811461386b57600080fd5b50565b60008135905061387d81613857565b92915050565b6000819050919050565b61389681613883565b81146138a157600080fd5b50565b6000813590506138b38161388d565b92915050565b6000806000606084860312156138d2576138d161380f565b5b60006138e086828701613830565b93505060206138f18682870161386e565b9250506040613902868287016138a4565b9150509250925092565b61391581613883565b82525050565b6000602082019050613930600083018461390c565b92915050565b60006020828403121561394c5761394b61380f565b5b600061395a84828501613830565b91505092915050565b600081519050919050565b600082825260208201905092915050565b60005b8381101561399d578082015181840152602081019050613982565b838111156139ac576000848401525b50505050565b6000601f19601f8301169050919050565b60006139ce82613963565b6139d8818561396e565b93506139e881856020860161397f565b6139f1816139b2565b840191505092915050565b613a0581613845565b82525050565b600063ffffffff82169050919050565b613a2481613a0b565b82525050565b600081519050919050565b600082825260208201905092915050565b6000819050602082019050919050565b613a5f81613883565b82525050565b6000613a718383613a56565b60208301905092915050565b6000602082019050919050565b6000613a9582613a2a565b613a9f8185613a35565b9350613aaa83613a46565b8060005b83811015613adb578151613ac28882613a65565b9750613acd83613a7d565b925050600181019050613aae565b5085935050505092915050565b6000610140820190508181036000830152613b03818d6139c3565b9050613b12602083018c61390c565b613b1f604083018b6139fc565b613b2c606083018a61390c565b613b39608083018961390c565b613b4660a083018861390c565b613b5360c083018761390c565b613b6060e083018661390c565b613b6e610100830185613a1b565b818103610120830152613b818184613a8a565b90509b9a5050505050505050505050565b600080fd5b7f4e487b7100000000000000000000000000000000000000000000000000000000600052604160045260246000fd5b613bcf826139b2565b810181811067ffffffffffffffff82111715613bee57613bed613b97565b5b80604052505050565b6000613c01613805565b9050613c0d8282613bc6565b919050565b600067ffffffffffffffff821115613c2d57613c2c613b97565b5b602082029050602081019050919050565b600080fd5b6000613c56613c5184613c12565b613bf7565b90508083825260208201905060208402830185811115613c7957613c78613c3e565b5b835b81811015613ca25780613c8e88826138a4565b845260208401935050602081019050613c7b565b5050509392505050565b600082601f830112613cc157613cc0613b92565b5b8135613cd1848260208601613c43565b91505092915050565b60008060408385031215613cf157613cf061380f565b5b6000613cff858286016138a4565b925050602083013567ffffffffffffffff811115613d2057613d1f613814565b5b613d2c85828601613cac565b9150509250929050565b60008060408385031215613d4d57613d4c61380f565b5b6000613d5b85828601613830565b9250506020613d6c858286016138a4565b9150509250929050565b600060208284031215613d8c57613d8b61380f565b5b6000613d9a848285016138a4565b91505092915050565b600060208284031215613db957613db861380f565b5b6000613dc78482850161386e565b91505092915050565b6000819050919050565b6000613df5613df0613deb8461371f565b613dd0565b61371f565b9050919050565b6000613e0782613dda565b9050919050565b6000613e1982613dfc565b9050919050565b613e2981613e0e565b82525050565b6000602082019050613e446000830184613e20565b92915050565b6000602082019050613e5f60008301846139fc565b92915050565b60008060008060808587031215613e7f57613e7e61380f565b5b6000613e8d87828801613830565b9450506020613e9e8782880161386e565b9350506040613eaf878288016138a4565b9250506060613ec0878288016138a4565b91505092959194509250565b60008060008060808587031215613ee657613ee561380f565b5b6000613ef487828801613830565b9450506020613f05878288016138a4565b9350506040613f16878288016138a4565b9250506060613f27878288016138a4565b91505092959194509250565b600060ff82169050919050565b613f4981613f33565b82525050565b6000602082019050613f646000830184613f40565b92915050565b600080600080600060a08688031215613f8657613f8561380f565b5b6000613f9488828901613830565b9550506020613fa5888289016138a4565b9450506040613fb6888289016138a4565b9350506060613fc7888289016138a4565b9250506080613fd8888289016138a4565b9150509295509295909350565b600067ffffffffffffffff82111561400057613fff613b97565b5b602082029050602081019050919050565b60008151905061402081613819565b92915050565b600061403961403484613fe5565b613bf7565b9050808382526020820190506020840283018581111561405c5761405b613c3e565b5b835b8181101561408557806140718882614011565b84526020840193505060208101905061405e565b5050509392505050565b600082601f8301126140a4576140a3613b92565b5b81516140b4848260208601614026565b91505092915050565b6000602082840312156140d3576140d261380f565b5b600082015167ffffffffffffffff8111156140f1576140f0613814565b5b6140fd8482850161408f565b91505092915050565b60008115159050919050565b61411b81614106565b811461412657600080fd5b50565b60008151905061413881614112565b92915050565b6000602082840312156141545761415361380f565b5b600061416284828501614129565b91505092915050565b7f4c61206c6f7465726961206e6f20657869737465000000000000000000000000600082015250565b60006141a160148361396e565b91506141ac8261416b565b602082019050919050565b600060208201905081810360008301526141d081614194565b9050919050565b600080fd5b6000815190506141eb8161388d565b92915050565b60008151905061420081613857565b92915050565b60006040828403121561421c5761421b6141d7565b5b6142266040613bf7565b90506000614236848285016141dc565b600083015250602061424a848285016141f1565b60208301525092915050565b60006040828403121561426c5761426b61380f565b5b600061427a84828501614206565b91505092915050565b7f456c207469636b6574206e6f206861207369646f20636f6d707261646f000000600082015250565b60006142b9601d8361396e565b91506142c482614283565b602082019050919050565b600060208201905081810360008301526142e8816142ac565b9050919050565b6000602082840312156143055761430461380f565b5b6000614313848285016141dc565b91505092915050565b600080fd5b600067ffffffffffffffff82111561433c5761433b613b97565b5b614345826139b2565b9050602081019050919050565b600061436561436084614321565b613bf7565b9050828152602081018484840111156143815761438061431c565b5b61438c84828561397f565b509392505050565b600082601f8301126143a9576143a8613b92565b5b81516143b9848260208601614352565b91505092915050565b6143cb81613a0b565b81146143d657600080fd5b50565b6000815190506143e8816143c2565b92915050565b60006144016143fc84613c12565b613bf7565b9050808382526020820190506020840283018581111561442457614423613c3e565b5b835b8181101561444d578061443988826141dc565b845260208401935050602081019050614426565b5050509392505050565b600082601f83011261446c5761446b613b92565b5b815161447c8482602086016143ee565b91505092915050565b6000806000806000806000806000806101408b8d0312156144a9576144a861380f565b5b60008b015167ffffffffffffffff8111156144c7576144c6613814565b5b6144d38d828e01614394565b9a505060206144e48d828e016141dc565b99505060406144f58d828e016141f1565b98505060606145068d828e016141dc565b97505060806145178d828e016141dc565b96505060a06145288d828e016141dc565b95505060c06145398d828e016141dc565b94505060e061454a8d828e016141dc565b93505061010061455c8d828e016143d9565b9250506101208b015167ffffffffffffffff81111561457e5761457d613814565b5b61458a8d828e01614457565b9150509295989b9194979a5092959850565b60006040820190506145b160008301856139fc565b6145be60208301846139fc565b9392505050565b7f4e487b7100000000000000000000000000000000000000000000000000000000600052601160045260246000fd5b60006145ff82613883565b915061460a83613883565b9250817fffffffffffffffffffffffffffffffffffffffffffffffffffffffffffffffff0483118215151615614643576146426145c5565b5b828202905092915050565b7f4e487b7100000000000000000000000000000000000000000000000000000000600052601260045260246000fd5b600061468882613883565b915061469383613883565b9250826146a3576146a261464e565b5b828204905092915050565b7f4f776e61626c653a2063616c6c6572206973206e6f7420746865206f776e6572600082015250565b60006146e460208361396e565b91506146ef826146ae565b602082019050919050565b60006020820190508181036000830152614713816146d7565b9050919050565b7f4c61206c6f74657269612061756e206e6f206861207465726d696e61646f0000600082015250565b6000614750601e8361396e565b915061475b8261471a565b602082019050919050565b6000602082019050818103600083015261477f81614743565b9050919050565b61478f8161373f565b82525050565b60006020820190506147aa6000830184614786565b92915050565b60006147bb82613dfc565b9050919050565b6147cb816147b0565b82525050565b60006020820190506147e660008301846147c2565b92915050565b7f4c61206c6f7465726961206e6f2068612066616c6c61646f0000000000000000600082015250565b600061482260188361396e565b915061482d826147ec565b602082019050919050565b6000602082019050818103600083015261485181614815565b9050919050565b7f4e6f207469656e652070617274696369706163696f6e6573206465206573746560008201527f207469636b657400000000000000000000000000000000000000000000000000602082015250565b60006148b460278361396e565b91506148bf82614858565b604082019050919050565b600060208201905081810360008301526148e3816148a7565b9050919050565b60006040820190506148ff60008301856139fc565b61490c602083018461390c565b9392505050565b6000604082019050614928600083018561390c565b61493560208301846139fc565b9392505050565b600069ffffffffffffffffffff82169050919050565b61495b8161493c565b811461496657600080fd5b50565b60008151905061497881614952565b92915050565b6000819050919050565b6149918161497e565b811461499c57600080fd5b50565b6000815190506149ae81614988565b92915050565b600080600080600060a086880312156149d0576149cf61380f565b5b60006149de88828901614969565b95505060206149ef8882890161499f565b9450506040614a00888289016141dc565b9350506060614a11888289016141dc565b9250506080614a2288828901614969565b9150509295509295909350565b7f4c61206c6f7465726961207961206861207465726d696e61646f000000000000600082015250565b6000614a65601a8361396e565b9150614a7082614a2f565b602082019050919050565b60006020820190508181036000830152614a9481614a58565b9050919050565b7f4e6f207469656e657320737566696369656e746573207061727469636970616360008201527f696f6e65732064652065737465207469636b6574000000000000000000000000602082015250565b6000614af760348361396e565b9150614b0282614a9b565b604082019050919050565b60006020820190508181036000830152614b2681614aea565b9050919050565b6000606082019050614b4260008301866139fc565b614b4f60208301856139fc565b614b5c604083018461390c565b949350505050565b7f45737465207469636b6574206e6f207469656e65207072656d696f0000000000600082015250565b6000614b9a601b8361396e565b9150614ba582614b64565b602082019050919050565b60006020820190508181036000830152614bc981614b8d565b9050919050565b6000604082019050614be560008301856147c2565b614bf2602083018461390c565b9392505050565b7f4e487b7100000000000000000000000000000000000000000000000000000000600052603260045260246000fd5b6000614c3382613883565b91507fffffffffffffffffffffffffffffffffffffffffffffffffffffffffffffffff8203614c6557614c646145c5565b5b600182019050919050565b6000614c7b82613883565b9150614c8683613883565b9250827fffffffffffffffffffffffffffffffffffffffffffffffffffffffffffffffff03821115614cbb57614cba6145c5565b5b828201905092915050565b7f4e6f207469656e6573207065726d69736f207061726120636f6d70726172207060008201527f617274696369706163696f6e6573000000000000000000000000000000000000602082015250565b6000614d22602e8361396e565b9150614d2d82614cc6565b604082019050919050565b60006020820190508181036000830152614d5181614d15565b9050919050565b7f4e6563657369746173206d617320455448207061726120636f6d70726172206c60008201527f61732070617274696369706163696f6e65730000000000000000000000000000602082015250565b6000614db460328361396e565b9150614dbf82614d58565b604082019050919050565b60006020820190508181036000830152614de381614da7565b9050919050565b6000614df582613883565b9150614e0083613883565b925082821015614e1357614e126145c5565b5b828203905092915050565b600081905092915050565b50565b6000614e39600083614e1e565b9150614e4482614e29565b600082019050919050565b6000614e5a82614e2c565b9150819050919050565b7f526566756e64207472616e73666572206661696c656400000000000000000000600082015250565b6000614e9a60168361396e565b9150614ea582614e64565b602082019050919050565b60006020820190508181036000830152614ec981614e8d565b9050919050565b7f5061796d656e74206661696c6564000000000000000000000000000000000000600082015250565b6000614f06600e8361396e565b9150614f1182614ed0565b602082019050919050565b60006020820190508181036000830152614f3581614ef9565b9050919050565b6000608082019050614f5160008301876147c2565b614f5e60208301866139fc565b614f6b604083018561390c565b614f78606083018461390c565b95945050505050565b614f8a81613f33565b8114614f9557600080fd5b50565b600081519050614fa781614f81565b92915050565b600060208284031215614fc357614fc261380f565b5b6000614fd184828501614f98565b91505092915050565b7f4465626573206164717569726972206d617320646520756e612070617274696360008201527f69706163696f6e00000000000000000000000000000000000000000000000000602082015250565b600061503660278361396e565b915061504182614fda565b604082019050919050565b6000602082019050818103600083015261506581615029565b9050919050565b7f456c206e756d65726f2c7365726965206f206672616363696f6e206e6f20736f60008201527f6e20636f72726563746f73000000000000000000000000000000000000000000602082015250565b60006150c8602b8361396e565b91506150d38261506c565b604082019050919050565b600060208201905081810360008301526150f7816150bb565b9050919050565b7f4e6563657369746173206d617320455448207061726120636f6d70726172207560008201527f6e207469636b6574000000000000000000000000000000000000000000000000602082015250565b600061515a60288361396e565b9150615165826150fe565b604082019050919050565b600060208201905081810360008301526151898161514d565b9050919050565b60006060820190506151a560008301866139fc565b6151b2602083018561390c565b6151bf604083018461390c565b949350505050565b7f5472616e73666572206661696c65640000000000000000000000000000000000600082015250565b60006151fd600f8361396e565b9150615208826151c7565b602082019050919050565b6000602082019050818103600083015261522c816151f0565b9050919050565b600060608201905061524860008301866147c2565b615255602083018561390c565b615262604083018461390c565b949350505050565b600060208201905081810360008301526152848184613a8a565b905092915050565b6000602082840312156152a2576152a161380f565b5b600082015167ffffffffffffffff8111156152c0576152bf613814565b5b6152cc84828501614457565b91505092915050565b6000819050919050565b6152e8816152d5565b82525050565b600067ffffffffffffffff82169050919050565b61530b816152ee565b82525050565b600061ffff82169050919050565b61532881615311565b82525050565b600060a08201905061534360008301886152df565b6153506020830187615302565b61535d604083018661531f565b61536a6060830185613a1b565b6153776080830184613a1b565b969550505050505056fea264697066735822122057c494b772aca89495f58e118dd91bd9dbb15093aee18f0197bf367938ea0e3e64736f6c634300080f0033608060405234801561001057600080fd5b50336000806101000a81548173ffffffffffffffffffffffffffffffffffffffff021916908373ffffffffffffffffffffffffffffffffffffffff160217905550610f55806100606000396000f3fe608060405234801561001057600080fd5b50600436106100575760003560e01c80630868d8e11461005c5780635c392b3b1461007a5780638267e0be146100aa578063bcc82ec4146100b4578063f298083b146100d2575b600080fd5b6100646100ee565b60405161007191906108ed565b60405180910390f35b610094600480360381019061008f9190610961565b61017c565b6040516100a191906109a9565b60405180910390f35b6100b26101d2565b005b6100bc610320565b6040516100c991906108ed565b60405180910390f35b6100ec60048036038101906100e791906109f0565b6103ae565b005b6060600380548060200260200160405190810160405280929190818152602001828054801561017257602002820191906000526020600020905b8160009054906101000a900473ffffffffffffffffffffffffffffffffffffffff1673ffffffffffffffffffffffffffffffffffffffff1681526020019060010190808311610128575b5050505050905090565b6000600160008373ffffffffffffffffffffffffffffffffffffffff1673ffffffffffffffffffffffffffffffffffffffff16815260200190815260200160002060009054906101000a900460ff169050919050565b60008054906101000a900473ffffffffffffffffffffffffffffffffffffffff1673ffffffffffffffffffffffffffffffffffffffff163373ffffffffffffffffffffffffffffffffffffffff161461022a57600080fd5b6003600160038054905061023e9190610a56565b8154811061024f5761024e610a8a565b5b9060005260206000200160009054906101000a900473ffffffffffffffffffffffffffffffffffffffff16600360008154811061028f5761028e610a8a565b5b9060005260206000200160006101000a81548173ffffffffffffffffffffffffffffffffffffffff021916908373ffffffffffffffffffffffffffffffffffffffff16021790555060038054806102e9576102e8610ab9565b5b6001900381819060005260206000200160006101000a81549073ffffffffffffffffffffffffffffffffffffffff02191690559055565b606060028054806020026020016040519081016040528092919081815260200182805480156103a457602002820191906000526020600020905b8160009054906101000a900473ffffffffffffffffffffffffffffffffffffffff1673ffffffffffffffffffffffffffffffffffffffff168152602001906001019080831161035a575b5050505050905090565b60008054906101000a900473ffffffffffffffffffffffffffffffffffffffff1673ffffffffffffffffffffffffffffffffffffffff163373ffffffffffffffffffffffffffffffffffffffff161461040657600080fd5b60018060008373ffffffffffffffffffffffffffffffffffffffff1673ffffffffffffffffffffffffffffffffffffffff16815260200190815260200160002060006101000a81548160ff0219169083151502179055506002819080600181540180825580915050600190039060005260206000200160009091909190916101000a81548173ffffffffffffffffffffffffffffffffffffffff021916908373ffffffffffffffffffffffffffffffffffffffff1602179055506104c9816104cc565b50565b60008173ffffffffffffffffffffffffffffffffffffffff1663be2e69056040518163ffffffff1660e01b8152600401600060405180830381865afa158015610519573d6000803e3d6000fd5b505050506040513d6000823e3d601f19601f820116820180604052508101906105429190610d97565b50505050505050509150506000805b60038054905082101561065c576003828154811061057257610571610a8a565b5b9060005260206000200160009054906101000a900473ffffffffffffffffffffffffffffffffffffffff1673ffffffffffffffffffffffffffffffffffffffff1663be2e69056040518163ffffffff1660e01b8152600401600060405180830381865afa1580156105e7573d6000803e3d6000fd5b505050506040513d6000823e3d601f19601f820116820180604052508101906106109190610d97565b909192939495969798509091929394959650909192939495509091929394509091929350909192509091509050508091505080831061065c57818061065490610eae565b925050610551565b600360009080600181540180825580915050600190039060005260206000200160009091909190916101000a81548173ffffffffffffffffffffffffffffffffffffffff021916908373ffffffffffffffffffffffffffffffffffffffff160217905550600060016003805490506106d49190610a56565b90505b828111156107995760036001826106ee9190610a56565b815481106106ff576106fe610a8a565b5b9060005260206000200160009054906101000a900473ffffffffffffffffffffffffffffffffffffffff166003828154811061073e5761073d610a8a565b5b9060005260206000200160006101000a81548173ffffffffffffffffffffffffffffffffffffffff021916908373ffffffffffffffffffffffffffffffffffffffff160217905550808061079190610ef6565b9150506106d7565b5083600383815481106107af576107ae610a8a565b5b9060005260206000200160006101000a81548173ffffffffffffffffffffffffffffffffffffffff021916908373ffffffffffffffffffffffffffffffffffffffff16021790555050505050565b600081519050919050565b600082825260208201905092915050565b6000819050602082019050919050565b600073ffffffffffffffffffffffffffffffffffffffff82169050919050565b600061085482610829565b9050919050565b61086481610849565b82525050565b6000610876838361085b565b60208301905092915050565b6000602082019050919050565b600061089a826107fd565b6108a48185610808565b93506108af83610819565b8060005b838110156108e05781516108c7888261086a565b97506108d283610882565b9250506001810190506108b3565b5085935050505092915050565b60006020820190508181036000830152610907818461088f565b905092915050565b6000604051905090565b600080fd5b600080fd5b600061092e82610829565b9050919050565b61093e81610923565b811461094957600080fd5b50565b60008135905061095b81610935565b92915050565b60006020828403121561097757610976610919565b5b60006109858482850161094c565b91505092915050565b60008115159050919050565b6109a38161098e565b82525050565b60006020820190506109be600083018461099a565b92915050565b6109cd81610849565b81146109d857600080fd5b50565b6000813590506109ea816109c4565b92915050565b600060208284031215610a0657610a05610919565b5b6000610a14848285016109db565b91505092915050565b6000819050919050565b7f4e487b7100000000000000000000000000000000000000000000000000000000600052601160045260246000fd5b6000610a6182610a1d565b9150610a6c83610a1d565b925082821015610a7f57610a7e610a27565b5b828203905092915050565b7f4e487b7100000000000000000000000000000000000000000000000000000000600052603260045260246000fd5b7f4e487b7100000000000000000000000000000000000000000000000000000000600052603160045260246000fd5b600080fd5b600080fd5b6000601f19601f8301169050919050565b7f4e487b7100000000000000000000000000000000000000000000000000000000600052604160045260246000fd5b610b3b82610af2565b810181811067ffffffffffffffff82111715610b5a57610b59610b03565b5b80604052505050565b6000610b6d61090f565b9050610b798282610b32565b919050565b600067ffffffffffffffff821115610b9957610b98610b03565b5b610ba282610af2565b9050602081019050919050565b60005b83811015610bcd578082015181840152602081019050610bb2565b83811115610bdc576000848401525b50505050565b6000610bf5610bf084610b7e565b610b63565b905082815260208101848484011115610c1157610c10610aed565b5b610c1c848285610baf565b509392505050565b600082601f830112610c3957610c38610ae8565b5b8151610c49848260208601610be2565b91505092915050565b610c5b81610a1d565b8114610c6657600080fd5b50565b600081519050610c7881610c52565b92915050565b600081519050610c8d81610935565b92915050565b600063ffffffff82169050919050565b610cac81610c93565b8114610cb757600080fd5b50565b600081519050610cc981610ca3565b92915050565b600067ffffffffffffffff821115610cea57610ce9610b03565b5b602082029050602081019050919050565b600080fd5b6000610d13610d0e84610ccf565b610b63565b90508083825260208201905060208402830185811115610d3657610d35610cfb565b5b835b81811015610d5f5780610d4b8882610c69565b845260208401935050602081019050610d38565b5050509392505050565b600082601f830112610d7e57610d7d610ae8565b5b8151610d8e848260208601610d00565b91505092915050565b6000806000806000806000806000806101408b8d031215610dbb57610dba610919565b5b60008b015167ffffffffffffffff811115610dd957610dd861091e565b5b610de58d828e01610c24565b9a50506020610df68d828e01610c69565b9950506040610e078d828e01610c7e565b9850506060610e188d828e01610c69565b9750506080610e298d828e01610c69565b96505060a0610e3a8d828e01610c69565b95505060c0610e4b8d828e01610c69565b94505060e0610e5c8d828e01610c69565b935050610100610e6e8d828e01610cba565b9250506101208b015167ffffffffffffffff811115610e9057610e8f61091e565b5b610e9c8d828e01610d69565b9150509295989b9194979a5092959850565b6000610eb982610a1d565b91507fffffffffffffffffffffffffffffffffffffffffffffffffffffffffffffffff8203610eeb57610eea610a27565b5b600182019050919050565b6000610f0182610a1d565b915060008203610f1457610f13610a27565b5b60018203905091905056fea2646970667358221220b570a90078c01f75e74c0854797dfcc2268420adcf9cec54f8a297c44ff27ae564736f6c634300080f0033",
  "immutableReferences": {
    "10": [
      {
        "length": 32,
        "start": 2433
      },
      {
        "length": 32,
        "start": 2517
      }
    ],
    "2432": [
      {
        "length": 32,
        "start": 13675
      }
    ],
    "2441": [
      {
        "length": 32,
        "start": 13771
      }
    ]
  },
  "source": "// SPDX-License-Identifier: MIT\r\npragma solidity ^0.8.4;\r\n\r\nimport \"./LotteryStorage.sol\";\r\nimport \"./Lottery.sol\";\r\nimport \"./Shares.sol\";\r\nimport \"./PriceConsumer.sol\";\r\nimport \"@chainlink/contracts/src/v0.8/interfaces/VRFCoordinatorV2Interface.sol\";\r\nimport \"@chainlink/contracts/src/v0.8/VRFConsumerBaseV2.sol\";\r\n\r\ncontract LotteryService is PriceConsumerV3, VRFConsumerBaseV2 {\r\n    LotteryStorage lotteryStorage;\r\n\r\n    address private _owner;\r\n    mapping(address => bool) private authorized;\r\n\r\n    // VRF\r\n    VRFCoordinatorV2Interface private immutable vrfCoordinator;\r\n    address vrfCoordinatorAddress = 0x2Ca8E0C643bDe4C2E08ab1fA0da3401AdAD7734D;\r\n    mapping(uint256 => address payable) private requestIdToLottery;\r\n    uint64 private immutable subscriptionId;\r\n    bytes32 private constant KEY_HASH = 0x79d3d8832d904592c0bf9818b621522c988bb8b0c05cdc3b15aea1b6e8db0c15;\r\n    uint32 private constant CALLBACK_GAS_LIMIT = 200000;\r\n    uint16 private constant REQUEST_CONFIRMATIONS = 5;\r\n    uint32 private constant NUM_WORDS = 1;\r\n\r\n\r\n    constructor(uint64 _subscriptionId) VRFConsumerBaseV2(vrfCoordinatorAddress) {\r\n        _owner = msg.sender;\r\n        authorized[msg.sender] = true;\r\n        subscriptionId = _subscriptionId;\r\n        vrfCoordinator = VRFCoordinatorV2Interface(vrfCoordinatorAddress);\r\n        lotteryStorage = new LotteryStorage();\r\n    }\r\n\r\n    modifier onlyOwner() {\r\n        require(_owner == msg.sender, \"Ownable: caller is not the owner\");\r\n        _;\r\n    }\r\n\r\n    modifier onlyAuthorized() {\r\n        require(authorized[msg.sender]);\r\n        _;\r\n    }\r\n\r\n    modifier lotteryExists(address _addressLottery) {\r\n        require(\r\n            lotteryStorage.lotteryExists(_addressLottery),\r\n            \"La loteria no existe\"\r\n        );\r\n        _;\r\n    }\r\n\r\n    function addAuthorized(address _address) public onlyOwner {\r\n        authorized[_address] = true;\r\n    }\r\n\r\n    function removeAuthorized(address _address) public onlyOwner {\r\n        authorized[_address] = false;\r\n    }\r\n\r\n    function checkNumBoleto(\r\n        uint256 _numTicket,\r\n        uint256 _numSerie,\r\n        uint256 _numFraccion,\r\n        uint256 _totalNumbers,\r\n        uint256 _totalSeries\r\n    ) internal pure returns (bool) {\r\n        return\r\n            (_numTicket >= 0) &&\r\n            (_numTicket < _totalNumbers) &&\r\n            (_numSerie >= 0) &&\r\n            (_numSerie < _totalSeries) &&\r\n            (_numFraccion >= 0) &&\r\n            (_numFraccion < 10);\r\n    }\r\n\r\n    function getCostEth(uint256 ticketCost) public view returns (uint256) {\r\n       return ((ticketCost * 10**26) / getLatestPrice());\r\n       //return ticketCost;\r\n    }\r\n\r\n    function addLottery(address payable _lotteryContract) external onlyAuthorized {\r\n        lotteryStorage.setLottery(_lotteryContract);\r\n        emit lotteryAdded(_lotteryContract);\r\n    }\r\n\r\n    function getBenefits(address payable _lotteryId) external onlyOwner lotteryExists(_lotteryId){\r\n        Lottery ticket = Lottery(_lotteryId);\r\n        require(ticket.isLotteryFinished(), \"La loteria aun no ha terminado\");\r\n        ticket.getBenefits(msg.sender);\r\n    }\r\n\r\n    function generateWinners(address payable _lotteryId) internal lotteryExists(_lotteryId)\r\n    {\r\n        Lottery ticket = Lottery(_lotteryId);\r\n        (,uint256 date,,,,,uint256 minimumParticipants,uint256 totalPrize,,) = ticket.infoLottery();\r\n        require(block.timestamp > date, \"La loteria aun no ha terminado\");\r\n        require(!ticket.isLotteryFinished(), \"La loteria ya ha terminado\");\r\n        if(ticket.getTotalPurchasedTickets()>minimumParticipants){\r\n            requestRandomNumber(_lotteryId);\r\n        }else{\r\n            ticket.payPrize(totalPrize, _owner);\r\n            ticket.setLotteryFailed();\r\n        }\r\n        ticket.setLotteryFinished();\r\n    }\r\n\r\n    function finishLotteries() public {\r\n        address payable[] memory unFinishedLotteries = lotteryStorage.getUnfinishedLotteries();\r\n        Lottery ticket;\r\n        uint256 date;\r\n        for (uint256 i = 0; i < unFinishedLotteries.length; i++) {\r\n            ticket = Lottery(unFinishedLotteries[i]);\r\n            (,date,,,,,,,,) = ticket.infoLottery();\r\n            if(block.timestamp < date){\r\n                break;\r\n            }\r\n            generateWinners(unFinishedLotteries[i]);\r\n            lotteryStorage.removeFirstLotteryFinished();\r\n        }\r\n    }\r\n\r\n    function refundTicket(address payable _lotteryId, uint256 _tokenId) external lotteryExists(_lotteryId){\r\n        Lottery ticket = Lottery(_lotteryId);\r\n        require(ticket.isLotteryFailed(), \"La loteria no ha fallado\");\r\n        uint256 amountShares = getSharesOfBuyer(_lotteryId,msg.sender,_tokenId);\r\n        require(amountShares != 0, \"No tiene participaciones de este ticket\");\r\n        uint256 totalSupplyShares = getTotalSupplyShares(_lotteryId, _tokenId);\r\n        Shares(ticket.getTicketToShare(_tokenId).shares).burn(msg.sender, amountShares);\r\n        uint256 refund = ((address(_lotteryId).balance * amountShares) / (ticket.getTotalPurchasedTickets() * totalSupplyShares));\r\n        ticket.payPrize(refund, msg.sender);\r\n    }\r\n\r\n    function getPrize(address payable _lotteryId, uint256 _tokenId) external lotteryExists(_lotteryId) {\r\n        Lottery ticket = Lottery(_lotteryId);\r\n        require(ticket.isLotteryFinished(), \"La loteria aun no ha terminado\");\r\n        require(ticket.isWinnerTicket(_tokenId), \"Este ticket no tiene premio\");\r\n        uint256 amountShares = getSharesOfBuyer(_lotteryId,msg.sender,_tokenId);\r\n        require(amountShares != 0, \"No tiene participaciones de este ticket\");\r\n        uint256 totalSupplyShares = getTotalSupplyShares(_lotteryId, _tokenId);\r\n        Shares(ticket.getTicketToShare(_tokenId).shares).burn(msg.sender, amountShares);\r\n        ticket.payPrize((amountShares * ticket.getPrizeLottery()) / totalSupplyShares,msg.sender);\r\n        emit prizeReceived(_lotteryId, _tokenId);\r\n    }\r\n\r\n    function buyTicket(\r\n        address payable _lotteryId,\r\n        uint256 _numTicket,\r\n        uint256 _numSerie,\r\n        uint256 _numFraccion,\r\n        uint256 _totalShares\r\n    ) external payable lotteryExists(_lotteryId) {\r\n        Lottery ticket = Lottery(_lotteryId);\r\n        require(_totalShares>0, \"Debes adquirir mas de una participacion\");\r\n        require(!ticket.isLotteryFinished(), \"La loteria ya ha terminado\");\r\n        (,,,uint256 totalNumbers,uint256 totalSeries,uint256 ticketCost,,,,) = ticket.infoLottery();\r\n        require(checkNumBoleto(_numTicket,_numSerie,_numFraccion,totalNumbers,totalSeries),\"El numero,serie o fraccion no son correctos\");\r\n        uint256 ticketCostEth = getCostEth(ticketCost);\r\n        require(msg.value >= ticketCostEth,\"Necesitas mas ETH para comprar un ticket\");\r\n        uint256 refund = msg.value - ticketCostEth;\r\n        uint256 tokenId = getTokenId(_lotteryId,_numTicket, _numSerie, _numFraccion);\r\n        ticket.mintBoleto(msg.sender, tokenId, _totalShares);\r\n        (bool success,)= msg.sender.call{value:refund}(\"\");\r\n        require(success, \"Refund transfer failed\");\r\n        (success,)=_lotteryId.call{value:ticketCostEth}(\"\");\r\n        require(success, \"Transfer failed\");\r\n        emit ticketBought(_lotteryId, tokenId, _totalShares);\r\n    }\r\n\r\n    function allowBuyShares(\r\n        address payable _lotteryId,\r\n        address _to,\r\n        uint256 _amount,\r\n        uint256 _tokenId\r\n    ) external lotteryExists(_lotteryId) {\r\n        Lottery ticket = Lottery(_lotteryId);\r\n        require(!ticket.isLotteryFinished(), \"La loteria ya ha terminado\");\r\n        Shares share = Shares(ticket.getTicketToShare(_tokenId).shares);\r\n        require(share.balanceOf(msg.sender) >= _amount,\"No tienes suficientes participaciones de este ticket\");\r\n        share.approve(msg.sender, _to, _amount);\r\n    }\r\n\r\n    function buyShares(\r\n        address payable _lotteryId,\r\n        address _from,\r\n        uint256 _tokenId\r\n    ) external payable lotteryExists(_lotteryId) {\r\n        Lottery ticket = Lottery(_lotteryId);\r\n        require(!ticket.isLotteryFinished(), \"La loteria ya ha terminado\");\r\n        Shares share = Shares(ticket.getTicketToShare(_tokenId).shares);\r\n        (,,,,,uint256 ticketCost,,,,) = Lottery(_lotteryId).infoLottery();\r\n        uint256 amount = share.allowance(_from, msg.sender);\r\n        require(0 < amount, \"No tienes permiso para comprar participaciones\");\r\n        uint256 costOfShares = ((amount * getCostEth(ticketCost)) / share.totalSupply());\r\n        require( msg.value >= costOfShares,\"Necesitas mas ETH para comprar las participaciones\");\r\n        share.transferFrom(_from, msg.sender, amount);\r\n        uint256 refund = msg.value - costOfShares;\r\n        (bool success,)= msg.sender.call{value:refund}(\"\");\r\n        require(success, \"Refund transfer failed\");\r\n        (success,)=payable(_from).call{value:costOfShares}(\"\");\r\n        require(success, \"Payment failed\");\r\n        emit sharesBought(_lotteryId,_from, _tokenId, amount);\r\n    }\r\n\r\n    function requestRandomNumber(address payable _lotteryId) internal returns (uint256 requestId){\r\n        uint256 _vrfRequestId = vrfCoordinator.requestRandomWords(\r\n            KEY_HASH,\r\n            subscriptionId,\r\n            REQUEST_CONFIRMATIONS,\r\n            CALLBACK_GAS_LIMIT,\r\n            NUM_WORDS);\r\n\r\n        requestIdToLottery[_vrfRequestId] = _lotteryId;\r\n\r\n        emit RandomNumberRequested(_vrfRequestId, _lotteryId);\r\n\r\n        return requestId;\r\n    }\r\n\r\n    function fulfillRandomWords(\r\n        uint256 requestId,\r\n        uint256[] memory randomWords\r\n    ) internal override {\r\n        address payable _lotteryId = requestIdToLottery[requestId];\r\n        Lottery ticket = Lottery(_lotteryId);\r\n        uint256[] memory winnerTickets = ticket.setWinnerTickets(randomWords);\r\n        emit WinnersGenerated(_lotteryId, winnerTickets);\r\n    }\r\n\r\n    function getSharesOfBuyer(\r\n        address payable _lotteryId,\r\n        address _to,\r\n        uint256 _tokenId\r\n    ) public view lotteryExists(_lotteryId) returns (uint256) {\r\n        address addressShare = Lottery(_lotteryId)\r\n            .getTicketToShare(_tokenId)\r\n            .shares;\r\n        require(addressShare != address(0), \"El ticket no ha sido comprado\");\r\n        return Shares(addressShare).balanceOf(_to);\r\n    }\r\n\r\n    function getTotalSupplyShares(\r\n        address payable _lotteryId, \r\n        uint256 _tokenId\r\n    ) public view lotteryExists(_lotteryId) returns (uint256) {\r\n        address addressShare = Lottery(_lotteryId)\r\n            .getTicketToShare(_tokenId)\r\n            .shares;\r\n        require(addressShare != address(0), \"El ticket no ha sido comprado\");\r\n        return Shares(addressShare).totalSupply();\r\n    }\r\n\r\n    function getLotteries() external view returns (address payable[] memory) {\r\n        return lotteryStorage.getLotteries();\r\n    }\r\n\r\n    function getUnfinishedLotteries() external view returns (address payable[] memory) {\r\n        return lotteryStorage.getUnfinishedLotteries();\r\n    }\r\n\r\n    function getLottery(address payable _lotteryId) external view lotteryExists(_lotteryId)\r\n        returns (\r\n            string memory,\r\n            uint256,\r\n            address,\r\n            uint256,\r\n            uint256,\r\n            uint256,\r\n            uint256,\r\n            uint256,\r\n            uint32,\r\n            uint256[] memory\r\n        )\r\n    {\r\n        return (Lottery(_lotteryId).infoLottery());\r\n    }\r\n\r\n    function getTokenId(\r\n        address payable _lotteryId,\r\n        uint256 _numTicket,\r\n        uint256 _numSerie,\r\n        uint256 _numFraccion\r\n    ) public view lotteryExists(_lotteryId) returns (uint256) {\r\n        Lottery ticket = Lottery(_lotteryId);\r\n        (,,,,uint256 totalSeries,,,,,) = ticket.infoLottery();\r\n        return (_numTicket * (totalSeries * 10)) + (_numSerie * 10) + _numFraccion;\r\n    }\r\n\r\n    function owner() external view returns (address) {\r\n        return _owner;\r\n    }\r\n\r\n    event lotteryAdded(address lotteryContract);\r\n    event ticketBought(\r\n        address lotteryId,\r\n        uint256 tokenId,\r\n        uint256 totalShares\r\n    );\r\n    event prizeReceived(address lotteryId, uint256 tokenId);\r\n    event ticketAllowedToBuy(\r\n        address lotteryId,\r\n        address to,\r\n        uint256 tokenId,\r\n        uint256 amount\r\n    );\r\n    event sharesBought(\r\n        address lotteryId,\r\n        address from,\r\n        uint256 tokenId,\r\n        uint256 amount\r\n    );\r\n\r\n    event RandomNumberRequested(\r\n        uint256 indexed requestId,\r\n        address indexed lotteryId\r\n    );\r\n\r\n    event WinnersGenerated(address indexed lotteryId, uint256[] winnerTickets);\r\n}",
  "sourcePath": "/mnt/d/pardo/Desktop/Treballs/TFG/TFG/src/contracts/LotteryService.sol",
  "compiler": {
    "name": "solc",
    "version": "0.8.15+commit.e14f2714.Emscripten.clang"
  },
  "schemaVersion": "3.4.7",
  "updatedAt": "2022-11-22T00:16:18.112Z",
  "devdoc": {
    "kind": "dev",
    "methods": {},
    "version": 1
  },
  "userdoc": {
    "kind": "user",
    "methods": {},
    "version": 1
  }
}