{
  "contractName": "LotteryService",
  "abi": [
    {
      "inputs": [
        {
          "internalType": "uint64",
          "name": "subscriptionId",
          "type": "uint64"
        }
      ],
      "stateMutability": "nonpayable",
      "type": "constructor"
    },
    {
      "inputs": [
        {
          "internalType": "address",
          "name": "have",
          "type": "address"
        },
        {
          "internalType": "address",
          "name": "want",
          "type": "address"
        }
      ],
      "name": "OnlyCoordinatorCanFulfill",
      "type": "error"
    },
    {
      "anonymous": false,
      "inputs": [
        {
          "indexed": false,
          "internalType": "bytes32",
          "name": "keyHash",
          "type": "bytes32"
        }
      ],
      "name": "KeyHashSet",
      "type": "event"
    },
    {
      "anonymous": false,
      "inputs": [
        {
          "indexed": true,
          "internalType": "uint32",
          "name": "requestId",
          "type": "uint32"
        },
        {
          "indexed": false,
          "internalType": "uint256[]",
          "name": "randomNumber",
          "type": "uint256[]"
        }
      ],
      "name": "RandomNumberCompleted",
      "type": "event"
    },
    {
      "anonymous": false,
      "inputs": [
        {
          "indexed": true,
          "internalType": "uint32",
          "name": "requestId",
          "type": "uint32"
        },
        {
          "indexed": true,
          "internalType": "address",
          "name": "sender",
          "type": "address"
        }
      ],
      "name": "RandomNumberRequested",
      "type": "event"
    },
    {
      "anonymous": false,
      "inputs": [
        {
          "indexed": false,
          "internalType": "uint64",
          "name": "subscriptionId",
          "type": "uint64"
        }
      ],
      "name": "SubscriptionIdSet",
      "type": "event"
    },
    {
      "anonymous": false,
      "inputs": [
        {
          "indexed": true,
          "internalType": "contract VRFCoordinatorV2Interface",
          "name": "vrfCoordinator",
          "type": "address"
        }
      ],
      "name": "VrfCoordinatorSet",
      "type": "event"
    },
    {
      "anonymous": false,
      "inputs": [
        {
          "indexed": false,
          "internalType": "address",
          "name": "_lotteryContract",
          "type": "address"
        }
      ],
      "name": "lotteryAdded",
      "type": "event"
    },
    {
      "anonymous": false,
      "inputs": [
        {
          "indexed": false,
          "internalType": "address",
          "name": "_lotteryId",
          "type": "address"
        },
        {
          "indexed": false,
          "internalType": "uint256",
          "name": "_tokenId",
          "type": "uint256"
        }
      ],
      "name": "prizeReceived",
      "type": "event"
    },
    {
      "anonymous": false,
      "inputs": [
        {
          "indexed": false,
          "internalType": "address",
          "name": "_lotteryId",
          "type": "address"
        },
        {
          "indexed": false,
          "internalType": "address",
          "name": "_from",
          "type": "address"
        },
        {
          "indexed": false,
          "internalType": "uint256",
          "name": "_tokenId",
          "type": "uint256"
        },
        {
          "indexed": false,
          "internalType": "uint256",
          "name": "_amount",
          "type": "uint256"
        }
      ],
      "name": "sharesBought",
      "type": "event"
    },
    {
      "anonymous": false,
      "inputs": [
        {
          "indexed": false,
          "internalType": "address",
          "name": "_lotteryId",
          "type": "address"
        },
        {
          "indexed": false,
          "internalType": "address",
          "name": "_to",
          "type": "address"
        },
        {
          "indexed": false,
          "internalType": "uint256",
          "name": "_tokenId",
          "type": "uint256"
        },
        {
          "indexed": false,
          "internalType": "uint256",
          "name": "_amount",
          "type": "uint256"
        }
      ],
      "name": "ticketAllowedToBuy",
      "type": "event"
    },
    {
      "anonymous": false,
      "inputs": [
        {
          "indexed": false,
          "internalType": "address",
          "name": "_lotteryId",
          "type": "address"
        },
        {
          "indexed": false,
          "internalType": "uint256",
          "name": "tokenId",
          "type": "uint256"
        },
        {
          "indexed": false,
          "internalType": "uint256",
          "name": "_totalShares",
          "type": "uint256"
        }
      ],
      "name": "ticketBought",
      "type": "event"
    },
    {
      "inputs": [],
      "name": "getDecimals",
      "outputs": [
        {
          "internalType": "uint8",
          "name": "",
          "type": "uint8"
        }
      ],
      "stateMutability": "view",
      "type": "function"
    },
    {
      "inputs": [],
      "name": "getKeyHash",
      "outputs": [
        {
          "internalType": "bytes32",
          "name": "",
          "type": "bytes32"
        }
      ],
      "stateMutability": "view",
      "type": "function"
    },
    {
      "inputs": [],
      "name": "getLastRequestId",
      "outputs": [
        {
          "internalType": "uint32",
          "name": "requestId",
          "type": "uint32"
        }
      ],
      "stateMutability": "view",
      "type": "function"
    },
    {
      "inputs": [],
      "name": "getLatestPrice",
      "outputs": [
        {
          "internalType": "uint256",
          "name": "",
          "type": "uint256"
        }
      ],
      "stateMutability": "view",
      "type": "function"
    },
    {
      "inputs": [],
      "name": "getRequestFee",
      "outputs": [
        {
          "internalType": "address",
          "name": "feeToken",
          "type": "address"
        },
        {
          "internalType": "uint256",
          "name": "requestFee",
          "type": "uint256"
        }
      ],
      "stateMutability": "pure",
      "type": "function"
    },
    {
      "inputs": [],
      "name": "getSubscriptionId",
      "outputs": [
        {
          "internalType": "uint64",
          "name": "",
          "type": "uint64"
        }
      ],
      "stateMutability": "view",
      "type": "function"
    },
    {
      "inputs": [],
      "name": "getVrfCoordinator",
      "outputs": [
        {
          "internalType": "contract VRFCoordinatorV2Interface",
          "name": "",
          "type": "address"
        }
      ],
      "stateMutability": "view",
      "type": "function"
    },
    {
      "inputs": [
        {
          "internalType": "uint32",
          "name": "_internalRequestId",
          "type": "uint32"
        }
      ],
      "name": "isRequestComplete",
      "outputs": [
        {
          "internalType": "bool",
          "name": "isCompleted",
          "type": "bool"
        }
      ],
      "stateMutability": "view",
      "type": "function"
    },
    {
      "inputs": [],
      "name": "priceFeed",
      "outputs": [
        {
          "internalType": "contract AggregatorV3Interface",
          "name": "",
          "type": "address"
        }
      ],
      "stateMutability": "view",
      "type": "function"
    },
    {
      "inputs": [
        {
          "internalType": "uint32",
          "name": "_internalRequestId",
          "type": "uint32"
        }
      ],
      "name": "randomNumber",
      "outputs": [
        {
          "internalType": "uint256",
          "name": "randomNum1",
          "type": "uint256"
        },
        {
          "internalType": "uint256",
          "name": "randomNum2",
          "type": "uint256"
        },
        {
          "internalType": "uint256",
          "name": "randNum3",
          "type": "uint256"
        }
      ],
      "stateMutability": "view",
      "type": "function"
    },
    {
      "inputs": [
        {
          "internalType": "uint256",
          "name": "requestId",
          "type": "uint256"
        },
        {
          "internalType": "uint256[]",
          "name": "randomWords",
          "type": "uint256[]"
        }
      ],
      "name": "rawFulfillRandomWords",
      "outputs": [],
      "stateMutability": "nonpayable",
      "type": "function"
    },
    {
      "inputs": [],
      "name": "requestRandomNumber",
      "outputs": [
        {
          "internalType": "uint32",
          "name": "requestId",
          "type": "uint32"
        },
        {
          "internalType": "uint32",
          "name": "lockBlock",
          "type": "uint32"
        }
      ],
      "stateMutability": "nonpayable",
      "type": "function"
    },
    {
      "inputs": [
        {
          "internalType": "bytes32",
          "name": "_keyHash",
          "type": "bytes32"
        }
      ],
      "name": "setKeyhash",
      "outputs": [],
      "stateMutability": "nonpayable",
      "type": "function"
    },
    {
      "inputs": [
        {
          "internalType": "uint64",
          "name": "_subscriptionId",
          "type": "uint64"
        }
      ],
      "name": "setSubscriptionId",
      "outputs": [],
      "stateMutability": "nonpayable",
      "type": "function"
    },
    {
      "inputs": [
        {
          "internalType": "uint256",
          "name": "ticketCost",
          "type": "uint256"
        }
      ],
      "name": "getCostEth",
      "outputs": [
        {
          "internalType": "uint256",
          "name": "",
          "type": "uint256"
        }
      ],
      "stateMutability": "view",
      "type": "function"
    },
    {
      "inputs": [
        {
          "internalType": "address",
          "name": "_lotteryContract",
          "type": "address"
        }
      ],
      "name": "addLottery",
      "outputs": [],
      "stateMutability": "nonpayable",
      "type": "function"
    },
    {
      "inputs": [],
      "name": "withdraw",
      "outputs": [],
      "stateMutability": "nonpayable",
      "type": "function"
    },
    {
      "inputs": [
        {
          "internalType": "address",
          "name": "_lotteryId",
          "type": "address"
        }
      ],
      "name": "generateWinners",
      "outputs": [
        {
          "internalType": "uint256",
          "name": "",
          "type": "uint256"
        }
      ],
      "stateMutability": "nonpayable",
      "type": "function"
    },
    {
      "inputs": [
        {
          "internalType": "address",
          "name": "_lotteryId",
          "type": "address"
        }
      ],
      "name": "setWinningTickets",
      "outputs": [],
      "stateMutability": "nonpayable",
      "type": "function"
    },
    {
      "inputs": [
        {
          "internalType": "address",
          "name": "_lotteryId",
          "type": "address"
        },
        {
          "internalType": "uint256",
          "name": "_tokenId",
          "type": "uint256"
        }
      ],
      "name": "getPrize",
      "outputs": [],
      "stateMutability": "nonpayable",
      "type": "function"
    },
    {
      "inputs": [
        {
          "internalType": "address",
          "name": "_lotteryId",
          "type": "address"
        },
        {
          "internalType": "uint256",
          "name": "_numTicket",
          "type": "uint256"
        },
        {
          "internalType": "uint256",
          "name": "_numSerie",
          "type": "uint256"
        },
        {
          "internalType": "uint256",
          "name": "_numFraccion",
          "type": "uint256"
        },
        {
          "internalType": "uint256",
          "name": "_totalShares",
          "type": "uint256"
        }
      ],
      "name": "buyTicket",
      "outputs": [],
      "stateMutability": "payable",
      "type": "function"
    },
    {
      "inputs": [
        {
          "internalType": "address",
          "name": "_lotteryId",
          "type": "address"
        },
        {
          "internalType": "address",
          "name": "_to",
          "type": "address"
        },
        {
          "internalType": "uint256",
          "name": "_amount",
          "type": "uint256"
        },
        {
          "internalType": "uint256",
          "name": "_tokenId",
          "type": "uint256"
        }
      ],
      "name": "allowBuyShares",
      "outputs": [],
      "stateMutability": "nonpayable",
      "type": "function"
    },
    {
      "inputs": [
        {
          "internalType": "address",
          "name": "_lotteryId",
          "type": "address"
        },
        {
          "internalType": "address",
          "name": "_from",
          "type": "address"
        },
        {
          "internalType": "uint256",
          "name": "_tokenId",
          "type": "uint256"
        }
      ],
      "name": "buyShares",
      "outputs": [],
      "stateMutability": "payable",
      "type": "function"
    },
    {
      "inputs": [
        {
          "internalType": "address",
          "name": "_lotteryId",
          "type": "address"
        },
        {
          "internalType": "address",
          "name": "_to",
          "type": "address"
        },
        {
          "internalType": "uint256",
          "name": "_tokenId",
          "type": "uint256"
        }
      ],
      "name": "getSharesOfBuyer",
      "outputs": [
        {
          "internalType": "uint256",
          "name": "",
          "type": "uint256"
        }
      ],
      "stateMutability": "view",
      "type": "function"
    },
    {
      "inputs": [
        {
          "internalType": "address",
          "name": "_lotteryId",
          "type": "address"
        },
        {
          "internalType": "uint256",
          "name": "_tokenId",
          "type": "uint256"
        }
      ],
      "name": "getTotalSupplyShares",
      "outputs": [
        {
          "internalType": "uint256",
          "name": "",
          "type": "uint256"
        }
      ],
      "stateMutability": "view",
      "type": "function"
    },
    {
      "inputs": [],
      "name": "getLotteries",
      "outputs": [
        {
          "internalType": "address[]",
          "name": "",
          "type": "address[]"
        }
      ],
      "stateMutability": "view",
      "type": "function"
    },
    {
      "inputs": [
        {
          "internalType": "address",
          "name": "_lotteryId",
          "type": "address"
        }
      ],
      "name": "getLottery",
      "outputs": [
        {
          "internalType": "string",
          "name": "",
          "type": "string"
        },
        {
          "internalType": "address",
          "name": "",
          "type": "address"
        },
        {
          "internalType": "uint256",
          "name": "",
          "type": "uint256"
        },
        {
          "internalType": "uint256",
          "name": "",
          "type": "uint256"
        },
        {
          "internalType": "uint256",
          "name": "",
          "type": "uint256"
        },
        {
          "internalType": "uint256[3]",
          "name": "",
          "type": "uint256[3]"
        }
      ],
      "stateMutability": "view",
      "type": "function"
    },
    {
      "inputs": [
        {
          "internalType": "address",
          "name": "_lotteryId",
          "type": "address"
        },
        {
          "internalType": "uint256",
          "name": "_numTicket",
          "type": "uint256"
        },
        {
          "internalType": "uint256",
          "name": "_numSerie",
          "type": "uint256"
        },
        {
          "internalType": "uint256",
          "name": "_numFraccion",
          "type": "uint256"
        }
      ],
      "name": "getTokenId",
      "outputs": [
        {
          "internalType": "uint256",
          "name": "",
          "type": "uint256"
        }
      ],
      "stateMutability": "view",
      "type": "function"
    },
    {
      "inputs": [],
      "name": "owner",
      "outputs": [
        {
          "internalType": "address",
          "name": "",
          "type": "address"
        }
      ],
      "stateMutability": "view",
      "type": "function"
    }
  ],
  "bytecode": "0x60a0604052732ca8e0c643bde4c2e08ab1fa0da3401adad7734d600160006101000a81548173ffffffffffffffffffffffffffffffffffffffff021916908373ffffffffffffffffffffffffffffffffffffffff1602179055507f79d3d8832d904592c0bf9818b621522c988bb8b0c05cdc3b15aea1b6e8db0c1560001b6002553480156200008d57600080fd5b506040516200609b3803806200609b8339818101604052810190620000b391906200053e565b80600160009054906101000a900473ffffffffffffffffffffffffffffffffffffffff168073ffffffffffffffffffffffffffffffffffffffff1660808173ffffffffffffffffffffffffffffffffffffffff16815250505033600660006101000a81548173ffffffffffffffffffffffffffffffffffffffff021916908373ffffffffffffffffffffffffffffffffffffffff16021790555062000180600160009054906101000a900473ffffffffffffffffffffffffffffffffffffffff16620002ae60201b60201c565b6200019181620003a660201b60201c565b620001a46002546200045b60201b60201c565b5073d4a33860578de61dbabdc8bfdb98fd742fa7028e600760006101000a81548173ffffffffffffffffffffffffffffffffffffffff021916908373ffffffffffffffffffffffffffffffffffffffff16021790555033600960006101000a81548173ffffffffffffffffffffffffffffffffffffffff021916908373ffffffffffffffffffffffffffffffffffffffff1602179055506040516200024990620004e6565b604051809103906000f08015801562000266573d6000803e3d6000fd5b50600860006101000a81548173ffffffffffffffffffffffffffffffffffffffff021916908373ffffffffffffffffffffffffffffffffffffffff160217905550506200073d565b600073ffffffffffffffffffffffffffffffffffffffff168173ffffffffffffffffffffffffffffffffffffffff160362000320576040517f08c379a00000000000000000000000000000000000000000000000000000000081526004016200031790620005d1565b60405180910390fd5b806000806101000a81548173ffffffffffffffffffffffffffffffffffffffff021916908373ffffffffffffffffffffffffffffffffffffffff1602179055508073ffffffffffffffffffffffffffffffffffffffff167f4cc41e06d3d0588be9be0e1469ba1934c4bd1cb8f4f70adf2aa31f4b92134b2760405160405180910390a250565b60008167ffffffffffffffff1611620003f6576040517f08c379a0000000000000000000000000000000000000000000000000000000008152600401620003ed9062000643565b60405180910390fd5b80600160186101000a81548167ffffffffffffffff021916908367ffffffffffffffff1602179055507f68de96e24c66c14c012b5bd342251abc26a6003eaa438002bfe530f28ca63fed8160405162000450919062000676565b60405180910390a150565b6000801b8103620004a3576040517f08c379a00000000000000000000000000000000000000000000000000000000081526004016200049a90620006e3565b60405180910390fd5b806002819055507fd013f86c8346660ebf421351882cd1b3c2f91883092df1800264c656b0db0cc681604051620004db919062000720565b60405180910390a150565b6104e58062005bb683390190565b600080fd5b600067ffffffffffffffff82169050919050565b6200051881620004f9565b81146200052457600080fd5b50565b60008151905062000538816200050d565b92915050565b600060208284031215620005575762000556620004f4565b5b6000620005678482850162000527565b91505092915050565b600082825260208201905092915050565b7f524e47436861696e4c696e6b2f7672662d6e6f742d7a65726f2d616464720000600082015250565b6000620005b9601e8362000570565b9150620005c68262000581565b602082019050919050565b60006020820190508181036000830152620005ec81620005aa565b9050919050565b7f524e47436861696e4c696e6b2f73756249642d67742d7a65726f000000000000600082015250565b60006200062b601a8362000570565b91506200063882620005f3565b602082019050919050565b600060208201905081810360008301526200065e816200061c565b9050919050565b6200067081620004f9565b82525050565b60006020820190506200068d600083018462000665565b92915050565b7f524e47436861696e4c696e6b2f6b6579486173682d6e6f742d656d7074790000600082015250565b6000620006cb601e8362000570565b9150620006d88262000693565b602082019050919050565b60006020820190508181036000830152620006fe81620006bc565b9050919050565b6000819050919050565b6200071a8162000705565b82525050565b60006020820190506200073760008301846200070f565b92915050565b6080516154566200076060003960008181610f160152610f6a01526154566000f3fe6080604052600436106101c25760003560e01c80636309b773116100f7578063bcc82ec411610095578063de3d9fb711610064578063de3d9fb714610664578063ea7b4f771461068f578063f0141d84146106b8578063f496ca63146106e3576101c2565b8063bcc82ec4146105b7578063c68b875e146105e2578063ca964bc01461060b578063dd06f6bd14610648576101c2565b80638da5cb5b116100d15780638da5cb5b146104f95780638e15f473146105245780639d2a5f981461054f578063b9e74f471461058e576101c2565b80636309b77314610479578063741bef1a146104a25780638678a7b2146104cd576101c2565b80632e9c8aa6116101645780633a36d6691161013e5780633a36d669146103bf5780633ccfd60b146103fc5780634f381719146104135780635a6329c514610450576101c2565b80632e9c8aa61461031a578063331bf125146103575780633a19b9bc14610382576101c2565b806313d390d1116101a057806313d390d11461025b57806319c2b4c3146102845780631e88c9c0146102af5780631fe543e3146102f1576101c2565b80630cb4a29d146101c75780630d37b537146101f257806310b0b21f1461021e575b600080fd5b3480156101d357600080fd5b506101dc6106ff565b6040516101e991906135ed565b60405180910390f35b3480156101fe57600080fd5b50610207610728565b604051610215929190613642565b60405180910390f35b34801561022a57600080fd5b50610245600480360381019061024091906136d7565b610736565b604051610252919061372a565b60405180910390f35b34801561026757600080fd5b50610282600480360381019061027d9190613745565b610989565b005b34801561029057600080fd5b50610299610d84565b6040516102a69190613791565b60405180910390f35b3480156102bb57600080fd5b506102d660048036038101906102d19190613745565b610d9e565b6040516102e8969594939291906138f0565b60405180910390f35b3480156102fd57600080fd5b5061031860048036038101906103139190613aa1565b610f14565b005b34801561032657600080fd5b50610341600480360381019061033c9190613afd565b610fd4565b60405161034e919061372a565b60405180910390f35b34801561036357600080fd5b5061036c61121b565b6040516103799190613b56565b60405180910390f35b34801561038e57600080fd5b506103a960048036038101906103a49190613b9d565b611225565b6040516103b69190613be5565b60405180910390f35b3480156103cb57600080fd5b506103e660048036038101906103e19190613c00565b61126e565b6040516103f3919061372a565b60405180910390f35b34801561040857600080fd5b506104116112a0565b005b34801561041f57600080fd5b5061043a60048036038101906104359190613745565b61139b565b604051610447919061372a565b60405180910390f35b34801561045c57600080fd5b5061047760048036038101906104729190613745565b611757565b005b34801561048557600080fd5b506104a0600480360381019061049b9190613c59565b6118ae565b005b3480156104ae57600080fd5b506104b761194a565b6040516104c49190613ca7565b60405180910390f35b3480156104d957600080fd5b506104e2611970565b6040516104f0929190613cc2565b60405180910390f35b34801561050557600080fd5b5061050e611be7565b60405161051b9190613ceb565b60405180910390f35b34801561053057600080fd5b50610539611c11565b604051610546919061372a565b60405180910390f35b34801561055b57600080fd5b5061057660048036038101906105719190613b9d565b611cb2565b60405161058593929190613d06565b60405180910390f35b34801561059a57600080fd5b506105b560048036038101906105b09190613d3d565b611d7b565b005b3480156105c357600080fd5b506105cc6120d2565b6040516105d99190613e62565b60405180910390f35b3480156105ee57600080fd5b5061060960048036038101906106049190613afd565b61216f565b005b34801561061757600080fd5b50610632600480360381019061062d9190613e84565b612638565b60405161063f919061372a565b60405180910390f35b610662600480360381019061065d91906136d7565b6127df565b005b34801561067057600080fd5b50610679612d14565b6040516106869190613f0e565b60405180910390f35b34801561069b57600080fd5b506106b660048036038101906106b19190613f55565b612d32565b005b3480156106c457600080fd5b506106cd612dce565b6040516106da9190613f9e565b60405180910390f35b6106fd60048036038101906106f89190613fb9565b612e66565b005b60008060009054906101000a900473ffffffffffffffffffffffffffffffffffffffff16905090565b600080600080915091509091565b600083600860009054906101000a900473ffffffffffffffffffffffffffffffffffffffff1673ffffffffffffffffffffffffffffffffffffffff16635c392b3b826040518263ffffffff1660e01b81526004016107949190613ceb565b602060405180830381865afa1580156107b1573d6000803e3d6000fd5b505050506040513d601f19601f820116820180604052508101906107d59190614060565b610814576040517f08c379a000000000000000000000000000000000000000000000000000000000815260040161080b906140d9565b60405180910390fd5b60008573ffffffffffffffffffffffffffffffffffffffff166335cc590f856040518263ffffffff1660e01b815260040161084f919061372a565b6040805180830381865afa15801561086b573d6000803e3d6000fd5b505050506040513d601f19601f8201168201806040525081019061088f9190614178565b602001519050600073ffffffffffffffffffffffffffffffffffffffff168173ffffffffffffffffffffffffffffffffffffffff1603610904576040517f08c379a00000000000000000000000000000000000000000000000000000000081526004016108fb906141f1565b60405180910390fd5b8073ffffffffffffffffffffffffffffffffffffffff166370a08231866040518263ffffffff1660e01b815260040161093d9190613ceb565b602060405180830381865afa15801561095a573d6000803e3d6000fd5b505050506040513d601f19601f8201168201806040525081019061097e9190614211565b925050509392505050565b3373ffffffffffffffffffffffffffffffffffffffff16600960009054906101000a900473ffffffffffffffffffffffffffffffffffffffff1673ffffffffffffffffffffffffffffffffffffffff1614610a19576040517f08c379a0000000000000000000000000000000000000000000000000000000008152600401610a109061428a565b60405180910390fd5b80600860009054906101000a900473ffffffffffffffffffffffffffffffffffffffff1673ffffffffffffffffffffffffffffffffffffffff16635c392b3b826040518263ffffffff1660e01b8152600401610a759190613ceb565b602060405180830381865afa158015610a92573d6000803e3d6000fd5b505050506040513d601f19601f82011682018060405250810190610ab69190614060565b610af5576040517f08c379a0000000000000000000000000000000000000000000000000000000008152600401610aec906140d9565b60405180910390fd5b60008290508073ffffffffffffffffffffffffffffffffffffffff16631091ce5f6040518163ffffffff1660e01b8152600401602060405180830381865afa158015610b45573d6000803e3d6000fd5b505050506040513d601f19601f82011682018060405250810190610b699190614060565b610ba8576040517f08c379a0000000000000000000000000000000000000000000000000000000008152600401610b9f906142f6565b60405180910390fd5b60008173ffffffffffffffffffffffffffffffffffffffff1663077001b96040518163ffffffff1660e01b8152600401602060405180830381865afa158015610bf5573d6000803e3d6000fd5b505050506040513d601f19601f82011682018060405250810190610c19919061432b565b9050610c2481611225565b610c63576040517f08c379a0000000000000000000000000000000000000000000000000000000008152600401610c5a906143ca565b60405180910390fd5b6000806000610c7184611cb2565b92509250925060008573ffffffffffffffffffffffffffffffffffffffff16631609443a6040518163ffffffff1660e01b8152600401602060405180830381865afa158015610cc4573d6000803e3d6000fd5b505050506040513d601f19601f82011682018060405250810190610ce89190614211565b90508573ffffffffffffffffffffffffffffffffffffffff16636e575e358286610d129190614419565b8386610d1e9190614419565b8486610d2a9190614419565b6040518463ffffffff1660e01b8152600401610d4893929190613d06565b600060405180830381600087803b158015610d6257600080fd5b505af1158015610d76573d6000803e3d6000fd5b505050505050505050505050565b6000600160149054906101000a900463ffffffff16905090565b6060600080600080610dae6134e2565b86600860009054906101000a900473ffffffffffffffffffffffffffffffffffffffff1673ffffffffffffffffffffffffffffffffffffffff16635c392b3b826040518263ffffffff1660e01b8152600401610e0a9190613ceb565b602060405180830381865afa158015610e27573d6000803e3d6000fd5b505050506040513d601f19601f82011682018060405250810190610e4b9190614060565b610e8a576040517f08c379a0000000000000000000000000000000000000000000000000000000008152600401610e81906140d9565b60405180910390fd5b8773ffffffffffffffffffffffffffffffffffffffff1663be2e69056040518163ffffffff1660e01b8152600401600060405180830381865afa158015610ed5573d6000803e3d6000fd5b505050506040513d6000823e3d601f19601f82011682018060405250810190610efe91906145a1565b9650965096509650965096505091939550919395565b7f000000000000000000000000000000000000000000000000000000000000000073ffffffffffffffffffffffffffffffffffffffff163373ffffffffffffffffffffffffffffffffffffffff1614610fc657337f00000000000000000000000000000000000000000000000000000000000000006040517f1cf993f4000000000000000000000000000000000000000000000000000000008152600401610fbd92919061464b565b60405180910390fd5b610fd08282613277565b5050565b600082600860009054906101000a900473ffffffffffffffffffffffffffffffffffffffff1673ffffffffffffffffffffffffffffffffffffffff16635c392b3b826040518263ffffffff1660e01b81526004016110329190613ceb565b602060405180830381865afa15801561104f573d6000803e3d6000fd5b505050506040513d601f19601f820116820180604052508101906110739190614060565b6110b2576040517f08c379a00000000000000000000000000000000000000000000000000000000081526004016110a9906140d9565b60405180910390fd5b60008473ffffffffffffffffffffffffffffffffffffffff166335cc590f856040518263ffffffff1660e01b81526004016110ed919061372a565b6040805180830381865afa158015611109573d6000803e3d6000fd5b505050506040513d601f19601f8201168201806040525081019061112d9190614178565b602001519050600073ffffffffffffffffffffffffffffffffffffffff168173ffffffffffffffffffffffffffffffffffffffff16036111a2576040517f08c379a0000000000000000000000000000000000000000000000000000000008152600401611199906141f1565b60405180910390fd5b8073ffffffffffffffffffffffffffffffffffffffff166318160ddd6040518163ffffffff1660e01b8152600401602060405180830381865afa1580156111ed573d6000803e3d6000fd5b505050506040513d601f19601f820116820180604052508101906112119190614211565b9250505092915050565b6000600254905090565b600080600360008463ffffffff1663ffffffff16815260200190815260200160002060008154811061125a57611259614674565b5b906000526020600020015414159050919050565b6000611278611c11565b6a52b7d2dcc80cd2e40000008361128f91906146d2565b611299919061472c565b9050919050565b3373ffffffffffffffffffffffffffffffffffffffff16600960009054906101000a900473ffffffffffffffffffffffffffffffffffffffff1673ffffffffffffffffffffffffffffffffffffffff1614611330576040517f08c379a00000000000000000000000000000000000000000000000000000000081526004016113279061428a565b60405180910390fd5b600960009054906101000a900473ffffffffffffffffffffffffffffffffffffffff1673ffffffffffffffffffffffffffffffffffffffff166108fc479081150290604051600060405180830381858888f19350505050158015611398573d6000803e3d6000fd5b50565b60003373ffffffffffffffffffffffffffffffffffffffff16600960009054906101000a900473ffffffffffffffffffffffffffffffffffffffff1673ffffffffffffffffffffffffffffffffffffffff161461142d576040517f08c379a00000000000000000000000000000000000000000000000000000000081526004016114249061428a565b60405180910390fd5b81600860009054906101000a900473ffffffffffffffffffffffffffffffffffffffff1673ffffffffffffffffffffffffffffffffffffffff16635c392b3b826040518263ffffffff1660e01b81526004016114899190613ceb565b602060405180830381865afa1580156114a6573d6000803e3d6000fd5b505050506040513d601f19601f820116820180604052508101906114ca9190614060565b611509576040517f08c379a0000000000000000000000000000000000000000000000000000000008152600401611500906140d9565b60405180910390fd5b60008390508073ffffffffffffffffffffffffffffffffffffffff16631091ce5f6040518163ffffffff1660e01b8152600401602060405180830381865afa158015611559573d6000803e3d6000fd5b505050506040513d601f19601f8201168201806040525081019061157d9190614060565b156115bd576040517f08c379a00000000000000000000000000000000000000000000000000000000081526004016115b4906147a9565b60405180910390fd5b60028173ffffffffffffffffffffffffffffffffffffffff16631609443a6040518163ffffffff1660e01b8152600401602060405180830381865afa15801561160a573d6000803e3d6000fd5b505050506040513d601f19601f8201168201806040525081019061162e9190614211565b1161166e576040517f08c379a00000000000000000000000000000000000000000000000000000000081526004016116659061483b565b60405180910390fd5b6000611678611970565b5090508173ffffffffffffffffffffffffffffffffffffffff16637847fa5b826040518263ffffffff1660e01b81526004016116b49190613791565b600060405180830381600087803b1580156116ce57600080fd5b505af11580156116e2573d6000803e3d6000fd5b505050508173ffffffffffffffffffffffffffffffffffffffff1663d726c7306040518163ffffffff1660e01b8152600401600060405180830381600087803b15801561172e57600080fd5b505af1158015611742573d6000803e3d6000fd5b505050508063ffffffff169350505050919050565b3373ffffffffffffffffffffffffffffffffffffffff16600960009054906101000a900473ffffffffffffffffffffffffffffffffffffffff1673ffffffffffffffffffffffffffffffffffffffff16146117e7576040517f08c379a00000000000000000000000000000000000000000000000000000000081526004016117de9061428a565b60405180910390fd5b600860009054906101000a900473ffffffffffffffffffffffffffffffffffffffff1673ffffffffffffffffffffffffffffffffffffffff1663f298083b826040518263ffffffff1660e01b81526004016118429190613ceb565b600060405180830381600087803b15801561185c57600080fd5b505af1158015611870573d6000803e3d6000fd5b505050507f975665bfcefb0ff5d26e5e5006d1a828ebab0a4ae16997b9ed58d23542c49384816040516118a39190613ceb565b60405180910390a150565b600660009054906101000a900473ffffffffffffffffffffffffffffffffffffffff1673ffffffffffffffffffffffffffffffffffffffff163373ffffffffffffffffffffffffffffffffffffffff161461193e576040517f08c379a0000000000000000000000000000000000000000000000000000000008152600401611935906148a7565b60405180910390fd5b6119478161335f565b50565b600760009054906101000a900473ffffffffffffffffffffffffffffffffffffffff1681565b600080600660009054906101000a900473ffffffffffffffffffffffffffffffffffffffff1673ffffffffffffffffffffffffffffffffffffffff163373ffffffffffffffffffffffffffffffffffffffff1614611a03576040517f08c379a00000000000000000000000000000000000000000000000000000000081526004016119fa906148a7565b60405180910390fd5b60008060009054906101000a900473ffffffffffffffffffffffffffffffffffffffff1673ffffffffffffffffffffffffffffffffffffffff16635d3b1d30600254600160189054906101000a900467ffffffffffffffff166003620f424060036040518663ffffffff1660e01b8152600401611a8495949392919061497c565b6020604051808303816000875af1158015611aa3573d6000803e3d6000fd5b505050506040513d601f19601f82011682018060405250810190611ac79190614211565b90506001601481819054906101000a900463ffffffff1680929190611aeb906149cf565b91906101000a81548163ffffffff021916908363ffffffff160217905550506000600160149054906101000a900463ffffffff169050809350806005600084815260200190815260200160002060006101000a81548163ffffffff021916908363ffffffff16021790555043925082600460008363ffffffff1663ffffffff16815260200190815260200160002060006101000a81548163ffffffff021916908363ffffffff1602179055503373ffffffffffffffffffffffffffffffffffffffff168163ffffffff167fcf635b20f2defc1e71326dc4f0b616fa676e29a5bae87da19fcaddc550b33f0360405160405180910390a350509091565b6000600960009054906101000a900473ffffffffffffffffffffffffffffffffffffffff16905090565b600080600760009054906101000a900473ffffffffffffffffffffffffffffffffffffffff1673ffffffffffffffffffffffffffffffffffffffff1663feaf968c6040518163ffffffff1660e01b815260040160a060405180830381865afa158015611c81573d6000803e3d6000fd5b505050506040513d601f19601f82011682018060405250810190611ca59190614a73565b5050509150508091505090565b6000806000600360008563ffffffff1663ffffffff168152602001908152602001600020600081548110611ce957611ce8614674565b5b9060005260206000200154600360008663ffffffff1663ffffffff168152602001908152602001600020600181548110611d2657611d25614674565b5b9060005260206000200154600360008763ffffffff1663ffffffff168152602001908152602001600020600281548110611d6357611d62614674565b5b90600052602060002001549250925092509193909250565b83600860009054906101000a900473ffffffffffffffffffffffffffffffffffffffff1673ffffffffffffffffffffffffffffffffffffffff16635c392b3b826040518263ffffffff1660e01b8152600401611dd79190613ceb565b602060405180830381865afa158015611df4573d6000803e3d6000fd5b505050506040513d601f19601f82011682018060405250810190611e189190614060565b611e57576040517f08c379a0000000000000000000000000000000000000000000000000000000008152600401611e4e906140d9565b60405180910390fd5b60008590508073ffffffffffffffffffffffffffffffffffffffff16631091ce5f6040518163ffffffff1660e01b8152600401602060405180830381865afa158015611ea7573d6000803e3d6000fd5b505050506040513d601f19601f82011682018060405250810190611ecb9190614060565b15611f0b576040517f08c379a0000000000000000000000000000000000000000000000000000000008152600401611f02906147a9565b60405180910390fd5b60008173ffffffffffffffffffffffffffffffffffffffff166335cc590f856040518263ffffffff1660e01b8152600401611f46919061372a565b6040805180830381865afa158015611f62573d6000803e3d6000fd5b505050506040513d601f19601f82011682018060405250810190611f869190614178565b602001519050848173ffffffffffffffffffffffffffffffffffffffff166370a08231336040518263ffffffff1660e01b8152600401611fc69190613ceb565b602060405180830381865afa158015611fe3573d6000803e3d6000fd5b505050506040513d601f19601f820116820180604052508101906120079190614211565b1015612048576040517f08c379a000000000000000000000000000000000000000000000000000000000815260040161203f90614b60565b60405180910390fd5b8073ffffffffffffffffffffffffffffffffffffffff1663e1f21c673388886040518463ffffffff1660e01b815260040161208593929190614b80565b6020604051808303816000875af11580156120a4573d6000803e3d6000fd5b505050506040513d601f19601f820116820180604052508101906120c89190614060565b5050505050505050565b6060600860009054906101000a900473ffffffffffffffffffffffffffffffffffffffff1673ffffffffffffffffffffffffffffffffffffffff1663bcc82ec46040518163ffffffff1660e01b8152600401600060405180830381865afa158015612141573d6000803e3d6000fd5b505050506040513d6000823e3d601f19601f8201168201806040525081019061216a9190614c7a565b905090565b81600860009054906101000a900473ffffffffffffffffffffffffffffffffffffffff1673ffffffffffffffffffffffffffffffffffffffff16635c392b3b826040518263ffffffff1660e01b81526004016121cb9190613ceb565b602060405180830381865afa1580156121e8573d6000803e3d6000fd5b505050506040513d601f19601f8201168201806040525081019061220c9190614060565b61224b576040517f08c379a0000000000000000000000000000000000000000000000000000000008152600401612242906140d9565b60405180910390fd5b60008390508073ffffffffffffffffffffffffffffffffffffffff16631091ce5f6040518163ffffffff1660e01b8152600401602060405180830381865afa15801561229b573d6000803e3d6000fd5b505050506040513d601f19601f820116820180604052508101906122bf9190614060565b6122fe576040517f08c379a00000000000000000000000000000000000000000000000000000000081526004016122f5906142f6565b60405180910390fd5b8073ffffffffffffffffffffffffffffffffffffffff166378591f08846040518263ffffffff1660e01b8152600401612337919061372a565b602060405180830381865afa158015612354573d6000803e3d6000fd5b505050506040513d601f19601f820116820180604052508101906123789190614060565b6123b7576040517f08c379a00000000000000000000000000000000000000000000000000000000081526004016123ae90614d0f565b60405180910390fd5b60006123c4853386610736565b905060008103612409576040517f08c379a000000000000000000000000000000000000000000000000000000000815260040161240090614da1565b60405180910390fd5b60006124158686610fd4565b90508273ffffffffffffffffffffffffffffffffffffffff16633d0d8322828573ffffffffffffffffffffffffffffffffffffffff1663fe020b806040518163ffffffff1660e01b8152600401602060405180830381865afa15801561247f573d6000803e3d6000fd5b505050506040513d601f19601f820116820180604052508101906124a39190614211565b856124ae91906146d2565b6124b8919061472c565b336040518363ffffffff1660e01b81526004016124d6929190614dc1565b600060405180830381600087803b1580156124f057600080fd5b505af1158015612504573d6000803e3d6000fd5b5050505060008373ffffffffffffffffffffffffffffffffffffffff166335cc590f876040518263ffffffff1660e01b8152600401612543919061372a565b6040805180830381865afa15801561255f573d6000803e3d6000fd5b505050506040513d601f19601f820116820180604052508101906125839190614178565b6020015190508073ffffffffffffffffffffffffffffffffffffffff16639dc29fac33856040518363ffffffff1660e01b81526004016125c4929190613642565b600060405180830381600087803b1580156125de57600080fd5b505af11580156125f2573d6000803e3d6000fd5b505050507fb990c5fc6a9e17bd9cde91b34490705b9ddd8337dff022c00e14d3a7f51741ae8787604051612627929190613642565b60405180910390a150505050505050565b600084600860009054906101000a900473ffffffffffffffffffffffffffffffffffffffff1673ffffffffffffffffffffffffffffffffffffffff16635c392b3b826040518263ffffffff1660e01b81526004016126969190613ceb565b602060405180830381865afa1580156126b3573d6000803e3d6000fd5b505050506040513d601f19601f820116820180604052508101906126d79190614060565b612716576040517f08c379a000000000000000000000000000000000000000000000000000000000815260040161270d906140d9565b60405180910390fd5b600086905060008173ffffffffffffffffffffffffffffffffffffffff1663be2e69056040518163ffffffff1660e01b8152600401600060405180830381865afa158015612768573d6000803e3d6000fd5b505050506040513d6000823e3d601f19601f8201168201806040525081019061279191906145a1565b5050935050505084600a876127a691906146d2565b600a836127b391906146d2565b896127be91906146d2565b6127c89190614dea565b6127d29190614dea565b9350505050949350505050565b82600860009054906101000a900473ffffffffffffffffffffffffffffffffffffffff1673ffffffffffffffffffffffffffffffffffffffff16635c392b3b826040518263ffffffff1660e01b815260040161283b9190613ceb565b602060405180830381865afa158015612858573d6000803e3d6000fd5b505050506040513d601f19601f8201168201806040525081019061287c9190614060565b6128bb576040517f08c379a00000000000000000000000000000000000000000000000000000000081526004016128b2906140d9565b60405180910390fd5b60008490508073ffffffffffffffffffffffffffffffffffffffff16631091ce5f6040518163ffffffff1660e01b8152600401602060405180830381865afa15801561290b573d6000803e3d6000fd5b505050506040513d601f19601f8201168201806040525081019061292f9190614060565b1561296f576040517f08c379a0000000000000000000000000000000000000000000000000000000008152600401612966906147a9565b60405180910390fd5b60008173ffffffffffffffffffffffffffffffffffffffff166335cc590f856040518263ffffffff1660e01b81526004016129aa919061372a565b6040805180830381865afa1580156129c6573d6000803e3d6000fd5b505050506040513d601f19601f820116820180604052508101906129ea9190614178565b60200151905060008673ffffffffffffffffffffffffffffffffffffffff1663be2e69056040518163ffffffff1660e01b8152600401600060405180830381865afa158015612a3d573d6000803e3d6000fd5b505050506040513d6000823e3d601f19601f82011682018060405250810190612a6691906145a1565b5094505050505060008273ffffffffffffffffffffffffffffffffffffffff1663dd62ed3e88336040518363ffffffff1660e01b8152600401612aaa92919061464b565b602060405180830381865afa158015612ac7573d6000803e3d6000fd5b505050506040513d601f19601f82011682018060405250810190612aeb9190614211565b905080600010612b30576040517f08c379a0000000000000000000000000000000000000000000000000000000008152600401612b2790614eb2565b60405180910390fd5b60008373ffffffffffffffffffffffffffffffffffffffff166318160ddd6040518163ffffffff1660e01b8152600401602060405180830381865afa158015612b7d573d6000803e3d6000fd5b505050506040513d601f19601f82011682018060405250810190612ba19190614211565b612baa8461126e565b83612bb591906146d2565b612bbf919061472c565b905080341015612c04576040517f08c379a0000000000000000000000000000000000000000000000000000000008152600401612bfb90614f44565b60405180910390fd5b8773ffffffffffffffffffffffffffffffffffffffff166108fc829081150290604051600060405180830381858888f19350505050158015612c4a573d6000803e3d6000fd5b508373ffffffffffffffffffffffffffffffffffffffff166323b872dd8933856040518463ffffffff1660e01b8152600401612c8893929190614b80565b6020604051808303816000875af1158015612ca7573d6000803e3d6000fd5b505050506040513d601f19601f82011682018060405250810190612ccb9190614060565b507f313ea8c33b682632e20873803046b3847fcd44e63b1f381d358d89445c46ab6a89898985604051612d019493929190614f64565b60405180910390a1505050505050505050565b6000600160189054906101000a900467ffffffffffffffff16905090565b600660009054906101000a900473ffffffffffffffffffffffffffffffffffffffff1673ffffffffffffffffffffffffffffffffffffffff163373ffffffffffffffffffffffffffffffffffffffff1614612dc2576040517f08c379a0000000000000000000000000000000000000000000000000000000008152600401612db9906148a7565b60405180910390fd5b612dcb816133e5565b50565b6000600760009054906101000a900473ffffffffffffffffffffffffffffffffffffffff1673ffffffffffffffffffffffffffffffffffffffff1663313ce5676040518163ffffffff1660e01b8152600401602060405180830381865afa158015612e3d573d6000803e3d6000fd5b505050506040513d601f19601f82011682018060405250810190612e619190614fd5565b905090565b84600860009054906101000a900473ffffffffffffffffffffffffffffffffffffffff1673ffffffffffffffffffffffffffffffffffffffff16635c392b3b826040518263ffffffff1660e01b8152600401612ec29190613ceb565b602060405180830381865afa158015612edf573d6000803e3d6000fd5b505050506040513d601f19601f82011682018060405250810190612f039190614060565b612f42576040517f08c379a0000000000000000000000000000000000000000000000000000000008152600401612f39906140d9565b60405180910390fd5b600086905060008311612f8a576040517f08c379a0000000000000000000000000000000000000000000000000000000008152600401612f8190615074565b60405180910390fd5b8073ffffffffffffffffffffffffffffffffffffffff16631091ce5f6040518163ffffffff1660e01b8152600401602060405180830381865afa158015612fd5573d6000803e3d6000fd5b505050506040513d601f19601f82011682018060405250810190612ff99190614060565b15613039576040517f08c379a0000000000000000000000000000000000000000000000000000000008152600401613030906147a9565b60405180910390fd5b60008060008373ffffffffffffffffffffffffffffffffffffffff1663be2e69056040518163ffffffff1660e01b8152600401600060405180830381865afa158015613089573d6000803e3d6000fd5b505050506040513d6000823e3d601f19601f820116820180604052508101906130b291906145a1565b5094509450945050506130c88989898686613495565b613107576040517f08c379a00000000000000000000000000000000000000000000000000000000081526004016130fe90615106565b60405180910390fd5b60006131128261126e565b905080341015613157576040517f08c379a000000000000000000000000000000000000000000000000000000000815260040161314e90615198565b60405180910390fd5b6000813461316591906151b8565b90503373ffffffffffffffffffffffffffffffffffffffff166108fc829081150290604051600060405180830381858888f193505050501580156131ad573d6000803e3d6000fd5b5060006131bc8d8d8d8d612638565b90508673ffffffffffffffffffffffffffffffffffffffff1663da9d933133838c6040518463ffffffff1660e01b81526004016131fb939291906151ec565b600060405180830381600087803b15801561321557600080fd5b505af1158015613229573d6000803e3d6000fd5b505050507f4c9d4d64e349413d00281dd6ada0347538fd221ffa2eb763ac2838eef575ee5e8d828b604051613260939291906151ec565b60405180910390a150505050505050505050505050565b60006005600084815260200190815260200160002060009054906101000a900463ffffffff16905060008163ffffffff16116132e8576040517f08c379a00000000000000000000000000000000000000000000000000000000081526004016132df9061526f565b60405180910390fd5b81600360008363ffffffff1663ffffffff168152602001908152602001600020908051906020019061331b929190613504565b508063ffffffff167f71efb36ad56b61830958b1e868abc1fef46fa9ce08328d6443da98754859e37e836040516133529190615326565b60405180910390a2505050565b6000801b81036133a4576040517f08c379a000000000000000000000000000000000000000000000000000000000815260040161339b90615394565b60405180910390fd5b806002819055507fd013f86c8346660ebf421351882cd1b3c2f91883092df1800264c656b0db0cc6816040516133da9190613b56565b60405180910390a150565b60008167ffffffffffffffff1611613432576040517f08c379a000000000000000000000000000000000000000000000000000000000815260040161342990615400565b60405180910390fd5b80600160186101000a81548167ffffffffffffffff021916908367ffffffffffffffff1602179055507f68de96e24c66c14c012b5bd342251abc26a6003eaa438002bfe530f28ca63fed8160405161348a9190613f0e565b60405180910390a150565b60008086101580156134a657508286105b80156134b3575060008510155b80156134be57508185105b80156134cb575060008410155b80156134d75750600a84105b905095945050505050565b6040518060600160405280600390602082028036833780820191505090505090565b828054828255906000526020600020908101928215613540579160200282015b8281111561353f578251825591602001919060010190613524565b5b50905061354d9190613551565b5090565b5b8082111561356a576000816000905550600101613552565b5090565b600073ffffffffffffffffffffffffffffffffffffffff82169050919050565b6000819050919050565b60006135b36135ae6135a98461356e565b61358e565b61356e565b9050919050565b60006135c582613598565b9050919050565b60006135d7826135ba565b9050919050565b6135e7816135cc565b82525050565b600060208201905061360260008301846135de565b92915050565b60006136138261356e565b9050919050565b61362381613608565b82525050565b6000819050919050565b61363c81613629565b82525050565b6000604082019050613657600083018561361a565b6136646020830184613633565b9392505050565b6000604051905090565b600080fd5b600080fd5b61368881613608565b811461369357600080fd5b50565b6000813590506136a58161367f565b92915050565b6136b481613629565b81146136bf57600080fd5b50565b6000813590506136d1816136ab565b92915050565b6000806000606084860312156136f0576136ef613675565b5b60006136fe86828701613696565b935050602061370f86828701613696565b9250506040613720868287016136c2565b9150509250925092565b600060208201905061373f6000830184613633565b92915050565b60006020828403121561375b5761375a613675565b5b600061376984828501613696565b91505092915050565b600063ffffffff82169050919050565b61378b81613772565b82525050565b60006020820190506137a66000830184613782565b92915050565b600081519050919050565b600082825260208201905092915050565b60005b838110156137e65780820151818401526020810190506137cb565b838111156137f5576000848401525b50505050565b6000601f19601f8301169050919050565b6000613817826137ac565b61382181856137b7565b93506138318185602086016137c8565b61383a816137fb565b840191505092915050565b600060039050919050565b600081905092915050565b6000819050919050565b61386e81613629565b82525050565b60006138808383613865565b60208301905092915050565b6000602082019050919050565b6138a281613845565b6138ac8184613850565b92506138b78261385b565b8060005b838110156138e85781516138cf8782613874565b96506138da8361388c565b9250506001810190506138bb565b505050505050565b600061010082019050818103600083015261390b818961380c565b905061391a602083018861361a565b6139276040830187613633565b6139346060830186613633565b6139416080830185613633565b61394e60a0830184613899565b979650505050505050565b600080fd5b7f4e487b7100000000000000000000000000000000000000000000000000000000600052604160045260246000fd5b613996826137fb565b810181811067ffffffffffffffff821117156139b5576139b461395e565b5b80604052505050565b60006139c861366b565b90506139d4828261398d565b919050565b600067ffffffffffffffff8211156139f4576139f361395e565b5b602082029050602081019050919050565b600080fd5b6000613a1d613a18846139d9565b6139be565b90508083825260208201905060208402830185811115613a4057613a3f613a05565b5b835b81811015613a695780613a5588826136c2565b845260208401935050602081019050613a42565b5050509392505050565b600082601f830112613a8857613a87613959565b5b8135613a98848260208601613a0a565b91505092915050565b60008060408385031215613ab857613ab7613675565b5b6000613ac6858286016136c2565b925050602083013567ffffffffffffffff811115613ae757613ae661367a565b5b613af385828601613a73565b9150509250929050565b60008060408385031215613b1457613b13613675565b5b6000613b2285828601613696565b9250506020613b33858286016136c2565b9150509250929050565b6000819050919050565b613b5081613b3d565b82525050565b6000602082019050613b6b6000830184613b47565b92915050565b613b7a81613772565b8114613b8557600080fd5b50565b600081359050613b9781613b71565b92915050565b600060208284031215613bb357613bb2613675565b5b6000613bc184828501613b88565b91505092915050565b60008115159050919050565b613bdf81613bca565b82525050565b6000602082019050613bfa6000830184613bd6565b92915050565b600060208284031215613c1657613c15613675565b5b6000613c24848285016136c2565b91505092915050565b613c3681613b3d565b8114613c4157600080fd5b50565b600081359050613c5381613c2d565b92915050565b600060208284031215613c6f57613c6e613675565b5b6000613c7d84828501613c44565b91505092915050565b6000613c91826135ba565b9050919050565b613ca181613c86565b82525050565b6000602082019050613cbc6000830184613c98565b92915050565b6000604082019050613cd76000830185613782565b613ce46020830184613782565b9392505050565b6000602082019050613d00600083018461361a565b92915050565b6000606082019050613d1b6000830186613633565b613d286020830185613633565b613d356040830184613633565b949350505050565b60008060008060808587031215613d5757613d56613675565b5b6000613d6587828801613696565b9450506020613d7687828801613696565b9350506040613d87878288016136c2565b9250506060613d98878288016136c2565b91505092959194509250565b600081519050919050565b600082825260208201905092915050565b6000819050602082019050919050565b613dd981613608565b82525050565b6000613deb8383613dd0565b60208301905092915050565b6000602082019050919050565b6000613e0f82613da4565b613e198185613daf565b9350613e2483613dc0565b8060005b83811015613e55578151613e3c8882613ddf565b9750613e4783613df7565b925050600181019050613e28565b5085935050505092915050565b60006020820190508181036000830152613e7c8184613e04565b905092915050565b60008060008060808587031215613e9e57613e9d613675565b5b6000613eac87828801613696565b9450506020613ebd878288016136c2565b9350506040613ece878288016136c2565b9250506060613edf878288016136c2565b91505092959194509250565b600067ffffffffffffffff82169050919050565b613f0881613eeb565b82525050565b6000602082019050613f236000830184613eff565b92915050565b613f3281613eeb565b8114613f3d57600080fd5b50565b600081359050613f4f81613f29565b92915050565b600060208284031215613f6b57613f6a613675565b5b6000613f7984828501613f40565b91505092915050565b600060ff82169050919050565b613f9881613f82565b82525050565b6000602082019050613fb36000830184613f8f565b92915050565b600080600080600060a08688031215613fd557613fd4613675565b5b6000613fe388828901613696565b9550506020613ff4888289016136c2565b9450506040614005888289016136c2565b9350506060614016888289016136c2565b9250506080614027888289016136c2565b9150509295509295909350565b61403d81613bca565b811461404857600080fd5b50565b60008151905061405a81614034565b92915050565b60006020828403121561407657614075613675565b5b60006140848482850161404b565b91505092915050565b7f4c61206c6f7465726961206e6f20657869737465000000000000000000000000600082015250565b60006140c36014836137b7565b91506140ce8261408d565b602082019050919050565b600060208201905081810360008301526140f2816140b6565b9050919050565b600080fd5b60008151905061410d816136ab565b92915050565b6000815190506141228161367f565b92915050565b60006040828403121561413e5761413d6140f9565b5b61414860406139be565b90506000614158848285016140fe565b600083015250602061416c84828501614113565b60208301525092915050565b60006040828403121561418e5761418d613675565b5b600061419c84828501614128565b91505092915050565b7f456c207469636b6574206e6f206861207369646f20636f6d707261646f000000600082015250565b60006141db601d836137b7565b91506141e6826141a5565b602082019050919050565b6000602082019050818103600083015261420a816141ce565b9050919050565b60006020828403121561422757614226613675565b5b6000614235848285016140fe565b91505092915050565b7f4f776e61626c653a2063616c6c6572206973206e6f7420746865206f776e6572600082015250565b60006142746020836137b7565b915061427f8261423e565b602082019050919050565b600060208201905081810360008301526142a381614267565b9050919050565b7f4c61206c6f74657269612061756e206e6f206861207465726d696e61646f0000600082015250565b60006142e0601e836137b7565b91506142eb826142aa565b602082019050919050565b6000602082019050818103600083015261430f816142d3565b9050919050565b60008151905061432581613b71565b92915050565b60006020828403121561434157614340613675565b5b600061434f84828501614316565b91505092915050565b7f4c6f73206e756d65726f7320616c6561746f72696f732061756e206e6f20736560008201527f2068616e2067656e657261646f00000000000000000000000000000000000000602082015250565b60006143b4602d836137b7565b91506143bf82614358565b604082019050919050565b600060208201905081810360008301526143e3816143a7565b9050919050565b7f4e487b7100000000000000000000000000000000000000000000000000000000600052601260045260246000fd5b600061442482613629565b915061442f83613629565b92508261443f5761443e6143ea565b5b828206905092915050565b600080fd5b600067ffffffffffffffff82111561446a5761446961395e565b5b614473826137fb565b9050602081019050919050565b600061449361448e8461444f565b6139be565b9050828152602081018484840111156144af576144ae61444a565b5b6144ba8482856137c8565b509392505050565b600082601f8301126144d7576144d6613959565b5b81516144e7848260208601614480565b91505092915050565b600067ffffffffffffffff82111561450b5761450a61395e565b5b602082029050919050565b6000614529614524846144f0565b6139be565b9050806020840283018581111561454357614542613a05565b5b835b8181101561456c578061455888826140fe565b845260208401935050602081019050614545565b5050509392505050565b600082601f83011261458b5761458a613959565b5b6003614598848285614516565b91505092915050565b60008060008060008061010087890312156145bf576145be613675565b5b600087015167ffffffffffffffff8111156145dd576145dc61367a565b5b6145e989828a016144c2565b96505060206145fa89828a01614113565b955050604061460b89828a016140fe565b945050606061461c89828a016140fe565b935050608061462d89828a016140fe565b92505060a061463e89828a01614576565b9150509295509295509295565b6000604082019050614660600083018561361a565b61466d602083018461361a565b9392505050565b7f4e487b7100000000000000000000000000000000000000000000000000000000600052603260045260246000fd5b7f4e487b7100000000000000000000000000000000000000000000000000000000600052601160045260246000fd5b60006146dd82613629565b91506146e883613629565b9250817fffffffffffffffffffffffffffffffffffffffffffffffffffffffffffffffff0483118215151615614721576147206146a3565b5b828202905092915050565b600061473782613629565b915061474283613629565b925082614752576147516143ea565b5b828204905092915050565b7f4c61206c6f7465726961207961206861207465726d696e61646f000000000000600082015250565b6000614793601a836137b7565b915061479e8261475d565b602082019050919050565b600060208201905081810360008301526147c281614786565b9050919050565b7f44656265206861626572206d696e696d6f203320626f6c65746f7320636f6d7060008201527f7261646f73000000000000000000000000000000000000000000000000000000602082015250565b60006148256025836137b7565b9150614830826147c9565b604082019050919050565b6000602082019050818103600083015261485481614818565b9050919050565b7f5468652063616c6c6572206973206e6f7420746865206f776e65720000000000600082015250565b6000614891601b836137b7565b915061489c8261485b565b602082019050919050565b600060208201905081810360008301526148c081614884565b9050919050565b6000819050919050565b600061ffff82169050919050565b60006148fa6148f56148f0846148c7565b61358e565b6148d1565b9050919050565b61490a816148df565b82525050565b6000819050919050565b600061493561493061492b84614910565b61358e565b613772565b9050919050565b6149458161491a565b82525050565b600061496661496161495c846148c7565b61358e565b613772565b9050919050565b6149768161494b565b82525050565b600060a0820190506149916000830188613b47565b61499e6020830187613eff565b6149ab6040830186614901565b6149b8606083018561493c565b6149c5608083018461496d565b9695505050505050565b60006149da82613772565b915063ffffffff82036149f0576149ef6146a3565b5b600182019050919050565b600069ffffffffffffffffffff82169050919050565b614a1a816149fb565b8114614a2557600080fd5b50565b600081519050614a3781614a11565b92915050565b6000819050919050565b614a5081614a3d565b8114614a5b57600080fd5b50565b600081519050614a6d81614a47565b92915050565b600080600080600060a08688031215614a8f57614a8e613675565b5b6000614a9d88828901614a28565b9550506020614aae88828901614a5e565b9450506040614abf888289016140fe565b9350506060614ad0888289016140fe565b9250506080614ae188828901614a28565b9150509295509295909350565b7f4e6f207469656e657320737566696369656e746573207061727469636970616360008201527f696f6e65732064652065737465207469636b6574000000000000000000000000602082015250565b6000614b4a6034836137b7565b9150614b5582614aee565b604082019050919050565b60006020820190508181036000830152614b7981614b3d565b9050919050565b6000606082019050614b95600083018661361a565b614ba2602083018561361a565b614baf6040830184613633565b949350505050565b600067ffffffffffffffff821115614bd257614bd161395e565b5b602082029050602081019050919050565b6000614bf6614bf184614bb7565b6139be565b90508083825260208201905060208402830185811115614c1957614c18613a05565b5b835b81811015614c425780614c2e8882614113565b845260208401935050602081019050614c1b565b5050509392505050565b600082601f830112614c6157614c60613959565b5b8151614c71848260208601614be3565b91505092915050565b600060208284031215614c9057614c8f613675565b5b600082015167ffffffffffffffff811115614cae57614cad61367a565b5b614cba84828501614c4c565b91505092915050565b7f45737465207469636b6574206e6f207469656e65207072656d696f0000000000600082015250565b6000614cf9601b836137b7565b9150614d0482614cc3565b602082019050919050565b60006020820190508181036000830152614d2881614cec565b9050919050565b7f4e6f207469656e652070617274696369706163696f6e6573206465206573746560008201527f207469636b657400000000000000000000000000000000000000000000000000602082015250565b6000614d8b6027836137b7565b9150614d9682614d2f565b604082019050919050565b60006020820190508181036000830152614dba81614d7e565b9050919050565b6000604082019050614dd66000830185613633565b614de3602083018461361a565b9392505050565b6000614df582613629565b9150614e0083613629565b9250827fffffffffffffffffffffffffffffffffffffffffffffffffffffffffffffffff03821115614e3557614e346146a3565b5b828201905092915050565b7f4e6f207469656e6573207065726d69736f207061726120636f6d70726172207060008201527f617274696369706163696f6e6573000000000000000000000000000000000000602082015250565b6000614e9c602e836137b7565b9150614ea782614e40565b604082019050919050565b60006020820190508181036000830152614ecb81614e8f565b9050919050565b7f4e6563657369746173206d617320455448207061726120636f6d70726172206c60008201527f61732070617274696369706163696f6e65730000000000000000000000000000602082015250565b6000614f2e6032836137b7565b9150614f3982614ed2565b604082019050919050565b60006020820190508181036000830152614f5d81614f21565b9050919050565b6000608082019050614f79600083018761361a565b614f86602083018661361a565b614f936040830185613633565b614fa06060830184613633565b95945050505050565b614fb281613f82565b8114614fbd57600080fd5b50565b600081519050614fcf81614fa9565b92915050565b600060208284031215614feb57614fea613675565b5b6000614ff984828501614fc0565b91505092915050565b7f4465626573206164717569726972206d617320646520756e612070617274696360008201527f69706163696f6e00000000000000000000000000000000000000000000000000602082015250565b600061505e6027836137b7565b915061506982615002565b604082019050919050565b6000602082019050818103600083015261508d81615051565b9050919050565b7f456c206e756d65726f2c7365726965206f206672616363696f6e206e6f20736f60008201527f6e20636f72726563746f73000000000000000000000000000000000000000000602082015250565b60006150f0602b836137b7565b91506150fb82615094565b604082019050919050565b6000602082019050818103600083015261511f816150e3565b9050919050565b7f4e6563657369746173206d617320455448207061726120636f6d70726172207560008201527f6e207469636b6574000000000000000000000000000000000000000000000000602082015250565b60006151826028836137b7565b915061518d82615126565b604082019050919050565b600060208201905081810360008301526151b181615175565b9050919050565b60006151c382613629565b91506151ce83613629565b9250828210156151e1576151e06146a3565b5b828203905092915050565b6000606082019050615201600083018661361a565b61520e6020830185613633565b61521b6040830184613633565b949350505050565b7f524e47436861696e4c696e6b2f7265717565737449642d696e636f7272656374600082015250565b60006152596020836137b7565b915061526482615223565b602082019050919050565b600060208201905081810360008301526152888161524c565b9050919050565b600081519050919050565b600082825260208201905092915050565b6000819050602082019050919050565b6000602082019050919050565b60006152d38261528f565b6152dd818561529a565b93506152e8836152ab565b8060005b838110156153195781516153008882613874565b975061530b836152bb565b9250506001810190506152ec565b5085935050505092915050565b6000602082019050818103600083015261534081846152c8565b905092915050565b7f524e47436861696e4c696e6b2f6b6579486173682d6e6f742d656d7074790000600082015250565b600061537e601e836137b7565b915061538982615348565b602082019050919050565b600060208201905081810360008301526153ad81615371565b9050919050565b7f524e47436861696e4c696e6b2f73756249642d67742d7a65726f000000000000600082015250565b60006153ea601a836137b7565b91506153f5826153b4565b602082019050919050565b60006020820190508181036000830152615419816153dd565b905091905056fea2646970667358221220404d17508e500d1dee339f3f10bf797cc92afeb82e70054994118d8a8094075a64736f6c634300080f0033608060405234801561001057600080fd5b50336000806101000a81548173ffffffffffffffffffffffffffffffffffffffff021916908373ffffffffffffffffffffffffffffffffffffffff160217905550610485806100606000396000f3fe608060405234801561001057600080fd5b50600436106100415760003560e01c80635c392b3b14610046578063bcc82ec414610076578063f298083b14610094575b600080fd5b610060600480360381019061005b919061030c565b6100b0565b60405161006d9190610354565b60405180910390f35b61007e610106565b60405161008b919061042d565b60405180910390f35b6100ae60048036038101906100a9919061030c565b610194565b005b6000600160008373ffffffffffffffffffffffffffffffffffffffff1673ffffffffffffffffffffffffffffffffffffffff16815260200190815260200160002060009054906101000a900460ff169050919050565b6060600280548060200260200160405190810160405280929190818152602001828054801561018a57602002820191906000526020600020905b8160009054906101000a900473ffffffffffffffffffffffffffffffffffffffff1673ffffffffffffffffffffffffffffffffffffffff1681526020019060010190808311610140575b5050505050905090565b60008054906101000a900473ffffffffffffffffffffffffffffffffffffffff1673ffffffffffffffffffffffffffffffffffffffff163373ffffffffffffffffffffffffffffffffffffffff16146101ec57600080fd5b60018060008373ffffffffffffffffffffffffffffffffffffffff1673ffffffffffffffffffffffffffffffffffffffff16815260200190815260200160002060006101000a81548160ff0219169083151502179055506002819080600181540180825580915050600190039060005260206000200160009091909190916101000a81548173ffffffffffffffffffffffffffffffffffffffff021916908373ffffffffffffffffffffffffffffffffffffffff16021790555050565b600080fd5b600073ffffffffffffffffffffffffffffffffffffffff82169050919050565b60006102d9826102ae565b9050919050565b6102e9816102ce565b81146102f457600080fd5b50565b600081359050610306816102e0565b92915050565b600060208284031215610322576103216102a9565b5b6000610330848285016102f7565b91505092915050565b60008115159050919050565b61034e81610339565b82525050565b60006020820190506103696000830184610345565b92915050565b600081519050919050565b600082825260208201905092915050565b6000819050602082019050919050565b6103a4816102ce565b82525050565b60006103b6838361039b565b60208301905092915050565b6000602082019050919050565b60006103da8261036f565b6103e4818561037a565b93506103ef8361038b565b8060005b8381101561042057815161040788826103aa565b9750610412836103c2565b9250506001810190506103f3565b5085935050505092915050565b6000602082019050818103600083015261044781846103cf565b90509291505056fea264697066735822122085e0cf8945e451e4d57ba295cb45ade61c11c14e5c30c09adda4e3b93013edab64736f6c634300080f0033",
  "immutableReferences": {
    "10": [
      {
        "length": 32,
        "start": 3862
      },
      {
        "length": 32,
        "start": 3946
      }
    ]
  },
  "source": "// SPDX-License-Identifier: MIT\r\npragma solidity ^0.8.4;\r\n\r\nimport \"./LotteryStorage.sol\";\r\nimport \"./Lottery.sol\";\r\nimport \"./Shares.sol\";\r\nimport \"./PriceConsumer.sol\";\r\nimport \"./RNGChainlinkV2.sol\";\r\n\r\ncontract LotteryService is RNGChainlinkV2, PriceConsumerV3 {\r\n    LotteryStorage lotteryStorage;\r\n\r\n    address private _owner;\r\n\r\n    constructor(uint64 subscriptionId) RNGChainlinkV2(subscriptionId) {\r\n        _owner = msg.sender;\r\n        lotteryStorage = new LotteryStorage();\r\n    }\r\n\r\n    modifier onlyOwner() {\r\n        require(_owner == msg.sender, \"Ownable: caller is not the owner\");\r\n        _;\r\n    }\r\n\r\n    modifier lotteryExists(address addressLottery) {\r\n        require(\r\n            lotteryStorage.lotteryExists(addressLottery),\r\n            \"La loteria no existe\"\r\n        );\r\n        _;\r\n    }\r\n\r\n    function checkNumBoleto(\r\n        uint256 numTicket,\r\n        uint256 numSerie,\r\n        uint256 numFraccion,\r\n        uint256 totalNumbers,\r\n        uint256 totalSeries\r\n    ) internal pure returns (bool) {\r\n        return\r\n            (numTicket >= 0) &&\r\n            (numTicket < totalNumbers) &&\r\n            (numSerie >= 0) &&\r\n            (numSerie < totalSeries) &&\r\n            (numFraccion >= 0) &&\r\n            (numFraccion < 10);\r\n    }\r\n\r\n    function getCostEth(uint256 ticketCost) public view returns (uint256) {\r\n       return ((ticketCost * 10**26) / getLatestPrice());\r\n    }\r\n\r\n    function addLottery(address _lotteryContract) public onlyOwner {\r\n        lotteryStorage.setLottery(_lotteryContract);\r\n        emit lotteryAdded(_lotteryContract);\r\n    }\r\n\r\n    function withdraw() public onlyOwner {\r\n        payable(_owner).transfer(address(this).balance);\r\n    }\r\n\r\n    function generateWinners(address _lotteryId)\r\n        public\r\n        onlyOwner\r\n        lotteryExists(_lotteryId)\r\n        returns (uint256)\r\n    {\r\n        Lottery ticket = Lottery(_lotteryId);\r\n        require(!ticket.isLotteryFinished(), \"La loteria ya ha terminado\");\r\n        require(ticket.getTotalPurchasedTickets()>2,\"Debe haber minimo 3 boletos comprados\");\r\n        (uint32 requestId, ) = requestRandomNumber();\r\n        ticket.setRequestId(requestId);\r\n        ticket.setLotteryFinished();\r\n        return requestId;\r\n    }\r\n\r\n    function setWinningTickets(address _lotteryId) public onlyOwner lotteryExists(_lotteryId) {\r\n        Lottery ticket = Lottery(_lotteryId);\r\n        require(ticket.isLotteryFinished(), \"La loteria aun no ha terminado\");\r\n        uint32 requestId = ticket.getRequestId();\r\n        require(isRequestComplete(requestId),\"Los numeros aleatorios aun no se han generado\");\r\n        (uint256 randNum1, uint256 randNum2, uint256 randNum3) = randomNumber(requestId);\r\n        uint256 totalPurchasedTickets = ticket.getTotalPurchasedTickets();\r\n        ticket.setWinnerTickets(\r\n            (randNum1 % totalPurchasedTickets),\r\n            (randNum2 % totalPurchasedTickets),\r\n            (randNum3 % totalPurchasedTickets)\r\n        );\r\n    }\r\n\r\n    function getPrize(address _lotteryId, uint256 _tokenId) public lotteryExists(_lotteryId) {\r\n        Lottery ticket = Lottery(_lotteryId);\r\n        require(ticket.isLotteryFinished(), \"La loteria aun no ha terminado\");\r\n        require(ticket.isWinnerTicket(_tokenId), \"Este ticket no tiene premio\");\r\n        uint256 amountShares = getSharesOfBuyer(\r\n            _lotteryId,\r\n            msg.sender,\r\n            _tokenId\r\n        );\r\n        require(amountShares != 0, \"No tiene participaciones de este ticket\");\r\n        uint256 totalSupplyShares = getTotalSupplyShares(_lotteryId, _tokenId);\r\n        ticket.payPrize(\r\n            (amountShares * ticket.getPrizeLottery()) / totalSupplyShares,\r\n            msg.sender\r\n        );\r\n        Shares share = Shares(ticket.getTicketToShare(_tokenId).shares);\r\n        share.burn(msg.sender, amountShares);\r\n        emit prizeReceived(_lotteryId, _tokenId);\r\n    }\r\n\r\n    function buyTicket(\r\n        address _lotteryId,\r\n        uint256 _numTicket,\r\n        uint256 _numSerie,\r\n        uint256 _numFraccion,\r\n        uint256 _totalShares\r\n    ) public payable lotteryExists(_lotteryId) {\r\n        Lottery ticket = Lottery(_lotteryId);\r\n        require(_totalShares>0, \"Debes adquirir mas de una participacion\");\r\n        require(!ticket.isLotteryFinished(), \"La loteria ya ha terminado\");\r\n        (,,uint256 totalNumbers,uint256 totalSeries,uint256 ticketCost,) = ticket.infoLottery();\r\n        require(checkNumBoleto(_numTicket,_numSerie,_numFraccion,totalNumbers,totalSeries),\"El numero,serie o fraccion no son correctos\");\r\n        uint256 ticketCostEth = getCostEth(ticketCost);\r\n        require(msg.value >= ticketCostEth,\"Necesitas mas ETH para comprar un ticket\");\r\n        uint256 refund = msg.value - ticketCostEth;\r\n        payable(msg.sender).transfer(refund);\r\n        uint256 tokenId = getTokenId(_lotteryId,_numTicket, _numSerie, _numFraccion);\r\n        ticket.mintBoleto(msg.sender, tokenId, _totalShares);\r\n        emit ticketBought(_lotteryId, tokenId, _totalShares);\r\n    }\r\n\r\n    function allowBuyShares(\r\n        address _lotteryId,\r\n        address _to,\r\n        uint256 _amount,\r\n        uint256 _tokenId\r\n    ) public lotteryExists(_lotteryId) {\r\n        Lottery ticket = Lottery(_lotteryId);\r\n        require(!ticket.isLotteryFinished(), \"La loteria ya ha terminado\");\r\n        Shares share = Shares(ticket.getTicketToShare(_tokenId).shares);\r\n\r\n        require(share.balanceOf(msg.sender) >= _amount,\"No tienes suficientes participaciones de este ticket\");\r\n        share.approve(msg.sender, _to, _amount);\r\n    }\r\n\r\n    function buyShares(\r\n        address _lotteryId,\r\n        address _from,\r\n        uint256 _tokenId\r\n    ) public payable lotteryExists(_lotteryId) {\r\n        Lottery ticket = Lottery(_lotteryId);\r\n        require(!ticket.isLotteryFinished(), \"La loteria ya ha terminado\");\r\n        Shares share = Shares(ticket.getTicketToShare(_tokenId).shares);\r\n        (, , , , uint256 ticketCost, ) = Lottery(_lotteryId).infoLottery();\r\n        uint256 amount = share.allowance(_from, msg.sender);\r\n        require(0 < amount, \"No tienes permiso para comprar participaciones\");\r\n        uint256 costOfShares = ((amount * getCostEth(ticketCost)) /\r\n            share.totalSupply());\r\n        require(\r\n            msg.value >= costOfShares,\r\n            \"Necesitas mas ETH para comprar las participaciones\"\r\n        );\r\n        payable(_from).transfer(costOfShares);\r\n        share.transferFrom(_from, msg.sender, amount);\r\n        emit sharesBought(_lotteryId,_from, _tokenId, amount);\r\n    }\r\n\r\n    function getSharesOfBuyer(\r\n        address _lotteryId,\r\n        address _to,\r\n        uint256 _tokenId\r\n    ) public view lotteryExists(_lotteryId) returns (uint256) {\r\n        address addressShare = Lottery(_lotteryId)\r\n            .getTicketToShare(_tokenId)\r\n            .shares;\r\n        require(addressShare != address(0), \"El ticket no ha sido comprado\");\r\n        return Shares(addressShare).balanceOf(_to);\r\n    }\r\n\r\n    function getTotalSupplyShares(address _lotteryId, uint256 _tokenId)\r\n        public\r\n        view\r\n        lotteryExists(_lotteryId)\r\n        returns (uint256)\r\n    {\r\n        address addressShare = Lottery(_lotteryId)\r\n            .getTicketToShare(_tokenId)\r\n            .shares;\r\n        require(addressShare != address(0), \"El ticket no ha sido comprado\");\r\n        return Shares(addressShare).totalSupply();\r\n    }\r\n\r\n    function getLotteries() public view returns (address[] memory) {\r\n        return lotteryStorage.getLotteries();\r\n    }\r\n\r\n    function getLottery(address _lotteryId)\r\n        public\r\n        view\r\n        lotteryExists(_lotteryId)\r\n        returns (\r\n            string memory,\r\n            address,\r\n            uint256,\r\n            uint256,\r\n            uint256,\r\n            uint256[3] memory\r\n        )\r\n    {\r\n        return (Lottery(_lotteryId).infoLottery());\r\n    }\r\n\r\n    function getTokenId(\r\n        address _lotteryId,\r\n        uint256 _numTicket,\r\n        uint256 _numSerie,\r\n        uint256 _numFraccion\r\n    ) public view lotteryExists(_lotteryId) returns (uint256) {\r\n        Lottery ticket = Lottery(_lotteryId);\r\n        (, , , uint256 totalSeries, , ) = ticket\r\n            .infoLottery();\r\n        return (_numTicket * (totalSeries * 10)) + (_numSerie * 10) + _numFraccion;\r\n    }\r\n\r\n    function owner() public view returns (address) {\r\n        return _owner;\r\n    }\r\n\r\n    event lotteryAdded(address _lotteryContract);\r\n    event ticketBought(\r\n        address _lotteryId,\r\n        uint256 tokenId,\r\n        uint256 _totalShares\r\n    );\r\n    event prizeReceived(address _lotteryId, uint256 _tokenId);\r\n    event ticketAllowedToBuy(\r\n        address _lotteryId,\r\n        address _to,\r\n        uint256 _tokenId,\r\n        uint256 _amount\r\n    );\r\n    event sharesBought(\r\n        address _lotteryId,\r\n        address _from,\r\n        uint256 _tokenId,\r\n        uint256 _amount\r\n    );\r\n}\r\n",
  "sourcePath": "/mnt/d/pardo/Desktop/Treballs/TFG/TFG/src/contracts/LotteryService.sol",
  "compiler": {
    "name": "solc",
    "version": "0.8.15+commit.e14f2714.Emscripten.clang"
  },
  "schemaVersion": "3.4.7",
  "updatedAt": "2022-11-11T12:50:51.354Z",
  "devdoc": {
    "kind": "dev",
    "methods": {
      "getKeyHash()": {
        "returns": {
          "_0": "bytes32 Chainlink VRF keyHash"
        }
      },
      "getLastRequestId()": {
        "returns": {
          "requestId": "The last request id used in the last request"
        }
      },
      "getRequestFee()": {
        "returns": {
          "feeToken": "The address of the token that is used to pay fees",
          "requestFee": "The fee required to be paid to make a request"
        }
      },
      "getSubscriptionId()": {
        "returns": {
          "_0": "uint64 Chainlink VRF subscription id"
        }
      },
      "getVrfCoordinator()": {
        "returns": {
          "_0": "address Chainlink VRF coordinator address"
        }
      },
      "isRequestComplete(uint32)": {
        "details": "For time-delayed requests, this function is used to check/confirm completion",
        "params": {
          "requestId": "The ID of the request used to get the results of the RNG service"
        },
        "returns": {
          "isCompleted": "True if the request has completed and a random number is available, false otherwise"
        }
      },
      "requestRandomNumber()": {
        "details": "Some services will complete the request immediately, others may have a time-delaySome services require payment in the form of a token, such as $LINK for Chainlink VRF",
        "returns": {
          "lockBlock": "The block number at which the RNG service will start generating time-delayed randomness. The calling contract should \"lock\" all activity until the result is available via the `requestId`",
          "requestId": "The ID of the request used to get the results of the RNG service"
        }
      },
      "setKeyhash(bytes32)": {
        "details": "This function is only callable by the owner.",
        "params": {
          "keyHash": "Chainlink VRF keyHash"
        }
      },
      "setSubscriptionId(uint64)": {
        "details": "This function is only callable by the owner.",
        "params": {
          "subscriptionId": "Chainlink VRF subscription id"
        }
      }
    },
    "version": 1
  },
  "userdoc": {
    "events": {
      "KeyHashSet(bytes32)": {
        "notice": "Emitted when the Chainlink VRF keyHash is set"
      },
      "RandomNumberCompleted(uint32,uint256[])": {
        "notice": "Emitted when an existing request for a random number has been completed"
      },
      "RandomNumberRequested(uint32,address)": {
        "notice": "Emitted when a new request for a random number has been submitted"
      },
      "SubscriptionIdSet(uint64)": {
        "notice": "Emitted when the Chainlink VRF subscription id is set"
      },
      "VrfCoordinatorSet(address)": {
        "notice": "Emitted when the Chainlink VRF Coordinator address is set"
      }
    },
    "kind": "user",
    "methods": {
      "getKeyHash()": {
        "notice": "Get Chainlink VRF keyHash associated with this contract."
      },
      "getLastRequestId()": {
        "notice": "Gets the last request id used by the RNG service"
      },
      "getRequestFee()": {
        "notice": "Gets the Fee for making a Request against an RNG service"
      },
      "getSubscriptionId()": {
        "notice": "Get Chainlink VRF subscription id associated with this contract."
      },
      "getVrfCoordinator()": {
        "notice": "Get Chainlink VRF coordinator contract address associated with this contract."
      },
      "isRequestComplete(uint32)": {
        "notice": "Checks if the request for randomness from the 3rd-party service has completed"
      },
      "requestRandomNumber()": {
        "notice": "Sends a request for a random number to the 3rd-party service"
      },
      "setKeyhash(bytes32)": {
        "notice": "Set Chainlink VRF keyHash."
      },
      "setSubscriptionId(uint64)": {
        "notice": "Set Chainlink VRF subscription id associated with this contract."
      }
    },
    "version": 1
  }
}