{
  "contractName": "LotteryStorage",
  "abi": [
    {
      "inputs": [],
      "stateMutability": "nonpayable",
      "type": "constructor"
    },
    {
      "inputs": [
        {
          "internalType": "address",
          "name": "_lotteryId",
          "type": "address"
        }
      ],
      "name": "lotteryExists",
      "outputs": [
        {
          "internalType": "bool",
          "name": "",
          "type": "bool"
        }
      ],
      "stateMutability": "view",
      "type": "function"
    },
    {
      "inputs": [],
      "name": "getLotteries",
      "outputs": [
        {
          "internalType": "address payable[]",
          "name": "",
          "type": "address[]"
        }
      ],
      "stateMutability": "view",
      "type": "function"
    },
    {
      "inputs": [],
      "name": "getUnfinishedLotteries",
      "outputs": [
        {
          "internalType": "address payable[]",
          "name": "",
          "type": "address[]"
        }
      ],
      "stateMutability": "view",
      "type": "function"
    },
    {
      "inputs": [
        {
          "internalType": "address payable",
          "name": "_lotteryId",
          "type": "address"
        }
      ],
      "name": "setLottery",
      "outputs": [],
      "stateMutability": "nonpayable",
      "type": "function"
    },
    {
      "inputs": [],
      "name": "removeFirstLotteryFinished",
      "outputs": [],
      "stateMutability": "nonpayable",
      "type": "function"
    }
  ],
  "bytecode": "0x608060405234801561001057600080fd5b50336000806101000a81548173ffffffffffffffffffffffffffffffffffffffff021916908373ffffffffffffffffffffffffffffffffffffffff160217905550610f55806100606000396000f3fe608060405234801561001057600080fd5b50600436106100575760003560e01c80630868d8e11461005c5780635c392b3b1461007a5780638267e0be146100aa578063bcc82ec4146100b4578063f298083b146100d2575b600080fd5b6100646100ee565b60405161007191906108ed565b60405180910390f35b610094600480360381019061008f9190610961565b61017c565b6040516100a191906109a9565b60405180910390f35b6100b26101d2565b005b6100bc610320565b6040516100c991906108ed565b60405180910390f35b6100ec60048036038101906100e791906109f0565b6103ae565b005b6060600380548060200260200160405190810160405280929190818152602001828054801561017257602002820191906000526020600020905b8160009054906101000a900473ffffffffffffffffffffffffffffffffffffffff1673ffffffffffffffffffffffffffffffffffffffff1681526020019060010190808311610128575b5050505050905090565b6000600160008373ffffffffffffffffffffffffffffffffffffffff1673ffffffffffffffffffffffffffffffffffffffff16815260200190815260200160002060009054906101000a900460ff169050919050565b60008054906101000a900473ffffffffffffffffffffffffffffffffffffffff1673ffffffffffffffffffffffffffffffffffffffff163373ffffffffffffffffffffffffffffffffffffffff161461022a57600080fd5b6003600160038054905061023e9190610a56565b8154811061024f5761024e610a8a565b5b9060005260206000200160009054906101000a900473ffffffffffffffffffffffffffffffffffffffff16600360008154811061028f5761028e610a8a565b5b9060005260206000200160006101000a81548173ffffffffffffffffffffffffffffffffffffffff021916908373ffffffffffffffffffffffffffffffffffffffff16021790555060038054806102e9576102e8610ab9565b5b6001900381819060005260206000200160006101000a81549073ffffffffffffffffffffffffffffffffffffffff02191690559055565b606060028054806020026020016040519081016040528092919081815260200182805480156103a457602002820191906000526020600020905b8160009054906101000a900473ffffffffffffffffffffffffffffffffffffffff1673ffffffffffffffffffffffffffffffffffffffff168152602001906001019080831161035a575b5050505050905090565b60008054906101000a900473ffffffffffffffffffffffffffffffffffffffff1673ffffffffffffffffffffffffffffffffffffffff163373ffffffffffffffffffffffffffffffffffffffff161461040657600080fd5b60018060008373ffffffffffffffffffffffffffffffffffffffff1673ffffffffffffffffffffffffffffffffffffffff16815260200190815260200160002060006101000a81548160ff0219169083151502179055506002819080600181540180825580915050600190039060005260206000200160009091909190916101000a81548173ffffffffffffffffffffffffffffffffffffffff021916908373ffffffffffffffffffffffffffffffffffffffff1602179055506104c9816104cc565b50565b60008173ffffffffffffffffffffffffffffffffffffffff1663be2e69056040518163ffffffff1660e01b8152600401600060405180830381865afa158015610519573d6000803e3d6000fd5b505050506040513d6000823e3d601f19601f820116820180604052508101906105429190610d97565b50505050505050509150506000805b60038054905082101561065c576003828154811061057257610571610a8a565b5b9060005260206000200160009054906101000a900473ffffffffffffffffffffffffffffffffffffffff1673ffffffffffffffffffffffffffffffffffffffff1663be2e69056040518163ffffffff1660e01b8152600401600060405180830381865afa1580156105e7573d6000803e3d6000fd5b505050506040513d6000823e3d601f19601f820116820180604052508101906106109190610d97565b909192939495969798509091929394959650909192939495509091929394509091929350909192509091509050508091505080831061065c57818061065490610eae565b925050610551565b600360009080600181540180825580915050600190039060005260206000200160009091909190916101000a81548173ffffffffffffffffffffffffffffffffffffffff021916908373ffffffffffffffffffffffffffffffffffffffff160217905550600060016003805490506106d49190610a56565b90505b828111156107995760036001826106ee9190610a56565b815481106106ff576106fe610a8a565b5b9060005260206000200160009054906101000a900473ffffffffffffffffffffffffffffffffffffffff166003828154811061073e5761073d610a8a565b5b9060005260206000200160006101000a81548173ffffffffffffffffffffffffffffffffffffffff021916908373ffffffffffffffffffffffffffffffffffffffff160217905550808061079190610ef6565b9150506106d7565b5083600383815481106107af576107ae610a8a565b5b9060005260206000200160006101000a81548173ffffffffffffffffffffffffffffffffffffffff021916908373ffffffffffffffffffffffffffffffffffffffff16021790555050505050565b600081519050919050565b600082825260208201905092915050565b6000819050602082019050919050565b600073ffffffffffffffffffffffffffffffffffffffff82169050919050565b600061085482610829565b9050919050565b61086481610849565b82525050565b6000610876838361085b565b60208301905092915050565b6000602082019050919050565b600061089a826107fd565b6108a48185610808565b93506108af83610819565b8060005b838110156108e05781516108c7888261086a565b97506108d283610882565b9250506001810190506108b3565b5085935050505092915050565b60006020820190508181036000830152610907818461088f565b905092915050565b6000604051905090565b600080fd5b600080fd5b600061092e82610829565b9050919050565b61093e81610923565b811461094957600080fd5b50565b60008135905061095b81610935565b92915050565b60006020828403121561097757610976610919565b5b60006109858482850161094c565b91505092915050565b60008115159050919050565b6109a38161098e565b82525050565b60006020820190506109be600083018461099a565b92915050565b6109cd81610849565b81146109d857600080fd5b50565b6000813590506109ea816109c4565b92915050565b600060208284031215610a0657610a05610919565b5b6000610a14848285016109db565b91505092915050565b6000819050919050565b7f4e487b7100000000000000000000000000000000000000000000000000000000600052601160045260246000fd5b6000610a6182610a1d565b9150610a6c83610a1d565b925082821015610a7f57610a7e610a27565b5b828203905092915050565b7f4e487b7100000000000000000000000000000000000000000000000000000000600052603260045260246000fd5b7f4e487b7100000000000000000000000000000000000000000000000000000000600052603160045260246000fd5b600080fd5b600080fd5b6000601f19601f8301169050919050565b7f4e487b7100000000000000000000000000000000000000000000000000000000600052604160045260246000fd5b610b3b82610af2565b810181811067ffffffffffffffff82111715610b5a57610b59610b03565b5b80604052505050565b6000610b6d61090f565b9050610b798282610b32565b919050565b600067ffffffffffffffff821115610b9957610b98610b03565b5b610ba282610af2565b9050602081019050919050565b60005b83811015610bcd578082015181840152602081019050610bb2565b83811115610bdc576000848401525b50505050565b6000610bf5610bf084610b7e565b610b63565b905082815260208101848484011115610c1157610c10610aed565b5b610c1c848285610baf565b509392505050565b600082601f830112610c3957610c38610ae8565b5b8151610c49848260208601610be2565b91505092915050565b610c5b81610a1d565b8114610c6657600080fd5b50565b600081519050610c7881610c52565b92915050565b600081519050610c8d81610935565b92915050565b600063ffffffff82169050919050565b610cac81610c93565b8114610cb757600080fd5b50565b600081519050610cc981610ca3565b92915050565b600067ffffffffffffffff821115610cea57610ce9610b03565b5b602082029050602081019050919050565b600080fd5b6000610d13610d0e84610ccf565b610b63565b90508083825260208201905060208402830185811115610d3657610d35610cfb565b5b835b81811015610d5f5780610d4b8882610c69565b845260208401935050602081019050610d38565b5050509392505050565b600082601f830112610d7e57610d7d610ae8565b5b8151610d8e848260208601610d00565b91505092915050565b6000806000806000806000806000806101408b8d031215610dbb57610dba610919565b5b60008b015167ffffffffffffffff811115610dd957610dd861091e565b5b610de58d828e01610c24565b9a50506020610df68d828e01610c69565b9950506040610e078d828e01610c7e565b9850506060610e188d828e01610c69565b9750506080610e298d828e01610c69565b96505060a0610e3a8d828e01610c69565b95505060c0610e4b8d828e01610c69565b94505060e0610e5c8d828e01610c69565b935050610100610e6e8d828e01610cba565b9250506101208b015167ffffffffffffffff811115610e9057610e8f61091e565b5b610e9c8d828e01610d69565b9150509295989b9194979a5092959850565b6000610eb982610a1d565b91507fffffffffffffffffffffffffffffffffffffffffffffffffffffffffffffffff8203610eeb57610eea610a27565b5b600182019050919050565b6000610f0182610a1d565b915060008203610f1457610f13610a27565b5b60018203905091905056fea2646970667358221220151819577132641af2b62a0fe63736b22853eb9d9ca299533b59a302944e99ff64736f6c634300080f0033",
  "immutableReferences": {},
  "source": "// SPDX-License-Identifier: MIT\r\npragma solidity ^0.8.6;\r\n\r\nimport \"./Lottery.sol\";\r\n\r\ncontract LotteryStorage {\r\n    address owner;\r\n\r\n    mapping(address => bool) lotteryStorage;\r\n    address payable[] lotteries;\r\n    address payable[] unfinishedLotteries;\r\n\r\n    constructor() {\r\n        owner = msg.sender;\r\n    }\r\n\r\n    modifier onlyOwner() {\r\n        require(msg.sender == owner);\r\n        _;\r\n    }\r\n\r\n    function lotteryExists(address _lotteryId) external view returns (bool) {\r\n        return lotteryStorage[_lotteryId];\r\n    }\r\n\r\n    function getLotteries() external view returns (address payable[] memory) {\r\n        return lotteries;\r\n    }\r\n\r\n    function getUnfinishedLotteries() external view returns (address payable[] memory) {\r\n        return unfinishedLotteries;\r\n    }\r\n\r\n    function setLottery(address payable _lotteryId) external onlyOwner {\r\n        lotteryStorage[_lotteryId] = true;\r\n        lotteries.push(_lotteryId);\r\n        insertToUnFinishedLotteries(_lotteryId);\r\n    }\r\n\r\n    function removeFirstLotteryFinished() public onlyOwner {\r\n        unfinishedLotteries[0] = unfinishedLotteries[unfinishedLotteries.length - 1];\r\n        unfinishedLotteries.pop();\r\n    }\r\n\r\n    function insertToUnFinishedLotteries(address payable _lotteryId) internal {\r\n        (,uint256 date,,,,,,,,) = Lottery(_lotteryId).infoLottery();\r\n        uint256 i = 0;\r\n        uint256 date2;\r\n        for (; i < unfinishedLotteries.length; i++) {\r\n            (,date2,,,,,,,,) = Lottery(unfinishedLotteries[i]).infoLottery();\r\n            if (date < date2) {\r\n                break;                \r\n            }\r\n        }\r\n        unfinishedLotteries.push(payable(0x0000000000000000000000000000000000000000));\r\n        for(uint256 j = unfinishedLotteries.length-1; j > i; j--) {\r\n            unfinishedLotteries[j] = unfinishedLotteries[j - 1];\r\n        }\r\n        unfinishedLotteries[i] = _lotteryId;\r\n    }\r\n\r\n}\r\n",
  "sourcePath": "/mnt/d/pardo/Desktop/Treballs/TFG/TFG/src/contracts/LotteryStorage.sol",
  "compiler": {
    "name": "solc",
    "version": "0.8.15+commit.e14f2714.Emscripten.clang"
  },
  "schemaVersion": "3.4.7",
  "updatedAt": "2022-12-03T18:35:27.792Z",
  "devdoc": {
    "kind": "dev",
    "methods": {},
    "version": 1
  },
  "userdoc": {
    "kind": "user",
    "methods": {},
    "version": 1
  }
}