{
  "contractName": "LotteryStorage",
  "abi": [
    {
      "inputs": [],
      "stateMutability": "nonpayable",
      "type": "constructor"
    },
    {
      "inputs": [
        {
          "internalType": "address",
          "name": "_key",
          "type": "address"
        }
      ],
      "name": "lotteryExists",
      "outputs": [
        {
          "internalType": "bool",
          "name": "",
          "type": "bool"
        }
      ],
      "stateMutability": "view",
      "type": "function"
    },
    {
      "inputs": [],
      "name": "getLotteries",
      "outputs": [
        {
          "internalType": "address[]",
          "name": "",
          "type": "address[]"
        }
      ],
      "stateMutability": "view",
      "type": "function"
    },
    {
      "inputs": [
        {
          "internalType": "address",
          "name": "_key",
          "type": "address"
        }
      ],
      "name": "setLottery",
      "outputs": [],
      "stateMutability": "nonpayable",
      "type": "function"
    }
  ],
  "bytecode": "0x608060405234801561001057600080fd5b50336000806101000a81548173ffffffffffffffffffffffffffffffffffffffff021916908373ffffffffffffffffffffffffffffffffffffffff160217905550610485806100606000396000f3fe608060405234801561001057600080fd5b50600436106100415760003560e01c80635c392b3b14610046578063bcc82ec414610076578063f298083b14610094575b600080fd5b610060600480360381019061005b919061030c565b6100b0565b60405161006d9190610354565b60405180910390f35b61007e610106565b60405161008b919061042d565b60405180910390f35b6100ae60048036038101906100a9919061030c565b610194565b005b6000600160008373ffffffffffffffffffffffffffffffffffffffff1673ffffffffffffffffffffffffffffffffffffffff16815260200190815260200160002060009054906101000a900460ff169050919050565b6060600280548060200260200160405190810160405280929190818152602001828054801561018a57602002820191906000526020600020905b8160009054906101000a900473ffffffffffffffffffffffffffffffffffffffff1673ffffffffffffffffffffffffffffffffffffffff1681526020019060010190808311610140575b5050505050905090565b60008054906101000a900473ffffffffffffffffffffffffffffffffffffffff1673ffffffffffffffffffffffffffffffffffffffff163373ffffffffffffffffffffffffffffffffffffffff16146101ec57600080fd5b60018060008373ffffffffffffffffffffffffffffffffffffffff1673ffffffffffffffffffffffffffffffffffffffff16815260200190815260200160002060006101000a81548160ff0219169083151502179055506002819080600181540180825580915050600190039060005260206000200160009091909190916101000a81548173ffffffffffffffffffffffffffffffffffffffff021916908373ffffffffffffffffffffffffffffffffffffffff16021790555050565b600080fd5b600073ffffffffffffffffffffffffffffffffffffffff82169050919050565b60006102d9826102ae565b9050919050565b6102e9816102ce565b81146102f457600080fd5b50565b600081359050610306816102e0565b92915050565b600060208284031215610322576103216102a9565b5b6000610330848285016102f7565b91505092915050565b60008115159050919050565b61034e81610339565b82525050565b60006020820190506103696000830184610345565b92915050565b600081519050919050565b600082825260208201905092915050565b6000819050602082019050919050565b6103a4816102ce565b82525050565b60006103b6838361039b565b60208301905092915050565b6000602082019050919050565b60006103da8261036f565b6103e4818561037a565b93506103ef8361038b565b8060005b8381101561042057815161040788826103aa565b9750610412836103c2565b9250506001810190506103f3565b5085935050505092915050565b6000602082019050818103600083015261044781846103cf565b90509291505056fea264697066735822122085e0cf8945e451e4d57ba295cb45ade61c11c14e5c30c09adda4e3b93013edab64736f6c634300080f0033",
  "immutableReferences": {},
  "source": "// SPDX-License-Identifier: MIT\r\npragma solidity ^0.8.4;\r\n\r\ncontract LotteryStorage {\r\n    address owner;\r\n\r\n    // Structures where loteries are saved\r\n    mapping(address => bool) lotteryStorage;\r\n    address[] lotteries;\r\n\r\n    constructor() {\r\n        owner = msg.sender;\r\n    }\r\n\r\n    modifier onlyOwner() {\r\n        require(msg.sender == owner);\r\n        _;\r\n    }\r\n\r\n    // *** Getter Methods ***\r\n    /**\r\n    @notice gets a lottery by its address\r\n    @param _key address of the lottery\r\n    @return the lottery\r\n    */\r\n    function lotteryExists(address _key) external view returns (bool) {\r\n        return lotteryStorage[_key];\r\n    }\r\n\r\n    /**\r\n    @notice gets all the lotteries saved\r\n    @return the lotteries\r\n    */\r\n    function getLotteries() external view returns (address[] memory) {\r\n        return lotteries;\r\n    }\r\n\r\n    // *** Setter Methods ***\r\n    /**\r\n    @notice adds a new lottery to the storage mapping and array\r\n    @dev can only be executed by the latest version contract\r\n    @param _key the address of the lottery\r\n    */\r\n    function setLottery(address _key) external onlyOwner {\r\n        lotteryStorage[_key] = true;\r\n        lotteries.push(_key);\r\n    }\r\n}\r\n",
  "sourcePath": "/mnt/d/pardo/Desktop/Treballs/TFG/TFG/tfg/src/contracts/LotteryStorage.sol",
  "compiler": {
    "name": "solc",
    "version": "0.8.15+commit.e14f2714.Emscripten.clang"
  },
  "schemaVersion": "3.4.7",
  "updatedAt": "2022-10-28T09:23:02.748Z",
  "devdoc": {
    "kind": "dev",
    "methods": {
      "getLotteries()": {
        "returns": {
          "_0": "the lotteries"
        }
      },
      "lotteryExists(address)": {
        "params": {
          "_key": "address of the lottery"
        },
        "returns": {
          "_0": "the lottery"
        }
      },
      "setLottery(address)": {
        "details": "can only be executed by the latest version contract",
        "params": {
          "_key": "the address of the lottery"
        }
      }
    },
    "version": 1
  },
  "userdoc": {
    "kind": "user",
    "methods": {
      "getLotteries()": {
        "notice": "gets all the lotteries saved"
      },
      "lotteryExists(address)": {
        "notice": "gets a lottery by its address"
      },
      "setLottery(address)": {
        "notice": "adds a new lottery to the storage mapping and array"
      }
    },
    "version": 1
  }
}