{
  "contractName": "Lottery",
  "abi": [
    {
      "inputs": [
        {
          "internalType": "uint256",
          "name": "_ticketCost",
          "type": "uint256"
        },
        {
          "internalType": "uint256",
          "name": "_totalNumbers",
          "type": "uint256"
        },
        {
          "internalType": "uint256",
          "name": "_totalSeries",
          "type": "uint256"
        },
        {
          "internalType": "address",
          "name": "_owner",
          "type": "address"
        },
        {
          "internalType": "uint256",
          "name": "_minimumParticipants",
          "type": "uint256"
        },
        {
          "internalType": "uint256",
          "name": "_totalPrize",
          "type": "uint256"
        },
        {
          "internalType": "uint32",
          "name": "_numWinners",
          "type": "uint32"
        },
        {
          "internalType": "uint256",
          "name": "_date",
          "type": "uint256"
        },
        {
          "internalType": "string",
          "name": "_lotteryName",
          "type": "string"
        }
      ],
      "stateMutability": "payable",
      "type": "constructor"
    },
    {
      "anonymous": false,
      "inputs": [
        {
          "indexed": true,
          "internalType": "address",
          "name": "owner",
          "type": "address"
        },
        {
          "indexed": true,
          "internalType": "address",
          "name": "approved",
          "type": "address"
        },
        {
          "indexed": true,
          "internalType": "uint256",
          "name": "tokenId",
          "type": "uint256"
        }
      ],
      "name": "Approval",
      "type": "event"
    },
    {
      "anonymous": false,
      "inputs": [
        {
          "indexed": true,
          "internalType": "address",
          "name": "owner",
          "type": "address"
        },
        {
          "indexed": true,
          "internalType": "address",
          "name": "operator",
          "type": "address"
        },
        {
          "indexed": false,
          "internalType": "bool",
          "name": "approved",
          "type": "bool"
        }
      ],
      "name": "ApprovalForAll",
      "type": "event"
    },
    {
      "anonymous": false,
      "inputs": [
        {
          "indexed": true,
          "internalType": "address",
          "name": "from",
          "type": "address"
        },
        {
          "indexed": true,
          "internalType": "address",
          "name": "to",
          "type": "address"
        },
        {
          "indexed": true,
          "internalType": "uint256",
          "name": "tokenId",
          "type": "uint256"
        }
      ],
      "name": "Transfer",
      "type": "event"
    },
    {
      "stateMutability": "payable",
      "type": "fallback"
    },
    {
      "inputs": [
        {
          "internalType": "address",
          "name": "to",
          "type": "address"
        },
        {
          "internalType": "uint256",
          "name": "tokenId",
          "type": "uint256"
        }
      ],
      "name": "approve",
      "outputs": [],
      "stateMutability": "nonpayable",
      "type": "function"
    },
    {
      "inputs": [
        {
          "internalType": "address",
          "name": "owner",
          "type": "address"
        }
      ],
      "name": "balanceOf",
      "outputs": [
        {
          "internalType": "uint256",
          "name": "",
          "type": "uint256"
        }
      ],
      "stateMutability": "view",
      "type": "function"
    },
    {
      "inputs": [
        {
          "internalType": "uint256",
          "name": "tokenId",
          "type": "uint256"
        }
      ],
      "name": "getApproved",
      "outputs": [
        {
          "internalType": "address",
          "name": "",
          "type": "address"
        }
      ],
      "stateMutability": "view",
      "type": "function"
    },
    {
      "inputs": [
        {
          "internalType": "address",
          "name": "owner",
          "type": "address"
        },
        {
          "internalType": "address",
          "name": "operator",
          "type": "address"
        }
      ],
      "name": "isApprovedForAll",
      "outputs": [
        {
          "internalType": "bool",
          "name": "",
          "type": "bool"
        }
      ],
      "stateMutability": "view",
      "type": "function"
    },
    {
      "inputs": [],
      "name": "name",
      "outputs": [
        {
          "internalType": "string",
          "name": "",
          "type": "string"
        }
      ],
      "stateMutability": "view",
      "type": "function"
    },
    {
      "inputs": [
        {
          "internalType": "uint256",
          "name": "tokenId",
          "type": "uint256"
        }
      ],
      "name": "ownerOf",
      "outputs": [
        {
          "internalType": "address",
          "name": "",
          "type": "address"
        }
      ],
      "stateMutability": "view",
      "type": "function"
    },
    {
      "inputs": [
        {
          "internalType": "address",
          "name": "from",
          "type": "address"
        },
        {
          "internalType": "address",
          "name": "to",
          "type": "address"
        },
        {
          "internalType": "uint256",
          "name": "tokenId",
          "type": "uint256"
        }
      ],
      "name": "safeTransferFrom",
      "outputs": [],
      "stateMutability": "nonpayable",
      "type": "function"
    },
    {
      "inputs": [
        {
          "internalType": "address",
          "name": "from",
          "type": "address"
        },
        {
          "internalType": "address",
          "name": "to",
          "type": "address"
        },
        {
          "internalType": "uint256",
          "name": "tokenId",
          "type": "uint256"
        },
        {
          "internalType": "bytes",
          "name": "data",
          "type": "bytes"
        }
      ],
      "name": "safeTransferFrom",
      "outputs": [],
      "stateMutability": "nonpayable",
      "type": "function"
    },
    {
      "inputs": [
        {
          "internalType": "address",
          "name": "operator",
          "type": "address"
        },
        {
          "internalType": "bool",
          "name": "approved",
          "type": "bool"
        }
      ],
      "name": "setApprovalForAll",
      "outputs": [],
      "stateMutability": "nonpayable",
      "type": "function"
    },
    {
      "inputs": [
        {
          "internalType": "bytes4",
          "name": "interfaceId",
          "type": "bytes4"
        }
      ],
      "name": "supportsInterface",
      "outputs": [
        {
          "internalType": "bool",
          "name": "",
          "type": "bool"
        }
      ],
      "stateMutability": "view",
      "type": "function"
    },
    {
      "inputs": [],
      "name": "symbol",
      "outputs": [
        {
          "internalType": "string",
          "name": "",
          "type": "string"
        }
      ],
      "stateMutability": "view",
      "type": "function"
    },
    {
      "inputs": [
        {
          "internalType": "uint256",
          "name": "tokenId",
          "type": "uint256"
        }
      ],
      "name": "tokenURI",
      "outputs": [
        {
          "internalType": "string",
          "name": "",
          "type": "string"
        }
      ],
      "stateMutability": "view",
      "type": "function"
    },
    {
      "inputs": [
        {
          "internalType": "address",
          "name": "from",
          "type": "address"
        },
        {
          "internalType": "address",
          "name": "to",
          "type": "address"
        },
        {
          "internalType": "uint256",
          "name": "tokenId",
          "type": "uint256"
        }
      ],
      "name": "transferFrom",
      "outputs": [],
      "stateMutability": "nonpayable",
      "type": "function"
    },
    {
      "stateMutability": "payable",
      "type": "receive"
    },
    {
      "inputs": [
        {
          "internalType": "address",
          "name": "_to",
          "type": "address"
        }
      ],
      "name": "getBenefits",
      "outputs": [],
      "stateMutability": "nonpayable",
      "type": "function"
    },
    {
      "inputs": [
        {
          "internalType": "uint256",
          "name": "_weiToPay",
          "type": "uint256"
        },
        {
          "internalType": "address",
          "name": "_to",
          "type": "address"
        }
      ],
      "name": "payPrize",
      "outputs": [],
      "stateMutability": "nonpayable",
      "type": "function"
    },
    {
      "inputs": [
        {
          "internalType": "address",
          "name": "_to",
          "type": "address"
        },
        {
          "internalType": "uint256",
          "name": "_tokenId",
          "type": "uint256"
        },
        {
          "internalType": "uint256",
          "name": "_totalShares",
          "type": "uint256"
        }
      ],
      "name": "mintBoleto",
      "outputs": [],
      "stateMutability": "nonpayable",
      "type": "function"
    },
    {
      "inputs": [],
      "name": "infoLottery",
      "outputs": [
        {
          "internalType": "string",
          "name": "",
          "type": "string"
        },
        {
          "internalType": "uint256",
          "name": "",
          "type": "uint256"
        },
        {
          "internalType": "address",
          "name": "",
          "type": "address"
        },
        {
          "internalType": "uint256",
          "name": "",
          "type": "uint256"
        },
        {
          "internalType": "uint256",
          "name": "",
          "type": "uint256"
        },
        {
          "internalType": "uint256",
          "name": "",
          "type": "uint256"
        },
        {
          "internalType": "uint256",
          "name": "",
          "type": "uint256"
        },
        {
          "internalType": "uint256",
          "name": "",
          "type": "uint256"
        },
        {
          "internalType": "uint32",
          "name": "",
          "type": "uint32"
        },
        {
          "internalType": "uint256[]",
          "name": "",
          "type": "uint256[]"
        }
      ],
      "stateMutability": "view",
      "type": "function"
    },
    {
      "inputs": [],
      "name": "setLotteryFinished",
      "outputs": [],
      "stateMutability": "nonpayable",
      "type": "function"
    },
    {
      "inputs": [],
      "name": "setLotteryFailed",
      "outputs": [],
      "stateMutability": "nonpayable",
      "type": "function"
    },
    {
      "inputs": [],
      "name": "isLotteryFinished",
      "outputs": [
        {
          "internalType": "bool",
          "name": "",
          "type": "bool"
        }
      ],
      "stateMutability": "view",
      "type": "function"
    },
    {
      "inputs": [],
      "name": "isLotteryFailed",
      "outputs": [
        {
          "internalType": "bool",
          "name": "",
          "type": "bool"
        }
      ],
      "stateMutability": "view",
      "type": "function"
    },
    {
      "inputs": [],
      "name": "isLotteryActive",
      "outputs": [
        {
          "internalType": "bool",
          "name": "",
          "type": "bool"
        }
      ],
      "stateMutability": "view",
      "type": "function"
    },
    {
      "inputs": [],
      "name": "getTotalPurchasedTickets",
      "outputs": [
        {
          "internalType": "uint256",
          "name": "",
          "type": "uint256"
        }
      ],
      "stateMutability": "view",
      "type": "function"
    },
    {
      "inputs": [],
      "name": "setBenefit",
      "outputs": [],
      "stateMutability": "nonpayable",
      "type": "function"
    },
    {
      "inputs": [],
      "name": "getBenefit",
      "outputs": [
        {
          "internalType": "uint256",
          "name": "",
          "type": "uint256"
        }
      ],
      "stateMutability": "view",
      "type": "function"
    },
    {
      "inputs": [
        {
          "internalType": "uint256[]",
          "name": "randomWords",
          "type": "uint256[]"
        }
      ],
      "name": "setWinnerTickets",
      "outputs": [
        {
          "internalType": "uint256[]",
          "name": "",
          "type": "uint256[]"
        }
      ],
      "stateMutability": "nonpayable",
      "type": "function"
    },
    {
      "inputs": [],
      "name": "getPrizeLottery",
      "outputs": [
        {
          "internalType": "uint256",
          "name": "",
          "type": "uint256"
        }
      ],
      "stateMutability": "view",
      "type": "function"
    },
    {
      "inputs": [
        {
          "internalType": "uint256",
          "name": "_tokenId",
          "type": "uint256"
        }
      ],
      "name": "isWinnerTicket",
      "outputs": [
        {
          "internalType": "bool",
          "name": "",
          "type": "bool"
        }
      ],
      "stateMutability": "view",
      "type": "function"
    },
    {
      "inputs": [
        {
          "internalType": "uint256",
          "name": "_tokenId",
          "type": "uint256"
        }
      ],
      "name": "getTicketToShare",
      "outputs": [
        {
          "components": [
            {
              "internalType": "uint256",
              "name": "tokenId",
              "type": "uint256"
            },
            {
              "internalType": "address",
              "name": "shares",
              "type": "address"
            }
          ],
          "internalType": "struct Lottery.share",
          "name": "",
          "type": "tuple"
        }
      ],
      "stateMutability": "view",
      "type": "function"
    }
  ],
  "bytecode": "0x6080604052604051620064f0380380620064f08339818101604052810190620000299190620005e4565b808181600090816200003c919062000923565b5080600190816200004e919062000923565b50505083341462000096576040517f08c379a00000000000000000000000000000000000000000000000000000000081526004016200008d9062000a91565b60405180910390fd5b60008911620000dc576040517f08c379a0000000000000000000000000000000000000000000000000000000008152600401620000d39062000b29565b60405180910390fd5b6000881162000122576040517f08c379a0000000000000000000000000000000000000000000000000000000008152600401620001199062000bc1565b60405180910390fd5b6000871162000168576040517f08c379a00000000000000000000000000000000000000000000000000000000081526004016200015f9062000c59565b60405180910390fd5b60008511620001ae576040517f08c379a0000000000000000000000000000000000000000000000000000000008152600401620001a59062000cf1565b60405180910390fd5b60008363ffffffff1611620001fa576040517f08c379a0000000000000000000000000000000000000000000000000000000008152600401620001f19062000d89565b60405180910390fd5b4282116200023f576040517f08c379a0000000000000000000000000000000000000000000000000000000008152600401620002369062000e21565b60405180910390fd5b6000841162000285576040517f08c379a00000000000000000000000000000000000000000000000000000000081526004016200027c9062000eb9565b60405180910390fd5b8360098190555083600d8190555082600b60006101000a81548163ffffffff021916908363ffffffff16021790555088600881905550876006819055508660078190555085601460006101000a81548173ffffffffffffffffffffffffffffffffffffffff021916908373ffffffffffffffffffffffffffffffffffffffff16021790555084600c8190555060006014806101000a81548160ff0219169083600281111562000339576200033862000edb565b5b021790555081600e8190555080600a908162000356919062000923565b5050505050505050505062000f0a565b6000604051905090565b600080fd5b600080fd5b6000819050919050565b6200038f816200037a565b81146200039b57600080fd5b50565b600081519050620003af8162000384565b92915050565b600073ffffffffffffffffffffffffffffffffffffffff82169050919050565b6000620003e282620003b5565b9050919050565b620003f481620003d5565b81146200040057600080fd5b50565b6000815190506200041481620003e9565b92915050565b600063ffffffff82169050919050565b62000435816200041a565b81146200044157600080fd5b50565b60008151905062000455816200042a565b92915050565b600080fd5b600080fd5b6000601f19601f8301169050919050565b7f4e487b7100000000000000000000000000000000000000000000000000000000600052604160045260246000fd5b620004b08262000465565b810181811067ffffffffffffffff82111715620004d257620004d162000476565b5b80604052505050565b6000620004e762000366565b9050620004f58282620004a5565b919050565b600067ffffffffffffffff82111562000518576200051762000476565b5b620005238262000465565b9050602081019050919050565b60005b838110156200055057808201518184015260208101905062000533565b8381111562000560576000848401525b50505050565b60006200057d6200057784620004fa565b620004db565b9050828152602081018484840111156200059c576200059b62000460565b5b620005a984828562000530565b509392505050565b600082601f830112620005c957620005c86200045b565b5b8151620005db84826020860162000566565b91505092915050565b60008060008060008060008060006101208a8c0312156200060a576200060962000370565b5b60006200061a8c828d016200039e565b99505060206200062d8c828d016200039e565b9850506040620006408c828d016200039e565b9750506060620006538c828d0162000403565b9650506080620006668c828d016200039e565b95505060a0620006798c828d016200039e565b94505060c06200068c8c828d0162000444565b93505060e06200069f8c828d016200039e565b9250506101008a015167ffffffffffffffff811115620006c457620006c362000375565b5b620006d28c828d01620005b1565b9150509295985092959850929598565b600081519050919050565b7f4e487b7100000000000000000000000000000000000000000000000000000000600052602260045260246000fd5b600060028204905060018216806200073557607f821691505b6020821081036200074b576200074a620006ed565b5b50919050565b60008190508160005260206000209050919050565b60006020601f8301049050919050565b600082821b905092915050565b600060088302620007b57fffffffffffffffffffffffffffffffffffffffffffffffffffffffffffffffff8262000776565b620007c1868362000776565b95508019841693508086168417925050509392505050565b6000819050919050565b600062000804620007fe620007f8846200037a565b620007d9565b6200037a565b9050919050565b6000819050919050565b6200082083620007e3565b620008386200082f826200080b565b84845462000783565b825550505050565b600090565b6200084f62000840565b6200085c81848462000815565b505050565b5b8181101562000884576200087860008262000845565b60018101905062000862565b5050565b601f821115620008d3576200089d8162000751565b620008a88462000766565b81016020851015620008b8578190505b620008d0620008c78562000766565b83018262000861565b50505b505050565b600082821c905092915050565b6000620008f860001984600802620008d8565b1980831691505092915050565b6000620009138383620008e5565b9150826002028217905092915050565b6200092e82620006e2565b67ffffffffffffffff8111156200094a576200094962000476565b5b6200095682546200071c565b6200096382828562000888565b600060209050601f8311600181146200099b576000841562000986578287015190505b62000992858262000905565b86555062000a02565b601f198416620009ab8662000751565b60005b82811015620009d557848901518255600182019150602085019450602081019050620009ae565b86831015620009f55784890151620009f1601f891682620008e5565b8355505b6001600288020188555050505b505050505050565b600082825260208201905092915050565b7f4e656365736974617320656e76696172206d617320455448207061726120656c60008201527f207072656d696f00000000000000000000000000000000000000000000000000602082015250565b600062000a7960278362000a0a565b915062000a868262000a1b565b604082019050919050565b6000602082019050818103600083015262000aac8162000a6a565b9050919050565b7f456c20636f7374652064652063616461207469636b6574207469656e6520717560008201527f6520736572207375706572696f72206120300000000000000000000000000000602082015250565b600062000b1160328362000a0a565b915062000b1e8262000ab3565b604082019050919050565b6000602082019050818103600083015262000b448162000b02565b9050919050565b7f456c20746f74616c206465206e756d65726f73207469656e652071756520736560008201527f72207375706572696f7220612030000000000000000000000000000000000000602082015250565b600062000ba9602e8362000a0a565b915062000bb68262000b4b565b604082019050919050565b6000602082019050818103600083015262000bdc8162000b9a565b9050919050565b7f456c20746f74616c20646520736572696573207469656e65207175652073657260008201527f207375706572696f722061203000000000000000000000000000000000000000602082015250565b600062000c41602d8362000a0a565b915062000c4e8262000be3565b604082019050919050565b6000602082019050818103600083015262000c748162000c32565b9050919050565b7f456c206e756d65726f206d696e696d6f206465207061727469636970616e746560008201527f73207469656e652071756520736572207375706572696f722061203000000000602082015250565b600062000cd9603c8362000a0a565b915062000ce68262000c7b565b604082019050919050565b6000602082019050818103600083015262000d0c8162000cca565b9050919050565b7f456c206e756d65726f2064652067616e61646f726573207469656e652071756560008201527f20736572207375706572696f7220612030000000000000000000000000000000602082015250565b600062000d7160318362000a0a565b915062000d7e8262000d13565b604082019050919050565b6000602082019050818103600083015262000da48162000d62565b9050919050565b7f4c61206665636861207469656e652071756520736572207375706572696f722060008201527f61206c612061637475616c000000000000000000000000000000000000000000602082015250565b600062000e09602b8362000a0a565b915062000e168262000dab565b604082019050919050565b6000602082019050818103600083015262000e3c8162000dfa565b9050919050565b7f456c207072656d696f20746f74616c207469656e65207175652073657220737560008201527f706572696f722061203000000000000000000000000000000000000000000000602082015250565b600062000ea1602a8362000a0a565b915062000eae8262000e43565b604082019050919050565b6000602082019050818103600083015262000ed48162000e92565b9050919050565b7f4e487b7100000000000000000000000000000000000000000000000000000000600052602160045260246000fd5b6155d68062000f1a6000396000f3fe608060405260043610620001f35760003560e01c806370a08231116200010f578063c87b56dd11620000a3578063dae782ef116200006d578063dae782ef1462000706578063e985e9c5146200074a578063ee81565f146200078e578063fe020b8014620007a857620001fb565b8063c87b56dd146200064a578063d206098e146200068e578063d726c73014620006be578063da9d933114620006d857620001fb565b8063a22cb46511620000e5578063a22cb4651462000585578063b88d4fde14620005b3578063be2e690514620005e1578063c3b69ebb146200061a57620001fb565b806370a0823114620004cd57806378591f08146200051157806395d89b41146200055557620001fb565b80631609443a11620001875780633d0d8322116200015d5780633d0d832214620003ff57806342842e0e146200042d5780634d0f8201146200045b5780636352211e146200048957620001fb565b80631609443a146200035d57806323b872dd146200038d57806335cc590f14620003bb57620001fb565b806307a8050511620001c957806307a80505146200028b578063081812fc14620002bb578063095ea7b314620002ff5780631091ce5f146200032d57620001fb565b806301561df114620001fd57806301ffc9a7146200021757806306fdde03146200025b57620001fb565b36620001fb57005b005b3480156200020a57600080fd5b5062000215620007d8565b005b3480156200022457600080fd5b506200024360048036038101906200023d9190620028b0565b6200089a565b604051620002529190620028ff565b60405180910390f35b3480156200026857600080fd5b506200027362000980565b604051620002829190620029c0565b60405180910390f35b3480156200029857600080fd5b50620002a362000a1a565b604051620002b29190620028ff565b60405180910390f35b348015620002c857600080fd5b50620002e76004803603810190620002e1919062002a1f565b62000a5b565b604051620002f6919062002a96565b60405180910390f35b3480156200030c57600080fd5b506200032b600480360381019062000325919062002ae4565b62000aa3565b005b3480156200033a57600080fd5b506200034562000bcb565b604051620003549190620028ff565b60405180910390f35b3480156200036a57600080fd5b506200037562000c0d565b60405162000384919062002b3c565b60405180910390f35b3480156200039a57600080fd5b50620003b96004803603810190620003b3919062002b59565b62000c1a565b005b348015620003c857600080fd5b50620003e76004803603810190620003e1919062002a1f565b62000c83565b604051620003f6919062002c0a565b60405180910390f35b3480156200040c57600080fd5b506200042b600480360381019062000425919062002c27565b62000d12565b005b3480156200043a57600080fd5b5062000459600480360381019062000453919062002b59565b62000e73565b005b3480156200046857600080fd5b5062000487600480360381019062000481919062002c6e565b62000e95565b005b3480156200049657600080fd5b50620004b56004803603810190620004af919062002a1f565b6200103a565b604051620004c4919062002a96565b60405180910390f35b348015620004da57600080fd5b50620004f96004803603810190620004f3919062002c6e565b620010ee565b60405162000508919062002b3c565b60405180910390f35b3480156200051e57600080fd5b506200053d600480360381019062000537919062002a1f565b620011a8565b6040516200054c9190620028ff565b60405180910390f35b3480156200056257600080fd5b506200056d620011d2565b6040516200057c9190620029c0565b60405180910390f35b3480156200059257600080fd5b50620005b16004803603810190620005ab919062002cd1565b6200126c565b005b348015620005c057600080fd5b50620005df6004803603810190620005d9919062002e69565b62001286565b005b348015620005ee57600080fd5b50620005f9620012f1565b604051620006119a9998979695949392919062002fd8565b60405180910390f35b3480156200062757600080fd5b506200063262001455565b604051620006419190620028ff565b60405180910390f35b3480156200065757600080fd5b5062000676600480360381019062000670919062002a1f565b62001496565b604051620006859190620029c0565b60405180910390f35b3480156200069b57600080fd5b50620006a662001508565b604051620006b5919062002b3c565b60405180910390f35b348015620006cb57600080fd5b50620006d662001512565b005b348015620006e557600080fd5b50620007046004803603810190620006fe919062003096565b620015d4565b005b3480156200071357600080fd5b506200073260048036038101906200072c9190620031cd565b62001797565b6040516200074191906200321e565b60405180910390f35b3480156200075757600080fd5b5062000776600480360381019062000770919062003242565b6200198e565b604051620007859190620028ff565b60405180910390f35b3480156200079b57600080fd5b50620007a662001a22565b005b348015620007b557600080fd5b50620007c062001acd565b604051620007cf919062002b3c565b60405180910390f35b601460009054906101000a900473ffffffffffffffffffffffffffffffffffffffff1673ffffffffffffffffffffffffffffffffffffffff163373ffffffffffffffffffffffffffffffffffffffff16146200086b576040517f08c379a00000000000000000000000000000000000000000000000000000000081526004016200086290620032d9565b60405180910390fd5b60026014806101000a81548160ff02191690836002811115620008935762000892620032fb565b5b0217905550565b60007f80ac58cd000000000000000000000000000000000000000000000000000000007bffffffffffffffffffffffffffffffffffffffffffffffffffffffff1916827bffffffffffffffffffffffffffffffffffffffffffffffffffffffff191614806200096657507f5b5e139f000000000000000000000000000000000000000000000000000000007bffffffffffffffffffffffffffffffffffffffffffffffffffffffff1916827bffffffffffffffffffffffffffffffffffffffffffffffffffffffff1916145b80620009795750620009788262001ae9565b5b9050919050565b606060008054620009919062003359565b80601f0160208091040260200160405190810160405280929190818152602001828054620009bf9062003359565b801562000a105780601f10620009e45761010080835404028352916020019162000a10565b820191906000526020600020905b815481529060010190602001808311620009f257829003601f168201915b5050505050905090565b600060028081111562000a325762000a31620032fb565b5b60148054906101000a900460ff16600281111562000a555762000a54620032fb565b5b14905090565b600062000a688262001b53565b6004600083815260200190815260200160002060009054906101000a900473ffffffffffffffffffffffffffffffffffffffff169050919050565b600062000ab0826200103a565b90508073ffffffffffffffffffffffffffffffffffffffff168373ffffffffffffffffffffffffffffffffffffffff160362000b23576040517f08c379a000000000000000000000000000000000000000000000000000000000815260040162000b1a9062003404565b60405180910390fd5b8073ffffffffffffffffffffffffffffffffffffffff1662000b4462001ba3565b73ffffffffffffffffffffffffffffffffffffffff16148062000b78575062000b778162000b7162001ba3565b6200198e565b5b62000bba576040517f08c379a000000000000000000000000000000000000000000000000000000000815260040162000bb1906200349c565b60405180910390fd5b62000bc6838362001bab565b505050565b60006001600281111562000be45762000be3620032fb565b5b60148054906101000a900460ff16600281111562000c075762000c06620032fb565b5b14905090565b6000601080549050905090565b62000c2f62000c2862001ba3565b8262001c66565b62000c71576040517f08c379a000000000000000000000000000000000000000000000000000000000815260040162000c689062003534565b60405180910390fd5b62000c7e83838362001d03565b505050565b62000c8d62002801565b60116000838152602001908152602001600020604051806040016040529081600082015481526020016001820160009054906101000a900473ffffffffffffffffffffffffffffffffffffffff1673ffffffffffffffffffffffffffffffffffffffff1673ffffffffffffffffffffffffffffffffffffffff16815250509050919050565b601460009054906101000a900473ffffffffffffffffffffffffffffffffffffffff1673ffffffffffffffffffffffffffffffffffffffff163373ffffffffffffffffffffffffffffffffffffffff161462000da5576040517f08c379a000000000000000000000000000000000000000000000000000000000815260040162000d9c90620032d9565b60405180910390fd5b60008173ffffffffffffffffffffffffffffffffffffffff168360405162000dcd906200358b565b60006040518083038185875af1925050503d806000811462000e0c576040519150601f19603f3d011682016040523d82523d6000602084013e62000e11565b606091505b505090508062000e58576040517f08c379a000000000000000000000000000000000000000000000000000000000815260040162000e4f90620035f2565b60405180910390fd5b82600d5462000e68919062003643565b600d81905550505050565b62000e908383836040518060200160405280600081525062001286565b505050565b601460009054906101000a900473ffffffffffffffffffffffffffffffffffffffff1673ffffffffffffffffffffffffffffffffffffffff163373ffffffffffffffffffffffffffffffffffffffff161462000f28576040517f08c379a000000000000000000000000000000000000000000000000000000000815260040162000f1f90620032d9565b60405180910390fd5b6000600d544762000f3a919062003643565b90506000811162000f82576040517f08c379a000000000000000000000000000000000000000000000000000000000815260040162000f7990620036ce565b60405180910390fd5b60008273ffffffffffffffffffffffffffffffffffffffff168260405162000faa906200358b565b60006040518083038185875af1925050503d806000811462000fe9576040519150601f19603f3d011682016040523d82523d6000602084013e62000fee565b606091505b505090508062001035576040517f08c379a00000000000000000000000000000000000000000000000000000000081526004016200102c90620035f2565b60405180910390fd5b505050565b6000806002600084815260200190815260200160002060009054906101000a900473ffffffffffffffffffffffffffffffffffffffff169050600073ffffffffffffffffffffffffffffffffffffffff168173ffffffffffffffffffffffffffffffffffffffff1603620010e5576040517f08c379a0000000000000000000000000000000000000000000000000000000008152600401620010dc9062003740565b60405180910390fd5b80915050919050565b60008073ffffffffffffffffffffffffffffffffffffffff168273ffffffffffffffffffffffffffffffffffffffff160362001161576040517f08c379a00000000000000000000000000000000000000000000000000000000081526004016200115890620037d8565b60405180910390fd5b600360008373ffffffffffffffffffffffffffffffffffffffff1673ffffffffffffffffffffffffffffffffffffffff168152602001908152602001600020549050919050565b60006013600083815260200190815260200160002060009054906101000a900460ff169050919050565b606060018054620011e39062003359565b80601f0160208091040260200160405190810160405280929190818152602001828054620012119062003359565b8015620012625780601f10620012365761010080835404028352916020019162001262565b820191906000526020600020905b8154815290600101906020018083116200124457829003601f168201915b5050505050905090565b620012826200127a62001ba3565b838362001f7b565b5050565b6200129b6200129462001ba3565b8362001c66565b620012dd576040517f08c379a0000000000000000000000000000000000000000000000000000000008152600401620012d49062003534565b60405180910390fd5b620012eb84848484620020ec565b50505050565b60606000806000806000806000806060600a600e54601460009054906101000a900473ffffffffffffffffffffffffffffffffffffffff16600654600754600854600c54600954600b60009054906101000a900463ffffffff1660128980546200135b9062003359565b80601f0160208091040260200160405190810160405280929190818152602001828054620013899062003359565b8015620013da5780601f10620013ae57610100808354040283529160200191620013da565b820191906000526020600020905b815481529060010190602001808311620013bc57829003601f168201915b50505050509950808054806020026020016040519081016040528092919081815260200182805480156200142e57602002820191906000526020600020905b81548152602001906001019080831162001419575b50505050509050995099509950995099509950995099509950995090919293949596979899565b60008060028111156200146d576200146c620032fb565b5b60148054906101000a900460ff16600281111562001490576200148f620032fb565b5b14905090565b6060620014a38262001b53565b6000620014af6200214f565b90506000815111620014d1576040518060200160405280600081525062001500565b80620014dd8462002166565b604051602001620014f09291906200383c565b6040516020818303038152906040525b915050919050565b6000600f54905090565b601460009054906101000a900473ffffffffffffffffffffffffffffffffffffffff1673ffffffffffffffffffffffffffffffffffffffff163373ffffffffffffffffffffffffffffffffffffffff1614620015a5576040517f08c379a00000000000000000000000000000000000000000000000000000000081526004016200159c90620032d9565b60405180910390fd5b60016014806101000a81548160ff02191690836002811115620015cd57620015cc620032fb565b5b0217905550565b601460009054906101000a900473ffffffffffffffffffffffffffffffffffffffff1673ffffffffffffffffffffffffffffffffffffffff163373ffffffffffffffffffffffffffffffffffffffff161462001667576040517f08c379a00000000000000000000000000000000000000000000000000000000081526004016200165e90620032d9565b60405180910390fd5b620016738383620022df565b60008382601460009054906101000a900473ffffffffffffffffffffffffffffffffffffffff16604051620016a89062002831565b620016b69392919062003864565b604051809103906000f080158015620016d3573d6000803e3d6000fd5b50905060405180604001604052808481526020018273ffffffffffffffffffffffffffffffffffffffff16815250601160008581526020019081526020016000206000820151816000015560208201518160010160006101000a81548173ffffffffffffffffffffffffffffffffffffffff021916908373ffffffffffffffffffffffffffffffffffffffff160217905550905050601083908060018154018082558091505060019003906000526020600020016000909190919091505550505050565b6060601460009054906101000a900473ffffffffffffffffffffffffffffffffffffffff1673ffffffffffffffffffffffffffffffffffffffff163373ffffffffffffffffffffffffffffffffffffffff16146200182c576040517f08c379a00000000000000000000000000000000000000000000000000000000081526004016200182390620032d9565b60405180910390fd5b60005b82518110156200193357600060108080549050858481518110620018585762001857620038a1565b5b60200260200101516200186c9190620038ff565b8154811062001880576200187f620038a1565b5b90600052602060002001549050601281908060018154018082558091505060019003906000526020600020016000909190919091505560016013600083815260200190815260200160002060006101000a81548160ff0219169083151502179055506200191c601080549050858481518110620019025762001901620038a1565b5b6020026020010151620019169190620038ff565b620022ff565b5080806200192a9062003937565b9150506200182f565b5060128054806020026020016040519081016040528092919081815260200182805480156200198257602002820191906000526020600020905b8154815260200190600101908083116200196d575b50505050509050919050565b6000600560008473ffffffffffffffffffffffffffffffffffffffff1673ffffffffffffffffffffffffffffffffffffffff16815260200190815260200160002060008373ffffffffffffffffffffffffffffffffffffffff1673ffffffffffffffffffffffffffffffffffffffff16815260200190815260200160002060009054906101000a900460ff16905092915050565b601460009054906101000a900473ffffffffffffffffffffffffffffffffffffffff1673ffffffffffffffffffffffffffffffffffffffff163373ffffffffffffffffffffffffffffffffffffffff161462001ab5576040517f08c379a000000000000000000000000000000000000000000000000000000000815260040162001aac90620032d9565b60405180910390fd5b6009544762001ac5919062003643565b600f81905550565b600060128054905060095462001ae4919062003984565b905090565b60007f01ffc9a7000000000000000000000000000000000000000000000000000000007bffffffffffffffffffffffffffffffffffffffffffffffffffffffff1916827bffffffffffffffffffffffffffffffffffffffffffffffffffffffff1916149050919050565b62001b5e8162002387565b62001ba0576040517f08c379a000000000000000000000000000000000000000000000000000000000815260040162001b979062003740565b60405180910390fd5b50565b600033905090565b816004600083815260200190815260200160002060006101000a81548173ffffffffffffffffffffffffffffffffffffffff021916908373ffffffffffffffffffffffffffffffffffffffff160217905550808273ffffffffffffffffffffffffffffffffffffffff1662001c20836200103a565b73ffffffffffffffffffffffffffffffffffffffff167f8c5be1e5ebec7d5bd14f71427d1e84f3dd0314c0f7b2291e5b200ac8c7c3b92560405160405180910390a45050565b60008062001c74836200103a565b90508073ffffffffffffffffffffffffffffffffffffffff168473ffffffffffffffffffffffffffffffffffffffff16148062001cb9575062001cb881856200198e565b5b8062001cfa57508373ffffffffffffffffffffffffffffffffffffffff1662001ce28462000a5b565b73ffffffffffffffffffffffffffffffffffffffff16145b91505092915050565b8273ffffffffffffffffffffffffffffffffffffffff1662001d25826200103a565b73ffffffffffffffffffffffffffffffffffffffff161462001d7e576040517f08c379a000000000000000000000000000000000000000000000000000000000815260040162001d759062003a32565b60405180910390fd5b600073ffffffffffffffffffffffffffffffffffffffff168273ffffffffffffffffffffffffffffffffffffffff160362001df0576040517f08c379a000000000000000000000000000000000000000000000000000000000815260040162001de79062003aca565b60405180910390fd5b62001dfd838383620023f3565b62001e0a60008262001bab565b6001600360008573ffffffffffffffffffffffffffffffffffffffff1673ffffffffffffffffffffffffffffffffffffffff168152602001908152602001600020600082825462001e5c919062003643565b925050819055506001600360008473ffffffffffffffffffffffffffffffffffffffff1673ffffffffffffffffffffffffffffffffffffffff168152602001908152602001600020600082825462001eb5919062003aec565b92505081905550816002600083815260200190815260200160002060006101000a81548173ffffffffffffffffffffffffffffffffffffffff021916908373ffffffffffffffffffffffffffffffffffffffff160217905550808273ffffffffffffffffffffffffffffffffffffffff168473ffffffffffffffffffffffffffffffffffffffff167fddf252ad1be2c89b69c2b068fc378daa952ba7f163c4a11628f55a4df523b3ef60405160405180910390a462001f76838383620023f8565b505050565b8173ffffffffffffffffffffffffffffffffffffffff168373ffffffffffffffffffffffffffffffffffffffff160362001fec576040517f08c379a000000000000000000000000000000000000000000000000000000000815260040162001fe39062003b99565b60405180910390fd5b80600560008573ffffffffffffffffffffffffffffffffffffffff1673ffffffffffffffffffffffffffffffffffffffff16815260200190815260200160002060008473ffffffffffffffffffffffffffffffffffffffff1673ffffffffffffffffffffffffffffffffffffffff16815260200190815260200160002060006101000a81548160ff0219169083151502179055508173ffffffffffffffffffffffffffffffffffffffff168373ffffffffffffffffffffffffffffffffffffffff167f17307eab39ab6107e8899845ad3d59bd9653f200f220920489ca2b5937696c3183604051620020df9190620028ff565b60405180910390a3505050565b620020f984848462001d03565b6200210784848484620023fd565b62002149576040517f08c379a0000000000000000000000000000000000000000000000000000000008152600401620021409062003c31565b60405180910390fd5b50505050565b606060405180602001604052806000815250905090565b606060008203620021af576040518060400160405280600181526020017f30000000000000000000000000000000000000000000000000000000000000008152509050620022da565b600082905060005b60008214620021e7578080620021cd9062003937565b915050600a82620021df919062003984565b9150620021b7565b60008167ffffffffffffffff81111562002206576200220562002d22565b5b6040519080825280601f01601f191660200182016040528015620022395781602001600182028036833780820191505090505b5090505b60008514620022d35760018262002255919062003643565b9150600a85620022669190620038ff565b603062002274919062003aec565b60f81b8183815181106200228d576200228c620038a1565b5b60200101907effffffffffffffffffffffffffffffffffffffffffffffffffffffffffffff1916908160001a905350600a85620022cb919062003984565b94506200223d565b8093505050505b919050565b620022fb82826040518060200160405280600081525062002595565b5050565b6010600160108054905062002315919062003643565b81548110620023295762002328620038a1565b5b9060005260206000200154601082815481106200234b576200234a620038a1565b5b906000526020600020018190555060108054806200236e576200236d62003c53565b5b6001900381819060005260206000200160009055905550565b60008073ffffffffffffffffffffffffffffffffffffffff166002600084815260200190815260200160002060009054906101000a900473ffffffffffffffffffffffffffffffffffffffff1673ffffffffffffffffffffffffffffffffffffffff1614159050919050565b505050565b505050565b6000620024208473ffffffffffffffffffffffffffffffffffffffff16620025f7565b1562002588578373ffffffffffffffffffffffffffffffffffffffff1663150b7a026200244c62001ba3565b8786866040518563ffffffff1660e01b815260040162002470949392919062003cdf565b6020604051808303816000875af1925050508015620024af57506040513d601f19601f82011682018060405250810190620024ac919062003d4a565b60015b62002537573d8060008114620024e2576040519150601f19603f3d011682016040523d82523d6000602084013e620024e7565b606091505b5060008151036200252f576040517f08c379a0000000000000000000000000000000000000000000000000000000008152600401620025269062003c31565b60405180910390fd5b805181602001fd5b63150b7a0260e01b7bffffffffffffffffffffffffffffffffffffffffffffffffffffffff1916817bffffffffffffffffffffffffffffffffffffffffffffffffffffffff1916149150506200258d565b600190505b949350505050565b620025a183836200261a565b620025b06000848484620023fd565b620025f2576040517f08c379a0000000000000000000000000000000000000000000000000000000008152600401620025e99062003c31565b60405180910390fd5b505050565b6000808273ffffffffffffffffffffffffffffffffffffffff163b119050919050565b600073ffffffffffffffffffffffffffffffffffffffff168273ffffffffffffffffffffffffffffffffffffffff16036200268c576040517f08c379a0000000000000000000000000000000000000000000000000000000008152600401620026839062003dcc565b60405180910390fd5b620026978162002387565b15620026da576040517f08c379a0000000000000000000000000000000000000000000000000000000008152600401620026d19062003e3e565b60405180910390fd5b620026e860008383620023f3565b6001600360008473ffffffffffffffffffffffffffffffffffffffff1673ffffffffffffffffffffffffffffffffffffffff16815260200190815260200160002060008282546200273a919062003aec565b92505081905550816002600083815260200190815260200160002060006101000a81548173ffffffffffffffffffffffffffffffffffffffff021916908373ffffffffffffffffffffffffffffffffffffffff160217905550808273ffffffffffffffffffffffffffffffffffffffff16600073ffffffffffffffffffffffffffffffffffffffff167fddf252ad1be2c89b69c2b068fc378daa952ba7f163c4a11628f55a4df523b3ef60405160405180910390a4620027fd60008383620023f8565b5050565b604051806040016040528060008152602001600073ffffffffffffffffffffffffffffffffffffffff1681525090565b6117408062003e6183390190565b6000604051905090565b600080fd5b600080fd5b60007fffffffff0000000000000000000000000000000000000000000000000000000082169050919050565b6200288a8162002853565b81146200289657600080fd5b50565b600081359050620028aa816200287f565b92915050565b600060208284031215620028c957620028c862002849565b5b6000620028d98482850162002899565b91505092915050565b60008115159050919050565b620028f981620028e2565b82525050565b6000602082019050620029166000830184620028ee565b92915050565b600081519050919050565b600082825260208201905092915050565b60005b83811015620029585780820151818401526020810190506200293b565b8381111562002968576000848401525b50505050565b6000601f19601f8301169050919050565b60006200298c826200291c565b62002998818562002927565b9350620029aa81856020860162002938565b620029b5816200296e565b840191505092915050565b60006020820190508181036000830152620029dc81846200297f565b905092915050565b6000819050919050565b620029f981620029e4565b811462002a0557600080fd5b50565b60008135905062002a1981620029ee565b92915050565b60006020828403121562002a385762002a3762002849565b5b600062002a488482850162002a08565b91505092915050565b600073ffffffffffffffffffffffffffffffffffffffff82169050919050565b600062002a7e8262002a51565b9050919050565b62002a908162002a71565b82525050565b600060208201905062002aad600083018462002a85565b92915050565b62002abe8162002a71565b811462002aca57600080fd5b50565b60008135905062002ade8162002ab3565b92915050565b6000806040838503121562002afe5762002afd62002849565b5b600062002b0e8582860162002acd565b925050602062002b218582860162002a08565b9150509250929050565b62002b3681620029e4565b82525050565b600060208201905062002b53600083018462002b2b565b92915050565b60008060006060848603121562002b755762002b7462002849565b5b600062002b858682870162002acd565b935050602062002b988682870162002acd565b925050604062002bab8682870162002a08565b9150509250925092565b62002bc081620029e4565b82525050565b62002bd18162002a71565b82525050565b60408201600082015162002bef600085018262002bb5565b50602082015162002c04602085018262002bc6565b50505050565b600060408201905062002c21600083018462002bd7565b92915050565b6000806040838503121562002c415762002c4062002849565b5b600062002c518582860162002a08565b925050602062002c648582860162002acd565b9150509250929050565b60006020828403121562002c875762002c8662002849565b5b600062002c978482850162002acd565b91505092915050565b62002cab81620028e2565b811462002cb757600080fd5b50565b60008135905062002ccb8162002ca0565b92915050565b6000806040838503121562002ceb5762002cea62002849565b5b600062002cfb8582860162002acd565b925050602062002d0e8582860162002cba565b9150509250929050565b600080fd5b600080fd5b7f4e487b7100000000000000000000000000000000000000000000000000000000600052604160045260246000fd5b62002d5c826200296e565b810181811067ffffffffffffffff8211171562002d7e5762002d7d62002d22565b5b80604052505050565b600062002d936200283f565b905062002da1828262002d51565b919050565b600067ffffffffffffffff82111562002dc45762002dc362002d22565b5b62002dcf826200296e565b9050602081019050919050565b82818337600083830152505050565b600062002e0262002dfc8462002da6565b62002d87565b90508281526020810184848401111562002e215762002e2062002d1d565b5b62002e2e84828562002ddc565b509392505050565b600082601f83011262002e4e5762002e4d62002d18565b5b813562002e6084826020860162002deb565b91505092915050565b6000806000806080858703121562002e865762002e8562002849565b5b600062002e968782880162002acd565b945050602062002ea98782880162002acd565b935050604062002ebc8782880162002a08565b925050606085013567ffffffffffffffff81111562002ee05762002edf6200284e565b5b62002eee8782880162002e36565b91505092959194509250565b600063ffffffff82169050919050565b62002f158162002efa565b82525050565b600081519050919050565b600082825260208201905092915050565b6000819050602082019050919050565b600062002f55838362002bb5565b60208301905092915050565b6000602082019050919050565b600062002f7b8262002f1b565b62002f87818562002f26565b935062002f948362002f37565b8060005b8381101562002fcb57815162002faf888262002f47565b975062002fbc8362002f61565b92505060018101905062002f98565b5085935050505092915050565b600061014082019050818103600083015262002ff5818d6200297f565b905062003006602083018c62002b2b565b62003015604083018b62002a85565b62003024606083018a62002b2b565b62003033608083018962002b2b565b6200304260a083018862002b2b565b6200305160c083018762002b2b565b6200306060e083018662002b2b565b6200307061010083018562002f0a565b81810361012083015262003085818462002f6e565b90509b9a5050505050505050505050565b600080600060608486031215620030b257620030b162002849565b5b6000620030c28682870162002acd565b9350506020620030d58682870162002a08565b9250506040620030e88682870162002a08565b9150509250925092565b600067ffffffffffffffff82111562003110576200310f62002d22565b5b602082029050602081019050919050565b600080fd5b60006200313d6200313784620030f2565b62002d87565b9050808382526020820190506020840283018581111562003163576200316262003121565b5b835b818110156200319057806200317b888262002a08565b84526020840193505060208101905062003165565b5050509392505050565b600082601f830112620031b257620031b162002d18565b5b8135620031c484826020860162003126565b91505092915050565b600060208284031215620031e657620031e562002849565b5b600082013567ffffffffffffffff8111156200320757620032066200284e565b5b62003215848285016200319a565b91505092915050565b600060208201905081810360008301526200323a818462002f6e565b905092915050565b600080604083850312156200325c576200325b62002849565b5b60006200326c8582860162002acd565b92505060206200327f8582860162002acd565b9150509250929050565b7f43616c6c6572206973206e6f7420746865206f776e6572000000000000000000600082015250565b6000620032c160178362002927565b9150620032ce8262003289565b602082019050919050565b60006020820190508181036000830152620032f481620032b2565b9050919050565b7f4e487b7100000000000000000000000000000000000000000000000000000000600052602160045260246000fd5b7f4e487b7100000000000000000000000000000000000000000000000000000000600052602260045260246000fd5b600060028204905060018216806200337257607f821691505b6020821081036200338857620033876200332a565b5b50919050565b7f4552433732313a20617070726f76616c20746f2063757272656e74206f776e6560008201527f7200000000000000000000000000000000000000000000000000000000000000602082015250565b6000620033ec60218362002927565b9150620033f9826200338e565b604082019050919050565b600060208201905081810360008301526200341f81620033dd565b9050919050565b7f4552433732313a20617070726f76652063616c6c6572206973206e6f7420746f60008201527f6b656e206f776e6572206e6f7220617070726f76656420666f7220616c6c0000602082015250565b600062003484603e8362002927565b9150620034918262003426565b604082019050919050565b60006020820190508181036000830152620034b78162003475565b9050919050565b7f4552433732313a2063616c6c6572206973206e6f7420746f6b656e206f776e6560008201527f72206e6f7220617070726f766564000000000000000000000000000000000000602082015250565b60006200351c602e8362002927565b91506200352982620034be565b604082019050919050565b600060208201905081810360008301526200354f816200350d565b9050919050565b600081905092915050565b50565b60006200357360008362003556565b9150620035808262003561565b600082019050919050565b6000620035988262003564565b9150819050919050565b7f5472616e73666572206661696c65640000000000000000000000000000000000600082015250565b6000620035da600f8362002927565b9150620035e782620035a2565b602082019050919050565b600060208201905081810360008301526200360d81620035cb565b9050919050565b7f4e487b7100000000000000000000000000000000000000000000000000000000600052601160045260246000fd5b60006200365082620029e4565b91506200365d83620029e4565b92508282101562003673576200367262003614565b5b828203905092915050565b7f4e6f206861792062656e65666963696f73000000000000000000000000000000600082015250565b6000620036b660118362002927565b9150620036c3826200367e565b602082019050919050565b60006020820190508181036000830152620036e981620036a7565b9050919050565b7f4552433732313a20696e76616c696420746f6b656e2049440000000000000000600082015250565b60006200372860188362002927565b91506200373582620036f0565b602082019050919050565b600060208201905081810360008301526200375b8162003719565b9050919050565b7f4552433732313a2061646472657373207a65726f206973206e6f74206120766160008201527f6c6964206f776e65720000000000000000000000000000000000000000000000602082015250565b6000620037c060298362002927565b9150620037cd8262003762565b604082019050919050565b60006020820190508181036000830152620037f381620037b1565b9050919050565b600081905092915050565b600062003812826200291c565b6200381e8185620037fa565b93506200383081856020860162002938565b80840191505092915050565b60006200384a828562003805565b915062003858828462003805565b91508190509392505050565b60006060820190506200387b600083018662002a85565b6200388a602083018562002b2b565b62003899604083018462002a85565b949350505050565b7f4e487b7100000000000000000000000000000000000000000000000000000000600052603260045260246000fd5b7f4e487b7100000000000000000000000000000000000000000000000000000000600052601260045260246000fd5b60006200390c82620029e4565b91506200391983620029e4565b9250826200392c576200392b620038d0565b5b828206905092915050565b60006200394482620029e4565b91507fffffffffffffffffffffffffffffffffffffffffffffffffffffffffffffffff820362003979576200397862003614565b5b600182019050919050565b60006200399182620029e4565b91506200399e83620029e4565b925082620039b157620039b0620038d0565b5b828204905092915050565b7f4552433732313a207472616e736665722066726f6d20696e636f72726563742060008201527f6f776e6572000000000000000000000000000000000000000000000000000000602082015250565b600062003a1a60258362002927565b915062003a2782620039bc565b604082019050919050565b6000602082019050818103600083015262003a4d8162003a0b565b9050919050565b7f4552433732313a207472616e7366657220746f20746865207a65726f2061646460008201527f7265737300000000000000000000000000000000000000000000000000000000602082015250565b600062003ab260248362002927565b915062003abf8262003a54565b604082019050919050565b6000602082019050818103600083015262003ae58162003aa3565b9050919050565b600062003af982620029e4565b915062003b0683620029e4565b9250827fffffffffffffffffffffffffffffffffffffffffffffffffffffffffffffffff0382111562003b3e5762003b3d62003614565b5b828201905092915050565b7f4552433732313a20617070726f766520746f2063616c6c657200000000000000600082015250565b600062003b8160198362002927565b915062003b8e8262003b49565b602082019050919050565b6000602082019050818103600083015262003bb48162003b72565b9050919050565b7f4552433732313a207472616e7366657220746f206e6f6e20455243373231526560008201527f63656976657220696d706c656d656e7465720000000000000000000000000000602082015250565b600062003c1960328362002927565b915062003c268262003bbb565b604082019050919050565b6000602082019050818103600083015262003c4c8162003c0a565b9050919050565b7f4e487b7100000000000000000000000000000000000000000000000000000000600052603160045260246000fd5b600081519050919050565b600082825260208201905092915050565b600062003cab8262003c82565b62003cb7818562003c8d565b935062003cc981856020860162002938565b62003cd4816200296e565b840191505092915050565b600060808201905062003cf6600083018762002a85565b62003d05602083018662002a85565b62003d14604083018562002b2b565b818103606083015262003d28818462003c9e565b905095945050505050565b60008151905062003d44816200287f565b92915050565b60006020828403121562003d635762003d6262002849565b5b600062003d738482850162003d33565b91505092915050565b7f4552433732313a206d696e7420746f20746865207a65726f2061646472657373600082015250565b600062003db460208362002927565b915062003dc18262003d7c565b602082019050919050565b6000602082019050818103600083015262003de78162003da5565b9050919050565b7f4552433732313a20746f6b656e20616c7265616479206d696e74656400000000600082015250565b600062003e26601c8362002927565b915062003e338262003dee565b602082019050919050565b6000602082019050818103600083015262003e598162003e17565b905091905056fe60806040523480156200001157600080fd5b506040516200174038038062001740833981810160405281019062000037919062000288565b80600260006101000a81548173ffffffffffffffffffffffffffffffffffffffff021916908373ffffffffffffffffffffffffffffffffffffffff1602179055506200008a83836200009360201b60201c565b50505062000421565b600073ffffffffffffffffffffffffffffffffffffffff168273ffffffffffffffffffffffffffffffffffffffff160362000105576040517f08c379a0000000000000000000000000000000000000000000000000000000008152600401620000fc9062000345565b60405180910390fd5b806003600082825462000119919062000396565b92505081905550806000808473ffffffffffffffffffffffffffffffffffffffff1673ffffffffffffffffffffffffffffffffffffffff168152602001908152602001600020600082825462000170919062000396565b925050819055508173ffffffffffffffffffffffffffffffffffffffff16600073ffffffffffffffffffffffffffffffffffffffff167fddf252ad1be2c89b69c2b068fc378daa952ba7f163c4a11628f55a4df523b3ef83604051620001d7919062000404565b60405180910390a35050565b600080fd5b600073ffffffffffffffffffffffffffffffffffffffff82169050919050565b60006200021582620001e8565b9050919050565b620002278162000208565b81146200023357600080fd5b50565b60008151905062000247816200021c565b92915050565b6000819050919050565b62000262816200024d565b81146200026e57600080fd5b50565b600081519050620002828162000257565b92915050565b600080600060608486031215620002a457620002a3620001e3565b5b6000620002b48682870162000236565b9350506020620002c78682870162000271565b9250506040620002da8682870162000236565b9150509250925092565b600082825260208201905092915050565b7f45524332303a206d696e7420746f20746865207a65726f206164647265737300600082015250565b60006200032d601f83620002e4565b91506200033a82620002f5565b602082019050919050565b6000602082019050818103600083015262000360816200031e565b9050919050565b7f4e487b7100000000000000000000000000000000000000000000000000000000600052601160045260246000fd5b6000620003a3826200024d565b9150620003b0836200024d565b9250827fffffffffffffffffffffffffffffffffffffffffffffffffffffffffffffffff03821115620003e857620003e762000367565b5b828201905092915050565b620003fe816200024d565b82525050565b60006020820190506200041b6000830184620003f3565b92915050565b61130f80620004316000396000f3fe608060405234801561001057600080fd5b506004361061007d5760003560e01c806370a082311161005b57806370a08231146100ee5780639dc29fac1461011e578063dd62ed3e1461013a578063e1f21c671461016a5761007d565b806318160ddd1461008257806323b872dd146100a0578063313ce567146100d0575b600080fd5b61008a61019a565b6040516100979190610b22565b60405180910390f35b6100ba60048036038101906100b59190610bcc565b6101a4565b6040516100c79190610c3a565b60405180910390f35b6100d861024c565b6040516100e59190610c71565b60405180910390f35b61010860048036038101906101039190610c8c565b610251565b6040516101159190610b22565b60405180910390f35b61013860048036038101906101339190610cb9565b610299565b005b610154600480360381019061014f9190610cf9565b6104d7565b6040516101619190610b22565b60405180910390f35b610184600480360381019061017f9190610bcc565b6105ee565b6040516101919190610c3a565b60405180910390f35b6000600354905090565b6000600260009054906101000a900473ffffffffffffffffffffffffffffffffffffffff1673ffffffffffffffffffffffffffffffffffffffff163373ffffffffffffffffffffffffffffffffffffffff1614610236576040517f08c379a000000000000000000000000000000000000000000000000000000000815260040161022d90610d96565b60405180910390fd5b61024184848461084f565b600190509392505050565b600090565b60008060008373ffffffffffffffffffffffffffffffffffffffff1673ffffffffffffffffffffffffffffffffffffffff168152602001908152602001600020549050919050565b600260009054906101000a900473ffffffffffffffffffffffffffffffffffffffff1673ffffffffffffffffffffffffffffffffffffffff163373ffffffffffffffffffffffffffffffffffffffff1614610329576040517f08c379a000000000000000000000000000000000000000000000000000000000815260040161032090610d96565b60405180910390fd5b600073ffffffffffffffffffffffffffffffffffffffff168273ffffffffffffffffffffffffffffffffffffffff1603610398576040517f08c379a000000000000000000000000000000000000000000000000000000000815260040161038f90610e28565b60405180910390fd5b60008060008473ffffffffffffffffffffffffffffffffffffffff1673ffffffffffffffffffffffffffffffffffffffff1681526020019081526020016000205490508181101561041e576040517f08c379a000000000000000000000000000000000000000000000000000000000815260040161041590610eba565b60405180910390fd5b818161042a9190610f09565b6000808573ffffffffffffffffffffffffffffffffffffffff1673ffffffffffffffffffffffffffffffffffffffff16815260200190815260200160002081905550600073ffffffffffffffffffffffffffffffffffffffff168373ffffffffffffffffffffffffffffffffffffffff167fddf252ad1be2c89b69c2b068fc378daa952ba7f163c4a11628f55a4df523b3ef846040516104ca9190610b22565b60405180910390a3505050565b6000600260009054906101000a900473ffffffffffffffffffffffffffffffffffffffff1673ffffffffffffffffffffffffffffffffffffffff163373ffffffffffffffffffffffffffffffffffffffff1614610569576040517f08c379a000000000000000000000000000000000000000000000000000000000815260040161056090610d96565b60405180910390fd5b600160008473ffffffffffffffffffffffffffffffffffffffff1673ffffffffffffffffffffffffffffffffffffffff16815260200190815260200160002060008373ffffffffffffffffffffffffffffffffffffffff1673ffffffffffffffffffffffffffffffffffffffff16815260200190815260200160002054905092915050565b6000600260009054906101000a900473ffffffffffffffffffffffffffffffffffffffff1673ffffffffffffffffffffffffffffffffffffffff163373ffffffffffffffffffffffffffffffffffffffff1614610680576040517f08c379a000000000000000000000000000000000000000000000000000000000815260040161067790610d96565b60405180910390fd5b600073ffffffffffffffffffffffffffffffffffffffff168473ffffffffffffffffffffffffffffffffffffffff16036106ef576040517f08c379a00000000000000000000000000000000000000000000000000000000081526004016106e690610faf565b60405180910390fd5b600073ffffffffffffffffffffffffffffffffffffffff168373ffffffffffffffffffffffffffffffffffffffff160361075e576040517f08c379a000000000000000000000000000000000000000000000000000000000815260040161075590611041565b60405180910390fd5b81600160008673ffffffffffffffffffffffffffffffffffffffff1673ffffffffffffffffffffffffffffffffffffffff16815260200190815260200160002060008573ffffffffffffffffffffffffffffffffffffffff1673ffffffffffffffffffffffffffffffffffffffff168152602001908152602001600020819055508273ffffffffffffffffffffffffffffffffffffffff168473ffffffffffffffffffffffffffffffffffffffff167f8c5be1e5ebec7d5bd14f71427d1e84f3dd0314c0f7b2291e5b200ac8c7c3b9258460405161083c9190610b22565b60405180910390a3600190509392505050565b600073ffffffffffffffffffffffffffffffffffffffff168373ffffffffffffffffffffffffffffffffffffffff16036108be576040517f08c379a00000000000000000000000000000000000000000000000000000000081526004016108b5906110d3565b60405180910390fd5b600073ffffffffffffffffffffffffffffffffffffffff168273ffffffffffffffffffffffffffffffffffffffff160361092d576040517f08c379a000000000000000000000000000000000000000000000000000000000815260040161092490611165565b60405180910390fd5b600061093984846104d7565b905081811461097d576040517f08c379a0000000000000000000000000000000000000000000000000000000008152600401610974906111d1565b60405180910390fd5b60008060008673ffffffffffffffffffffffffffffffffffffffff1673ffffffffffffffffffffffffffffffffffffffff16815260200190815260200160002054905082811015610a03576040517f08c379a00000000000000000000000000000000000000000000000000000000081526004016109fa90611263565b60405180910390fd5b8281036000808773ffffffffffffffffffffffffffffffffffffffff1673ffffffffffffffffffffffffffffffffffffffff16815260200190815260200160002081905550826000808673ffffffffffffffffffffffffffffffffffffffff1673ffffffffffffffffffffffffffffffffffffffff1681526020019081526020016000206000828254610a969190611283565b925050819055508373ffffffffffffffffffffffffffffffffffffffff168573ffffffffffffffffffffffffffffffffffffffff167fddf252ad1be2c89b69c2b068fc378daa952ba7f163c4a11628f55a4df523b3ef85604051610afa9190610b22565b60405180910390a35050505050565b6000819050919050565b610b1c81610b09565b82525050565b6000602082019050610b376000830184610b13565b92915050565b600080fd5b600073ffffffffffffffffffffffffffffffffffffffff82169050919050565b6000610b6d82610b42565b9050919050565b610b7d81610b62565b8114610b8857600080fd5b50565b600081359050610b9a81610b74565b92915050565b610ba981610b09565b8114610bb457600080fd5b50565b600081359050610bc681610ba0565b92915050565b600080600060608486031215610be557610be4610b3d565b5b6000610bf386828701610b8b565b9350506020610c0486828701610b8b565b9250506040610c1586828701610bb7565b9150509250925092565b60008115159050919050565b610c3481610c1f565b82525050565b6000602082019050610c4f6000830184610c2b565b92915050565b600060ff82169050919050565b610c6b81610c55565b82525050565b6000602082019050610c866000830184610c62565b92915050565b600060208284031215610ca257610ca1610b3d565b5b6000610cb084828501610b8b565b91505092915050565b60008060408385031215610cd057610ccf610b3d565b5b6000610cde85828601610b8b565b9250506020610cef85828601610bb7565b9150509250929050565b60008060408385031215610d1057610d0f610b3d565b5b6000610d1e85828601610b8b565b9250506020610d2f85828601610b8b565b9150509250929050565b600082825260208201905092915050565b7f43616c6c6572206973206e6f7420746865206f776e6572000000000000000000600082015250565b6000610d80601783610d39565b9150610d8b82610d4a565b602082019050919050565b60006020820190508181036000830152610daf81610d73565b9050919050565b7f45524332303a206275726e2066726f6d20746865207a65726f2061646472657360008201527f7300000000000000000000000000000000000000000000000000000000000000602082015250565b6000610e12602183610d39565b9150610e1d82610db6565b604082019050919050565b60006020820190508181036000830152610e4181610e05565b9050919050565b7f45524332303a206275726e20616d6f756e7420657863656564732062616c616e60008201527f6365000000000000000000000000000000000000000000000000000000000000602082015250565b6000610ea4602283610d39565b9150610eaf82610e48565b604082019050919050565b60006020820190508181036000830152610ed381610e97565b9050919050565b7f4e487b7100000000000000000000000000000000000000000000000000000000600052601160045260246000fd5b6000610f1482610b09565b9150610f1f83610b09565b925082821015610f3257610f31610eda565b5b828203905092915050565b7f45524332303a20617070726f76652066726f6d20746865207a65726f2061646460008201527f7265737300000000000000000000000000000000000000000000000000000000602082015250565b6000610f99602483610d39565b9150610fa482610f3d565b604082019050919050565b60006020820190508181036000830152610fc881610f8c565b9050919050565b7f45524332303a20617070726f766520746f20746865207a65726f20616464726560008201527f7373000000000000000000000000000000000000000000000000000000000000602082015250565b600061102b602283610d39565b915061103682610fcf565b604082019050919050565b6000602082019050818103600083015261105a8161101e565b9050919050565b7f45524332303a207472616e736665722066726f6d20746865207a65726f20616460008201527f6472657373000000000000000000000000000000000000000000000000000000602082015250565b60006110bd602583610d39565b91506110c882611061565b604082019050919050565b600060208201905081810360008301526110ec816110b0565b9050919050565b7f45524332303a207472616e7366657220746f20746865207a65726f206164647260008201527f6573730000000000000000000000000000000000000000000000000000000000602082015250565b600061114f602383610d39565b915061115a826110f3565b604082019050919050565b6000602082019050818103600083015261117e81611142565b9050919050565b7f45524332303a20696e73756666696369656e7420616c6c6f77616e6365000000600082015250565b60006111bb601d83610d39565b91506111c682611185565b602082019050919050565b600060208201905081810360008301526111ea816111ae565b9050919050565b7f45524332303a207472616e7366657220616d6f756e742065786365656473206260008201527f616c616e63650000000000000000000000000000000000000000000000000000602082015250565b600061124d602683610d39565b9150611258826111f1565b604082019050919050565b6000602082019050818103600083015261127c81611240565b9050919050565b600061128e82610b09565b915061129983610b09565b9250827fffffffffffffffffffffffffffffffffffffffffffffffffffffffffffffffff038211156112ce576112cd610eda565b5b82820190509291505056fea2646970667358221220222c3050b7d41483dfac72f67234d10193ead848bea2ba22f0d79a78fbad615464736f6c634300080f0033a2646970667358221220fd110656f596bddc5e643fcffb0e4075bd85c2fd9a22684a0212ad9c464a3a4c64736f6c634300080f0033",
  "immutableReferences": {},
  "source": "// SPDX-License-Identifier: MIT\npragma solidity ^0.8.6;\nimport \"@openzeppelin/contracts/token/ERC721/ERC721.sol\";\nimport \"./Shares.sol\";\n\n\ncontract Lottery is ERC721 {\n    uint256 private totalNumbers;\n    uint256 private totalSeries;\n    uint256 private ticketCost;\n    uint256 private totalPrize;\n    string private lotteryName;\n    uint32 private numWinners;\n    uint256 private minimumParticipants;\n    uint256 private prizeNotClaimed;\n    uint256 private date;\n    uint256 private benefit;\n\n\n    uint256[] private purchasedTickets;\n\n    mapping(uint256 => share) private ticketToShare;\n\n    uint256[] private winnerTickets;\n    mapping(uint256 => bool) private winnerTicketsMap;\n\n\n    address private owner;\n\n    States private state;\n    enum States {\n        LotteryActive,\n        LotteryFinished,\n        LotteryFailed\n    }\n\n    struct share {\n        uint256 tokenId;\n        address shares;\n    }\n\n    constructor(\n        uint256 _ticketCost,\n        uint256 _totalNumbers,\n        uint256 _totalSeries,\n        address _owner,\n        uint256 _minimumParticipants,\n        uint256 _totalPrize,\n        uint32 _numWinners,\n        uint256 _date,\n        string memory _lotteryName\n    ) payable ERC721(_lotteryName, _lotteryName) {\n        require(msg.value == _totalPrize,\"Necesitas enviar mas ETH para el premio\");\n        require( _ticketCost > 0,\"El coste de cada ticket tiene que ser superior a 0\");\n        require( _totalNumbers > 0,\"El total de numeros tiene que ser superior a 0\");\n        require( _totalSeries > 0,\"El total de series tiene que ser superior a 0\");\n        require( _minimumParticipants > 0,\"El numero minimo de participantes tiene que ser superior a 0\");\n        require( _numWinners > 0,\"El numero de ganadores tiene que ser superior a 0\");\n        require( _date > block.timestamp,\"La fecha tiene que ser superior a la actual\");\n        require( _totalPrize > 0,\"El premio total tiene que ser superior a 0\");\n        totalPrize = _totalPrize;\n        prizeNotClaimed = _totalPrize;\n        numWinners = _numWinners;\n        ticketCost = _ticketCost;\n        totalNumbers = _totalNumbers;\n        totalSeries = _totalSeries;\n        owner = _owner;\n        minimumParticipants = _minimumParticipants;\n        state = States.LotteryActive;\n        date = _date;\n        lotteryName = _lotteryName;\n    }\n\n    modifier onlyOwner() {\n        require(msg.sender == owner, \"Caller is not the owner\");\n        _;\n    }\n\n    function getBenefits(address _to) public onlyOwner {\n        uint256 profit = address(this).balance - prizeNotClaimed;\n        require(profit > 0, \"No hay beneficios\");\n        (bool success,)=payable(_to).call{value:profit}(\"\");\n        require(success, \"Transfer failed\");\n    }\n\n    function payPrize(uint256 _weiToPay, address _to) public onlyOwner {\n        (bool success,)=payable(_to).call{value:_weiToPay}(\"\");\n        require(success, \"Transfer failed\");\n        prizeNotClaimed = prizeNotClaimed - _weiToPay;\n    }\n\n    function mintBoleto(\n        address _to,\n        uint256 _tokenId,\n        uint256 _totalShares\n    ) public onlyOwner {\n        _safeMint(_to, _tokenId);\n        Shares _shares = new Shares(_to, _totalShares, owner);\n        ticketToShare[_tokenId] = share(_tokenId, address(_shares));\n        purchasedTickets.push(_tokenId);\n    }\n\n    function infoLottery()\n        public\n        view\n        returns (\n            string memory,\n            uint256,\n            address,\n            uint256,\n            uint256,\n            uint256,\n            uint256,\n            uint256,\n            uint32,\n            uint256[] memory\n        )\n    {\n        return (\n            lotteryName,\n            date,\n            owner,\n            totalNumbers,\n            totalSeries,\n            ticketCost,\n            minimumParticipants,\n            totalPrize,\n            numWinners,\n            winnerTickets\n        );\n    }\n\n    fallback() external payable {}\n    receive() external payable {}\n\n\n    function setLotteryFinished() public onlyOwner {\n        state = States.LotteryFinished;\n    }\n\n    function setLotteryFailed() public onlyOwner {\n        state = States.LotteryFailed;\n    }\n\n    function isLotteryFinished() public view returns (bool) {\n        return state == States.LotteryFinished;\n    }\n\n    function isLotteryFailed() public view returns (bool) {\n        return state == States.LotteryFailed;\n    }\n\n    function isLotteryActive() public view returns (bool) {\n        return state == States.LotteryActive;\n    }\n\n    function getTotalPurchasedTickets() public view returns (uint256) {\n        return purchasedTickets.length;\n    }\n\n    function setBenefit() public onlyOwner {\n        benefit = address(this).balance - totalPrize;\n    }\n\n    function getBenefit() public view returns(uint256){\n        return benefit;\n    }\n\n    function setWinnerTickets( uint256[] memory randomWords) external onlyOwner returns(uint256[] memory){\n        for (uint256 i = 0; i < randomWords.length; i++) {\n            uint256 winnerTicket = purchasedTickets[randomWords[i]%purchasedTickets.length];\n            winnerTickets.push(winnerTicket);\n            winnerTicketsMap[winnerTicket] = true; \n            removePurchasedTicket(randomWords[i]%purchasedTickets.length);\n        }\n        return winnerTickets;\n    }\n\n    function removePurchasedTicket(uint256 _index) internal{\n        purchasedTickets[_index] = purchasedTickets[purchasedTickets.length - 1];\n        purchasedTickets.pop();\n    }\n\n    function getPrizeLottery() public view returns (uint256) {\n        return totalPrize / winnerTickets.length;\n    }\n\n    function isWinnerTicket(uint256 _tokenId) public view returns (bool) {\n        return winnerTicketsMap[_tokenId];\n    }\n\n    function getTicketToShare(uint256 _tokenId) public view returns (share memory) {\n        return ticketToShare[_tokenId];\n    }\n}\n",
  "sourcePath": "/mnt/d/pardo/Desktop/Treballs/TFG/TFG/src/contracts/Lottery.sol",
  "compiler": {
    "name": "solc",
    "version": "0.8.15+commit.e14f2714.Emscripten.clang"
  },
  "schemaVersion": "3.4.7",
  "updatedAt": "2022-12-03T18:35:27.744Z",
  "devdoc": {
    "kind": "dev",
    "methods": {
      "approve(address,uint256)": {
        "details": "See {IERC721-approve}."
      },
      "balanceOf(address)": {
        "details": "See {IERC721-balanceOf}."
      },
      "getApproved(uint256)": {
        "details": "See {IERC721-getApproved}."
      },
      "isApprovedForAll(address,address)": {
        "details": "See {IERC721-isApprovedForAll}."
      },
      "name()": {
        "details": "See {IERC721Metadata-name}."
      },
      "ownerOf(uint256)": {
        "details": "See {IERC721-ownerOf}."
      },
      "safeTransferFrom(address,address,uint256)": {
        "details": "See {IERC721-safeTransferFrom}."
      },
      "safeTransferFrom(address,address,uint256,bytes)": {
        "details": "See {IERC721-safeTransferFrom}."
      },
      "setApprovalForAll(address,bool)": {
        "details": "See {IERC721-setApprovalForAll}."
      },
      "supportsInterface(bytes4)": {
        "details": "See {IERC165-supportsInterface}."
      },
      "symbol()": {
        "details": "See {IERC721Metadata-symbol}."
      },
      "tokenURI(uint256)": {
        "details": "See {IERC721Metadata-tokenURI}."
      },
      "transferFrom(address,address,uint256)": {
        "details": "See {IERC721-transferFrom}."
      }
    },
    "version": 1
  },
  "userdoc": {
    "kind": "user",
    "methods": {},
    "version": 1
  }
}