{
  "contractName": "LotteryService",
  "abi": [
    {
      "inputs": [
        {
          "internalType": "uint64",
          "name": "_subscriptionId",
          "type": "uint64"
        }
      ],
      "stateMutability": "nonpayable",
      "type": "constructor"
    },
    {
      "inputs": [
        {
          "internalType": "address",
          "name": "have",
          "type": "address"
        },
        {
          "internalType": "address",
          "name": "want",
          "type": "address"
        }
      ],
      "name": "OnlyCoordinatorCanFulfill",
      "type": "error"
    },
    {
      "anonymous": false,
      "inputs": [
        {
          "indexed": true,
          "internalType": "uint256",
          "name": "requestId",
          "type": "uint256"
        },
        {
          "indexed": true,
          "internalType": "address",
          "name": "lotteryId",
          "type": "address"
        }
      ],
      "name": "RandomNumberRequested",
      "type": "event"
    },
    {
      "anonymous": false,
      "inputs": [
        {
          "indexed": true,
          "internalType": "address",
          "name": "lotteryId",
          "type": "address"
        },
        {
          "indexed": false,
          "internalType": "uint256[]",
          "name": "winnerTickets",
          "type": "uint256[]"
        }
      ],
      "name": "WinnersGenerated",
      "type": "event"
    },
    {
      "anonymous": false,
      "inputs": [
        {
          "indexed": false,
          "internalType": "address",
          "name": "lotteryContract",
          "type": "address"
        }
      ],
      "name": "lotteryAdded",
      "type": "event"
    },
    {
      "anonymous": false,
      "inputs": [
        {
          "indexed": false,
          "internalType": "address",
          "name": "lotteryId",
          "type": "address"
        },
        {
          "indexed": false,
          "internalType": "uint256",
          "name": "tokenId",
          "type": "uint256"
        }
      ],
      "name": "prizeReceived",
      "type": "event"
    },
    {
      "anonymous": false,
      "inputs": [
        {
          "indexed": false,
          "internalType": "address",
          "name": "lotteryId",
          "type": "address"
        },
        {
          "indexed": false,
          "internalType": "address",
          "name": "from",
          "type": "address"
        },
        {
          "indexed": false,
          "internalType": "uint256",
          "name": "tokenId",
          "type": "uint256"
        },
        {
          "indexed": false,
          "internalType": "uint256",
          "name": "amount",
          "type": "uint256"
        }
      ],
      "name": "sharesBought",
      "type": "event"
    },
    {
      "anonymous": false,
      "inputs": [
        {
          "indexed": false,
          "internalType": "address",
          "name": "lotteryId",
          "type": "address"
        },
        {
          "indexed": false,
          "internalType": "address",
          "name": "to",
          "type": "address"
        },
        {
          "indexed": false,
          "internalType": "uint256",
          "name": "tokenId",
          "type": "uint256"
        },
        {
          "indexed": false,
          "internalType": "uint256",
          "name": "amount",
          "type": "uint256"
        }
      ],
      "name": "ticketAllowedToBuy",
      "type": "event"
    },
    {
      "anonymous": false,
      "inputs": [
        {
          "indexed": false,
          "internalType": "address",
          "name": "lotteryId",
          "type": "address"
        },
        {
          "indexed": false,
          "internalType": "uint256",
          "name": "tokenId",
          "type": "uint256"
        },
        {
          "indexed": false,
          "internalType": "uint256",
          "name": "totalShares",
          "type": "uint256"
        }
      ],
      "name": "ticketBought",
      "type": "event"
    },
    {
      "inputs": [],
      "name": "getDecimals",
      "outputs": [
        {
          "internalType": "uint8",
          "name": "",
          "type": "uint8"
        }
      ],
      "stateMutability": "view",
      "type": "function"
    },
    {
      "inputs": [],
      "name": "getLatestPrice",
      "outputs": [
        {
          "internalType": "uint256",
          "name": "",
          "type": "uint256"
        }
      ],
      "stateMutability": "view",
      "type": "function"
    },
    {
      "inputs": [],
      "name": "priceFeed",
      "outputs": [
        {
          "internalType": "contract AggregatorV3Interface",
          "name": "",
          "type": "address"
        }
      ],
      "stateMutability": "view",
      "type": "function"
    },
    {
      "inputs": [
        {
          "internalType": "uint256",
          "name": "requestId",
          "type": "uint256"
        },
        {
          "internalType": "uint256[]",
          "name": "randomWords",
          "type": "uint256[]"
        }
      ],
      "name": "rawFulfillRandomWords",
      "outputs": [],
      "stateMutability": "nonpayable",
      "type": "function"
    },
    {
      "inputs": [
        {
          "internalType": "address",
          "name": "_address",
          "type": "address"
        }
      ],
      "name": "addAuthorized",
      "outputs": [],
      "stateMutability": "nonpayable",
      "type": "function"
    },
    {
      "inputs": [
        {
          "internalType": "address",
          "name": "_address",
          "type": "address"
        }
      ],
      "name": "removeAuthorized",
      "outputs": [],
      "stateMutability": "nonpayable",
      "type": "function"
    },
    {
      "inputs": [
        {
          "internalType": "uint256",
          "name": "ticketCost",
          "type": "uint256"
        }
      ],
      "name": "getCostEth",
      "outputs": [
        {
          "internalType": "uint256",
          "name": "",
          "type": "uint256"
        }
      ],
      "stateMutability": "view",
      "type": "function"
    },
    {
      "inputs": [
        {
          "internalType": "address payable",
          "name": "_lotteryContract",
          "type": "address"
        }
      ],
      "name": "addLottery",
      "outputs": [],
      "stateMutability": "nonpayable",
      "type": "function"
    },
    {
      "inputs": [
        {
          "internalType": "address payable",
          "name": "_lotteryId",
          "type": "address"
        }
      ],
      "name": "getBenefits",
      "outputs": [],
      "stateMutability": "nonpayable",
      "type": "function"
    },
    {
      "inputs": [],
      "name": "finishLotteries",
      "outputs": [],
      "stateMutability": "nonpayable",
      "type": "function"
    },
    {
      "inputs": [
        {
          "internalType": "address payable",
          "name": "_lotteryId",
          "type": "address"
        },
        {
          "internalType": "uint256",
          "name": "_tokenId",
          "type": "uint256"
        }
      ],
      "name": "refundTicket",
      "outputs": [
        {
          "internalType": "uint256",
          "name": "",
          "type": "uint256"
        }
      ],
      "stateMutability": "nonpayable",
      "type": "function"
    },
    {
      "inputs": [
        {
          "internalType": "address payable",
          "name": "_lotteryId",
          "type": "address"
        },
        {
          "internalType": "uint256",
          "name": "_tokenId",
          "type": "uint256"
        }
      ],
      "name": "getPrize",
      "outputs": [],
      "stateMutability": "nonpayable",
      "type": "function"
    },
    {
      "inputs": [
        {
          "internalType": "address payable",
          "name": "_lotteryId",
          "type": "address"
        },
        {
          "internalType": "uint256",
          "name": "_numTicket",
          "type": "uint256"
        },
        {
          "internalType": "uint256",
          "name": "_numSerie",
          "type": "uint256"
        },
        {
          "internalType": "uint256",
          "name": "_numFraccion",
          "type": "uint256"
        },
        {
          "internalType": "uint256",
          "name": "_totalShares",
          "type": "uint256"
        }
      ],
      "name": "buyTicket",
      "outputs": [],
      "stateMutability": "payable",
      "type": "function"
    },
    {
      "inputs": [
        {
          "internalType": "address payable",
          "name": "_lotteryId",
          "type": "address"
        },
        {
          "internalType": "address",
          "name": "_to",
          "type": "address"
        },
        {
          "internalType": "uint256",
          "name": "_amount",
          "type": "uint256"
        },
        {
          "internalType": "uint256",
          "name": "_tokenId",
          "type": "uint256"
        }
      ],
      "name": "allowBuyShares",
      "outputs": [],
      "stateMutability": "nonpayable",
      "type": "function"
    },
    {
      "inputs": [
        {
          "internalType": "address payable",
          "name": "_lotteryId",
          "type": "address"
        },
        {
          "internalType": "address",
          "name": "_from",
          "type": "address"
        },
        {
          "internalType": "uint256",
          "name": "_tokenId",
          "type": "uint256"
        }
      ],
      "name": "buyShares",
      "outputs": [],
      "stateMutability": "payable",
      "type": "function"
    },
    {
      "inputs": [
        {
          "internalType": "address payable",
          "name": "_lotteryId",
          "type": "address"
        },
        {
          "internalType": "address",
          "name": "_to",
          "type": "address"
        },
        {
          "internalType": "uint256",
          "name": "_tokenId",
          "type": "uint256"
        }
      ],
      "name": "getSharesOfBuyer",
      "outputs": [
        {
          "internalType": "uint256",
          "name": "",
          "type": "uint256"
        }
      ],
      "stateMutability": "view",
      "type": "function"
    },
    {
      "inputs": [
        {
          "internalType": "address payable",
          "name": "_lotteryId",
          "type": "address"
        },
        {
          "internalType": "uint256",
          "name": "_tokenId",
          "type": "uint256"
        }
      ],
      "name": "getTotalSupplyShares",
      "outputs": [
        {
          "internalType": "uint256",
          "name": "",
          "type": "uint256"
        }
      ],
      "stateMutability": "view",
      "type": "function"
    },
    {
      "inputs": [],
      "name": "getLotteries",
      "outputs": [
        {
          "internalType": "address payable[]",
          "name": "",
          "type": "address[]"
        }
      ],
      "stateMutability": "view",
      "type": "function"
    },
    {
      "inputs": [],
      "name": "getUnfinishedLotteries",
      "outputs": [
        {
          "internalType": "address payable[]",
          "name": "",
          "type": "address[]"
        }
      ],
      "stateMutability": "view",
      "type": "function"
    },
    {
      "inputs": [
        {
          "internalType": "address payable",
          "name": "_lotteryId",
          "type": "address"
        }
      ],
      "name": "getLottery",
      "outputs": [
        {
          "internalType": "string",
          "name": "",
          "type": "string"
        },
        {
          "internalType": "uint256",
          "name": "",
          "type": "uint256"
        },
        {
          "internalType": "address",
          "name": "",
          "type": "address"
        },
        {
          "internalType": "uint256",
          "name": "",
          "type": "uint256"
        },
        {
          "internalType": "uint256",
          "name": "",
          "type": "uint256"
        },
        {
          "internalType": "uint256",
          "name": "",
          "type": "uint256"
        },
        {
          "internalType": "uint256",
          "name": "",
          "type": "uint256"
        },
        {
          "internalType": "uint256",
          "name": "",
          "type": "uint256"
        },
        {
          "internalType": "uint32",
          "name": "",
          "type": "uint32"
        },
        {
          "internalType": "uint256[]",
          "name": "",
          "type": "uint256[]"
        }
      ],
      "stateMutability": "view",
      "type": "function"
    },
    {
      "inputs": [
        {
          "internalType": "address payable",
          "name": "_lotteryId",
          "type": "address"
        },
        {
          "internalType": "uint256",
          "name": "_numTicket",
          "type": "uint256"
        },
        {
          "internalType": "uint256",
          "name": "_numSerie",
          "type": "uint256"
        },
        {
          "internalType": "uint256",
          "name": "_numFraccion",
          "type": "uint256"
        }
      ],
      "name": "getTokenId",
      "outputs": [
        {
          "internalType": "uint256",
          "name": "",
          "type": "uint256"
        }
      ],
      "stateMutability": "view",
      "type": "function"
    },
    {
      "inputs": [],
      "name": "owner",
      "outputs": [
        {
          "internalType": "address",
          "name": "",
          "type": "address"
        }
      ],
      "stateMutability": "view",
      "type": "function"
    }
  ],
  "bytecode": "0x60e0604052732ca8e0c643bde4c2e08ab1fa0da3401adad7734d600460006101000a81548173ffffffffffffffffffffffffffffffffffffffff021916908373ffffffffffffffffffffffffffffffffffffffff1602179055503480156200006657600080fd5b506040516200678b3803806200678b83398181016040528101906200008c91906200030e565b600460009054906101000a900473ffffffffffffffffffffffffffffffffffffffff1673d4a33860578de61dbabdc8bfdb98fd742fa7028e6000806101000a81548173ffffffffffffffffffffffffffffffffffffffff021916908373ffffffffffffffffffffffffffffffffffffffff1602179055508073ffffffffffffffffffffffffffffffffffffffff1660808173ffffffffffffffffffffffffffffffffffffffff16815250505033600260006101000a81548173ffffffffffffffffffffffffffffffffffffffff021916908373ffffffffffffffffffffffffffffffffffffffff1602179055506001600360003373ffffffffffffffffffffffffffffffffffffffff1673ffffffffffffffffffffffffffffffffffffffff16815260200190815260200160002060006101000a81548160ff0219169083151502179055508067ffffffffffffffff1660c08167ffffffffffffffff1681525050600460009054906101000a900473ffffffffffffffffffffffffffffffffffffffff1673ffffffffffffffffffffffffffffffffffffffff1660a08173ffffffffffffffffffffffffffffffffffffffff16815250506040516200025190620002b6565b604051809103906000f0801580156200026e573d6000803e3d6000fd5b50600160006101000a81548173ffffffffffffffffffffffffffffffffffffffff021916908373ffffffffffffffffffffffffffffffffffffffff1602179055505062000340565b610fb580620057d683390190565b600080fd5b600067ffffffffffffffff82169050919050565b620002e881620002c9565b8114620002f457600080fd5b50565b6000815190506200030881620002dd565b92915050565b600060208284031215620003275762000326620002c4565b5b60006200033784828501620002f7565b91505092915050565b60805160a05160c05161545f6200037760003960006136730152600061361301526000818161099501526109e9015261545f6000f3fe6080604052600436106101355760003560e01c80638da5cb5b116100ab578063c9bc415d1161006f578063c9bc415d14610441578063ca964bc014610458578063cf1c316a14610495578063dd06f6bd146104be578063f0141d84146104da578063f496ca631461050557610135565b80638da5cb5b1461036e5780638e15f47314610399578063b9e74f47146103c4578063bcc82ec4146103ed578063c68b875e1461041857610135565b80633a36d669116100fd5780633a36d6691461024e578063485d7d941461028b5780634d0f8201146102b45780635a6329c5146102dd578063705099b914610306578063741bef1a1461034357610135565b80630868d8e11461013a57806310b0b21f146101655780631e88c9c0146101a25780631fe543e3146101e85780632e9c8aa614610211575b600080fd5b34801561014657600080fd5b5061014f610521565b60405161015c919061388b565b60405180910390f35b34801561017157600080fd5b5061018c60048036038101906101879190613961565b6105be565b60405161019991906139c3565b60405180910390f35b3480156101ae57600080fd5b506101c960048036038101906101c491906139de565b610811565b6040516101df9a99989796959493929190613b90565b60405180910390f35b3480156101f457600080fd5b5061020f600480360381019061020a9190613d82565b610993565b005b34801561021d57600080fd5b5061023860048036038101906102339190613dde565b610a53565b60405161024591906139c3565b60405180910390f35b34801561025a57600080fd5b5061027560048036038101906102709190613e1e565b610c9a565b60405161028291906139c3565b60405180910390f35b34801561029757600080fd5b506102b260048036038101906102ad9190613e4b565b610ccc565b005b3480156102c057600080fd5b506102db60048036038101906102d691906139de565b610db7565b005b3480156102e957600080fd5b5061030460048036038101906102ff91906139de565b611046565b005b34801561031257600080fd5b5061032d60048036038101906103289190613dde565b611163565b60405161033a91906139c3565b60405180910390f35b34801561034f57600080fd5b506103586115ba565b6040516103659190613ed7565b60405180910390f35b34801561037a57600080fd5b506103836115de565b6040516103909190613ef2565b60405180910390f35b3480156103a557600080fd5b506103ae611608565b6040516103bb91906139c3565b60405180910390f35b3480156103d057600080fd5b506103eb60048036038101906103e69190613f0d565b6116a7565b005b3480156103f957600080fd5b506104026119fd565b60405161040f919061388b565b60405180910390f35b34801561042457600080fd5b5061043f600480360381019061043a9190613dde565b611a9a565b005b34801561044d57600080fd5b50610456611f5d565b005b34801561046457600080fd5b5061047f600480360381019061047a9190613f74565b61218e565b60405161048c91906139c3565b60405180910390f35b3480156104a157600080fd5b506104bc60048036038101906104b79190613e4b565b612339565b005b6104d860048036038101906104d39190613961565b612424565b005b3480156104e657600080fd5b506104ef612a7f565b6040516104fc9190613ff7565b60405180910390f35b61051f600480360381019061051a9190614012565b612b16565b005b6060600160009054906101000a900473ffffffffffffffffffffffffffffffffffffffff1673ffffffffffffffffffffffffffffffffffffffff16630868d8e16040518163ffffffff1660e01b8152600401600060405180830381865afa158015610590573d6000803e3d6000fd5b505050506040513d6000823e3d601f19601f820116820180604052508101906105b99190614165565b905090565b600083600160009054906101000a900473ffffffffffffffffffffffffffffffffffffffff1673ffffffffffffffffffffffffffffffffffffffff16635c392b3b826040518263ffffffff1660e01b815260040161061c9190613ef2565b602060405180830381865afa158015610639573d6000803e3d6000fd5b505050506040513d601f19601f8201168201806040525081019061065d91906141e6565b61069c576040517f08c379a00000000000000000000000000000000000000000000000000000000081526004016106939061425f565b60405180910390fd5b60008573ffffffffffffffffffffffffffffffffffffffff166335cc590f856040518263ffffffff1660e01b81526004016106d791906139c3565b6040805180830381865afa1580156106f3573d6000803e3d6000fd5b505050506040513d601f19601f8201168201806040525081019061071791906142fe565b602001519050600073ffffffffffffffffffffffffffffffffffffffff168173ffffffffffffffffffffffffffffffffffffffff160361078c576040517f08c379a000000000000000000000000000000000000000000000000000000000815260040161078390614377565b60405180910390fd5b8073ffffffffffffffffffffffffffffffffffffffff166370a08231866040518263ffffffff1660e01b81526004016107c59190613ef2565b602060405180830381865afa1580156107e2573d6000803e3d6000fd5b505050506040513d601f19601f820116820180604052508101906108069190614397565b925050509392505050565b606060008060008060008060008060608a600160009054906101000a900473ffffffffffffffffffffffffffffffffffffffff1673ffffffffffffffffffffffffffffffffffffffff16635c392b3b826040518263ffffffff1660e01b815260040161087d9190613ef2565b602060405180830381865afa15801561089a573d6000803e3d6000fd5b505050506040513d601f19601f820116820180604052508101906108be91906141e6565b6108fd576040517f08c379a00000000000000000000000000000000000000000000000000000000081526004016108f49061425f565b60405180910390fd5b8b73ffffffffffffffffffffffffffffffffffffffff1663be2e69056040518163ffffffff1660e01b8152600401600060405180830381865afa158015610948573d6000803e3d6000fd5b505050506040513d6000823e3d601f19601f82011682018060405250810190610971919061452d565b9a509a509a509a509a509a509a509a509a509a50509193959799509193959799565b7f000000000000000000000000000000000000000000000000000000000000000073ffffffffffffffffffffffffffffffffffffffff163373ffffffffffffffffffffffffffffffffffffffff1614610a4557337f00000000000000000000000000000000000000000000000000000000000000006040517f1cf993f4000000000000000000000000000000000000000000000000000000008152600401610a3c929190614644565b60405180910390fd5b610a4f828261303c565b5050565b600082600160009054906101000a900473ffffffffffffffffffffffffffffffffffffffff1673ffffffffffffffffffffffffffffffffffffffff16635c392b3b826040518263ffffffff1660e01b8152600401610ab19190613ef2565b602060405180830381865afa158015610ace573d6000803e3d6000fd5b505050506040513d601f19601f82011682018060405250810190610af291906141e6565b610b31576040517f08c379a0000000000000000000000000000000000000000000000000000000008152600401610b289061425f565b60405180910390fd5b60008473ffffffffffffffffffffffffffffffffffffffff166335cc590f856040518263ffffffff1660e01b8152600401610b6c91906139c3565b6040805180830381865afa158015610b88573d6000803e3d6000fd5b505050506040513d601f19601f82011682018060405250810190610bac91906142fe565b602001519050600073ffffffffffffffffffffffffffffffffffffffff168173ffffffffffffffffffffffffffffffffffffffff1603610c21576040517f08c379a0000000000000000000000000000000000000000000000000000000008152600401610c1890614377565b60405180910390fd5b8073ffffffffffffffffffffffffffffffffffffffff166318160ddd6040518163ffffffff1660e01b8152600401602060405180830381865afa158015610c6c573d6000803e3d6000fd5b505050506040513d601f19601f82011682018060405250810190610c909190614397565b9250505092915050565b6000610ca4611608565b6a52b7d2dcc80cd2e400000083610cbb919061469c565b610cc59190614725565b9050919050565b3373ffffffffffffffffffffffffffffffffffffffff16600260009054906101000a900473ffffffffffffffffffffffffffffffffffffffff1673ffffffffffffffffffffffffffffffffffffffff1614610d5c576040517f08c379a0000000000000000000000000000000000000000000000000000000008152600401610d53906147a2565b60405180910390fd5b6000600360008373ffffffffffffffffffffffffffffffffffffffff1673ffffffffffffffffffffffffffffffffffffffff16815260200190815260200160002060006101000a81548160ff02191690831515021790555050565b3373ffffffffffffffffffffffffffffffffffffffff16600260009054906101000a900473ffffffffffffffffffffffffffffffffffffffff1673ffffffffffffffffffffffffffffffffffffffff1614610e47576040517f08c379a0000000000000000000000000000000000000000000000000000000008152600401610e3e906147a2565b60405180910390fd5b80600160009054906101000a900473ffffffffffffffffffffffffffffffffffffffff1673ffffffffffffffffffffffffffffffffffffffff16635c392b3b826040518263ffffffff1660e01b8152600401610ea39190613ef2565b602060405180830381865afa158015610ec0573d6000803e3d6000fd5b505050506040513d601f19601f82011682018060405250810190610ee491906141e6565b610f23576040517f08c379a0000000000000000000000000000000000000000000000000000000008152600401610f1a9061425f565b60405180910390fd5b60008290508073ffffffffffffffffffffffffffffffffffffffff16631091ce5f6040518163ffffffff1660e01b8152600401602060405180830381865afa158015610f73573d6000803e3d6000fd5b505050506040513d601f19601f82011682018060405250810190610f9791906141e6565b610fd6576040517f08c379a0000000000000000000000000000000000000000000000000000000008152600401610fcd9061480e565b60405180910390fd5b8073ffffffffffffffffffffffffffffffffffffffff16634d0f8201336040518263ffffffff1660e01b815260040161100f9190613ef2565b600060405180830381600087803b15801561102957600080fd5b505af115801561103d573d6000803e3d6000fd5b50505050505050565b600360003373ffffffffffffffffffffffffffffffffffffffff1673ffffffffffffffffffffffffffffffffffffffff16815260200190815260200160002060009054906101000a900460ff1661109c57600080fd5b600160009054906101000a900473ffffffffffffffffffffffffffffffffffffffff1673ffffffffffffffffffffffffffffffffffffffff1663f298083b826040518263ffffffff1660e01b81526004016110f7919061483d565b600060405180830381600087803b15801561111157600080fd5b505af1158015611125573d6000803e3d6000fd5b505050507f975665bfcefb0ff5d26e5e5006d1a828ebab0a4ae16997b9ed58d23542c49384816040516111589190614879565b60405180910390a150565b600082600160009054906101000a900473ffffffffffffffffffffffffffffffffffffffff1673ffffffffffffffffffffffffffffffffffffffff16635c392b3b826040518263ffffffff1660e01b81526004016111c19190613ef2565b602060405180830381865afa1580156111de573d6000803e3d6000fd5b505050506040513d601f19601f8201168201806040525081019061120291906141e6565b611241576040517f08c379a00000000000000000000000000000000000000000000000000000000081526004016112389061425f565b60405180910390fd5b60008490508073ffffffffffffffffffffffffffffffffffffffff166307a805056040518163ffffffff1660e01b8152600401602060405180830381865afa158015611291573d6000803e3d6000fd5b505050506040513d601f19601f820116820180604052508101906112b591906141e6565b6112f4576040517f08c379a00000000000000000000000000000000000000000000000000000000081526004016112eb906148e0565b60405180910390fd5b60006113018633876105be565b905060008103611346576040517f08c379a000000000000000000000000000000000000000000000000000000000815260040161133d90614972565b60405180910390fd5b60006113528787610a53565b90508273ffffffffffffffffffffffffffffffffffffffff166335cc590f876040518263ffffffff1660e01b815260040161138d91906139c3565b6040805180830381865afa1580156113a9573d6000803e3d6000fd5b505050506040513d601f19601f820116820180604052508101906113cd91906142fe565b6020015173ffffffffffffffffffffffffffffffffffffffff16639dc29fac33846040518363ffffffff1660e01b815260040161140b929190614992565b600060405180830381600087803b15801561142557600080fd5b505af1158015611439573d6000803e3d6000fd5b5050505060008373ffffffffffffffffffffffffffffffffffffffff16631609443a6040518163ffffffff1660e01b8152600401602060405180830381865afa15801561148a573d6000803e3d6000fd5b505050506040513d601f19601f820116820180604052508101906114ae9190614397565b826114b9919061469c565b8473ffffffffffffffffffffffffffffffffffffffff1663d206098e6040518163ffffffff1660e01b8152600401602060405180830381865afa158015611504573d6000803e3d6000fd5b505050506040513d601f19601f820116820180604052508101906115289190614397565b84611533919061469c565b61153d9190614725565b90508373ffffffffffffffffffffffffffffffffffffffff16633d0d832282336040518363ffffffff1660e01b815260040161157a9291906149bb565b600060405180830381600087803b15801561159457600080fd5b505af11580156115a8573d6000803e3d6000fd5b50505050809550505050505092915050565b60008054906101000a900473ffffffffffffffffffffffffffffffffffffffff1681565b6000600260009054906101000a900473ffffffffffffffffffffffffffffffffffffffff16905090565b60008060008054906101000a900473ffffffffffffffffffffffffffffffffffffffff1673ffffffffffffffffffffffffffffffffffffffff1663feaf968c6040518163ffffffff1660e01b815260040160a060405180830381865afa158015611676573d6000803e3d6000fd5b505050506040513d601f19601f8201168201806040525081019061169a9190614a5c565b5050509150508091505090565b83600160009054906101000a900473ffffffffffffffffffffffffffffffffffffffff1673ffffffffffffffffffffffffffffffffffffffff16635c392b3b826040518263ffffffff1660e01b81526004016117039190613ef2565b602060405180830381865afa158015611720573d6000803e3d6000fd5b505050506040513d601f19601f8201168201806040525081019061174491906141e6565b611783576040517f08c379a000000000000000000000000000000000000000000000000000000000815260040161177a9061425f565b60405180910390fd5b60008590508073ffffffffffffffffffffffffffffffffffffffff1663c3b69ebb6040518163ffffffff1660e01b8152600401602060405180830381865afa1580156117d3573d6000803e3d6000fd5b505050506040513d601f19601f820116820180604052508101906117f791906141e6565b611836576040517f08c379a000000000000000000000000000000000000000000000000000000000815260040161182d90614b23565b60405180910390fd5b60008173ffffffffffffffffffffffffffffffffffffffff166335cc590f856040518263ffffffff1660e01b815260040161187191906139c3565b6040805180830381865afa15801561188d573d6000803e3d6000fd5b505050506040513d601f19601f820116820180604052508101906118b191906142fe565b602001519050848173ffffffffffffffffffffffffffffffffffffffff166370a08231336040518263ffffffff1660e01b81526004016118f19190613ef2565b602060405180830381865afa15801561190e573d6000803e3d6000fd5b505050506040513d601f19601f820116820180604052508101906119329190614397565b1015611973576040517f08c379a000000000000000000000000000000000000000000000000000000000815260040161196a90614bb5565b60405180910390fd5b8073ffffffffffffffffffffffffffffffffffffffff1663e1f21c673388886040518463ffffffff1660e01b81526004016119b093929190614bd5565b6020604051808303816000875af11580156119cf573d6000803e3d6000fd5b505050506040513d601f19601f820116820180604052508101906119f391906141e6565b5050505050505050565b6060600160009054906101000a900473ffffffffffffffffffffffffffffffffffffffff1673ffffffffffffffffffffffffffffffffffffffff1663bcc82ec46040518163ffffffff1660e01b8152600401600060405180830381865afa158015611a6c573d6000803e3d6000fd5b505050506040513d6000823e3d601f19601f82011682018060405250810190611a959190614165565b905090565b81600160009054906101000a900473ffffffffffffffffffffffffffffffffffffffff1673ffffffffffffffffffffffffffffffffffffffff16635c392b3b826040518263ffffffff1660e01b8152600401611af69190613ef2565b602060405180830381865afa158015611b13573d6000803e3d6000fd5b505050506040513d601f19601f82011682018060405250810190611b3791906141e6565b611b76576040517f08c379a0000000000000000000000000000000000000000000000000000000008152600401611b6d9061425f565b60405180910390fd5b60008390508073ffffffffffffffffffffffffffffffffffffffff16631091ce5f6040518163ffffffff1660e01b8152600401602060405180830381865afa158015611bc6573d6000803e3d6000fd5b505050506040513d601f19601f82011682018060405250810190611bea91906141e6565b611c29576040517f08c379a0000000000000000000000000000000000000000000000000000000008152600401611c209061480e565b60405180910390fd5b8073ffffffffffffffffffffffffffffffffffffffff166378591f08846040518263ffffffff1660e01b8152600401611c6291906139c3565b602060405180830381865afa158015611c7f573d6000803e3d6000fd5b505050506040513d601f19601f82011682018060405250810190611ca391906141e6565b611ce2576040517f08c379a0000000000000000000000000000000000000000000000000000000008152600401611cd990614c58565b60405180910390fd5b6000611cef8533866105be565b905060008103611d34576040517f08c379a0000000000000000000000000000000000000000000000000000000008152600401611d2b90614972565b60405180910390fd5b6000611d408686610a53565b90508273ffffffffffffffffffffffffffffffffffffffff166335cc590f866040518263ffffffff1660e01b8152600401611d7b91906139c3565b6040805180830381865afa158015611d97573d6000803e3d6000fd5b505050506040513d601f19601f82011682018060405250810190611dbb91906142fe565b6020015173ffffffffffffffffffffffffffffffffffffffff16639dc29fac33846040518363ffffffff1660e01b8152600401611df9929190614992565b600060405180830381600087803b158015611e1357600080fd5b505af1158015611e27573d6000803e3d6000fd5b505050508273ffffffffffffffffffffffffffffffffffffffff16633d0d8322828573ffffffffffffffffffffffffffffffffffffffff1663fe020b806040518163ffffffff1660e01b8152600401602060405180830381865afa158015611e93573d6000803e3d6000fd5b505050506040513d601f19601f82011682018060405250810190611eb79190614397565b85611ec2919061469c565b611ecc9190614725565b336040518363ffffffff1660e01b8152600401611eea9291906149bb565b600060405180830381600087803b158015611f0457600080fd5b505af1158015611f18573d6000803e3d6000fd5b505050507fb990c5fc6a9e17bd9cde91b34490705b9ddd8337dff022c00e14d3a7f51741ae8686604051611f4d929190614c78565b60405180910390a1505050505050565b6000600160009054906101000a900473ffffffffffffffffffffffffffffffffffffffff1673ffffffffffffffffffffffffffffffffffffffff16630868d8e16040518163ffffffff1660e01b8152600401600060405180830381865afa158015611fcc573d6000803e3d6000fd5b505050506040513d6000823e3d601f19601f82011682018060405250810190611ff59190614165565b905060008060005b83518110156121885783818151811061201957612018614ca1565b5b602002602001015192508273ffffffffffffffffffffffffffffffffffffffff1663be2e69056040518163ffffffff1660e01b8152600401600060405180830381865afa15801561206e573d6000803e3d6000fd5b505050506040513d6000823e3d601f19601f82011682018060405250810190612097919061452d565b9091929394959697985090919293949596509091929394955090919293945090919293509091925090915090505080925050814210612188576120f38482815181106120e6576120e5614ca1565b5b6020026020010151613153565b600160009054906101000a900473ffffffffffffffffffffffffffffffffffffffff1673ffffffffffffffffffffffffffffffffffffffff16638267e0be6040518163ffffffff1660e01b8152600401600060405180830381600087803b15801561215d57600080fd5b505af1158015612171573d6000803e3d6000fd5b50505050808061218090614cd0565b915050611ffd565b50505050565b600084600160009054906101000a900473ffffffffffffffffffffffffffffffffffffffff1673ffffffffffffffffffffffffffffffffffffffff16635c392b3b826040518263ffffffff1660e01b81526004016121ec9190613ef2565b602060405180830381865afa158015612209573d6000803e3d6000fd5b505050506040513d601f19601f8201168201806040525081019061222d91906141e6565b61226c576040517f08c379a00000000000000000000000000000000000000000000000000000000081526004016122639061425f565b60405180910390fd5b600086905060008173ffffffffffffffffffffffffffffffffffffffff1663be2e69056040518163ffffffff1660e01b8152600401600060405180830381865afa1580156122be573d6000803e3d6000fd5b505050506040513d6000823e3d601f19601f820116820180604052508101906122e7919061452d565b505050505094505050505084600a87612300919061469c565b600a8361230d919061469c565b89612318919061469c565b6123229190614d18565b61232c9190614d18565b9350505050949350505050565b3373ffffffffffffffffffffffffffffffffffffffff16600260009054906101000a900473ffffffffffffffffffffffffffffffffffffffff1673ffffffffffffffffffffffffffffffffffffffff16146123c9576040517f08c379a00000000000000000000000000000000000000000000000000000000081526004016123c0906147a2565b60405180910390fd5b6001600360008373ffffffffffffffffffffffffffffffffffffffff1673ffffffffffffffffffffffffffffffffffffffff16815260200190815260200160002060006101000a81548160ff02191690831515021790555050565b82600160009054906101000a900473ffffffffffffffffffffffffffffffffffffffff1673ffffffffffffffffffffffffffffffffffffffff16635c392b3b826040518263ffffffff1660e01b81526004016124809190613ef2565b602060405180830381865afa15801561249d573d6000803e3d6000fd5b505050506040513d601f19601f820116820180604052508101906124c191906141e6565b612500576040517f08c379a00000000000000000000000000000000000000000000000000000000081526004016124f79061425f565b60405180910390fd5b60008490508073ffffffffffffffffffffffffffffffffffffffff1663c3b69ebb6040518163ffffffff1660e01b8152600401602060405180830381865afa158015612550573d6000803e3d6000fd5b505050506040513d601f19601f8201168201806040525081019061257491906141e6565b6125b3576040517f08c379a00000000000000000000000000000000000000000000000000000000081526004016125aa90614b23565b60405180910390fd5b60008173ffffffffffffffffffffffffffffffffffffffff166335cc590f856040518263ffffffff1660e01b81526004016125ee91906139c3565b6040805180830381865afa15801561260a573d6000803e3d6000fd5b505050506040513d601f19601f8201168201806040525081019061262e91906142fe565b60200151905060008673ffffffffffffffffffffffffffffffffffffffff1663be2e69056040518163ffffffff1660e01b8152600401600060405180830381865afa158015612681573d6000803e3d6000fd5b505050506040513d6000823e3d601f19601f820116820180604052508101906126aa919061452d565b505050509550505050505060008273ffffffffffffffffffffffffffffffffffffffff1663dd62ed3e88336040518363ffffffff1660e01b81526004016126f2929190614644565b602060405180830381865afa15801561270f573d6000803e3d6000fd5b505050506040513d601f19601f820116820180604052508101906127339190614397565b905080600010612778576040517f08c379a000000000000000000000000000000000000000000000000000000000815260040161276f90614de0565b60405180910390fd5b60008373ffffffffffffffffffffffffffffffffffffffff166318160ddd6040518163ffffffff1660e01b8152600401602060405180830381865afa1580156127c5573d6000803e3d6000fd5b505050506040513d601f19601f820116820180604052508101906127e99190614397565b6127f284610c9a565b836127fd919061469c565b6128079190614725565b90508034101561284c576040517f08c379a000000000000000000000000000000000000000000000000000000000815260040161284390614e72565b60405180910390fd5b8373ffffffffffffffffffffffffffffffffffffffff166323b872dd8933856040518463ffffffff1660e01b815260040161288993929190614bd5565b6020604051808303816000875af11580156128a8573d6000803e3d6000fd5b505050506040513d601f19601f820116820180604052508101906128cc91906141e6565b50600081346128db9190614e92565b905060003373ffffffffffffffffffffffffffffffffffffffff168260405161290390614ef7565b60006040518083038185875af1925050503d8060008114612940576040519150601f19603f3d011682016040523d82523d6000602084013e612945565b606091505b5050905080612989576040517f08c379a000000000000000000000000000000000000000000000000000000000815260040161298090614f58565b60405180910390fd5b8973ffffffffffffffffffffffffffffffffffffffff16836040516129ad90614ef7565b60006040518083038185875af1925050503d80600081146129ea576040519150601f19603f3d011682016040523d82523d6000602084013e6129ef565b606091505b50508091505080612a35576040517f08c379a0000000000000000000000000000000000000000000000000000000008152600401612a2c90614fc4565b60405180910390fd5b7f313ea8c33b682632e20873803046b3847fcd44e63b1f381d358d89445c46ab6a8b8b8b87604051612a6a9493929190614fe4565b60405180910390a15050505050505050505050565b60008060009054906101000a900473ffffffffffffffffffffffffffffffffffffffff1673ffffffffffffffffffffffffffffffffffffffff1663313ce5676040518163ffffffff1660e01b8152600401602060405180830381865afa158015612aed573d6000803e3d6000fd5b505050506040513d601f19601f82011682018060405250810190612b119190615055565b905090565b84600160009054906101000a900473ffffffffffffffffffffffffffffffffffffffff1673ffffffffffffffffffffffffffffffffffffffff16635c392b3b826040518263ffffffff1660e01b8152600401612b729190613ef2565b602060405180830381865afa158015612b8f573d6000803e3d6000fd5b505050506040513d601f19601f82011682018060405250810190612bb391906141e6565b612bf2576040517f08c379a0000000000000000000000000000000000000000000000000000000008152600401612be99061425f565b60405180910390fd5b600086905060008311612c3a576040517f08c379a0000000000000000000000000000000000000000000000000000000008152600401612c31906150f4565b60405180910390fd5b8073ffffffffffffffffffffffffffffffffffffffff1663c3b69ebb6040518163ffffffff1660e01b8152600401602060405180830381865afa158015612c85573d6000803e3d6000fd5b505050506040513d601f19601f82011682018060405250810190612ca991906141e6565b612ce8576040517f08c379a0000000000000000000000000000000000000000000000000000000008152600401612cdf90614b23565b60405180910390fd5b60008060008373ffffffffffffffffffffffffffffffffffffffff1663be2e69056040518163ffffffff1660e01b8152600401600060405180830381865afa158015612d38573d6000803e3d6000fd5b505050506040513d6000823e3d601f19601f82011682018060405250810190612d61919061452d565b50505050955095509550505050612d7b89898986866135e7565b612dba576040517f08c379a0000000000000000000000000000000000000000000000000000000008152600401612db190615186565b60405180910390fd5b6000612dc582610c9a565b905080341015612e0a576040517f08c379a0000000000000000000000000000000000000000000000000000000008152600401612e0190615218565b60405180910390fd5b60008134612e189190614e92565b90506000612e288d8d8d8d61218e565b90508673ffffffffffffffffffffffffffffffffffffffff1663da9d933133838c6040518463ffffffff1660e01b8152600401612e6793929190615238565b600060405180830381600087803b158015612e8157600080fd5b505af1158015612e95573d6000803e3d6000fd5b5050505060003373ffffffffffffffffffffffffffffffffffffffff1683604051612ebf90614ef7565b60006040518083038185875af1925050503d8060008114612efc576040519150601f19603f3d011682016040523d82523d6000602084013e612f01565b606091505b5050905080612f45576040517f08c379a0000000000000000000000000000000000000000000000000000000008152600401612f3c90614f58565b60405180910390fd5b8d73ffffffffffffffffffffffffffffffffffffffff1684604051612f6990614ef7565b60006040518083038185875af1925050503d8060008114612fa6576040519150601f19603f3d011682016040523d82523d6000602084013e612fab565b606091505b50508091505080612ff1576040517f08c379a0000000000000000000000000000000000000000000000000000000008152600401612fe8906152bb565b60405180910390fd5b7f4c9d4d64e349413d00281dd6ada0347538fd221ffa2eb763ac2838eef575ee5e8e838c604051613024939291906152db565b60405180910390a15050505050505050505050505050565b60006005600084815260200190815260200160002060009054906101000a900473ffffffffffffffffffffffffffffffffffffffff169050600081905060008173ffffffffffffffffffffffffffffffffffffffff1663dae782ef856040518263ffffffff1660e01b81526004016130b49190615312565b6000604051808303816000875af11580156130d3573d6000803e3d6000fd5b505050506040513d6000823e3d601f19601f820116820180604052508101906130fc9190615334565b90508273ffffffffffffffffffffffffffffffffffffffff167fb79199f51db99b1362612d21002e8ff93cf8c01d6e47aaa7057835142d38e615826040516131449190615312565b60405180910390a25050505050565b80600160009054906101000a900473ffffffffffffffffffffffffffffffffffffffff1673ffffffffffffffffffffffffffffffffffffffff16635c392b3b826040518263ffffffff1660e01b81526004016131af9190613ef2565b602060405180830381865afa1580156131cc573d6000803e3d6000fd5b505050506040513d601f19601f820116820180604052508101906131f091906141e6565b61322f576040517f08c379a00000000000000000000000000000000000000000000000000000000081526004016132269061425f565b60405180910390fd5b600082905060008060008373ffffffffffffffffffffffffffffffffffffffff1663be2e69056040518163ffffffff1660e01b8152600401600060405180830381865afa158015613284573d6000803e3d6000fd5b505050506040513d6000823e3d601f19601f820116820180604052508101906132ad919061452d565b505097509750505050509350508242116132fc576040517f08c379a00000000000000000000000000000000000000000000000000000000081526004016132f39061480e565b60405180910390fd5b8373ffffffffffffffffffffffffffffffffffffffff1663c3b69ebb6040518163ffffffff1660e01b8152600401602060405180830381865afa158015613347573d6000803e3d6000fd5b505050506040513d601f19601f8201168201806040525081019061336b91906141e6565b6133aa576040517f08c379a00000000000000000000000000000000000000000000000000000000081526004016133a190614b23565b60405180910390fd5b818473ffffffffffffffffffffffffffffffffffffffff16631609443a6040518163ffffffff1660e01b8152600401602060405180830381865afa1580156133f6573d6000803e3d6000fd5b505050506040513d601f19601f8201168201806040525081019061341a9190614397565b111561348f576134298661360e565b508373ffffffffffffffffffffffffffffffffffffffff1663d726c7306040518163ffffffff1660e01b8152600401600060405180830381600087803b15801561347257600080fd5b505af1158015613486573d6000803e3d6000fd5b505050506135df565b8373ffffffffffffffffffffffffffffffffffffffff1663ee81565f6040518163ffffffff1660e01b8152600401600060405180830381600087803b1580156134d757600080fd5b505af11580156134eb573d6000803e3d6000fd5b505050508373ffffffffffffffffffffffffffffffffffffffff16633d0d832282600260009054906101000a900473ffffffffffffffffffffffffffffffffffffffff166040518363ffffffff1660e01b815260040161354c9291906149bb565b600060405180830381600087803b15801561356657600080fd5b505af115801561357a573d6000803e3d6000fd5b505050508373ffffffffffffffffffffffffffffffffffffffff166301561df16040518163ffffffff1660e01b8152600401600060405180830381600087803b1580156135c657600080fd5b505af11580156135da573d6000803e3d6000fd5b505050505b505050505050565b600082861080156135f757508185105b80156136035750600a84105b905095945050505050565b6000807f000000000000000000000000000000000000000000000000000000000000000073ffffffffffffffffffffffffffffffffffffffff16635d3b1d307f79d3d8832d904592c0bf9818b621522c988bb8b0c05cdc3b15aea1b6e8db0c1560001b7f0000000000000000000000000000000000000000000000000000000000000000600562030d4060016040518663ffffffff1660e01b81526004016136ba9594939291906153d6565b6020604051808303816000875af11580156136d9573d6000803e3d6000fd5b505050506040513d601f19601f820116820180604052508101906136fd9190614397565b9050826005600083815260200190815260200160002060006101000a81548173ffffffffffffffffffffffffffffffffffffffff021916908373ffffffffffffffffffffffffffffffffffffffff1602179055508273ffffffffffffffffffffffffffffffffffffffff16817f5c26be7c63c538733cb4a2ce864c2fee740dfcfefd2c08da9cdfb17ce0f65e1960405160405180910390a350919050565b600081519050919050565b600082825260208201905092915050565b6000819050602082019050919050565b600073ffffffffffffffffffffffffffffffffffffffff82169050919050565b60006137f2826137c7565b9050919050565b613802816137e7565b82525050565b600061381483836137f9565b60208301905092915050565b6000602082019050919050565b60006138388261379b565b61384281856137a6565b935061384d836137b7565b8060005b8381101561387e5781516138658882613808565b975061387083613820565b925050600181019050613851565b5085935050505092915050565b600060208201905081810360008301526138a5818461382d565b905092915050565b6000604051905090565b600080fd5b600080fd5b6138ca816137e7565b81146138d557600080fd5b50565b6000813590506138e7816138c1565b92915050565b60006138f8826137c7565b9050919050565b613908816138ed565b811461391357600080fd5b50565b600081359050613925816138ff565b92915050565b6000819050919050565b61393e8161392b565b811461394957600080fd5b50565b60008135905061395b81613935565b92915050565b60008060006060848603121561397a576139796138b7565b5b6000613988868287016138d8565b935050602061399986828701613916565b92505060406139aa8682870161394c565b9150509250925092565b6139bd8161392b565b82525050565b60006020820190506139d860008301846139b4565b92915050565b6000602082840312156139f4576139f36138b7565b5b6000613a02848285016138d8565b91505092915050565b600081519050919050565b600082825260208201905092915050565b60005b83811015613a45578082015181840152602081019050613a2a565b83811115613a54576000848401525b50505050565b6000601f19601f8301169050919050565b6000613a7682613a0b565b613a808185613a16565b9350613a90818560208601613a27565b613a9981613a5a565b840191505092915050565b613aad816138ed565b82525050565b600063ffffffff82169050919050565b613acc81613ab3565b82525050565b600081519050919050565b600082825260208201905092915050565b6000819050602082019050919050565b613b078161392b565b82525050565b6000613b198383613afe565b60208301905092915050565b6000602082019050919050565b6000613b3d82613ad2565b613b478185613add565b9350613b5283613aee565b8060005b83811015613b83578151613b6a8882613b0d565b9750613b7583613b25565b925050600181019050613b56565b5085935050505092915050565b6000610140820190508181036000830152613bab818d613a6b565b9050613bba602083018c6139b4565b613bc7604083018b613aa4565b613bd4606083018a6139b4565b613be160808301896139b4565b613bee60a08301886139b4565b613bfb60c08301876139b4565b613c0860e08301866139b4565b613c16610100830185613ac3565b818103610120830152613c298184613b32565b90509b9a5050505050505050505050565b600080fd5b7f4e487b7100000000000000000000000000000000000000000000000000000000600052604160045260246000fd5b613c7782613a5a565b810181811067ffffffffffffffff82111715613c9657613c95613c3f565b5b80604052505050565b6000613ca96138ad565b9050613cb58282613c6e565b919050565b600067ffffffffffffffff821115613cd557613cd4613c3f565b5b602082029050602081019050919050565b600080fd5b6000613cfe613cf984613cba565b613c9f565b90508083825260208201905060208402830185811115613d2157613d20613ce6565b5b835b81811015613d4a5780613d36888261394c565b845260208401935050602081019050613d23565b5050509392505050565b600082601f830112613d6957613d68613c3a565b5b8135613d79848260208601613ceb565b91505092915050565b60008060408385031215613d9957613d986138b7565b5b6000613da78582860161394c565b925050602083013567ffffffffffffffff811115613dc857613dc76138bc565b5b613dd485828601613d54565b9150509250929050565b60008060408385031215613df557613df46138b7565b5b6000613e03858286016138d8565b9250506020613e148582860161394c565b9150509250929050565b600060208284031215613e3457613e336138b7565b5b6000613e428482850161394c565b91505092915050565b600060208284031215613e6157613e606138b7565b5b6000613e6f84828501613916565b91505092915050565b6000819050919050565b6000613e9d613e98613e93846137c7565b613e78565b6137c7565b9050919050565b6000613eaf82613e82565b9050919050565b6000613ec182613ea4565b9050919050565b613ed181613eb6565b82525050565b6000602082019050613eec6000830184613ec8565b92915050565b6000602082019050613f076000830184613aa4565b92915050565b60008060008060808587031215613f2757613f266138b7565b5b6000613f35878288016138d8565b9450506020613f4687828801613916565b9350506040613f578782880161394c565b9250506060613f688782880161394c565b91505092959194509250565b60008060008060808587031215613f8e57613f8d6138b7565b5b6000613f9c878288016138d8565b9450506020613fad8782880161394c565b9350506040613fbe8782880161394c565b9250506060613fcf8782880161394c565b91505092959194509250565b600060ff82169050919050565b613ff181613fdb565b82525050565b600060208201905061400c6000830184613fe8565b92915050565b600080600080600060a0868803121561402e5761402d6138b7565b5b600061403c888289016138d8565b955050602061404d8882890161394c565b945050604061405e8882890161394c565b935050606061406f8882890161394c565b92505060806140808882890161394c565b9150509295509295909350565b600067ffffffffffffffff8211156140a8576140a7613c3f565b5b602082029050602081019050919050565b6000815190506140c8816138c1565b92915050565b60006140e16140dc8461408d565b613c9f565b9050808382526020820190506020840283018581111561410457614103613ce6565b5b835b8181101561412d578061411988826140b9565b845260208401935050602081019050614106565b5050509392505050565b600082601f83011261414c5761414b613c3a565b5b815161415c8482602086016140ce565b91505092915050565b60006020828403121561417b5761417a6138b7565b5b600082015167ffffffffffffffff811115614199576141986138bc565b5b6141a584828501614137565b91505092915050565b60008115159050919050565b6141c3816141ae565b81146141ce57600080fd5b50565b6000815190506141e0816141ba565b92915050565b6000602082840312156141fc576141fb6138b7565b5b600061420a848285016141d1565b91505092915050565b7f4c61206c6f7465726961206e6f20657869737465000000000000000000000000600082015250565b6000614249601483613a16565b915061425482614213565b602082019050919050565b600060208201905081810360008301526142788161423c565b9050919050565b600080fd5b60008151905061429381613935565b92915050565b6000815190506142a8816138ff565b92915050565b6000604082840312156142c4576142c361427f565b5b6142ce6040613c9f565b905060006142de84828501614284565b60008301525060206142f284828501614299565b60208301525092915050565b600060408284031215614314576143136138b7565b5b6000614322848285016142ae565b91505092915050565b7f456c207469636b6574206e6f206861207369646f20636f6d707261646f000000600082015250565b6000614361601d83613a16565b915061436c8261432b565b602082019050919050565b6000602082019050818103600083015261439081614354565b9050919050565b6000602082840312156143ad576143ac6138b7565b5b60006143bb84828501614284565b91505092915050565b600080fd5b600067ffffffffffffffff8211156143e4576143e3613c3f565b5b6143ed82613a5a565b9050602081019050919050565b600061440d614408846143c9565b613c9f565b905082815260208101848484011115614429576144286143c4565b5b614434848285613a27565b509392505050565b600082601f83011261445157614450613c3a565b5b81516144618482602086016143fa565b91505092915050565b61447381613ab3565b811461447e57600080fd5b50565b6000815190506144908161446a565b92915050565b60006144a96144a484613cba565b613c9f565b905080838252602082019050602084028301858111156144cc576144cb613ce6565b5b835b818110156144f557806144e18882614284565b8452602084019350506020810190506144ce565b5050509392505050565b600082601f83011261451457614513613c3a565b5b8151614524848260208601614496565b91505092915050565b6000806000806000806000806000806101408b8d031215614551576145506138b7565b5b60008b015167ffffffffffffffff81111561456f5761456e6138bc565b5b61457b8d828e0161443c565b9a5050602061458c8d828e01614284565b995050604061459d8d828e01614299565b98505060606145ae8d828e01614284565b97505060806145bf8d828e01614284565b96505060a06145d08d828e01614284565b95505060c06145e18d828e01614284565b94505060e06145f28d828e01614284565b9350506101006146048d828e01614481565b9250506101208b015167ffffffffffffffff811115614626576146256138bc565b5b6146328d828e016144ff565b9150509295989b9194979a5092959850565b60006040820190506146596000830185613aa4565b6146666020830184613aa4565b9392505050565b7f4e487b7100000000000000000000000000000000000000000000000000000000600052601160045260246000fd5b60006146a78261392b565b91506146b28361392b565b9250817fffffffffffffffffffffffffffffffffffffffffffffffffffffffffffffffff04831182151516156146eb576146ea61466d565b5b828202905092915050565b7f4e487b7100000000000000000000000000000000000000000000000000000000600052601260045260246000fd5b60006147308261392b565b915061473b8361392b565b92508261474b5761474a6146f6565b5b828204905092915050565b7f4f776e61626c653a2063616c6c6572206973206e6f7420746865206f776e6572600082015250565b600061478c602083613a16565b915061479782614756565b602082019050919050565b600060208201905081810360008301526147bb8161477f565b9050919050565b7f4c61206c6f74657269612061756e206e6f206861207465726d696e61646f0000600082015250565b60006147f8601e83613a16565b9150614803826147c2565b602082019050919050565b60006020820190508181036000830152614827816147eb565b9050919050565b614837816137e7565b82525050565b6000602082019050614852600083018461482e565b92915050565b600061486382613ea4565b9050919050565b61487381614858565b82525050565b600060208201905061488e600083018461486a565b92915050565b7f4c61206c6f7465726961206e6f2068612066616c6c61646f0000000000000000600082015250565b60006148ca601883613a16565b91506148d582614894565b602082019050919050565b600060208201905081810360008301526148f9816148bd565b9050919050565b7f4e6f207469656e652070617274696369706163696f6e6573206465206573746560008201527f207469636b657400000000000000000000000000000000000000000000000000602082015250565b600061495c602783613a16565b915061496782614900565b604082019050919050565b6000602082019050818103600083015261498b8161494f565b9050919050565b60006040820190506149a76000830185613aa4565b6149b460208301846139b4565b9392505050565b60006040820190506149d060008301856139b4565b6149dd6020830184613aa4565b9392505050565b600069ffffffffffffffffffff82169050919050565b614a03816149e4565b8114614a0e57600080fd5b50565b600081519050614a20816149fa565b92915050565b6000819050919050565b614a3981614a26565b8114614a4457600080fd5b50565b600081519050614a5681614a30565b92915050565b600080600080600060a08688031215614a7857614a776138b7565b5b6000614a8688828901614a11565b9550506020614a9788828901614a47565b9450506040614aa888828901614284565b9350506060614ab988828901614284565b9250506080614aca88828901614a11565b9150509295509295909350565b7f4c61206c6f7465726961207961206861207465726d696e61646f000000000000600082015250565b6000614b0d601a83613a16565b9150614b1882614ad7565b602082019050919050565b60006020820190508181036000830152614b3c81614b00565b9050919050565b7f4e6f207469656e657320737566696369656e746573207061727469636970616360008201527f696f6e65732064652065737465207469636b6574000000000000000000000000602082015250565b6000614b9f603483613a16565b9150614baa82614b43565b604082019050919050565b60006020820190508181036000830152614bce81614b92565b9050919050565b6000606082019050614bea6000830186613aa4565b614bf76020830185613aa4565b614c0460408301846139b4565b949350505050565b7f45737465207469636b6574206e6f207469656e65207072656d696f0000000000600082015250565b6000614c42601b83613a16565b9150614c4d82614c0c565b602082019050919050565b60006020820190508181036000830152614c7181614c35565b9050919050565b6000604082019050614c8d600083018561486a565b614c9a60208301846139b4565b9392505050565b7f4e487b7100000000000000000000000000000000000000000000000000000000600052603260045260246000fd5b6000614cdb8261392b565b91507fffffffffffffffffffffffffffffffffffffffffffffffffffffffffffffffff8203614d0d57614d0c61466d565b5b600182019050919050565b6000614d238261392b565b9150614d2e8361392b565b9250827fffffffffffffffffffffffffffffffffffffffffffffffffffffffffffffffff03821115614d6357614d6261466d565b5b828201905092915050565b7f4e6f207469656e6573207065726d69736f207061726120636f6d70726172207060008201527f617274696369706163696f6e6573000000000000000000000000000000000000602082015250565b6000614dca602e83613a16565b9150614dd582614d6e565b604082019050919050565b60006020820190508181036000830152614df981614dbd565b9050919050565b7f4e6563657369746173206d617320455448207061726120636f6d70726172206c60008201527f61732070617274696369706163696f6e65730000000000000000000000000000602082015250565b6000614e5c603283613a16565b9150614e6782614e00565b604082019050919050565b60006020820190508181036000830152614e8b81614e4f565b9050919050565b6000614e9d8261392b565b9150614ea88361392b565b925082821015614ebb57614eba61466d565b5b828203905092915050565b600081905092915050565b50565b6000614ee1600083614ec6565b9150614eec82614ed1565b600082019050919050565b6000614f0282614ed4565b9150819050919050565b7f526566756e64207472616e73666572206661696c656400000000000000000000600082015250565b6000614f42601683613a16565b9150614f4d82614f0c565b602082019050919050565b60006020820190508181036000830152614f7181614f35565b9050919050565b7f5061796d656e74206661696c6564000000000000000000000000000000000000600082015250565b6000614fae600e83613a16565b9150614fb982614f78565b602082019050919050565b60006020820190508181036000830152614fdd81614fa1565b9050919050565b6000608082019050614ff9600083018761486a565b6150066020830186613aa4565b61501360408301856139b4565b61502060608301846139b4565b95945050505050565b61503281613fdb565b811461503d57600080fd5b50565b60008151905061504f81615029565b92915050565b60006020828403121561506b5761506a6138b7565b5b600061507984828501615040565b91505092915050565b7f4465626573206164717569726972206d617320646520756e612070617274696360008201527f69706163696f6e00000000000000000000000000000000000000000000000000602082015250565b60006150de602783613a16565b91506150e982615082565b604082019050919050565b6000602082019050818103600083015261510d816150d1565b9050919050565b7f456c206e756d65726f2c7365726965206f206672616363696f6e206e6f20736f60008201527f6e20636f72726563746f73000000000000000000000000000000000000000000602082015250565b6000615170602b83613a16565b915061517b82615114565b604082019050919050565b6000602082019050818103600083015261519f81615163565b9050919050565b7f4e6563657369746173206d617320455448207061726120636f6d70726172207560008201527f6e207469636b6574000000000000000000000000000000000000000000000000602082015250565b6000615202602883613a16565b915061520d826151a6565b604082019050919050565b60006020820190508181036000830152615231816151f5565b9050919050565b600060608201905061524d6000830186613aa4565b61525a60208301856139b4565b61526760408301846139b4565b949350505050565b7f5472616e73666572206661696c65640000000000000000000000000000000000600082015250565b60006152a5600f83613a16565b91506152b08261526f565b602082019050919050565b600060208201905081810360008301526152d481615298565b9050919050565b60006060820190506152f0600083018661486a565b6152fd60208301856139b4565b61530a60408301846139b4565b949350505050565b6000602082019050818103600083015261532c8184613b32565b905092915050565b60006020828403121561534a576153496138b7565b5b600082015167ffffffffffffffff811115615368576153676138bc565b5b615374848285016144ff565b91505092915050565b6000819050919050565b6153908161537d565b82525050565b600067ffffffffffffffff82169050919050565b6153b381615396565b82525050565b600061ffff82169050919050565b6153d0816153b9565b82525050565b600060a0820190506153eb6000830188615387565b6153f860208301876153aa565b61540560408301866153c7565b6154126060830185613ac3565b61541f6080830184613ac3565b969550505050505056fea2646970667358221220bbfb306ded588b2d9845477c832de157cad13ad500d4c5ca175c040bd1dad10b64736f6c634300080f0033608060405234801561001057600080fd5b50336000806101000a81548173ffffffffffffffffffffffffffffffffffffffff021916908373ffffffffffffffffffffffffffffffffffffffff160217905550610f55806100606000396000f3fe608060405234801561001057600080fd5b50600436106100575760003560e01c80630868d8e11461005c5780635c392b3b1461007a5780638267e0be146100aa578063bcc82ec4146100b4578063f298083b146100d2575b600080fd5b6100646100ee565b60405161007191906108ed565b60405180910390f35b610094600480360381019061008f9190610961565b61017c565b6040516100a191906109a9565b60405180910390f35b6100b26101d2565b005b6100bc610320565b6040516100c991906108ed565b60405180910390f35b6100ec60048036038101906100e791906109f0565b6103ae565b005b6060600380548060200260200160405190810160405280929190818152602001828054801561017257602002820191906000526020600020905b8160009054906101000a900473ffffffffffffffffffffffffffffffffffffffff1673ffffffffffffffffffffffffffffffffffffffff1681526020019060010190808311610128575b5050505050905090565b6000600160008373ffffffffffffffffffffffffffffffffffffffff1673ffffffffffffffffffffffffffffffffffffffff16815260200190815260200160002060009054906101000a900460ff169050919050565b60008054906101000a900473ffffffffffffffffffffffffffffffffffffffff1673ffffffffffffffffffffffffffffffffffffffff163373ffffffffffffffffffffffffffffffffffffffff161461022a57600080fd5b6003600160038054905061023e9190610a56565b8154811061024f5761024e610a8a565b5b9060005260206000200160009054906101000a900473ffffffffffffffffffffffffffffffffffffffff16600360008154811061028f5761028e610a8a565b5b9060005260206000200160006101000a81548173ffffffffffffffffffffffffffffffffffffffff021916908373ffffffffffffffffffffffffffffffffffffffff16021790555060038054806102e9576102e8610ab9565b5b6001900381819060005260206000200160006101000a81549073ffffffffffffffffffffffffffffffffffffffff02191690559055565b606060028054806020026020016040519081016040528092919081815260200182805480156103a457602002820191906000526020600020905b8160009054906101000a900473ffffffffffffffffffffffffffffffffffffffff1673ffffffffffffffffffffffffffffffffffffffff168152602001906001019080831161035a575b5050505050905090565b60008054906101000a900473ffffffffffffffffffffffffffffffffffffffff1673ffffffffffffffffffffffffffffffffffffffff163373ffffffffffffffffffffffffffffffffffffffff161461040657600080fd5b60018060008373ffffffffffffffffffffffffffffffffffffffff1673ffffffffffffffffffffffffffffffffffffffff16815260200190815260200160002060006101000a81548160ff0219169083151502179055506002819080600181540180825580915050600190039060005260206000200160009091909190916101000a81548173ffffffffffffffffffffffffffffffffffffffff021916908373ffffffffffffffffffffffffffffffffffffffff1602179055506104c9816104cc565b50565b60008173ffffffffffffffffffffffffffffffffffffffff1663be2e69056040518163ffffffff1660e01b8152600401600060405180830381865afa158015610519573d6000803e3d6000fd5b505050506040513d6000823e3d601f19601f820116820180604052508101906105429190610d97565b50505050505050509150506000805b60038054905082101561065c576003828154811061057257610571610a8a565b5b9060005260206000200160009054906101000a900473ffffffffffffffffffffffffffffffffffffffff1673ffffffffffffffffffffffffffffffffffffffff1663be2e69056040518163ffffffff1660e01b8152600401600060405180830381865afa1580156105e7573d6000803e3d6000fd5b505050506040513d6000823e3d601f19601f820116820180604052508101906106109190610d97565b909192939495969798509091929394959650909192939495509091929394509091929350909192509091509050508091505080831061065c57818061065490610eae565b925050610551565b600360009080600181540180825580915050600190039060005260206000200160009091909190916101000a81548173ffffffffffffffffffffffffffffffffffffffff021916908373ffffffffffffffffffffffffffffffffffffffff160217905550600060016003805490506106d49190610a56565b90505b828111156107995760036001826106ee9190610a56565b815481106106ff576106fe610a8a565b5b9060005260206000200160009054906101000a900473ffffffffffffffffffffffffffffffffffffffff166003828154811061073e5761073d610a8a565b5b9060005260206000200160006101000a81548173ffffffffffffffffffffffffffffffffffffffff021916908373ffffffffffffffffffffffffffffffffffffffff160217905550808061079190610ef6565b9150506106d7565b5083600383815481106107af576107ae610a8a565b5b9060005260206000200160006101000a81548173ffffffffffffffffffffffffffffffffffffffff021916908373ffffffffffffffffffffffffffffffffffffffff16021790555050505050565b600081519050919050565b600082825260208201905092915050565b6000819050602082019050919050565b600073ffffffffffffffffffffffffffffffffffffffff82169050919050565b600061085482610829565b9050919050565b61086481610849565b82525050565b6000610876838361085b565b60208301905092915050565b6000602082019050919050565b600061089a826107fd565b6108a48185610808565b93506108af83610819565b8060005b838110156108e05781516108c7888261086a565b97506108d283610882565b9250506001810190506108b3565b5085935050505092915050565b60006020820190508181036000830152610907818461088f565b905092915050565b6000604051905090565b600080fd5b600080fd5b600061092e82610829565b9050919050565b61093e81610923565b811461094957600080fd5b50565b60008135905061095b81610935565b92915050565b60006020828403121561097757610976610919565b5b60006109858482850161094c565b91505092915050565b60008115159050919050565b6109a38161098e565b82525050565b60006020820190506109be600083018461099a565b92915050565b6109cd81610849565b81146109d857600080fd5b50565b6000813590506109ea816109c4565b92915050565b600060208284031215610a0657610a05610919565b5b6000610a14848285016109db565b91505092915050565b6000819050919050565b7f4e487b7100000000000000000000000000000000000000000000000000000000600052601160045260246000fd5b6000610a6182610a1d565b9150610a6c83610a1d565b925082821015610a7f57610a7e610a27565b5b828203905092915050565b7f4e487b7100000000000000000000000000000000000000000000000000000000600052603260045260246000fd5b7f4e487b7100000000000000000000000000000000000000000000000000000000600052603160045260246000fd5b600080fd5b600080fd5b6000601f19601f8301169050919050565b7f4e487b7100000000000000000000000000000000000000000000000000000000600052604160045260246000fd5b610b3b82610af2565b810181811067ffffffffffffffff82111715610b5a57610b59610b03565b5b80604052505050565b6000610b6d61090f565b9050610b798282610b32565b919050565b600067ffffffffffffffff821115610b9957610b98610b03565b5b610ba282610af2565b9050602081019050919050565b60005b83811015610bcd578082015181840152602081019050610bb2565b83811115610bdc576000848401525b50505050565b6000610bf5610bf084610b7e565b610b63565b905082815260208101848484011115610c1157610c10610aed565b5b610c1c848285610baf565b509392505050565b600082601f830112610c3957610c38610ae8565b5b8151610c49848260208601610be2565b91505092915050565b610c5b81610a1d565b8114610c6657600080fd5b50565b600081519050610c7881610c52565b92915050565b600081519050610c8d81610935565b92915050565b600063ffffffff82169050919050565b610cac81610c93565b8114610cb757600080fd5b50565b600081519050610cc981610ca3565b92915050565b600067ffffffffffffffff821115610cea57610ce9610b03565b5b602082029050602081019050919050565b600080fd5b6000610d13610d0e84610ccf565b610b63565b90508083825260208201905060208402830185811115610d3657610d35610cfb565b5b835b81811015610d5f5780610d4b8882610c69565b845260208401935050602081019050610d38565b5050509392505050565b600082601f830112610d7e57610d7d610ae8565b5b8151610d8e848260208601610d00565b91505092915050565b6000806000806000806000806000806101408b8d031215610dbb57610dba610919565b5b60008b015167ffffffffffffffff811115610dd957610dd861091e565b5b610de58d828e01610c24565b9a50506020610df68d828e01610c69565b9950506040610e078d828e01610c7e565b9850506060610e188d828e01610c69565b9750506080610e298d828e01610c69565b96505060a0610e3a8d828e01610c69565b95505060c0610e4b8d828e01610c69565b94505060e0610e5c8d828e01610c69565b935050610100610e6e8d828e01610cba565b9250506101208b015167ffffffffffffffff811115610e9057610e8f61091e565b5b610e9c8d828e01610d69565b9150509295989b9194979a5092959850565b6000610eb982610a1d565b91507fffffffffffffffffffffffffffffffffffffffffffffffffffffffffffffffff8203610eeb57610eea610a27565b5b600182019050919050565b6000610f0182610a1d565b915060008203610f1457610f13610a27565b5b60018203905091905056fea2646970667358221220151819577132641af2b62a0fe63736b22853eb9d9ca299533b59a302944e99ff64736f6c634300080f0033",
  "immutableReferences": {
    "10": [
      {
        "length": 32,
        "start": 2453
      },
      {
        "length": 32,
        "start": 2537
      }
    ],
    "2469": [
      {
        "length": 32,
        "start": 13843
      }
    ],
    "2478": [
      {
        "length": 32,
        "start": 13939
      }
    ]
  },
  "source": "// SPDX-License-Identifier: MIT\r\npragma solidity ^0.8.6;\r\n\r\nimport \"./LotteryStorage.sol\";\r\nimport \"./Lottery.sol\";\r\nimport \"./Shares.sol\";\r\nimport \"./PriceConsumer.sol\";\r\nimport \"@chainlink/contracts/src/v0.8/interfaces/VRFCoordinatorV2Interface.sol\";\r\nimport \"@chainlink/contracts/src/v0.8/VRFConsumerBaseV2.sol\";\r\n\r\ncontract LotteryService is PriceConsumerV3, VRFConsumerBaseV2 {\r\n    LotteryStorage lotteryStorage;\r\n\r\n    address private _owner;\r\n    mapping(address => bool) private authorized;\r\n\r\n    // VRF\r\n    VRFCoordinatorV2Interface private immutable vrfCoordinator;\r\n    address vrfCoordinatorAddress = 0x2Ca8E0C643bDe4C2E08ab1fA0da3401AdAD7734D;\r\n    mapping(uint256 => address payable) private requestIdToLottery;\r\n    uint64 private immutable subscriptionId;\r\n    bytes32 private constant KEY_HASH = 0x79d3d8832d904592c0bf9818b621522c988bb8b0c05cdc3b15aea1b6e8db0c15;\r\n    uint32 private constant CALLBACK_GAS_LIMIT = 200000;\r\n    uint16 private constant REQUEST_CONFIRMATIONS = 5;\r\n    uint32 private constant NUM_WORDS = 1;\r\n\r\n\r\n    constructor(uint64 _subscriptionId) VRFConsumerBaseV2(vrfCoordinatorAddress) {\r\n        _owner = msg.sender;\r\n        authorized[msg.sender] = true;\r\n        subscriptionId = _subscriptionId;\r\n        vrfCoordinator = VRFCoordinatorV2Interface(vrfCoordinatorAddress);\r\n        lotteryStorage = new LotteryStorage();\r\n    }\r\n\r\n    modifier onlyOwner() {\r\n        require(_owner == msg.sender, \"Ownable: caller is not the owner\");\r\n        _;\r\n    }\r\n\r\n    modifier onlyAuthorized() {\r\n        require(authorized[msg.sender]);\r\n        _;\r\n    }\r\n\r\n    modifier lotteryExists(address _addressLottery) {\r\n        require(\r\n            lotteryStorage.lotteryExists(_addressLottery),\r\n            \"La loteria no existe\"\r\n        );\r\n        _;\r\n    }\r\n\r\n    function addAuthorized(address _address) public onlyOwner {\r\n        authorized[_address] = true;\r\n    }\r\n\r\n    function removeAuthorized(address _address) public onlyOwner {\r\n        authorized[_address] = false;\r\n    }\r\n\r\n    function checkNumBoleto(\r\n        uint256 _numTicket,\r\n        uint256 _numSerie,\r\n        uint256 _numFraccion,\r\n        uint256 _totalNumbers,\r\n        uint256 _totalSeries\r\n    ) internal pure returns (bool) {\r\n        return\r\n            (_numTicket < _totalNumbers) &&\r\n            (_numSerie < _totalSeries) &&\r\n            (_numFraccion < 10);\r\n    }\r\n\r\n    function getCostEth(uint256 ticketCost) public view returns (uint256) {\r\n       return ((ticketCost * 10**26) / getLatestPrice());\r\n       //return ticketCost;\r\n    }\r\n\r\n    function addLottery(address payable _lotteryContract) external onlyAuthorized {\r\n        lotteryStorage.setLottery(_lotteryContract);\r\n        emit lotteryAdded(_lotteryContract);\r\n    }\r\n\r\n    function getBenefits(address payable _lotteryId) external onlyOwner lotteryExists(_lotteryId){\r\n        Lottery ticket = Lottery(_lotteryId);\r\n        require(ticket.isLotteryFinished(), \"La loteria aun no ha terminado\");\r\n        ticket.getBenefits(msg.sender);\r\n    }\r\n\r\n    function generateWinners(address payable _lotteryId) internal lotteryExists(_lotteryId)\r\n    {\r\n        Lottery ticket = Lottery(_lotteryId);\r\n        (,uint256 date,,,,,uint256 minimumParticipants,uint256 totalPrize,,) = ticket.infoLottery();\r\n        require(block.timestamp > date, \"La loteria aun no ha terminado\");\r\n        require(ticket.isLotteryActive(), \"La loteria ya ha terminado\");\r\n        if(ticket.getTotalPurchasedTickets()>minimumParticipants){\r\n            requestRandomNumber(_lotteryId);\r\n            ticket.setLotteryFinished();\r\n        }else{\r\n            ticket.setBenefit();\r\n            ticket.payPrize(totalPrize, _owner);\r\n            ticket.setLotteryFailed();\r\n        }\r\n    }\r\n\r\n    function finishLotteries() public {\r\n        address payable[] memory unFinishedLotteries = lotteryStorage.getUnfinishedLotteries();\r\n        Lottery ticket;\r\n        uint256 date;\r\n        for (uint256 i = 0; i < unFinishedLotteries.length; i++) {\r\n            ticket = Lottery(unFinishedLotteries[i]);\r\n            (,date,,,,,,,,) = ticket.infoLottery();\r\n            if(block.timestamp < date){\r\n                break;\r\n            }\r\n            generateWinners(unFinishedLotteries[i]);\r\n            lotteryStorage.removeFirstLotteryFinished();\r\n        }\r\n    }\r\n\r\n    function refundTicket(address payable _lotteryId, uint256 _tokenId) external lotteryExists(_lotteryId) returns(uint256){\r\n        Lottery ticket = Lottery(_lotteryId);\r\n        require(ticket.isLotteryFailed(), \"La loteria no ha fallado\");\r\n        uint256 amountShares = getSharesOfBuyer(_lotteryId,msg.sender,_tokenId);\r\n        require(amountShares != 0, \"No tiene participaciones de este ticket\");\r\n        uint256 totalSupplyShares = getTotalSupplyShares(_lotteryId, _tokenId);\r\n        Shares(ticket.getTicketToShare(_tokenId).shares).burn(msg.sender, amountShares);\r\n        uint256 refund = (amountShares*ticket.getBenefit())/(totalSupplyShares*ticket.getTotalPurchasedTickets());\r\n        ticket.payPrize(refund, msg.sender);\r\n        return refund;\r\n    }\r\n\r\n    function getPrize(address payable _lotteryId, uint256 _tokenId) external lotteryExists(_lotteryId) {\r\n        Lottery ticket = Lottery(_lotteryId);\r\n        require(ticket.isLotteryFinished(), \"La loteria aun no ha terminado\");\r\n        require(ticket.isWinnerTicket(_tokenId), \"Este ticket no tiene premio\");\r\n        uint256 amountShares = getSharesOfBuyer(_lotteryId,msg.sender,_tokenId);\r\n        require(amountShares != 0, \"No tiene participaciones de este ticket\");\r\n        uint256 totalSupplyShares = getTotalSupplyShares(_lotteryId, _tokenId);\r\n        Shares(ticket.getTicketToShare(_tokenId).shares).burn(msg.sender, amountShares);\r\n        ticket.payPrize((amountShares * ticket.getPrizeLottery()) / totalSupplyShares,msg.sender);\r\n        emit prizeReceived(_lotteryId, _tokenId);\r\n    }\r\n\r\n    function buyTicket(\r\n        address payable _lotteryId,\r\n        uint256 _numTicket,\r\n        uint256 _numSerie,\r\n        uint256 _numFraccion,\r\n        uint256 _totalShares\r\n    ) external payable lotteryExists(_lotteryId) {\r\n        Lottery ticket = Lottery(_lotteryId);\r\n        require(_totalShares>0, \"Debes adquirir mas de una participacion\");\r\n        require(ticket.isLotteryActive(), \"La loteria ya ha terminado\");\r\n        (,,,uint256 totalNumbers,uint256 totalSeries,uint256 ticketCost,,,,) = ticket.infoLottery();\r\n        require(checkNumBoleto(_numTicket,_numSerie,_numFraccion,totalNumbers,totalSeries),\"El numero,serie o fraccion no son correctos\");\r\n        uint256 ticketCostEth = getCostEth(ticketCost);\r\n        require(msg.value >= ticketCostEth,\"Necesitas mas ETH para comprar un ticket\");\r\n        uint256 refund = msg.value - ticketCostEth;\r\n        uint256 tokenId = getTokenId(_lotteryId,_numTicket, _numSerie, _numFraccion);\r\n        ticket.mintBoleto(msg.sender, tokenId, _totalShares);\r\n        (bool success,)= msg.sender.call{value:refund}(\"\");\r\n        require(success, \"Refund transfer failed\");\r\n        (success,)=_lotteryId.call{value:ticketCostEth}(\"\");\r\n        require(success, \"Transfer failed\");\r\n        emit ticketBought(_lotteryId, tokenId, _totalShares);\r\n    }\r\n\r\n    function allowBuyShares(\r\n        address payable _lotteryId,\r\n        address _to,\r\n        uint256 _amount,\r\n        uint256 _tokenId\r\n    ) external lotteryExists(_lotteryId) {\r\n        Lottery ticket = Lottery(_lotteryId);\r\n        require(ticket.isLotteryActive(), \"La loteria ya ha terminado\");\r\n        Shares share = Shares(ticket.getTicketToShare(_tokenId).shares);\r\n        require(share.balanceOf(msg.sender) >= _amount,\"No tienes suficientes participaciones de este ticket\");\r\n        share.approve(msg.sender, _to, _amount);\r\n    }\r\n\r\n    function buyShares(\r\n        address payable _lotteryId,\r\n        address _from,\r\n        uint256 _tokenId\r\n    ) external payable lotteryExists(_lotteryId) {\r\n        Lottery ticket = Lottery(_lotteryId);\r\n        require(ticket.isLotteryActive(), \"La loteria ya ha terminado\");\r\n        Shares share = Shares(ticket.getTicketToShare(_tokenId).shares);\r\n        (,,,,,uint256 ticketCost,,,,) = Lottery(_lotteryId).infoLottery();\r\n        uint256 amount = share.allowance(_from, msg.sender);\r\n        require(0 < amount, \"No tienes permiso para comprar participaciones\");\r\n        uint256 costOfShares = ((amount * getCostEth(ticketCost)) / share.totalSupply());\r\n        require( msg.value >= costOfShares,\"Necesitas mas ETH para comprar las participaciones\");\r\n        share.transferFrom(_from, msg.sender, amount);\r\n        uint256 refund = msg.value - costOfShares;\r\n        (bool success,)= msg.sender.call{value:refund}(\"\");\r\n        require(success, \"Refund transfer failed\");\r\n        (success,)=payable(_from).call{value:costOfShares}(\"\");\r\n        require(success, \"Payment failed\");\r\n        emit sharesBought(_lotteryId,_from, _tokenId, amount);\r\n    }\r\n\r\n    function requestRandomNumber(address payable _lotteryId) internal returns (uint256 requestId){\r\n        uint256 _vrfRequestId = vrfCoordinator.requestRandomWords(\r\n            KEY_HASH,\r\n            subscriptionId,\r\n            REQUEST_CONFIRMATIONS,\r\n            CALLBACK_GAS_LIMIT,\r\n            NUM_WORDS);\r\n\r\n        requestIdToLottery[_vrfRequestId] = _lotteryId;\r\n\r\n        emit RandomNumberRequested(_vrfRequestId, _lotteryId);\r\n\r\n        return requestId;\r\n    }\r\n\r\n    function fulfillRandomWords(\r\n        uint256 requestId,\r\n        uint256[] memory randomWords\r\n    ) internal override {\r\n        address payable _lotteryId = requestIdToLottery[requestId];\r\n        Lottery ticket = Lottery(_lotteryId);\r\n        uint256[] memory winnerTickets = ticket.setWinnerTickets(randomWords);\r\n        emit WinnersGenerated(_lotteryId, winnerTickets);\r\n    }\r\n\r\n    function getSharesOfBuyer(\r\n        address payable _lotteryId,\r\n        address _to,\r\n        uint256 _tokenId\r\n    ) public view lotteryExists(_lotteryId) returns (uint256) {\r\n        address addressShare = Lottery(_lotteryId)\r\n            .getTicketToShare(_tokenId)\r\n            .shares;\r\n        require(addressShare != address(0), \"El ticket no ha sido comprado\");\r\n        return Shares(addressShare).balanceOf(_to);\r\n    }\r\n\r\n    function getTotalSupplyShares(\r\n        address payable _lotteryId, \r\n        uint256 _tokenId\r\n    ) public view lotteryExists(_lotteryId) returns (uint256) {\r\n        address addressShare = Lottery(_lotteryId)\r\n            .getTicketToShare(_tokenId)\r\n            .shares;\r\n        require(addressShare != address(0), \"El ticket no ha sido comprado\");\r\n        return Shares(addressShare).totalSupply();\r\n    }\r\n\r\n    function getLotteries() external view returns (address payable[] memory) {\r\n        return lotteryStorage.getLotteries();\r\n    }\r\n\r\n    function getUnfinishedLotteries() external view returns (address payable[] memory) {\r\n        return lotteryStorage.getUnfinishedLotteries();\r\n    }\r\n\r\n    function getLottery(address payable _lotteryId) external view lotteryExists(_lotteryId)\r\n        returns (\r\n            string memory,\r\n            uint256,\r\n            address,\r\n            uint256,\r\n            uint256,\r\n            uint256,\r\n            uint256,\r\n            uint256,\r\n            uint32,\r\n            uint256[] memory\r\n        )\r\n    {\r\n        return (Lottery(_lotteryId).infoLottery());\r\n    }\r\n\r\n    function getTokenId(\r\n        address payable _lotteryId,\r\n        uint256 _numTicket,\r\n        uint256 _numSerie,\r\n        uint256 _numFraccion\r\n    ) public view lotteryExists(_lotteryId) returns (uint256) {\r\n        Lottery ticket = Lottery(_lotteryId);\r\n        (,,,,uint256 totalSeries,,,,,) = ticket.infoLottery();\r\n        return (_numTicket * (totalSeries * 10)) + (_numSerie * 10) + _numFraccion;\r\n    }\r\n\r\n    function owner() external view returns (address) {\r\n        return _owner;\r\n    }\r\n\r\n    event lotteryAdded(address lotteryContract);\r\n    event ticketBought(\r\n        address lotteryId,\r\n        uint256 tokenId,\r\n        uint256 totalShares\r\n    );\r\n    event prizeReceived(address lotteryId, uint256 tokenId);\r\n    event ticketAllowedToBuy(\r\n        address lotteryId,\r\n        address to,\r\n        uint256 tokenId,\r\n        uint256 amount\r\n    );\r\n    event sharesBought(\r\n        address lotteryId,\r\n        address from,\r\n        uint256 tokenId,\r\n        uint256 amount\r\n    );\r\n\r\n    event RandomNumberRequested(\r\n        uint256 indexed requestId,\r\n        address indexed lotteryId\r\n    );\r\n\r\n    event WinnersGenerated(address indexed lotteryId, uint256[] winnerTickets);\r\n}",
  "sourcePath": "/mnt/d/pardo/Desktop/Treballs/TFG/TFG/src/contracts/LotteryService.sol",
  "compiler": {
    "name": "solc",
    "version": "0.8.15+commit.e14f2714.Emscripten.clang"
  },
  "schemaVersion": "3.4.7",
  "updatedAt": "2022-12-03T18:35:27.773Z",
  "devdoc": {
    "kind": "dev",
    "methods": {},
    "version": 1
  },
  "userdoc": {
    "kind": "user",
    "methods": {},
    "version": 1
  }
}