{
  "contractName": "LotteryService",
  "abi": [
    {
      "inputs": [
        {
          "internalType": "uint64",
          "name": "subscriptionId",
          "type": "uint64"
        }
      ],
      "stateMutability": "nonpayable",
      "type": "constructor"
    },
    {
      "inputs": [
        {
          "internalType": "address",
          "name": "have",
          "type": "address"
        },
        {
          "internalType": "address",
          "name": "want",
          "type": "address"
        }
      ],
      "name": "OnlyCoordinatorCanFulfill",
      "type": "error"
    },
    {
      "anonymous": false,
      "inputs": [
        {
          "indexed": false,
          "internalType": "bytes32",
          "name": "keyHash",
          "type": "bytes32"
        }
      ],
      "name": "KeyHashSet",
      "type": "event"
    },
    {
      "anonymous": false,
      "inputs": [
        {
          "indexed": true,
          "internalType": "uint32",
          "name": "requestId",
          "type": "uint32"
        },
        {
          "indexed": false,
          "internalType": "uint256[]",
          "name": "randomNumber",
          "type": "uint256[]"
        }
      ],
      "name": "RandomNumberCompleted",
      "type": "event"
    },
    {
      "anonymous": false,
      "inputs": [
        {
          "indexed": true,
          "internalType": "uint32",
          "name": "requestId",
          "type": "uint32"
        },
        {
          "indexed": true,
          "internalType": "address",
          "name": "sender",
          "type": "address"
        }
      ],
      "name": "RandomNumberRequested",
      "type": "event"
    },
    {
      "anonymous": false,
      "inputs": [
        {
          "indexed": false,
          "internalType": "uint64",
          "name": "subscriptionId",
          "type": "uint64"
        }
      ],
      "name": "SubscriptionIdSet",
      "type": "event"
    },
    {
      "anonymous": false,
      "inputs": [
        {
          "indexed": true,
          "internalType": "contract VRFCoordinatorV2Interface",
          "name": "vrfCoordinator",
          "type": "address"
        }
      ],
      "name": "VrfCoordinatorSet",
      "type": "event"
    },
    {
      "anonymous": false,
      "inputs": [
        {
          "indexed": false,
          "internalType": "address",
          "name": "_lotteryContract",
          "type": "address"
        }
      ],
      "name": "lotteryAdded",
      "type": "event"
    },
    {
      "anonymous": false,
      "inputs": [
        {
          "indexed": false,
          "internalType": "address",
          "name": "_lotteryId",
          "type": "address"
        },
        {
          "indexed": false,
          "internalType": "uint256",
          "name": "_tokenId",
          "type": "uint256"
        }
      ],
      "name": "prizeReceived",
      "type": "event"
    },
    {
      "anonymous": false,
      "inputs": [
        {
          "indexed": false,
          "internalType": "address",
          "name": "_lotteryId",
          "type": "address"
        },
        {
          "indexed": false,
          "internalType": "address",
          "name": "_from",
          "type": "address"
        },
        {
          "indexed": false,
          "internalType": "uint256",
          "name": "_tokenId",
          "type": "uint256"
        },
        {
          "indexed": false,
          "internalType": "uint256",
          "name": "_amount",
          "type": "uint256"
        }
      ],
      "name": "sharesBought",
      "type": "event"
    },
    {
      "anonymous": false,
      "inputs": [
        {
          "indexed": false,
          "internalType": "address",
          "name": "_lotteryId",
          "type": "address"
        },
        {
          "indexed": false,
          "internalType": "address",
          "name": "_to",
          "type": "address"
        },
        {
          "indexed": false,
          "internalType": "uint256",
          "name": "_tokenId",
          "type": "uint256"
        },
        {
          "indexed": false,
          "internalType": "uint256",
          "name": "_amount",
          "type": "uint256"
        }
      ],
      "name": "ticketAllowedToBuy",
      "type": "event"
    },
    {
      "anonymous": false,
      "inputs": [
        {
          "indexed": false,
          "internalType": "address",
          "name": "_lotteryId",
          "type": "address"
        },
        {
          "indexed": false,
          "internalType": "uint256",
          "name": "tokenId",
          "type": "uint256"
        },
        {
          "indexed": false,
          "internalType": "uint256",
          "name": "_totalShares",
          "type": "uint256"
        }
      ],
      "name": "ticketBought",
      "type": "event"
    },
    {
      "inputs": [],
      "name": "getDecimals",
      "outputs": [
        {
          "internalType": "uint8",
          "name": "",
          "type": "uint8"
        }
      ],
      "stateMutability": "view",
      "type": "function"
    },
    {
      "inputs": [],
      "name": "getKeyHash",
      "outputs": [
        {
          "internalType": "bytes32",
          "name": "",
          "type": "bytes32"
        }
      ],
      "stateMutability": "view",
      "type": "function"
    },
    {
      "inputs": [],
      "name": "getLastRequestId",
      "outputs": [
        {
          "internalType": "uint32",
          "name": "requestId",
          "type": "uint32"
        }
      ],
      "stateMutability": "view",
      "type": "function"
    },
    {
      "inputs": [],
      "name": "getLatestPrice",
      "outputs": [
        {
          "internalType": "uint256",
          "name": "",
          "type": "uint256"
        }
      ],
      "stateMutability": "view",
      "type": "function"
    },
    {
      "inputs": [],
      "name": "getRequestFee",
      "outputs": [
        {
          "internalType": "address",
          "name": "feeToken",
          "type": "address"
        },
        {
          "internalType": "uint256",
          "name": "requestFee",
          "type": "uint256"
        }
      ],
      "stateMutability": "pure",
      "type": "function"
    },
    {
      "inputs": [],
      "name": "getSubscriptionId",
      "outputs": [
        {
          "internalType": "uint64",
          "name": "",
          "type": "uint64"
        }
      ],
      "stateMutability": "view",
      "type": "function"
    },
    {
      "inputs": [],
      "name": "getVrfCoordinator",
      "outputs": [
        {
          "internalType": "contract VRFCoordinatorV2Interface",
          "name": "",
          "type": "address"
        }
      ],
      "stateMutability": "view",
      "type": "function"
    },
    {
      "inputs": [
        {
          "internalType": "uint32",
          "name": "_internalRequestId",
          "type": "uint32"
        }
      ],
      "name": "isRequestComplete",
      "outputs": [
        {
          "internalType": "bool",
          "name": "isCompleted",
          "type": "bool"
        }
      ],
      "stateMutability": "view",
      "type": "function"
    },
    {
      "inputs": [],
      "name": "priceFeed",
      "outputs": [
        {
          "internalType": "contract AggregatorV3Interface",
          "name": "",
          "type": "address"
        }
      ],
      "stateMutability": "view",
      "type": "function"
    },
    {
      "inputs": [
        {
          "internalType": "uint32",
          "name": "_internalRequestId",
          "type": "uint32"
        }
      ],
      "name": "randomNumber",
      "outputs": [
        {
          "internalType": "uint256",
          "name": "randomNum1",
          "type": "uint256"
        },
        {
          "internalType": "uint256",
          "name": "randomNum2",
          "type": "uint256"
        },
        {
          "internalType": "uint256",
          "name": "randNum3",
          "type": "uint256"
        }
      ],
      "stateMutability": "view",
      "type": "function"
    },
    {
      "inputs": [
        {
          "internalType": "uint256",
          "name": "requestId",
          "type": "uint256"
        },
        {
          "internalType": "uint256[]",
          "name": "randomWords",
          "type": "uint256[]"
        }
      ],
      "name": "rawFulfillRandomWords",
      "outputs": [],
      "stateMutability": "nonpayable",
      "type": "function"
    },
    {
      "inputs": [],
      "name": "requestRandomNumber",
      "outputs": [
        {
          "internalType": "uint32",
          "name": "requestId",
          "type": "uint32"
        },
        {
          "internalType": "uint32",
          "name": "lockBlock",
          "type": "uint32"
        }
      ],
      "stateMutability": "nonpayable",
      "type": "function"
    },
    {
      "inputs": [
        {
          "internalType": "bytes32",
          "name": "_keyHash",
          "type": "bytes32"
        }
      ],
      "name": "setKeyhash",
      "outputs": [],
      "stateMutability": "nonpayable",
      "type": "function"
    },
    {
      "inputs": [
        {
          "internalType": "uint64",
          "name": "_subscriptionId",
          "type": "uint64"
        }
      ],
      "name": "setSubscriptionId",
      "outputs": [],
      "stateMutability": "nonpayable",
      "type": "function"
    },
    {
      "inputs": [
        {
          "internalType": "uint256",
          "name": "ticketCost",
          "type": "uint256"
        }
      ],
      "name": "getCostEth",
      "outputs": [
        {
          "internalType": "uint256",
          "name": "",
          "type": "uint256"
        }
      ],
      "stateMutability": "view",
      "type": "function"
    },
    {
      "inputs": [
        {
          "internalType": "address",
          "name": "_lotteryContract",
          "type": "address"
        }
      ],
      "name": "addLottery",
      "outputs": [],
      "stateMutability": "nonpayable",
      "type": "function"
    },
    {
      "inputs": [],
      "name": "withdraw",
      "outputs": [],
      "stateMutability": "nonpayable",
      "type": "function"
    },
    {
      "inputs": [
        {
          "internalType": "address",
          "name": "_lotteryId",
          "type": "address"
        }
      ],
      "name": "generateWinners",
      "outputs": [
        {
          "internalType": "uint256",
          "name": "",
          "type": "uint256"
        }
      ],
      "stateMutability": "nonpayable",
      "type": "function"
    },
    {
      "inputs": [
        {
          "internalType": "address",
          "name": "_lotteryId",
          "type": "address"
        }
      ],
      "name": "setWinningTickets",
      "outputs": [],
      "stateMutability": "nonpayable",
      "type": "function"
    },
    {
      "inputs": [
        {
          "internalType": "address",
          "name": "_lotteryId",
          "type": "address"
        },
        {
          "internalType": "uint256",
          "name": "_tokenId",
          "type": "uint256"
        }
      ],
      "name": "getPrize",
      "outputs": [],
      "stateMutability": "nonpayable",
      "type": "function"
    },
    {
      "inputs": [
        {
          "internalType": "address",
          "name": "_lotteryId",
          "type": "address"
        },
        {
          "internalType": "uint256",
          "name": "_numTicket",
          "type": "uint256"
        },
        {
          "internalType": "uint256",
          "name": "_numSerie",
          "type": "uint256"
        },
        {
          "internalType": "uint256",
          "name": "_numFraccion",
          "type": "uint256"
        },
        {
          "internalType": "uint256",
          "name": "_totalShares",
          "type": "uint256"
        }
      ],
      "name": "buyTicket",
      "outputs": [],
      "stateMutability": "payable",
      "type": "function"
    },
    {
      "inputs": [
        {
          "internalType": "address",
          "name": "_lotteryId",
          "type": "address"
        },
        {
          "internalType": "address",
          "name": "_to",
          "type": "address"
        },
        {
          "internalType": "uint256",
          "name": "_amount",
          "type": "uint256"
        },
        {
          "internalType": "uint256",
          "name": "_tokenId",
          "type": "uint256"
        }
      ],
      "name": "allowBuyShares",
      "outputs": [],
      "stateMutability": "nonpayable",
      "type": "function"
    },
    {
      "inputs": [
        {
          "internalType": "address",
          "name": "_lotteryId",
          "type": "address"
        },
        {
          "internalType": "address",
          "name": "_from",
          "type": "address"
        },
        {
          "internalType": "uint256",
          "name": "_tokenId",
          "type": "uint256"
        }
      ],
      "name": "buyShares",
      "outputs": [],
      "stateMutability": "payable",
      "type": "function"
    },
    {
      "inputs": [
        {
          "internalType": "address",
          "name": "_lotteryId",
          "type": "address"
        },
        {
          "internalType": "address",
          "name": "_to",
          "type": "address"
        },
        {
          "internalType": "uint256",
          "name": "_tokenId",
          "type": "uint256"
        }
      ],
      "name": "getSharesOfBuyer",
      "outputs": [
        {
          "internalType": "uint256",
          "name": "",
          "type": "uint256"
        }
      ],
      "stateMutability": "view",
      "type": "function"
    },
    {
      "inputs": [
        {
          "internalType": "address",
          "name": "_lotteryId",
          "type": "address"
        },
        {
          "internalType": "uint256",
          "name": "_tokenId",
          "type": "uint256"
        }
      ],
      "name": "getTotalSupplyShares",
      "outputs": [
        {
          "internalType": "uint256",
          "name": "",
          "type": "uint256"
        }
      ],
      "stateMutability": "view",
      "type": "function"
    },
    {
      "inputs": [],
      "name": "getLotteries",
      "outputs": [
        {
          "internalType": "address[]",
          "name": "",
          "type": "address[]"
        }
      ],
      "stateMutability": "view",
      "type": "function"
    },
    {
      "inputs": [
        {
          "internalType": "address",
          "name": "_lotteryId",
          "type": "address"
        }
      ],
      "name": "getLottery",
      "outputs": [
        {
          "internalType": "string",
          "name": "",
          "type": "string"
        },
        {
          "internalType": "address",
          "name": "",
          "type": "address"
        },
        {
          "internalType": "uint256",
          "name": "",
          "type": "uint256"
        },
        {
          "internalType": "uint256",
          "name": "",
          "type": "uint256"
        },
        {
          "internalType": "uint256",
          "name": "",
          "type": "uint256"
        },
        {
          "internalType": "uint256[3]",
          "name": "",
          "type": "uint256[3]"
        }
      ],
      "stateMutability": "view",
      "type": "function"
    },
    {
      "inputs": [
        {
          "internalType": "address",
          "name": "_lotteryId",
          "type": "address"
        },
        {
          "internalType": "uint256",
          "name": "_numTicket",
          "type": "uint256"
        },
        {
          "internalType": "uint256",
          "name": "_numSerie",
          "type": "uint256"
        },
        {
          "internalType": "uint256",
          "name": "_numFraccion",
          "type": "uint256"
        }
      ],
      "name": "getTokenId",
      "outputs": [
        {
          "internalType": "uint256",
          "name": "",
          "type": "uint256"
        }
      ],
      "stateMutability": "view",
      "type": "function"
    },
    {
      "inputs": [],
      "name": "owner",
      "outputs": [
        {
          "internalType": "address",
          "name": "",
          "type": "address"
        }
      ],
      "stateMutability": "view",
      "type": "function"
    }
  ],
  "bytecode": "0x60a0604052732ca8e0c643bde4c2e08ab1fa0da3401adad7734d600160006101000a81548173ffffffffffffffffffffffffffffffffffffffff021916908373ffffffffffffffffffffffffffffffffffffffff1602179055507f79d3d8832d904592c0bf9818b621522c988bb8b0c05cdc3b15aea1b6e8db0c1560001b6002553480156200008d57600080fd5b5060405162005fc338038062005fc38339818101604052810190620000b391906200053e565b80600160009054906101000a900473ffffffffffffffffffffffffffffffffffffffff168073ffffffffffffffffffffffffffffffffffffffff1660808173ffffffffffffffffffffffffffffffffffffffff16815250505033600660006101000a81548173ffffffffffffffffffffffffffffffffffffffff021916908373ffffffffffffffffffffffffffffffffffffffff16021790555062000180600160009054906101000a900473ffffffffffffffffffffffffffffffffffffffff16620002ae60201b60201c565b6200019181620003a660201b60201c565b620001a46002546200045b60201b60201c565b5073d4a33860578de61dbabdc8bfdb98fd742fa7028e600760006101000a81548173ffffffffffffffffffffffffffffffffffffffff021916908373ffffffffffffffffffffffffffffffffffffffff16021790555033600960006101000a81548173ffffffffffffffffffffffffffffffffffffffff021916908373ffffffffffffffffffffffffffffffffffffffff1602179055506040516200024990620004e6565b604051809103906000f08015801562000266573d6000803e3d6000fd5b50600860006101000a81548173ffffffffffffffffffffffffffffffffffffffff021916908373ffffffffffffffffffffffffffffffffffffffff160217905550506200073d565b600073ffffffffffffffffffffffffffffffffffffffff168173ffffffffffffffffffffffffffffffffffffffff160362000320576040517f08c379a00000000000000000000000000000000000000000000000000000000081526004016200031790620005d1565b60405180910390fd5b806000806101000a81548173ffffffffffffffffffffffffffffffffffffffff021916908373ffffffffffffffffffffffffffffffffffffffff1602179055508073ffffffffffffffffffffffffffffffffffffffff167f4cc41e06d3d0588be9be0e1469ba1934c4bd1cb8f4f70adf2aa31f4b92134b2760405160405180910390a250565b60008167ffffffffffffffff1611620003f6576040517f08c379a0000000000000000000000000000000000000000000000000000000008152600401620003ed9062000643565b60405180910390fd5b80600160186101000a81548167ffffffffffffffff021916908367ffffffffffffffff1602179055507f68de96e24c66c14c012b5bd342251abc26a6003eaa438002bfe530f28ca63fed8160405162000450919062000676565b60405180910390a150565b6000801b8103620004a3576040517f08c379a00000000000000000000000000000000000000000000000000000000081526004016200049a90620006e3565b60405180910390fd5b806002819055507fd013f86c8346660ebf421351882cd1b3c2f91883092df1800264c656b0db0cc681604051620004db919062000720565b60405180910390a150565b6104e58062005ade83390190565b600080fd5b600067ffffffffffffffff82169050919050565b6200051881620004f9565b81146200052457600080fd5b50565b60008151905062000538816200050d565b92915050565b600060208284031215620005575762000556620004f4565b5b6000620005678482850162000527565b91505092915050565b600082825260208201905092915050565b7f524e47436861696e4c696e6b2f7672662d6e6f742d7a65726f2d616464720000600082015250565b6000620005b9601e8362000570565b9150620005c68262000581565b602082019050919050565b60006020820190508181036000830152620005ec81620005aa565b9050919050565b7f524e47436861696e4c696e6b2f73756249642d67742d7a65726f000000000000600082015250565b60006200062b601a8362000570565b91506200063882620005f3565b602082019050919050565b600060208201905081810360008301526200065e816200061c565b9050919050565b6200067081620004f9565b82525050565b60006020820190506200068d600083018462000665565b92915050565b7f524e47436861696e4c696e6b2f6b6579486173682d6e6f742d656d7074790000600082015250565b6000620006cb601e8362000570565b9150620006d88262000693565b602082019050919050565b60006020820190508181036000830152620006fe81620006bc565b9050919050565b6000819050919050565b6200071a8162000705565b82525050565b60006020820190506200073760008301846200070f565b92915050565b60805161537e6200076060003960008181610f160152610f6a015261537e6000f3fe6080604052600436106101c25760003560e01c80636309b773116100f7578063bcc82ec411610095578063de3d9fb711610064578063de3d9fb714610664578063ea7b4f771461068f578063f0141d84146106b8578063f496ca63146106e3576101c2565b8063bcc82ec4146105b7578063c68b875e146105e2578063ca964bc01461060b578063dd06f6bd14610648576101c2565b80638da5cb5b116100d15780638da5cb5b146104f95780638e15f473146105245780639d2a5f981461054f578063b9e74f471461058e576101c2565b80636309b77314610479578063741bef1a146104a25780638678a7b2146104cd576101c2565b80632e9c8aa6116101645780633a36d6691161013e5780633a36d669146103bf5780633ccfd60b146103fc5780634f381719146104135780635a6329c514610450576101c2565b80632e9c8aa61461031a578063331bf125146103575780633a19b9bc14610382576101c2565b806313d390d1116101a057806313d390d11461025b57806319c2b4c3146102845780631e88c9c0146102af5780631fe543e3146102f1576101c2565b80630cb4a29d146101c75780630d37b537146101f257806310b0b21f1461021e575b600080fd5b3480156101d357600080fd5b506101dc6106ff565b6040516101e991906135a7565b60405180910390f35b3480156101fe57600080fd5b50610207610728565b6040516102159291906135fc565b60405180910390f35b34801561022a57600080fd5b5061024560048036038101906102409190613691565b610736565b60405161025291906136e4565b60405180910390f35b34801561026757600080fd5b50610282600480360381019061027d91906136ff565b610989565b005b34801561029057600080fd5b50610299610d84565b6040516102a6919061374b565b60405180910390f35b3480156102bb57600080fd5b506102d660048036038101906102d191906136ff565b610d9e565b6040516102e8969594939291906138aa565b60405180910390f35b3480156102fd57600080fd5b5061031860048036038101906103139190613a5b565b610f14565b005b34801561032657600080fd5b50610341600480360381019061033c9190613ab7565b610fd4565b60405161034e91906136e4565b60405180910390f35b34801561036357600080fd5b5061036c61121b565b6040516103799190613b10565b60405180910390f35b34801561038e57600080fd5b506103a960048036038101906103a49190613b57565b611225565b6040516103b69190613b9f565b60405180910390f35b3480156103cb57600080fd5b506103e660048036038101906103e19190613bba565b61126e565b6040516103f391906136e4565b60405180910390f35b34801561040857600080fd5b506104116112a0565b005b34801561041f57600080fd5b5061043a600480360381019061043591906136ff565b61139b565b60405161044791906136e4565b60405180910390f35b34801561045c57600080fd5b50610477600480360381019061047291906136ff565b611757565b005b34801561048557600080fd5b506104a0600480360381019061049b9190613c13565b6118ae565b005b3480156104ae57600080fd5b506104b761194a565b6040516104c49190613c61565b60405180910390f35b3480156104d957600080fd5b506104e2611970565b6040516104f0929190613c7c565b60405180910390f35b34801561050557600080fd5b5061050e611be7565b60405161051b9190613ca5565b60405180910390f35b34801561053057600080fd5b50610539611c11565b60405161054691906136e4565b60405180910390f35b34801561055b57600080fd5b5061057660048036038101906105719190613b57565b611cb2565b60405161058593929190613cc0565b60405180910390f35b34801561059a57600080fd5b506105b560048036038101906105b09190613cf7565b611d7b565b005b3480156105c357600080fd5b506105cc6120d1565b6040516105d99190613e1c565b60405180910390f35b3480156105ee57600080fd5b5061060960048036038101906106049190613ab7565b61216e565b005b34801561061757600080fd5b50610632600480360381019061062d9190613e3e565b612637565b60405161063f91906136e4565b60405180910390f35b610662600480360381019061065d9190613691565b6127de565b005b34801561067057600080fd5b50610679612d12565b6040516106869190613ec8565b60405180910390f35b34801561069b57600080fd5b506106b660048036038101906106b19190613f0f565b612d30565b005b3480156106c457600080fd5b506106cd612dcc565b6040516106da9190613f58565b60405180910390f35b6106fd60048036038101906106f89190613f73565b612e64565b005b60008060009054906101000a900473ffffffffffffffffffffffffffffffffffffffff16905090565b600080600080915091509091565b600083600860009054906101000a900473ffffffffffffffffffffffffffffffffffffffff1673ffffffffffffffffffffffffffffffffffffffff16635c392b3b826040518263ffffffff1660e01b81526004016107949190613ca5565b602060405180830381865afa1580156107b1573d6000803e3d6000fd5b505050506040513d601f19601f820116820180604052508101906107d5919061401a565b610814576040517f08c379a000000000000000000000000000000000000000000000000000000000815260040161080b90614093565b60405180910390fd5b60008573ffffffffffffffffffffffffffffffffffffffff166335cc590f856040518263ffffffff1660e01b815260040161084f91906136e4565b6040805180830381865afa15801561086b573d6000803e3d6000fd5b505050506040513d601f19601f8201168201806040525081019061088f9190614132565b602001519050600073ffffffffffffffffffffffffffffffffffffffff168173ffffffffffffffffffffffffffffffffffffffff1603610904576040517f08c379a00000000000000000000000000000000000000000000000000000000081526004016108fb906141ab565b60405180910390fd5b8073ffffffffffffffffffffffffffffffffffffffff166370a08231866040518263ffffffff1660e01b815260040161093d9190613ca5565b602060405180830381865afa15801561095a573d6000803e3d6000fd5b505050506040513d601f19601f8201168201806040525081019061097e91906141cb565b925050509392505050565b3373ffffffffffffffffffffffffffffffffffffffff16600960009054906101000a900473ffffffffffffffffffffffffffffffffffffffff1673ffffffffffffffffffffffffffffffffffffffff1614610a19576040517f08c379a0000000000000000000000000000000000000000000000000000000008152600401610a1090614244565b60405180910390fd5b80600860009054906101000a900473ffffffffffffffffffffffffffffffffffffffff1673ffffffffffffffffffffffffffffffffffffffff16635c392b3b826040518263ffffffff1660e01b8152600401610a759190613ca5565b602060405180830381865afa158015610a92573d6000803e3d6000fd5b505050506040513d601f19601f82011682018060405250810190610ab6919061401a565b610af5576040517f08c379a0000000000000000000000000000000000000000000000000000000008152600401610aec90614093565b60405180910390fd5b60008290508073ffffffffffffffffffffffffffffffffffffffff16631091ce5f6040518163ffffffff1660e01b8152600401602060405180830381865afa158015610b45573d6000803e3d6000fd5b505050506040513d601f19601f82011682018060405250810190610b69919061401a565b610ba8576040517f08c379a0000000000000000000000000000000000000000000000000000000008152600401610b9f906142b0565b60405180910390fd5b60008173ffffffffffffffffffffffffffffffffffffffff1663077001b96040518163ffffffff1660e01b8152600401602060405180830381865afa158015610bf5573d6000803e3d6000fd5b505050506040513d601f19601f82011682018060405250810190610c1991906142e5565b9050610c2481611225565b610c63576040517f08c379a0000000000000000000000000000000000000000000000000000000008152600401610c5a90614384565b60405180910390fd5b6000806000610c7184611cb2565b92509250925060008573ffffffffffffffffffffffffffffffffffffffff16631609443a6040518163ffffffff1660e01b8152600401602060405180830381865afa158015610cc4573d6000803e3d6000fd5b505050506040513d601f19601f82011682018060405250810190610ce891906141cb565b90508573ffffffffffffffffffffffffffffffffffffffff16636e575e358286610d1291906143d3565b8386610d1e91906143d3565b8486610d2a91906143d3565b6040518463ffffffff1660e01b8152600401610d4893929190613cc0565b600060405180830381600087803b158015610d6257600080fd5b505af1158015610d76573d6000803e3d6000fd5b505050505050505050505050565b6000600160149054906101000a900463ffffffff16905090565b6060600080600080610dae61349c565b86600860009054906101000a900473ffffffffffffffffffffffffffffffffffffffff1673ffffffffffffffffffffffffffffffffffffffff16635c392b3b826040518263ffffffff1660e01b8152600401610e0a9190613ca5565b602060405180830381865afa158015610e27573d6000803e3d6000fd5b505050506040513d601f19601f82011682018060405250810190610e4b919061401a565b610e8a576040517f08c379a0000000000000000000000000000000000000000000000000000000008152600401610e8190614093565b60405180910390fd5b8773ffffffffffffffffffffffffffffffffffffffff1663be2e69056040518163ffffffff1660e01b8152600401600060405180830381865afa158015610ed5573d6000803e3d6000fd5b505050506040513d6000823e3d601f19601f82011682018060405250810190610efe919061455b565b9650965096509650965096505091939550919395565b7f000000000000000000000000000000000000000000000000000000000000000073ffffffffffffffffffffffffffffffffffffffff163373ffffffffffffffffffffffffffffffffffffffff1614610fc657337f00000000000000000000000000000000000000000000000000000000000000006040517f1cf993f4000000000000000000000000000000000000000000000000000000008152600401610fbd929190614605565b60405180910390fd5b610fd08282613231565b5050565b600082600860009054906101000a900473ffffffffffffffffffffffffffffffffffffffff1673ffffffffffffffffffffffffffffffffffffffff16635c392b3b826040518263ffffffff1660e01b81526004016110329190613ca5565b602060405180830381865afa15801561104f573d6000803e3d6000fd5b505050506040513d601f19601f82011682018060405250810190611073919061401a565b6110b2576040517f08c379a00000000000000000000000000000000000000000000000000000000081526004016110a990614093565b60405180910390fd5b60008473ffffffffffffffffffffffffffffffffffffffff166335cc590f856040518263ffffffff1660e01b81526004016110ed91906136e4565b6040805180830381865afa158015611109573d6000803e3d6000fd5b505050506040513d601f19601f8201168201806040525081019061112d9190614132565b602001519050600073ffffffffffffffffffffffffffffffffffffffff168173ffffffffffffffffffffffffffffffffffffffff16036111a2576040517f08c379a0000000000000000000000000000000000000000000000000000000008152600401611199906141ab565b60405180910390fd5b8073ffffffffffffffffffffffffffffffffffffffff166318160ddd6040518163ffffffff1660e01b8152600401602060405180830381865afa1580156111ed573d6000803e3d6000fd5b505050506040513d601f19601f8201168201806040525081019061121191906141cb565b9250505092915050565b6000600254905090565b600080600360008463ffffffff1663ffffffff16815260200190815260200160002060008154811061125a5761125961462e565b5b906000526020600020015414159050919050565b6000611278611c11565b6a52b7d2dcc80cd2e40000008361128f919061468c565b61129991906146e6565b9050919050565b3373ffffffffffffffffffffffffffffffffffffffff16600960009054906101000a900473ffffffffffffffffffffffffffffffffffffffff1673ffffffffffffffffffffffffffffffffffffffff1614611330576040517f08c379a000000000000000000000000000000000000000000000000000000000815260040161132790614244565b60405180910390fd5b600960009054906101000a900473ffffffffffffffffffffffffffffffffffffffff1673ffffffffffffffffffffffffffffffffffffffff166108fc479081150290604051600060405180830381858888f19350505050158015611398573d6000803e3d6000fd5b50565b60003373ffffffffffffffffffffffffffffffffffffffff16600960009054906101000a900473ffffffffffffffffffffffffffffffffffffffff1673ffffffffffffffffffffffffffffffffffffffff161461142d576040517f08c379a000000000000000000000000000000000000000000000000000000000815260040161142490614244565b60405180910390fd5b81600860009054906101000a900473ffffffffffffffffffffffffffffffffffffffff1673ffffffffffffffffffffffffffffffffffffffff16635c392b3b826040518263ffffffff1660e01b81526004016114899190613ca5565b602060405180830381865afa1580156114a6573d6000803e3d6000fd5b505050506040513d601f19601f820116820180604052508101906114ca919061401a565b611509576040517f08c379a000000000000000000000000000000000000000000000000000000000815260040161150090614093565b60405180910390fd5b60008390508073ffffffffffffffffffffffffffffffffffffffff16631091ce5f6040518163ffffffff1660e01b8152600401602060405180830381865afa158015611559573d6000803e3d6000fd5b505050506040513d601f19601f8201168201806040525081019061157d919061401a565b156115bd576040517f08c379a00000000000000000000000000000000000000000000000000000000081526004016115b4906142b0565b60405180910390fd5b60028173ffffffffffffffffffffffffffffffffffffffff16631609443a6040518163ffffffff1660e01b8152600401602060405180830381865afa15801561160a573d6000803e3d6000fd5b505050506040513d601f19601f8201168201806040525081019061162e91906141cb565b1161166e576040517f08c379a000000000000000000000000000000000000000000000000000000000815260040161166590614789565b60405180910390fd5b6000611678611970565b5090508173ffffffffffffffffffffffffffffffffffffffff16637847fa5b826040518263ffffffff1660e01b81526004016116b4919061374b565b600060405180830381600087803b1580156116ce57600080fd5b505af11580156116e2573d6000803e3d6000fd5b505050508173ffffffffffffffffffffffffffffffffffffffff1663d726c7306040518163ffffffff1660e01b8152600401600060405180830381600087803b15801561172e57600080fd5b505af1158015611742573d6000803e3d6000fd5b505050508063ffffffff169350505050919050565b3373ffffffffffffffffffffffffffffffffffffffff16600960009054906101000a900473ffffffffffffffffffffffffffffffffffffffff1673ffffffffffffffffffffffffffffffffffffffff16146117e7576040517f08c379a00000000000000000000000000000000000000000000000000000000081526004016117de90614244565b60405180910390fd5b600860009054906101000a900473ffffffffffffffffffffffffffffffffffffffff1673ffffffffffffffffffffffffffffffffffffffff1663f298083b826040518263ffffffff1660e01b81526004016118429190613ca5565b600060405180830381600087803b15801561185c57600080fd5b505af1158015611870573d6000803e3d6000fd5b505050507f975665bfcefb0ff5d26e5e5006d1a828ebab0a4ae16997b9ed58d23542c49384816040516118a39190613ca5565b60405180910390a150565b600660009054906101000a900473ffffffffffffffffffffffffffffffffffffffff1673ffffffffffffffffffffffffffffffffffffffff163373ffffffffffffffffffffffffffffffffffffffff161461193e576040517f08c379a0000000000000000000000000000000000000000000000000000000008152600401611935906147f5565b60405180910390fd5b61194781613319565b50565b600760009054906101000a900473ffffffffffffffffffffffffffffffffffffffff1681565b600080600660009054906101000a900473ffffffffffffffffffffffffffffffffffffffff1673ffffffffffffffffffffffffffffffffffffffff163373ffffffffffffffffffffffffffffffffffffffff1614611a03576040517f08c379a00000000000000000000000000000000000000000000000000000000081526004016119fa906147f5565b60405180910390fd5b60008060009054906101000a900473ffffffffffffffffffffffffffffffffffffffff1673ffffffffffffffffffffffffffffffffffffffff16635d3b1d30600254600160189054906101000a900467ffffffffffffffff166003620f424060036040518663ffffffff1660e01b8152600401611a849594939291906148ca565b6020604051808303816000875af1158015611aa3573d6000803e3d6000fd5b505050506040513d601f19601f82011682018060405250810190611ac791906141cb565b90506001601481819054906101000a900463ffffffff1680929190611aeb9061491d565b91906101000a81548163ffffffff021916908363ffffffff160217905550506000600160149054906101000a900463ffffffff169050809350806005600084815260200190815260200160002060006101000a81548163ffffffff021916908363ffffffff16021790555043925082600460008363ffffffff1663ffffffff16815260200190815260200160002060006101000a81548163ffffffff021916908363ffffffff1602179055503373ffffffffffffffffffffffffffffffffffffffff168163ffffffff167fcf635b20f2defc1e71326dc4f0b616fa676e29a5bae87da19fcaddc550b33f0360405160405180910390a350509091565b6000600960009054906101000a900473ffffffffffffffffffffffffffffffffffffffff16905090565b600080600760009054906101000a900473ffffffffffffffffffffffffffffffffffffffff1673ffffffffffffffffffffffffffffffffffffffff1663feaf968c6040518163ffffffff1660e01b815260040160a060405180830381865afa158015611c81573d6000803e3d6000fd5b505050506040513d601f19601f82011682018060405250810190611ca591906149c1565b5050509150508091505090565b6000806000600360008563ffffffff1663ffffffff168152602001908152602001600020600081548110611ce957611ce861462e565b5b9060005260206000200154600360008663ffffffff1663ffffffff168152602001908152602001600020600181548110611d2657611d2561462e565b5b9060005260206000200154600360008763ffffffff1663ffffffff168152602001908152602001600020600281548110611d6357611d6261462e565b5b90600052602060002001549250925092509193909250565b83600860009054906101000a900473ffffffffffffffffffffffffffffffffffffffff1673ffffffffffffffffffffffffffffffffffffffff16635c392b3b826040518263ffffffff1660e01b8152600401611dd79190613ca5565b602060405180830381865afa158015611df4573d6000803e3d6000fd5b505050506040513d601f19601f82011682018060405250810190611e18919061401a565b611e57576040517f08c379a0000000000000000000000000000000000000000000000000000000008152600401611e4e90614093565b60405180910390fd5b60008590508073ffffffffffffffffffffffffffffffffffffffff16631091ce5f6040518163ffffffff1660e01b8152600401602060405180830381865afa158015611ea7573d6000803e3d6000fd5b505050506040513d601f19601f82011682018060405250810190611ecb919061401a565b611f0a576040517f08c379a0000000000000000000000000000000000000000000000000000000008152600401611f01906142b0565b60405180910390fd5b60008173ffffffffffffffffffffffffffffffffffffffff166335cc590f856040518263ffffffff1660e01b8152600401611f4591906136e4565b6040805180830381865afa158015611f61573d6000803e3d6000fd5b505050506040513d601f19601f82011682018060405250810190611f859190614132565b602001519050848173ffffffffffffffffffffffffffffffffffffffff166370a08231336040518263ffffffff1660e01b8152600401611fc59190613ca5565b602060405180830381865afa158015611fe2573d6000803e3d6000fd5b505050506040513d601f19601f8201168201806040525081019061200691906141cb565b1015612047576040517f08c379a000000000000000000000000000000000000000000000000000000000815260040161203e90614aae565b60405180910390fd5b8073ffffffffffffffffffffffffffffffffffffffff1663e1f21c673388886040518463ffffffff1660e01b815260040161208493929190614ace565b6020604051808303816000875af11580156120a3573d6000803e3d6000fd5b505050506040513d601f19601f820116820180604052508101906120c7919061401a565b5050505050505050565b6060600860009054906101000a900473ffffffffffffffffffffffffffffffffffffffff1673ffffffffffffffffffffffffffffffffffffffff1663bcc82ec46040518163ffffffff1660e01b8152600401600060405180830381865afa158015612140573d6000803e3d6000fd5b505050506040513d6000823e3d601f19601f820116820180604052508101906121699190614bc8565b905090565b81600860009054906101000a900473ffffffffffffffffffffffffffffffffffffffff1673ffffffffffffffffffffffffffffffffffffffff16635c392b3b826040518263ffffffff1660e01b81526004016121ca9190613ca5565b602060405180830381865afa1580156121e7573d6000803e3d6000fd5b505050506040513d601f19601f8201168201806040525081019061220b919061401a565b61224a576040517f08c379a000000000000000000000000000000000000000000000000000000000815260040161224190614093565b60405180910390fd5b60008390508073ffffffffffffffffffffffffffffffffffffffff16631091ce5f6040518163ffffffff1660e01b8152600401602060405180830381865afa15801561229a573d6000803e3d6000fd5b505050506040513d601f19601f820116820180604052508101906122be919061401a565b6122fd576040517f08c379a00000000000000000000000000000000000000000000000000000000081526004016122f490614c5d565b60405180910390fd5b8073ffffffffffffffffffffffffffffffffffffffff166378591f08846040518263ffffffff1660e01b815260040161233691906136e4565b602060405180830381865afa158015612353573d6000803e3d6000fd5b505050506040513d601f19601f82011682018060405250810190612377919061401a565b6123b6576040517f08c379a00000000000000000000000000000000000000000000000000000000081526004016123ad90614cc9565b60405180910390fd5b60006123c3853386610736565b905060008103612408576040517f08c379a00000000000000000000000000000000000000000000000000000000081526004016123ff90614d5b565b60405180910390fd5b60006124148686610fd4565b90508273ffffffffffffffffffffffffffffffffffffffff16633d0d8322828573ffffffffffffffffffffffffffffffffffffffff1663fe020b806040518163ffffffff1660e01b8152600401602060405180830381865afa15801561247e573d6000803e3d6000fd5b505050506040513d601f19601f820116820180604052508101906124a291906141cb565b856124ad919061468c565b6124b791906146e6565b336040518363ffffffff1660e01b81526004016124d5929190614d7b565b600060405180830381600087803b1580156124ef57600080fd5b505af1158015612503573d6000803e3d6000fd5b5050505060008373ffffffffffffffffffffffffffffffffffffffff166335cc590f876040518263ffffffff1660e01b815260040161254291906136e4565b6040805180830381865afa15801561255e573d6000803e3d6000fd5b505050506040513d601f19601f820116820180604052508101906125829190614132565b6020015190508073ffffffffffffffffffffffffffffffffffffffff16639dc29fac33856040518363ffffffff1660e01b81526004016125c39291906135fc565b600060405180830381600087803b1580156125dd57600080fd5b505af11580156125f1573d6000803e3d6000fd5b505050507fb990c5fc6a9e17bd9cde91b34490705b9ddd8337dff022c00e14d3a7f51741ae87876040516126269291906135fc565b60405180910390a150505050505050565b600084600860009054906101000a900473ffffffffffffffffffffffffffffffffffffffff1673ffffffffffffffffffffffffffffffffffffffff16635c392b3b826040518263ffffffff1660e01b81526004016126959190613ca5565b602060405180830381865afa1580156126b2573d6000803e3d6000fd5b505050506040513d601f19601f820116820180604052508101906126d6919061401a565b612715576040517f08c379a000000000000000000000000000000000000000000000000000000000815260040161270c90614093565b60405180910390fd5b600086905060008173ffffffffffffffffffffffffffffffffffffffff1663be2e69056040518163ffffffff1660e01b8152600401600060405180830381865afa158015612767573d6000803e3d6000fd5b505050506040513d6000823e3d601f19601f82011682018060405250810190612790919061455b565b5050935050505084600a876127a5919061468c565b600a836127b2919061468c565b896127bd919061468c565b6127c79190614da4565b6127d19190614da4565b9350505050949350505050565b82600860009054906101000a900473ffffffffffffffffffffffffffffffffffffffff1673ffffffffffffffffffffffffffffffffffffffff16635c392b3b826040518263ffffffff1660e01b815260040161283a9190613ca5565b602060405180830381865afa158015612857573d6000803e3d6000fd5b505050506040513d601f19601f8201168201806040525081019061287b919061401a565b6128ba576040517f08c379a00000000000000000000000000000000000000000000000000000000081526004016128b190614093565b60405180910390fd5b60008490508073ffffffffffffffffffffffffffffffffffffffff16631091ce5f6040518163ffffffff1660e01b8152600401602060405180830381865afa15801561290a573d6000803e3d6000fd5b505050506040513d601f19601f8201168201806040525081019061292e919061401a565b61296d576040517f08c379a0000000000000000000000000000000000000000000000000000000008152600401612964906142b0565b60405180910390fd5b60008173ffffffffffffffffffffffffffffffffffffffff166335cc590f856040518263ffffffff1660e01b81526004016129a891906136e4565b6040805180830381865afa1580156129c4573d6000803e3d6000fd5b505050506040513d601f19601f820116820180604052508101906129e89190614132565b60200151905060008673ffffffffffffffffffffffffffffffffffffffff1663be2e69056040518163ffffffff1660e01b8152600401600060405180830381865afa158015612a3b573d6000803e3d6000fd5b505050506040513d6000823e3d601f19601f82011682018060405250810190612a64919061455b565b5094505050505060008273ffffffffffffffffffffffffffffffffffffffff1663dd62ed3e88336040518363ffffffff1660e01b8152600401612aa8929190614605565b602060405180830381865afa158015612ac5573d6000803e3d6000fd5b505050506040513d601f19601f82011682018060405250810190612ae991906141cb565b905080600010612b2e576040517f08c379a0000000000000000000000000000000000000000000000000000000008152600401612b2590614e6c565b60405180910390fd5b60008373ffffffffffffffffffffffffffffffffffffffff166318160ddd6040518163ffffffff1660e01b8152600401602060405180830381865afa158015612b7b573d6000803e3d6000fd5b505050506040513d601f19601f82011682018060405250810190612b9f91906141cb565b612ba88461126e565b83612bb3919061468c565b612bbd91906146e6565b905080341015612c02576040517f08c379a0000000000000000000000000000000000000000000000000000000008152600401612bf990614efe565b60405180910390fd5b8773ffffffffffffffffffffffffffffffffffffffff166108fc829081150290604051600060405180830381858888f19350505050158015612c48573d6000803e3d6000fd5b508373ffffffffffffffffffffffffffffffffffffffff166323b872dd8933856040518463ffffffff1660e01b8152600401612c8693929190614ace565b6020604051808303816000875af1158015612ca5573d6000803e3d6000fd5b505050506040513d601f19601f82011682018060405250810190612cc9919061401a565b507f313ea8c33b682632e20873803046b3847fcd44e63b1f381d358d89445c46ab6a89898985604051612cff9493929190614f1e565b60405180910390a1505050505050505050565b6000600160189054906101000a900467ffffffffffffffff16905090565b600660009054906101000a900473ffffffffffffffffffffffffffffffffffffffff1673ffffffffffffffffffffffffffffffffffffffff163373ffffffffffffffffffffffffffffffffffffffff1614612dc0576040517f08c379a0000000000000000000000000000000000000000000000000000000008152600401612db7906147f5565b60405180910390fd5b612dc98161339f565b50565b6000600760009054906101000a900473ffffffffffffffffffffffffffffffffffffffff1673ffffffffffffffffffffffffffffffffffffffff1663313ce5676040518163ffffffff1660e01b8152600401602060405180830381865afa158015612e3b573d6000803e3d6000fd5b505050506040513d601f19601f82011682018060405250810190612e5f9190614f8f565b905090565b84600860009054906101000a900473ffffffffffffffffffffffffffffffffffffffff1673ffffffffffffffffffffffffffffffffffffffff16635c392b3b826040518263ffffffff1660e01b8152600401612ec09190613ca5565b602060405180830381865afa158015612edd573d6000803e3d6000fd5b505050506040513d601f19601f82011682018060405250810190612f01919061401a565b612f40576040517f08c379a0000000000000000000000000000000000000000000000000000000008152600401612f3790614093565b60405180910390fd5b60008690508073ffffffffffffffffffffffffffffffffffffffff16631091ce5f6040518163ffffffff1660e01b8152600401602060405180830381865afa158015612f90573d6000803e3d6000fd5b505050506040513d601f19601f82011682018060405250810190612fb4919061401a565b612ff3576040517f08c379a0000000000000000000000000000000000000000000000000000000008152600401612fea906142b0565b60405180910390fd5b60008060008373ffffffffffffffffffffffffffffffffffffffff1663be2e69056040518163ffffffff1660e01b8152600401600060405180830381865afa158015613043573d6000803e3d6000fd5b505050506040513d6000823e3d601f19601f8201168201806040525081019061306c919061455b565b509450945094505050613082898989868661344f565b6130c1576040517f08c379a00000000000000000000000000000000000000000000000000000000081526004016130b89061502e565b60405180910390fd5b60006130cc8261126e565b905080341015613111576040517f08c379a0000000000000000000000000000000000000000000000000000000008152600401613108906150c0565b60405180910390fd5b6000813461311f91906150e0565b90503373ffffffffffffffffffffffffffffffffffffffff166108fc829081150290604051600060405180830381858888f19350505050158015613167573d6000803e3d6000fd5b5060006131768d8d8d8d612637565b90508673ffffffffffffffffffffffffffffffffffffffff1663da9d933133838c6040518463ffffffff1660e01b81526004016131b593929190615114565b600060405180830381600087803b1580156131cf57600080fd5b505af11580156131e3573d6000803e3d6000fd5b505050507f4c9d4d64e349413d00281dd6ada0347538fd221ffa2eb763ac2838eef575ee5e8d828b60405161321a93929190615114565b60405180910390a150505050505050505050505050565b60006005600084815260200190815260200160002060009054906101000a900463ffffffff16905060008163ffffffff16116132a2576040517f08c379a000000000000000000000000000000000000000000000000000000000815260040161329990615197565b60405180910390fd5b81600360008363ffffffff1663ffffffff16815260200190815260200160002090805190602001906132d59291906134be565b508063ffffffff167f71efb36ad56b61830958b1e868abc1fef46fa9ce08328d6443da98754859e37e8360405161330c919061524e565b60405180910390a2505050565b6000801b810361335e576040517f08c379a0000000000000000000000000000000000000000000000000000000008152600401613355906152bc565b60405180910390fd5b806002819055507fd013f86c8346660ebf421351882cd1b3c2f91883092df1800264c656b0db0cc6816040516133949190613b10565b60405180910390a150565b60008167ffffffffffffffff16116133ec576040517f08c379a00000000000000000000000000000000000000000000000000000000081526004016133e390615328565b60405180910390fd5b80600160186101000a81548167ffffffffffffffff021916908367ffffffffffffffff1602179055507f68de96e24c66c14c012b5bd342251abc26a6003eaa438002bfe530f28ca63fed816040516134449190613ec8565b60405180910390a150565b600080861015801561346057508286105b801561346d575060008510155b801561347857508185105b8015613485575060008410155b80156134915750600a84105b905095945050505050565b6040518060600160405280600390602082028036833780820191505090505090565b8280548282559060005260206000209081019282156134fa579160200282015b828111156134f95782518255916020019190600101906134de565b5b509050613507919061350b565b5090565b5b8082111561352457600081600090555060010161350c565b5090565b600073ffffffffffffffffffffffffffffffffffffffff82169050919050565b6000819050919050565b600061356d61356861356384613528565b613548565b613528565b9050919050565b600061357f82613552565b9050919050565b600061359182613574565b9050919050565b6135a181613586565b82525050565b60006020820190506135bc6000830184613598565b92915050565b60006135cd82613528565b9050919050565b6135dd816135c2565b82525050565b6000819050919050565b6135f6816135e3565b82525050565b600060408201905061361160008301856135d4565b61361e60208301846135ed565b9392505050565b6000604051905090565b600080fd5b600080fd5b613642816135c2565b811461364d57600080fd5b50565b60008135905061365f81613639565b92915050565b61366e816135e3565b811461367957600080fd5b50565b60008135905061368b81613665565b92915050565b6000806000606084860312156136aa576136a961362f565b5b60006136b886828701613650565b93505060206136c986828701613650565b92505060406136da8682870161367c565b9150509250925092565b60006020820190506136f960008301846135ed565b92915050565b6000602082840312156137155761371461362f565b5b600061372384828501613650565b91505092915050565b600063ffffffff82169050919050565b6137458161372c565b82525050565b6000602082019050613760600083018461373c565b92915050565b600081519050919050565b600082825260208201905092915050565b60005b838110156137a0578082015181840152602081019050613785565b838111156137af576000848401525b50505050565b6000601f19601f8301169050919050565b60006137d182613766565b6137db8185613771565b93506137eb818560208601613782565b6137f4816137b5565b840191505092915050565b600060039050919050565b600081905092915050565b6000819050919050565b613828816135e3565b82525050565b600061383a838361381f565b60208301905092915050565b6000602082019050919050565b61385c816137ff565b613866818461380a565b925061387182613815565b8060005b838110156138a2578151613889878261382e565b965061389483613846565b925050600181019050613875565b505050505050565b60006101008201905081810360008301526138c581896137c6565b90506138d460208301886135d4565b6138e160408301876135ed565b6138ee60608301866135ed565b6138fb60808301856135ed565b61390860a0830184613853565b979650505050505050565b600080fd5b7f4e487b7100000000000000000000000000000000000000000000000000000000600052604160045260246000fd5b613950826137b5565b810181811067ffffffffffffffff8211171561396f5761396e613918565b5b80604052505050565b6000613982613625565b905061398e8282613947565b919050565b600067ffffffffffffffff8211156139ae576139ad613918565b5b602082029050602081019050919050565b600080fd5b60006139d76139d284613993565b613978565b905080838252602082019050602084028301858111156139fa576139f96139bf565b5b835b81811015613a235780613a0f888261367c565b8452602084019350506020810190506139fc565b5050509392505050565b600082601f830112613a4257613a41613913565b5b8135613a528482602086016139c4565b91505092915050565b60008060408385031215613a7257613a7161362f565b5b6000613a808582860161367c565b925050602083013567ffffffffffffffff811115613aa157613aa0613634565b5b613aad85828601613a2d565b9150509250929050565b60008060408385031215613ace57613acd61362f565b5b6000613adc85828601613650565b9250506020613aed8582860161367c565b9150509250929050565b6000819050919050565b613b0a81613af7565b82525050565b6000602082019050613b256000830184613b01565b92915050565b613b348161372c565b8114613b3f57600080fd5b50565b600081359050613b5181613b2b565b92915050565b600060208284031215613b6d57613b6c61362f565b5b6000613b7b84828501613b42565b91505092915050565b60008115159050919050565b613b9981613b84565b82525050565b6000602082019050613bb46000830184613b90565b92915050565b600060208284031215613bd057613bcf61362f565b5b6000613bde8482850161367c565b91505092915050565b613bf081613af7565b8114613bfb57600080fd5b50565b600081359050613c0d81613be7565b92915050565b600060208284031215613c2957613c2861362f565b5b6000613c3784828501613bfe565b91505092915050565b6000613c4b82613574565b9050919050565b613c5b81613c40565b82525050565b6000602082019050613c766000830184613c52565b92915050565b6000604082019050613c91600083018561373c565b613c9e602083018461373c565b9392505050565b6000602082019050613cba60008301846135d4565b92915050565b6000606082019050613cd560008301866135ed565b613ce260208301856135ed565b613cef60408301846135ed565b949350505050565b60008060008060808587031215613d1157613d1061362f565b5b6000613d1f87828801613650565b9450506020613d3087828801613650565b9350506040613d418782880161367c565b9250506060613d528782880161367c565b91505092959194509250565b600081519050919050565b600082825260208201905092915050565b6000819050602082019050919050565b613d93816135c2565b82525050565b6000613da58383613d8a565b60208301905092915050565b6000602082019050919050565b6000613dc982613d5e565b613dd38185613d69565b9350613dde83613d7a565b8060005b83811015613e0f578151613df68882613d99565b9750613e0183613db1565b925050600181019050613de2565b5085935050505092915050565b60006020820190508181036000830152613e368184613dbe565b905092915050565b60008060008060808587031215613e5857613e5761362f565b5b6000613e6687828801613650565b9450506020613e778782880161367c565b9350506040613e888782880161367c565b9250506060613e998782880161367c565b91505092959194509250565b600067ffffffffffffffff82169050919050565b613ec281613ea5565b82525050565b6000602082019050613edd6000830184613eb9565b92915050565b613eec81613ea5565b8114613ef757600080fd5b50565b600081359050613f0981613ee3565b92915050565b600060208284031215613f2557613f2461362f565b5b6000613f3384828501613efa565b91505092915050565b600060ff82169050919050565b613f5281613f3c565b82525050565b6000602082019050613f6d6000830184613f49565b92915050565b600080600080600060a08688031215613f8f57613f8e61362f565b5b6000613f9d88828901613650565b9550506020613fae8882890161367c565b9450506040613fbf8882890161367c565b9350506060613fd08882890161367c565b9250506080613fe18882890161367c565b9150509295509295909350565b613ff781613b84565b811461400257600080fd5b50565b60008151905061401481613fee565b92915050565b6000602082840312156140305761402f61362f565b5b600061403e84828501614005565b91505092915050565b7f4c61206c6f7465726961206e6f20657869737465000000000000000000000000600082015250565b600061407d601483613771565b915061408882614047565b602082019050919050565b600060208201905081810360008301526140ac81614070565b9050919050565b600080fd5b6000815190506140c781613665565b92915050565b6000815190506140dc81613639565b92915050565b6000604082840312156140f8576140f76140b3565b5b6141026040613978565b90506000614112848285016140b8565b6000830152506020614126848285016140cd565b60208301525092915050565b6000604082840312156141485761414761362f565b5b6000614156848285016140e2565b91505092915050565b7f456c207469636b6574206e6f206861207369646f20636f6d707261646f000000600082015250565b6000614195601d83613771565b91506141a08261415f565b602082019050919050565b600060208201905081810360008301526141c481614188565b9050919050565b6000602082840312156141e1576141e061362f565b5b60006141ef848285016140b8565b91505092915050565b7f4f776e61626c653a2063616c6c6572206973206e6f7420746865206f776e6572600082015250565b600061422e602083613771565b9150614239826141f8565b602082019050919050565b6000602082019050818103600083015261425d81614221565b9050919050565b7f4c61206c6f7465726961207961206861207465726d696e61646f000000000000600082015250565b600061429a601a83613771565b91506142a582614264565b602082019050919050565b600060208201905081810360008301526142c98161428d565b9050919050565b6000815190506142df81613b2b565b92915050565b6000602082840312156142fb576142fa61362f565b5b6000614309848285016142d0565b91505092915050565b7f4c6f73206e756d65726f7320616c6561746f72696f732061756e206e6f20736560008201527f2068616e2067656e657261646f00000000000000000000000000000000000000602082015250565b600061436e602d83613771565b915061437982614312565b604082019050919050565b6000602082019050818103600083015261439d81614361565b9050919050565b7f4e487b7100000000000000000000000000000000000000000000000000000000600052601260045260246000fd5b60006143de826135e3565b91506143e9836135e3565b9250826143f9576143f86143a4565b5b828206905092915050565b600080fd5b600067ffffffffffffffff82111561442457614423613918565b5b61442d826137b5565b9050602081019050919050565b600061444d61444884614409565b613978565b90508281526020810184848401111561446957614468614404565b5b614474848285613782565b509392505050565b600082601f83011261449157614490613913565b5b81516144a184826020860161443a565b91505092915050565b600067ffffffffffffffff8211156144c5576144c4613918565b5b602082029050919050565b60006144e36144de846144aa565b613978565b905080602084028301858111156144fd576144fc6139bf565b5b835b81811015614526578061451288826140b8565b8452602084019350506020810190506144ff565b5050509392505050565b600082601f83011261454557614544613913565b5b60036145528482856144d0565b91505092915050565b60008060008060008061010087890312156145795761457861362f565b5b600087015167ffffffffffffffff81111561459757614596613634565b5b6145a389828a0161447c565b96505060206145b489828a016140cd565b95505060406145c589828a016140b8565b94505060606145d689828a016140b8565b93505060806145e789828a016140b8565b92505060a06145f889828a01614530565b9150509295509295509295565b600060408201905061461a60008301856135d4565b61462760208301846135d4565b9392505050565b7f4e487b7100000000000000000000000000000000000000000000000000000000600052603260045260246000fd5b7f4e487b7100000000000000000000000000000000000000000000000000000000600052601160045260246000fd5b6000614697826135e3565b91506146a2836135e3565b9250817fffffffffffffffffffffffffffffffffffffffffffffffffffffffffffffffff04831182151516156146db576146da61465d565b5b828202905092915050565b60006146f1826135e3565b91506146fc836135e3565b92508261470c5761470b6143a4565b5b828204905092915050565b7f44656265206861626572206d696e696d6f203320626f6c65746f7320636f6d7060008201527f7261646f73000000000000000000000000000000000000000000000000000000602082015250565b6000614773602583613771565b915061477e82614717565b604082019050919050565b600060208201905081810360008301526147a281614766565b9050919050565b7f5468652063616c6c6572206973206e6f7420746865206f776e65720000000000600082015250565b60006147df601b83613771565b91506147ea826147a9565b602082019050919050565b6000602082019050818103600083015261480e816147d2565b9050919050565b6000819050919050565b600061ffff82169050919050565b600061484861484361483e84614815565b613548565b61481f565b9050919050565b6148588161482d565b82525050565b6000819050919050565b600061488361487e6148798461485e565b613548565b61372c565b9050919050565b61489381614868565b82525050565b60006148b46148af6148aa84614815565b613548565b61372c565b9050919050565b6148c481614899565b82525050565b600060a0820190506148df6000830188613b01565b6148ec6020830187613eb9565b6148f9604083018661484f565b614906606083018561488a565b61491360808301846148bb565b9695505050505050565b60006149288261372c565b915063ffffffff820361493e5761493d61465d565b5b600182019050919050565b600069ffffffffffffffffffff82169050919050565b61496881614949565b811461497357600080fd5b50565b6000815190506149858161495f565b92915050565b6000819050919050565b61499e8161498b565b81146149a957600080fd5b50565b6000815190506149bb81614995565b92915050565b600080600080600060a086880312156149dd576149dc61362f565b5b60006149eb88828901614976565b95505060206149fc888289016149ac565b9450506040614a0d888289016140b8565b9350506060614a1e888289016140b8565b9250506080614a2f88828901614976565b9150509295509295909350565b7f4e6f207469656e657320737566696369656e746573207061727469636970616360008201527f696f6e65732064652065737465207469636b6574000000000000000000000000602082015250565b6000614a98603483613771565b9150614aa382614a3c565b604082019050919050565b60006020820190508181036000830152614ac781614a8b565b9050919050565b6000606082019050614ae360008301866135d4565b614af060208301856135d4565b614afd60408301846135ed565b949350505050565b600067ffffffffffffffff821115614b2057614b1f613918565b5b602082029050602081019050919050565b6000614b44614b3f84614b05565b613978565b90508083825260208201905060208402830185811115614b6757614b666139bf565b5b835b81811015614b905780614b7c88826140cd565b845260208401935050602081019050614b69565b5050509392505050565b600082601f830112614baf57614bae613913565b5b8151614bbf848260208601614b31565b91505092915050565b600060208284031215614bde57614bdd61362f565b5b600082015167ffffffffffffffff811115614bfc57614bfb613634565b5b614c0884828501614b9a565b91505092915050565b7f4c61206c6f74657269612061756e206e6f206861207465726d696e61646f0000600082015250565b6000614c47601e83613771565b9150614c5282614c11565b602082019050919050565b60006020820190508181036000830152614c7681614c3a565b9050919050565b7f45737465207469636b6574206e6f207469656e65207072656d696f0000000000600082015250565b6000614cb3601b83613771565b9150614cbe82614c7d565b602082019050919050565b60006020820190508181036000830152614ce281614ca6565b9050919050565b7f4e6f207469656e652070617274696369706163696f6e6573206465206573746560008201527f207469636b657400000000000000000000000000000000000000000000000000602082015250565b6000614d45602783613771565b9150614d5082614ce9565b604082019050919050565b60006020820190508181036000830152614d7481614d38565b9050919050565b6000604082019050614d9060008301856135ed565b614d9d60208301846135d4565b9392505050565b6000614daf826135e3565b9150614dba836135e3565b9250827fffffffffffffffffffffffffffffffffffffffffffffffffffffffffffffffff03821115614def57614dee61465d565b5b828201905092915050565b7f4e6f207469656e6573207065726d69736f207061726120636f6d70726172207060008201527f617274696369706163696f6e6573000000000000000000000000000000000000602082015250565b6000614e56602e83613771565b9150614e6182614dfa565b604082019050919050565b60006020820190508181036000830152614e8581614e49565b9050919050565b7f4e6563657369746173206d617320455448207061726120636f6d70726172206c60008201527f61732070617274696369706163696f6e65730000000000000000000000000000602082015250565b6000614ee8603283613771565b9150614ef382614e8c565b604082019050919050565b60006020820190508181036000830152614f1781614edb565b9050919050565b6000608082019050614f3360008301876135d4565b614f4060208301866135d4565b614f4d60408301856135ed565b614f5a60608301846135ed565b95945050505050565b614f6c81613f3c565b8114614f7757600080fd5b50565b600081519050614f8981614f63565b92915050565b600060208284031215614fa557614fa461362f565b5b6000614fb384828501614f7a565b91505092915050565b7f456c206e756d65726f2c7365726965206f206672616363696f6e206e6f20736f60008201527f6e20636f72726563746f73000000000000000000000000000000000000000000602082015250565b6000615018602b83613771565b915061502382614fbc565b604082019050919050565b600060208201905081810360008301526150478161500b565b9050919050565b7f4e6563657369746173206d617320455448207061726120636f6d70726172207560008201527f6e207469636b6574000000000000000000000000000000000000000000000000602082015250565b60006150aa602883613771565b91506150b58261504e565b604082019050919050565b600060208201905081810360008301526150d98161509d565b9050919050565b60006150eb826135e3565b91506150f6836135e3565b9250828210156151095761510861465d565b5b828203905092915050565b600060608201905061512960008301866135d4565b61513660208301856135ed565b61514360408301846135ed565b949350505050565b7f524e47436861696e4c696e6b2f7265717565737449642d696e636f7272656374600082015250565b6000615181602083613771565b915061518c8261514b565b602082019050919050565b600060208201905081810360008301526151b081615174565b9050919050565b600081519050919050565b600082825260208201905092915050565b6000819050602082019050919050565b6000602082019050919050565b60006151fb826151b7565b61520581856151c2565b9350615210836151d3565b8060005b83811015615241578151615228888261382e565b9750615233836151e3565b925050600181019050615214565b5085935050505092915050565b6000602082019050818103600083015261526881846151f0565b905092915050565b7f524e47436861696e4c696e6b2f6b6579486173682d6e6f742d656d7074790000600082015250565b60006152a6601e83613771565b91506152b182615270565b602082019050919050565b600060208201905081810360008301526152d581615299565b9050919050565b7f524e47436861696e4c696e6b2f73756249642d67742d7a65726f000000000000600082015250565b6000615312601a83613771565b915061531d826152dc565b602082019050919050565b6000602082019050818103600083015261534181615305565b905091905056fea264697066735822122056ddaeaa9210d17f845e463f2a1daeba9c2be4e8461f848b8f9af151e1863adc64736f6c634300080f0033608060405234801561001057600080fd5b50336000806101000a81548173ffffffffffffffffffffffffffffffffffffffff021916908373ffffffffffffffffffffffffffffffffffffffff160217905550610485806100606000396000f3fe608060405234801561001057600080fd5b50600436106100415760003560e01c80635c392b3b14610046578063bcc82ec414610076578063f298083b14610094575b600080fd5b610060600480360381019061005b919061030c565b6100b0565b60405161006d9190610354565b60405180910390f35b61007e610106565b60405161008b919061042d565b60405180910390f35b6100ae60048036038101906100a9919061030c565b610194565b005b6000600160008373ffffffffffffffffffffffffffffffffffffffff1673ffffffffffffffffffffffffffffffffffffffff16815260200190815260200160002060009054906101000a900460ff169050919050565b6060600280548060200260200160405190810160405280929190818152602001828054801561018a57602002820191906000526020600020905b8160009054906101000a900473ffffffffffffffffffffffffffffffffffffffff1673ffffffffffffffffffffffffffffffffffffffff1681526020019060010190808311610140575b5050505050905090565b60008054906101000a900473ffffffffffffffffffffffffffffffffffffffff1673ffffffffffffffffffffffffffffffffffffffff163373ffffffffffffffffffffffffffffffffffffffff16146101ec57600080fd5b60018060008373ffffffffffffffffffffffffffffffffffffffff1673ffffffffffffffffffffffffffffffffffffffff16815260200190815260200160002060006101000a81548160ff0219169083151502179055506002819080600181540180825580915050600190039060005260206000200160009091909190916101000a81548173ffffffffffffffffffffffffffffffffffffffff021916908373ffffffffffffffffffffffffffffffffffffffff16021790555050565b600080fd5b600073ffffffffffffffffffffffffffffffffffffffff82169050919050565b60006102d9826102ae565b9050919050565b6102e9816102ce565b81146102f457600080fd5b50565b600081359050610306816102e0565b92915050565b600060208284031215610322576103216102a9565b5b6000610330848285016102f7565b91505092915050565b60008115159050919050565b61034e81610339565b82525050565b60006020820190506103696000830184610345565b92915050565b600081519050919050565b600082825260208201905092915050565b6000819050602082019050919050565b6103a4816102ce565b82525050565b60006103b6838361039b565b60208301905092915050565b6000602082019050919050565b60006103da8261036f565b6103e4818561037a565b93506103ef8361038b565b8060005b8381101561042057815161040788826103aa565b9750610412836103c2565b9250506001810190506103f3565b5085935050505092915050565b6000602082019050818103600083015261044781846103cf565b90509291505056fea264697066735822122085e0cf8945e451e4d57ba295cb45ade61c11c14e5c30c09adda4e3b93013edab64736f6c634300080f0033",
  "immutableReferences": {
    "10": [
      {
        "length": 32,
        "start": 3862
      },
      {
        "length": 32,
        "start": 3946
      }
    ]
  },
  "source": "// SPDX-License-Identifier: MIT\r\npragma solidity ^0.8.4;\r\n\r\nimport \"./LotteryStorage.sol\";\r\nimport \"./Lottery.sol\";\r\nimport \"./Shares.sol\";\r\nimport \"./PriceConsumer.sol\";\r\nimport \"./RNGChainlinkV2.sol\";\r\n\r\ncontract LotteryService is RNGChainlinkV2, PriceConsumerV3 {\r\n    LotteryStorage lotteryStorage;\r\n\r\n    address private _owner;\r\n\r\n    constructor(uint64 subscriptionId) RNGChainlinkV2(subscriptionId) {\r\n        _owner = msg.sender;\r\n        lotteryStorage = new LotteryStorage();\r\n    }\r\n\r\n    modifier onlyOwner() {\r\n        require(_owner == msg.sender, \"Ownable: caller is not the owner\");\r\n        _;\r\n    }\r\n\r\n    modifier lotteryExists(address addressLottery) {\r\n        require(\r\n            lotteryStorage.lotteryExists(addressLottery),\r\n            \"La loteria no existe\"\r\n        );\r\n        _;\r\n    }\r\n\r\n    function checkNumBoleto(\r\n        uint256 numTicket,\r\n        uint256 numSerie,\r\n        uint256 numFraccion,\r\n        uint256 totalNumbers,\r\n        uint256 totalSeries\r\n    ) internal pure returns (bool) {\r\n        return\r\n            (numTicket >= 0) &&\r\n            (numTicket < totalNumbers) &&\r\n            (numSerie >= 0) &&\r\n            (numSerie < totalSeries) &&\r\n            (numFraccion >= 0) &&\r\n            (numFraccion < 10);\r\n    }\r\n\r\n    function getCostEth(uint256 ticketCost) public view returns (uint256) {\r\n       return ((ticketCost * 10**26) / getLatestPrice());\r\n    }\r\n\r\n    function addLottery(address _lotteryContract) public onlyOwner {\r\n        lotteryStorage.setLottery(_lotteryContract);\r\n        emit lotteryAdded(_lotteryContract);\r\n    }\r\n\r\n    function withdraw() public onlyOwner {\r\n        payable(_owner).transfer(address(this).balance);\r\n    }\r\n\r\n    function generateWinners(address _lotteryId)\r\n        public\r\n        onlyOwner\r\n        lotteryExists(_lotteryId)\r\n        returns (uint256)\r\n    {\r\n        Lottery ticket = Lottery(_lotteryId);\r\n        require(!ticket.isLotteryFinished(), \"La loteria ya ha terminado\");\r\n        require(ticket.getTotalPurchasedTickets()>2,\"Debe haber minimo 3 boletos comprados\");\r\n        (uint32 requestId, ) = requestRandomNumber();\r\n        ticket.setRequestId(requestId);\r\n        ticket.setLotteryFinished();\r\n        return requestId;\r\n    }\r\n\r\n    function setWinningTickets(address _lotteryId) public onlyOwner lotteryExists(_lotteryId) {\r\n        Lottery ticket = Lottery(_lotteryId);\r\n        require(ticket.isLotteryFinished(), \"La loteria ya ha terminado\");\r\n        uint32 requestId = ticket.getRequestId();\r\n        require(isRequestComplete(requestId),\"Los numeros aleatorios aun no se han generado\");\r\n        (uint256 randNum1, uint256 randNum2, uint256 randNum3) = randomNumber(requestId);\r\n        uint256 totalPurchasedTickets = ticket.getTotalPurchasedTickets();\r\n        ticket.setWinnerTickets(\r\n            (randNum1 % totalPurchasedTickets),\r\n            (randNum2 % totalPurchasedTickets),\r\n            (randNum3 % totalPurchasedTickets)\r\n        );\r\n    }\r\n\r\n    function getPrize(address _lotteryId, uint256 _tokenId) public lotteryExists(_lotteryId) {\r\n        Lottery ticket = Lottery(_lotteryId);\r\n        require(ticket.isLotteryFinished(), \"La loteria aun no ha terminado\");\r\n        require(ticket.isWinnerTicket(_tokenId), \"Este ticket no tiene premio\");\r\n        uint256 amountShares = getSharesOfBuyer(\r\n            _lotteryId,\r\n            msg.sender,\r\n            _tokenId\r\n        );\r\n        require(amountShares != 0, \"No tiene participaciones de este ticket\");\r\n        uint256 totalSupplyShares = getTotalSupplyShares(_lotteryId, _tokenId);\r\n        ticket.payPrize(\r\n            (amountShares * ticket.getPrizeLottery()) / totalSupplyShares,\r\n            msg.sender\r\n        );\r\n        Shares share = Shares(ticket.getTicketToShare(_tokenId).shares);\r\n        share.burn(msg.sender, amountShares);\r\n        emit prizeReceived(_lotteryId, _tokenId);\r\n    }\r\n\r\n    function buyTicket(\r\n        address _lotteryId,\r\n        uint256 _numTicket,\r\n        uint256 _numSerie,\r\n        uint256 _numFraccion,\r\n        uint256 _totalShares\r\n    ) public payable lotteryExists(_lotteryId) {\r\n        Lottery ticket = Lottery(_lotteryId);\r\n        require(ticket.isLotteryFinished(), \"La loteria ya ha terminado\");\r\n        (,,uint256 totalNumbers,uint256 totalSeries,uint256 ticketCost,) = ticket.infoLottery();\r\n        require(checkNumBoleto(_numTicket,_numSerie,_numFraccion,totalNumbers,totalSeries),\"El numero,serie o fraccion no son correctos\");\r\n        uint256 ticketCostEth = getCostEth(ticketCost);\r\n        require(\r\n            msg.value >= ticketCostEth,\r\n            \"Necesitas mas ETH para comprar un ticket\"\r\n        );\r\n        uint256 refund = msg.value - ticketCostEth;\r\n        payable(msg.sender).transfer(refund);\r\n        uint256 tokenId = getTokenId(_lotteryId,_numTicket, _numSerie, _numFraccion);\r\n        ticket.mintBoleto(msg.sender, tokenId, _totalShares);\r\n        emit ticketBought(_lotteryId, tokenId, _totalShares);\r\n    }\r\n\r\n    function allowBuyShares(\r\n        address _lotteryId,\r\n        address _to,\r\n        uint256 _amount,\r\n        uint256 _tokenId\r\n    ) public lotteryExists(_lotteryId) {\r\n        Lottery ticket = Lottery(_lotteryId);\r\n        require(ticket.isLotteryFinished(), \"La loteria ya ha terminado\");\r\n        Shares share = Shares(ticket.getTicketToShare(_tokenId).shares);\r\n\r\n        require(share.balanceOf(msg.sender) >= _amount,\"No tienes suficientes participaciones de este ticket\");\r\n        share.approve(msg.sender, _to, _amount);\r\n    }\r\n\r\n    function buyShares(\r\n        address _lotteryId,\r\n        address _from,\r\n        uint256 _tokenId\r\n    ) public payable lotteryExists(_lotteryId) {\r\n        Lottery ticket = Lottery(_lotteryId);\r\n        require(ticket.isLotteryFinished(), \"La loteria ya ha terminado\");\r\n        Shares share = Shares(ticket.getTicketToShare(_tokenId).shares);\r\n        (, , , , uint256 ticketCost, ) = Lottery(_lotteryId).infoLottery();\r\n        uint256 amount = share.allowance(_from, msg.sender);\r\n        require(0 < amount, \"No tienes permiso para comprar participaciones\");\r\n        uint256 costOfShares = ((amount * getCostEth(ticketCost)) /\r\n            share.totalSupply());\r\n        require(\r\n            msg.value >= costOfShares,\r\n            \"Necesitas mas ETH para comprar las participaciones\"\r\n        );\r\n        payable(_from).transfer(costOfShares);\r\n        share.transferFrom(_from, msg.sender, amount);\r\n        emit sharesBought(_lotteryId,_from, _tokenId, amount);\r\n    }\r\n\r\n    function getSharesOfBuyer(\r\n        address _lotteryId,\r\n        address _to,\r\n        uint256 _tokenId\r\n    ) public view lotteryExists(_lotteryId) returns (uint256) {\r\n        address addressShare = Lottery(_lotteryId)\r\n            .getTicketToShare(_tokenId)\r\n            .shares;\r\n        require(addressShare != address(0), \"El ticket no ha sido comprado\");\r\n        return Shares(addressShare).balanceOf(_to);\r\n    }\r\n\r\n    function getTotalSupplyShares(address _lotteryId, uint256 _tokenId)\r\n        public\r\n        view\r\n        lotteryExists(_lotteryId)\r\n        returns (uint256)\r\n    {\r\n        address addressShare = Lottery(_lotteryId)\r\n            .getTicketToShare(_tokenId)\r\n            .shares;\r\n        require(addressShare != address(0), \"El ticket no ha sido comprado\");\r\n        return Shares(addressShare).totalSupply();\r\n    }\r\n\r\n    function getLotteries() public view returns (address[] memory) {\r\n        return lotteryStorage.getLotteries();\r\n    }\r\n\r\n    function getLottery(address _lotteryId)\r\n        public\r\n        view\r\n        lotteryExists(_lotteryId)\r\n        returns (\r\n            string memory,\r\n            address,\r\n            uint256,\r\n            uint256,\r\n            uint256,\r\n            uint256[3] memory\r\n        )\r\n    {\r\n        return (Lottery(_lotteryId).infoLottery());\r\n    }\r\n\r\n    function getTokenId(\r\n        address _lotteryId,\r\n        uint256 _numTicket,\r\n        uint256 _numSerie,\r\n        uint256 _numFraccion\r\n    ) public view lotteryExists(_lotteryId) returns (uint256) {\r\n        Lottery ticket = Lottery(_lotteryId);\r\n        (, , , uint256 totalSeries, , ) = ticket\r\n            .infoLottery();\r\n        return (_numTicket * (totalSeries * 10)) + (_numSerie * 10) + _numFraccion;\r\n    }\r\n\r\n    function owner() public view returns (address) {\r\n        return _owner;\r\n    }\r\n\r\n    event lotteryAdded(address _lotteryContract);\r\n    event ticketBought(\r\n        address _lotteryId,\r\n        uint256 tokenId,\r\n        uint256 _totalShares\r\n    );\r\n    event prizeReceived(address _lotteryId, uint256 _tokenId);\r\n    event ticketAllowedToBuy(\r\n        address _lotteryId,\r\n        address _to,\r\n        uint256 _tokenId,\r\n        uint256 _amount\r\n    );\r\n    event sharesBought(\r\n        address _lotteryId,\r\n        address _from,\r\n        uint256 _tokenId,\r\n        uint256 _amount\r\n    );\r\n}\r\n",
  "sourcePath": "/mnt/d/pardo/Desktop/Treballs/TFG/TFG/tfg/src/contracts/LotteryService.sol",
  "compiler": {
    "name": "solc",
    "version": "0.8.15+commit.e14f2714.Emscripten.clang"
  },
  "schemaVersion": "3.4.7",
  "updatedAt": "2022-11-11T01:33:34.593Z",
  "devdoc": {
    "kind": "dev",
    "methods": {
      "getKeyHash()": {
        "returns": {
          "_0": "bytes32 Chainlink VRF keyHash"
        }
      },
      "getLastRequestId()": {
        "returns": {
          "requestId": "The last request id used in the last request"
        }
      },
      "getRequestFee()": {
        "returns": {
          "feeToken": "The address of the token that is used to pay fees",
          "requestFee": "The fee required to be paid to make a request"
        }
      },
      "getSubscriptionId()": {
        "returns": {
          "_0": "uint64 Chainlink VRF subscription id"
        }
      },
      "getVrfCoordinator()": {
        "returns": {
          "_0": "address Chainlink VRF coordinator address"
        }
      },
      "isRequestComplete(uint32)": {
        "details": "For time-delayed requests, this function is used to check/confirm completion",
        "params": {
          "requestId": "The ID of the request used to get the results of the RNG service"
        },
        "returns": {
          "isCompleted": "True if the request has completed and a random number is available, false otherwise"
        }
      },
      "requestRandomNumber()": {
        "details": "Some services will complete the request immediately, others may have a time-delaySome services require payment in the form of a token, such as $LINK for Chainlink VRF",
        "returns": {
          "lockBlock": "The block number at which the RNG service will start generating time-delayed randomness. The calling contract should \"lock\" all activity until the result is available via the `requestId`",
          "requestId": "The ID of the request used to get the results of the RNG service"
        }
      },
      "setKeyhash(bytes32)": {
        "details": "This function is only callable by the owner.",
        "params": {
          "keyHash": "Chainlink VRF keyHash"
        }
      },
      "setSubscriptionId(uint64)": {
        "details": "This function is only callable by the owner.",
        "params": {
          "subscriptionId": "Chainlink VRF subscription id"
        }
      }
    },
    "version": 1
  },
  "userdoc": {
    "events": {
      "KeyHashSet(bytes32)": {
        "notice": "Emitted when the Chainlink VRF keyHash is set"
      },
      "RandomNumberCompleted(uint32,uint256[])": {
        "notice": "Emitted when an existing request for a random number has been completed"
      },
      "RandomNumberRequested(uint32,address)": {
        "notice": "Emitted when a new request for a random number has been submitted"
      },
      "SubscriptionIdSet(uint64)": {
        "notice": "Emitted when the Chainlink VRF subscription id is set"
      },
      "VrfCoordinatorSet(address)": {
        "notice": "Emitted when the Chainlink VRF Coordinator address is set"
      }
    },
    "kind": "user",
    "methods": {
      "getKeyHash()": {
        "notice": "Get Chainlink VRF keyHash associated with this contract."
      },
      "getLastRequestId()": {
        "notice": "Gets the last request id used by the RNG service"
      },
      "getRequestFee()": {
        "notice": "Gets the Fee for making a Request against an RNG service"
      },
      "getSubscriptionId()": {
        "notice": "Get Chainlink VRF subscription id associated with this contract."
      },
      "getVrfCoordinator()": {
        "notice": "Get Chainlink VRF coordinator contract address associated with this contract."
      },
      "isRequestComplete(uint32)": {
        "notice": "Checks if the request for randomness from the 3rd-party service has completed"
      },
      "requestRandomNumber()": {
        "notice": "Sends a request for a random number to the 3rd-party service"
      },
      "setKeyhash(bytes32)": {
        "notice": "Set Chainlink VRF keyHash."
      },
      "setSubscriptionId(uint64)": {
        "notice": "Set Chainlink VRF subscription id associated with this contract."
      }
    },
    "version": 1
  }
}