{
  "contractName": "PriceConsumerV3",
  "abi": [
    {
      "inputs": [],
      "stateMutability": "nonpayable",
      "type": "constructor"
    },
    {
      "inputs": [],
      "name": "priceFeed",
      "outputs": [
        {
          "internalType": "contract AggregatorV3Interface",
          "name": "",
          "type": "address"
        }
      ],
      "stateMutability": "view",
      "type": "function"
    },
    {
      "inputs": [],
      "name": "getLatestPrice",
      "outputs": [
        {
          "internalType": "uint256",
          "name": "",
          "type": "uint256"
        }
      ],
      "stateMutability": "view",
      "type": "function"
    },
    {
      "inputs": [],
      "name": "getDecimals",
      "outputs": [
        {
          "internalType": "uint8",
          "name": "",
          "type": "uint8"
        }
      ],
      "stateMutability": "view",
      "type": "function"
    }
  ],
  "bytecode": "0x608060405234801561001057600080fd5b5073d4a33860578de61dbabdc8bfdb98fd742fa7028e6000806101000a81548173ffffffffffffffffffffffffffffffffffffffff021916908373ffffffffffffffffffffffffffffffffffffffff1602179055506104b2806100746000396000f3fe608060405234801561001057600080fd5b50600436106100415760003560e01c8063741bef1a146100465780638e15f47314610064578063f0141d8414610082575b600080fd5b61004e6100a0565b60405161005b9190610279565b60405180910390f35b61006c6100c4565b60405161007991906102ad565b60405180910390f35b61008a610163565b60405161009791906102e4565b60405180910390f35b60008054906101000a900473ffffffffffffffffffffffffffffffffffffffff1681565b60008060008054906101000a900473ffffffffffffffffffffffffffffffffffffffff1673ffffffffffffffffffffffffffffffffffffffff1663feaf968c6040518163ffffffff1660e01b815260040160a060405180830381865afa158015610132573d6000803e3d6000fd5b505050506040513d601f19601f8201168201806040525081019061015691906103a8565b5050509150508091505090565b60008060009054906101000a900473ffffffffffffffffffffffffffffffffffffffff1673ffffffffffffffffffffffffffffffffffffffff1663313ce5676040518163ffffffff1660e01b8152600401602060405180830381865afa1580156101d1573d6000803e3d6000fd5b505050506040513d601f19601f820116820180604052508101906101f5919061044f565b905090565b600073ffffffffffffffffffffffffffffffffffffffff82169050919050565b6000819050919050565b600061023f61023a610235846101fa565b61021a565b6101fa565b9050919050565b600061025182610224565b9050919050565b600061026382610246565b9050919050565b61027381610258565b82525050565b600060208201905061028e600083018461026a565b92915050565b6000819050919050565b6102a781610294565b82525050565b60006020820190506102c2600083018461029e565b92915050565b600060ff82169050919050565b6102de816102c8565b82525050565b60006020820190506102f960008301846102d5565b92915050565b600080fd5b600069ffffffffffffffffffff82169050919050565b61032381610304565b811461032e57600080fd5b50565b6000815190506103408161031a565b92915050565b6000819050919050565b61035981610346565b811461036457600080fd5b50565b60008151905061037681610350565b92915050565b61038581610294565b811461039057600080fd5b50565b6000815190506103a28161037c565b92915050565b600080600080600060a086880312156103c4576103c36102ff565b5b60006103d288828901610331565b95505060206103e388828901610367565b94505060406103f488828901610393565b935050606061040588828901610393565b925050608061041688828901610331565b9150509295509295909350565b61042c816102c8565b811461043757600080fd5b50565b60008151905061044981610423565b92915050565b600060208284031215610465576104646102ff565b5b60006104738482850161043a565b9150509291505056fea264697066735822122071fce830edab21a356ec15e48b9dead7107d4ca11a8850b5616ecc84a0f8e13c64736f6c634300080f0033",
  "immutableReferences": {},
  "source": "// SPDX-License-Identifier: MIT\npragma solidity ^0.8.4;\nimport \"@chainlink/contracts/src/v0.8/interfaces/AggregatorV3Interface.sol\";\n\n//Contrato para obtener el precio de ethereum\ncontract PriceConsumerV3 {\n    AggregatorV3Interface public priceFeed;\n\n    constructor() {\n        priceFeed = AggregatorV3Interface(\n            0xD4a33860578De61DBAbDc8BFdb98FD742fA7028e\n        );\n    }\n\n    function getLatestPrice() public view returns (uint256) {\n        (, int256 price, , , ) = priceFeed.latestRoundData();\n        return uint256(price);\n    }\n\n    function getDecimals() public view returns (uint8) {\n        return priceFeed.decimals();\n    }\n}\n\n/**************\n- Diferentes boletos ganadores. Dividir el premio en 3 boletos ganadores con premios distintos\n */\n",
  "sourcePath": "/mnt/d/pardo/Desktop/Treballs/TFG/TFG/src/contracts/PriceConsumer.sol",
  "compiler": {
    "name": "solc",
    "version": "0.8.15+commit.e14f2714.Emscripten.clang"
  },
  "schemaVersion": "3.4.7",
  "updatedAt": "2022-11-11T12:28:26.481Z",
  "devdoc": {
    "kind": "dev",
    "methods": {},
    "version": 1
  },
  "userdoc": {
    "kind": "user",
    "methods": {},
    "version": 1
  }
}