{
  "contractName": "RNGChainlinkV2",
  "abi": [
    {
      "inputs": [
        {
          "internalType": "uint64",
          "name": "_subscriptionId",
          "type": "uint64"
        }
      ],
      "stateMutability": "nonpayable",
      "type": "constructor"
    },
    {
      "inputs": [
        {
          "internalType": "address",
          "name": "have",
          "type": "address"
        },
        {
          "internalType": "address",
          "name": "want",
          "type": "address"
        }
      ],
      "name": "OnlyCoordinatorCanFulfill",
      "type": "error"
    },
    {
      "anonymous": false,
      "inputs": [
        {
          "indexed": false,
          "internalType": "bytes32",
          "name": "keyHash",
          "type": "bytes32"
        }
      ],
      "name": "KeyHashSet",
      "type": "event"
    },
    {
      "anonymous": false,
      "inputs": [
        {
          "indexed": true,
          "internalType": "uint32",
          "name": "requestId",
          "type": "uint32"
        },
        {
          "indexed": false,
          "internalType": "uint256[]",
          "name": "randomNumber",
          "type": "uint256[]"
        }
      ],
      "name": "RandomNumberCompleted",
      "type": "event"
    },
    {
      "anonymous": false,
      "inputs": [
        {
          "indexed": true,
          "internalType": "uint32",
          "name": "requestId",
          "type": "uint32"
        },
        {
          "indexed": true,
          "internalType": "address",
          "name": "sender",
          "type": "address"
        }
      ],
      "name": "RandomNumberRequested",
      "type": "event"
    },
    {
      "anonymous": false,
      "inputs": [
        {
          "indexed": false,
          "internalType": "uint64",
          "name": "subscriptionId",
          "type": "uint64"
        }
      ],
      "name": "SubscriptionIdSet",
      "type": "event"
    },
    {
      "anonymous": false,
      "inputs": [
        {
          "indexed": true,
          "internalType": "contract VRFCoordinatorV2Interface",
          "name": "vrfCoordinator",
          "type": "address"
        }
      ],
      "name": "VrfCoordinatorSet",
      "type": "event"
    },
    {
      "inputs": [
        {
          "internalType": "uint256",
          "name": "requestId",
          "type": "uint256"
        },
        {
          "internalType": "uint256[]",
          "name": "randomWords",
          "type": "uint256[]"
        }
      ],
      "name": "rawFulfillRandomWords",
      "outputs": [],
      "stateMutability": "nonpayable",
      "type": "function"
    },
    {
      "inputs": [],
      "name": "requestRandomNumber",
      "outputs": [
        {
          "internalType": "uint32",
          "name": "requestId",
          "type": "uint32"
        },
        {
          "internalType": "uint32",
          "name": "lockBlock",
          "type": "uint32"
        }
      ],
      "stateMutability": "nonpayable",
      "type": "function"
    },
    {
      "inputs": [
        {
          "internalType": "uint32",
          "name": "_internalRequestId",
          "type": "uint32"
        }
      ],
      "name": "isRequestComplete",
      "outputs": [
        {
          "internalType": "bool",
          "name": "isCompleted",
          "type": "bool"
        }
      ],
      "stateMutability": "view",
      "type": "function"
    },
    {
      "inputs": [
        {
          "internalType": "uint32",
          "name": "_internalRequestId",
          "type": "uint32"
        }
      ],
      "name": "randomNumber",
      "outputs": [
        {
          "internalType": "uint256",
          "name": "randomNum1",
          "type": "uint256"
        },
        {
          "internalType": "uint256",
          "name": "randomNum2",
          "type": "uint256"
        },
        {
          "internalType": "uint256",
          "name": "randNum3",
          "type": "uint256"
        }
      ],
      "stateMutability": "view",
      "type": "function"
    },
    {
      "inputs": [],
      "name": "getLastRequestId",
      "outputs": [
        {
          "internalType": "uint32",
          "name": "requestId",
          "type": "uint32"
        }
      ],
      "stateMutability": "view",
      "type": "function"
    },
    {
      "inputs": [],
      "name": "getRequestFee",
      "outputs": [
        {
          "internalType": "address",
          "name": "feeToken",
          "type": "address"
        },
        {
          "internalType": "uint256",
          "name": "requestFee",
          "type": "uint256"
        }
      ],
      "stateMutability": "pure",
      "type": "function"
    },
    {
      "inputs": [],
      "name": "getKeyHash",
      "outputs": [
        {
          "internalType": "bytes32",
          "name": "",
          "type": "bytes32"
        }
      ],
      "stateMutability": "view",
      "type": "function"
    },
    {
      "inputs": [],
      "name": "getSubscriptionId",
      "outputs": [
        {
          "internalType": "uint64",
          "name": "",
          "type": "uint64"
        }
      ],
      "stateMutability": "view",
      "type": "function"
    },
    {
      "inputs": [],
      "name": "getVrfCoordinator",
      "outputs": [
        {
          "internalType": "contract VRFCoordinatorV2Interface",
          "name": "",
          "type": "address"
        }
      ],
      "stateMutability": "view",
      "type": "function"
    },
    {
      "inputs": [
        {
          "internalType": "uint64",
          "name": "_subscriptionId",
          "type": "uint64"
        }
      ],
      "name": "setSubscriptionId",
      "outputs": [],
      "stateMutability": "nonpayable",
      "type": "function"
    },
    {
      "inputs": [
        {
          "internalType": "bytes32",
          "name": "_keyHash",
          "type": "bytes32"
        }
      ],
      "name": "setKeyhash",
      "outputs": [],
      "stateMutability": "nonpayable",
      "type": "function"
    }
  ],
  "bytecode": "0x60a0604052732ca8e0c643bde4c2e08ab1fa0da3401adad7734d600160006101000a81548173ffffffffffffffffffffffffffffffffffffffff021916908373ffffffffffffffffffffffffffffffffffffffff1602179055507f79d3d8832d904592c0bf9818b621522c988bb8b0c05cdc3b15aea1b6e8db0c1560001b6002553480156200008d57600080fd5b5060405162001afd38038062001afd8339818101604052810190620000b391906200042c565b600160009054906101000a900473ffffffffffffffffffffffffffffffffffffffff168073ffffffffffffffffffffffffffffffffffffffff1660808173ffffffffffffffffffffffffffffffffffffffff16815250505033600660006101000a81548173ffffffffffffffffffffffffffffffffffffffff021916908373ffffffffffffffffffffffffffffffffffffffff1602179055506200017f600160009054906101000a900473ffffffffffffffffffffffffffffffffffffffff16620001aa60201b60201c565b6200019081620002a260201b60201c565b620001a36002546200035760201b60201c565b506200062b565b600073ffffffffffffffffffffffffffffffffffffffff168173ffffffffffffffffffffffffffffffffffffffff16036200021c576040517f08c379a00000000000000000000000000000000000000000000000000000000081526004016200021390620004bf565b60405180910390fd5b806000806101000a81548173ffffffffffffffffffffffffffffffffffffffff021916908373ffffffffffffffffffffffffffffffffffffffff1602179055508073ffffffffffffffffffffffffffffffffffffffff167f4cc41e06d3d0588be9be0e1469ba1934c4bd1cb8f4f70adf2aa31f4b92134b2760405160405180910390a250565b60008167ffffffffffffffff1611620002f2576040517f08c379a0000000000000000000000000000000000000000000000000000000008152600401620002e99062000531565b60405180910390fd5b80600160186101000a81548167ffffffffffffffff021916908367ffffffffffffffff1602179055507f68de96e24c66c14c012b5bd342251abc26a6003eaa438002bfe530f28ca63fed816040516200034c919062000564565b60405180910390a150565b6000801b81036200039f576040517f08c379a00000000000000000000000000000000000000000000000000000000081526004016200039690620005d1565b60405180910390fd5b806002819055507fd013f86c8346660ebf421351882cd1b3c2f91883092df1800264c656b0db0cc681604051620003d791906200060e565b60405180910390a150565b600080fd5b600067ffffffffffffffff82169050919050565b6200040681620003e7565b81146200041257600080fd5b50565b6000815190506200042681620003fb565b92915050565b600060208284031215620004455762000444620003e2565b5b6000620004558482850162000415565b91505092915050565b600082825260208201905092915050565b7f524e47436861696e4c696e6b2f7672662d6e6f742d7a65726f2d616464720000600082015250565b6000620004a7601e836200045e565b9150620004b4826200046f565b602082019050919050565b60006020820190508181036000830152620004da8162000498565b9050919050565b7f524e47436861696e4c696e6b2f73756249642d67742d7a65726f000000000000600082015250565b600062000519601a836200045e565b91506200052682620004e1565b602082019050919050565b600060208201905081810360008301526200054c816200050a565b9050919050565b6200055e81620003e7565b82525050565b60006020820190506200057b600083018462000553565b92915050565b7f524e47436861696e4c696e6b2f6b6579486173682d6e6f742d656d7074790000600082015250565b6000620005b9601e836200045e565b9150620005c68262000581565b602082019050919050565b60006020820190508181036000830152620005ec81620005aa565b9050919050565b6000819050919050565b6200060881620005f3565b82525050565b6000602082019050620006256000830184620005fd565b92915050565b6080516114af6200064e6000396000818161026d01526102c101526114af6000f3fe608060405234801561001057600080fd5b50600436106100a95760003560e01c80633a19b9bc116100715780633a19b9bc146101435780636309b773146101735780638678a7b21461018f5780639d2a5f98146101ae578063de3d9fb7146101e0578063ea7b4f77146101fe576100a9565b80630cb4a29d146100ae5780630d37b537146100cc57806319c2b4c3146100eb5780631fe543e314610109578063331bf12514610125575b600080fd5b6100b661021a565b6040516100c39190610b1b565b60405180910390f35b6100d4610243565b6040516100e2929190610b70565b60405180910390f35b6100f3610251565b6040516101009190610bb8565b60405180910390f35b610123600480360381019061011e9190610d6c565b61026b565b005b61012d61032b565b60405161013a9190610de1565b60405180910390f35b61015d60048036038101906101589190610e28565b610335565b60405161016a9190610e70565b60405180910390f35b61018d60048036038101906101889190610eb7565b61037e565b005b61019761041a565b6040516101a5929190610ee4565b60405180910390f35b6101c860048036038101906101c39190610e28565b610691565b6040516101d793929190610f0d565b60405180910390f35b6101e861075a565b6040516101f59190610f67565b60405180910390f35b61021860048036038101906102139190610fae565b610778565b005b60008060009054906101000a900473ffffffffffffffffffffffffffffffffffffffff16905090565b600080600080915091509091565b6000600160149054906101000a900463ffffffff16905090565b7f000000000000000000000000000000000000000000000000000000000000000073ffffffffffffffffffffffffffffffffffffffff163373ffffffffffffffffffffffffffffffffffffffff161461031d57337f00000000000000000000000000000000000000000000000000000000000000006040517f1cf993f4000000000000000000000000000000000000000000000000000000008152600401610314929190610fdb565b60405180910390fd5b6103278282610814565b5050565b6000600254905090565b600080600360008463ffffffff1663ffffffff16815260200190815260200160002060008154811061036a57610369611004565b5b906000526020600020015414159050919050565b600660009054906101000a900473ffffffffffffffffffffffffffffffffffffffff1673ffffffffffffffffffffffffffffffffffffffff163373ffffffffffffffffffffffffffffffffffffffff161461040e576040517f08c379a000000000000000000000000000000000000000000000000000000000815260040161040590611090565b60405180910390fd5b610417816108fc565b50565b600080600660009054906101000a900473ffffffffffffffffffffffffffffffffffffffff1673ffffffffffffffffffffffffffffffffffffffff163373ffffffffffffffffffffffffffffffffffffffff16146104ad576040517f08c379a00000000000000000000000000000000000000000000000000000000081526004016104a490611090565b60405180910390fd5b60008060009054906101000a900473ffffffffffffffffffffffffffffffffffffffff1673ffffffffffffffffffffffffffffffffffffffff16635d3b1d30600254600160189054906101000a900467ffffffffffffffff166003620f424060036040518663ffffffff1660e01b815260040161052e959493929190611165565b6020604051808303816000875af115801561054d573d6000803e3d6000fd5b505050506040513d601f19601f8201168201806040525081019061057191906111cd565b90506001601481819054906101000a900463ffffffff168092919061059590611229565b91906101000a81548163ffffffff021916908363ffffffff160217905550506000600160149054906101000a900463ffffffff169050809350806005600084815260200190815260200160002060006101000a81548163ffffffff021916908363ffffffff16021790555043925082600460008363ffffffff1663ffffffff16815260200190815260200160002060006101000a81548163ffffffff021916908363ffffffff1602179055503373ffffffffffffffffffffffffffffffffffffffff168163ffffffff167fcf635b20f2defc1e71326dc4f0b616fa676e29a5bae87da19fcaddc550b33f0360405160405180910390a350509091565b6000806000600360008563ffffffff1663ffffffff1681526020019081526020016000206000815481106106c8576106c7611004565b5b9060005260206000200154600360008663ffffffff1663ffffffff16815260200190815260200160002060018154811061070557610704611004565b5b9060005260206000200154600360008763ffffffff1663ffffffff16815260200190815260200160002060028154811061074257610741611004565b5b90600052602060002001549250925092509193909250565b6000600160189054906101000a900467ffffffffffffffff16905090565b600660009054906101000a900473ffffffffffffffffffffffffffffffffffffffff1673ffffffffffffffffffffffffffffffffffffffff163373ffffffffffffffffffffffffffffffffffffffff1614610808576040517f08c379a00000000000000000000000000000000000000000000000000000000081526004016107ff90611090565b60405180910390fd5b61081181610982565b50565b60006005600084815260200190815260200160002060009054906101000a900463ffffffff16905060008163ffffffff1611610885576040517f08c379a000000000000000000000000000000000000000000000000000000000815260040161087c906112a1565b60405180910390fd5b81600360008363ffffffff1663ffffffff16815260200190815260200160002090805190602001906108b8929190610a32565b508063ffffffff167f71efb36ad56b61830958b1e868abc1fef46fa9ce08328d6443da98754859e37e836040516108ef919061137f565b60405180910390a2505050565b6000801b8103610941576040517f08c379a0000000000000000000000000000000000000000000000000000000008152600401610938906113ed565b60405180910390fd5b806002819055507fd013f86c8346660ebf421351882cd1b3c2f91883092df1800264c656b0db0cc6816040516109779190610de1565b60405180910390a150565b60008167ffffffffffffffff16116109cf576040517f08c379a00000000000000000000000000000000000000000000000000000000081526004016109c690611459565b60405180910390fd5b80600160186101000a81548167ffffffffffffffff021916908367ffffffffffffffff1602179055507f68de96e24c66c14c012b5bd342251abc26a6003eaa438002bfe530f28ca63fed81604051610a279190610f67565b60405180910390a150565b828054828255906000526020600020908101928215610a6e579160200282015b82811115610a6d578251825591602001919060010190610a52565b5b509050610a7b9190610a7f565b5090565b5b80821115610a98576000816000905550600101610a80565b5090565b600073ffffffffffffffffffffffffffffffffffffffff82169050919050565b6000819050919050565b6000610ae1610adc610ad784610a9c565b610abc565b610a9c565b9050919050565b6000610af382610ac6565b9050919050565b6000610b0582610ae8565b9050919050565b610b1581610afa565b82525050565b6000602082019050610b306000830184610b0c565b92915050565b6000610b4182610a9c565b9050919050565b610b5181610b36565b82525050565b6000819050919050565b610b6a81610b57565b82525050565b6000604082019050610b856000830185610b48565b610b926020830184610b61565b9392505050565b600063ffffffff82169050919050565b610bb281610b99565b82525050565b6000602082019050610bcd6000830184610ba9565b92915050565b6000604051905090565b600080fd5b600080fd5b610bf081610b57565b8114610bfb57600080fd5b50565b600081359050610c0d81610be7565b92915050565b600080fd5b6000601f19601f8301169050919050565b7f4e487b7100000000000000000000000000000000000000000000000000000000600052604160045260246000fd5b610c6182610c18565b810181811067ffffffffffffffff82111715610c8057610c7f610c29565b5b80604052505050565b6000610c93610bd3565b9050610c9f8282610c58565b919050565b600067ffffffffffffffff821115610cbf57610cbe610c29565b5b602082029050602081019050919050565b600080fd5b6000610ce8610ce384610ca4565b610c89565b90508083825260208201905060208402830185811115610d0b57610d0a610cd0565b5b835b81811015610d345780610d208882610bfe565b845260208401935050602081019050610d0d565b5050509392505050565b600082601f830112610d5357610d52610c13565b5b8135610d63848260208601610cd5565b91505092915050565b60008060408385031215610d8357610d82610bdd565b5b6000610d9185828601610bfe565b925050602083013567ffffffffffffffff811115610db257610db1610be2565b5b610dbe85828601610d3e565b9150509250929050565b6000819050919050565b610ddb81610dc8565b82525050565b6000602082019050610df66000830184610dd2565b92915050565b610e0581610b99565b8114610e1057600080fd5b50565b600081359050610e2281610dfc565b92915050565b600060208284031215610e3e57610e3d610bdd565b5b6000610e4c84828501610e13565b91505092915050565b60008115159050919050565b610e6a81610e55565b82525050565b6000602082019050610e856000830184610e61565b92915050565b610e9481610dc8565b8114610e9f57600080fd5b50565b600081359050610eb181610e8b565b92915050565b600060208284031215610ecd57610ecc610bdd565b5b6000610edb84828501610ea2565b91505092915050565b6000604082019050610ef96000830185610ba9565b610f066020830184610ba9565b9392505050565b6000606082019050610f226000830186610b61565b610f2f6020830185610b61565b610f3c6040830184610b61565b949350505050565b600067ffffffffffffffff82169050919050565b610f6181610f44565b82525050565b6000602082019050610f7c6000830184610f58565b92915050565b610f8b81610f44565b8114610f9657600080fd5b50565b600081359050610fa881610f82565b92915050565b600060208284031215610fc457610fc3610bdd565b5b6000610fd284828501610f99565b91505092915050565b6000604082019050610ff06000830185610b48565b610ffd6020830184610b48565b9392505050565b7f4e487b7100000000000000000000000000000000000000000000000000000000600052603260045260246000fd5b600082825260208201905092915050565b7f5468652063616c6c6572206973206e6f7420746865206f776e65720000000000600082015250565b600061107a601b83611033565b915061108582611044565b602082019050919050565b600060208201905081810360008301526110a98161106d565b9050919050565b6000819050919050565b600061ffff82169050919050565b60006110e36110de6110d9846110b0565b610abc565b6110ba565b9050919050565b6110f3816110c8565b82525050565b6000819050919050565b600061111e611119611114846110f9565b610abc565b610b99565b9050919050565b61112e81611103565b82525050565b600061114f61114a611145846110b0565b610abc565b610b99565b9050919050565b61115f81611134565b82525050565b600060a08201905061117a6000830188610dd2565b6111876020830187610f58565b61119460408301866110ea565b6111a16060830185611125565b6111ae6080830184611156565b9695505050505050565b6000815190506111c781610be7565b92915050565b6000602082840312156111e3576111e2610bdd565b5b60006111f1848285016111b8565b91505092915050565b7f4e487b7100000000000000000000000000000000000000000000000000000000600052601160045260246000fd5b600061123482610b99565b915063ffffffff820361124a576112496111fa565b5b600182019050919050565b7f524e47436861696e4c696e6b2f7265717565737449642d696e636f7272656374600082015250565b600061128b602083611033565b915061129682611255565b602082019050919050565b600060208201905081810360008301526112ba8161127e565b9050919050565b600081519050919050565b600082825260208201905092915050565b6000819050602082019050919050565b6112f681610b57565b82525050565b600061130883836112ed565b60208301905092915050565b6000602082019050919050565b600061132c826112c1565b61133681856112cc565b9350611341836112dd565b8060005b8381101561137257815161135988826112fc565b975061136483611314565b925050600181019050611345565b5085935050505092915050565b600060208201905081810360008301526113998184611321565b905092915050565b7f524e47436861696e4c696e6b2f6b6579486173682d6e6f742d656d7074790000600082015250565b60006113d7601e83611033565b91506113e2826113a1565b602082019050919050565b60006020820190508181036000830152611406816113ca565b9050919050565b7f524e47436861696e4c696e6b2f73756249642d67742d7a65726f000000000000600082015250565b6000611443601a83611033565b915061144e8261140d565b602082019050919050565b6000602082019050818103600083015261147281611436565b905091905056fea26469706673582212204e488789fcea008cecbfdf6c1d1d0198496f2c554343953e8b280dcbd4952e0864736f6c634300080f0033",
  "immutableReferences": {
    "10": [
      {
        "length": 32,
        "start": 621
      },
      {
        "length": 32,
        "start": 705
      }
    ]
  },
  "source": "// SPDX-License-Identifier: GPL-3.0\n\npragma solidity ^0.8.6;\n\nimport \"@chainlink/contracts/src/v0.8/interfaces/VRFCoordinatorV2Interface.sol\";\nimport \"@chainlink/contracts/src/v0.8/VRFConsumerBaseV2.sol\";\n\nimport \"./RNGChainlinkV2Interface.sol\";\n\n/**\n\nSE UTILIZA LA RED DE PRUEBAS GOERLI\n\n */\n\ncontract RNGChainlinkV2 is RNGChainlinkV2Interface, VRFConsumerBaseV2 {\n    /* ============ Global Variables ============ */\n\n    /// @dev Reference to the VRFCoordinatorV2 deployed contract\n    VRFCoordinatorV2Interface internal vrfCoordinator;\n    address vrfCoordinatorAddress = 0x2Ca8E0C643bDe4C2E08ab1fA0da3401AdAD7734D;\n\n    /// @dev A counter for the number of requests made used for request ids\n    uint32 internal requestCounter;\n\n    /// @dev Chainlink VRF subscription id\n    uint64 internal subscriptionId;\n\n    /// @dev Hash of the public key used to verify the VRF proof\n    bytes32 internal keyHash =\n        0x79d3d8832d904592c0bf9818b621522c988bb8b0c05cdc3b15aea1b6e8db0c15;\n\n    /// @dev A list of random numbers from past requests mapped by request id\n    mapping(uint32 => uint256[]) internal randomNumbers;\n\n    /// @dev A list of blocks to be locked at based on past requests mapped by request id\n    mapping(uint32 => uint32) internal requestLockBlock;\n\n    /// @dev A mapping from Chainlink request ids to internal request ids\n    mapping(uint256 => uint32) internal chainlinkRequestIds;\n\n    address s_owner;\n\n    /* ============ Events ============ */\n\n    /**\n     * @notice Emitted when the Chainlink VRF keyHash is set\n     * @param keyHash Chainlink VRF keyHash\n     */\n    event KeyHashSet(bytes32 keyHash);\n\n    /**\n     * @notice Emitted when the Chainlink VRF subscription id is set\n     * @param subscriptionId Chainlink VRF subscription id\n     */\n    event SubscriptionIdSet(uint64 subscriptionId);\n\n    /**\n     * @notice Emitted when the Chainlink VRF Coordinator address is set\n     * @param vrfCoordinator Address of the VRF Coordinator\n     */\n    event VrfCoordinatorSet(VRFCoordinatorV2Interface indexed vrfCoordinator);\n\n    /* ============ Constructor ============ */\n\n    /**\n     * @notice Constructor of the contract\n     * @param _subscriptionId Chainlink VRF subscription id\n     */\n    constructor(uint64 _subscriptionId)\n        VRFConsumerBaseV2(vrfCoordinatorAddress)\n    {\n        s_owner = msg.sender;\n        _setVRFCoordinator(VRFCoordinatorV2Interface(vrfCoordinatorAddress));\n        _setSubscriptionId(_subscriptionId);\n        _setKeyhash(keyHash);\n    }\n\n    modifier onlyOwnerRNG() {\n        require(msg.sender == s_owner, \"The caller is not the owner\");\n        _;\n    }\n\n    /* ============ External Functions ============ */\n\n    /// @inheritdoc RNGInterface\n    function requestRandomNumber()\n        public\n        override\n        onlyOwnerRNG\n        returns (uint32 requestId, uint32 lockBlock)\n    {\n        uint256 _vrfRequestId = vrfCoordinator.requestRandomWords(\n            keyHash,\n            subscriptionId,\n            3,\n            1000000,\n            3\n        );\n\n        requestCounter++;\n        uint32 _requestCounter = requestCounter;\n\n        requestId = _requestCounter;\n        chainlinkRequestIds[_vrfRequestId] = _requestCounter;\n\n        lockBlock = uint32(block.number);\n        requestLockBlock[_requestCounter] = lockBlock;\n\n        emit RandomNumberRequested(_requestCounter, msg.sender);\n\n        return (requestId, lockBlock);\n    }\n\n    /// @inheritdoc RNGInterface\n    function isRequestComplete(uint32 _internalRequestId)\n        public\n        view\n        override\n        returns (bool isCompleted)\n    {\n        return randomNumbers[_internalRequestId][0] != 0;\n    }\n\n    /// @inheritdoc RNGInterface\n    function randomNumber(uint32 _internalRequestId)\n        public\n        view\n        override\n        returns (\n            uint256 randomNum1,\n            uint256 randomNum2,\n            uint256 randNum3\n        )\n    {\n        return (\n            randomNumbers[_internalRequestId][0],\n            randomNumbers[_internalRequestId][1],\n            randomNumbers[_internalRequestId][2]\n        );\n    }\n\n    /// @inheritdoc RNGInterface\n    function getLastRequestId()\n        external\n        view\n        override\n        returns (uint32 requestId)\n    {\n        return requestCounter;\n    }\n\n    /// @inheritdoc RNGInterface\n    function getRequestFee()\n        external\n        pure\n        override\n        returns (address feeToken, uint256 requestFee)\n    {\n        return (address(0), 0);\n    }\n\n    /// @inheritdoc RNGChainlinkV2Interface\n    function getKeyHash() external view override returns (bytes32) {\n        return keyHash;\n    }\n\n    /// @inheritdoc RNGChainlinkV2Interface\n    function getSubscriptionId() external view override returns (uint64) {\n        return subscriptionId;\n    }\n\n    /// @inheritdoc RNGChainlinkV2Interface\n    function getVrfCoordinator()\n        external\n        view\n        override\n        returns (VRFCoordinatorV2Interface)\n    {\n        return vrfCoordinator;\n    }\n\n    /// @inheritdoc RNGChainlinkV2Interface\n    function setSubscriptionId(uint64 _subscriptionId)\n        external\n        override\n        onlyOwnerRNG\n    {\n        _setSubscriptionId(_subscriptionId);\n    }\n\n    /// @inheritdoc RNGChainlinkV2Interface\n    function setKeyhash(bytes32 _keyHash) external override onlyOwnerRNG {\n        _setKeyhash(_keyHash);\n    }\n\n    /* ============ Internal Functions ============ */\n\n    /**\n     * @notice Callback function called by VRF Coordinator\n     * @dev The VRF Coordinator will only call it once it has verified the proof associated with the randomness.\n     * @param _vrfRequestId Chainlink VRF request id\n     * @param _randomWords Chainlink VRF array of random words\n     */\n    function fulfillRandomWords(\n        uint256 _vrfRequestId,\n        uint256[] memory _randomWords\n    ) internal override {\n        uint32 _internalRequestId = chainlinkRequestIds[_vrfRequestId];\n        require(_internalRequestId > 0, \"RNGChainLink/requestId-incorrect\");\n\n        randomNumbers[_internalRequestId] = _randomWords;\n\n        emit RandomNumberCompleted(_internalRequestId, _randomWords);\n    }\n\n    /**\n     * @notice Set Chainlink VRF coordinator contract address.\n     * @param _vrfCoordinator Chainlink VRF coordinator contract address\n     */\n    function _setVRFCoordinator(VRFCoordinatorV2Interface _vrfCoordinator)\n        internal\n    {\n        require(\n            address(_vrfCoordinator) != address(0),\n            \"RNGChainLink/vrf-not-zero-addr\"\n        );\n        vrfCoordinator = _vrfCoordinator;\n        emit VrfCoordinatorSet(_vrfCoordinator);\n    }\n\n    /**\n     * @notice Set Chainlink VRF subscription id associated with this contract.\n     * @param _subscriptionId Chainlink VRF subscription id\n     */\n    function _setSubscriptionId(uint64 _subscriptionId) internal {\n        require(_subscriptionId > 0, \"RNGChainLink/subId-gt-zero\");\n        subscriptionId = _subscriptionId;\n        emit SubscriptionIdSet(_subscriptionId);\n    }\n\n    /**\n     * @notice Set Chainlink VRF keyHash.\n     * @param _keyHash Chainlink VRF keyHash\n     */\n    function _setKeyhash(bytes32 _keyHash) internal {\n        require(_keyHash != bytes32(0), \"RNGChainLink/keyHash-not-empty\");\n        keyHash = _keyHash;\n        emit KeyHashSet(_keyHash);\n    }\n}\n",
  "sourcePath": "/mnt/d/pardo/Desktop/Treballs/TFG/TFG/src/contracts/RNGChainlinkV2.sol",
  "compiler": {
    "name": "solc",
    "version": "0.8.15+commit.e14f2714.Emscripten.clang"
  },
  "schemaVersion": "3.4.7",
  "updatedAt": "2022-11-11T12:28:26.487Z",
  "devdoc": {
    "events": {
      "KeyHashSet(bytes32)": {
        "params": {
          "keyHash": "Chainlink VRF keyHash"
        }
      },
      "SubscriptionIdSet(uint64)": {
        "params": {
          "subscriptionId": "Chainlink VRF subscription id"
        }
      },
      "VrfCoordinatorSet(address)": {
        "params": {
          "vrfCoordinator": "Address of the VRF Coordinator"
        }
      }
    },
    "kind": "dev",
    "methods": {
      "constructor": {
        "params": {
          "_subscriptionId": "Chainlink VRF subscription id"
        }
      },
      "getKeyHash()": {
        "returns": {
          "_0": "bytes32 Chainlink VRF keyHash"
        }
      },
      "getLastRequestId()": {
        "returns": {
          "requestId": "The last request id used in the last request"
        }
      },
      "getRequestFee()": {
        "returns": {
          "feeToken": "The address of the token that is used to pay fees",
          "requestFee": "The fee required to be paid to make a request"
        }
      },
      "getSubscriptionId()": {
        "returns": {
          "_0": "uint64 Chainlink VRF subscription id"
        }
      },
      "getVrfCoordinator()": {
        "returns": {
          "_0": "address Chainlink VRF coordinator address"
        }
      },
      "isRequestComplete(uint32)": {
        "details": "For time-delayed requests, this function is used to check/confirm completion",
        "params": {
          "requestId": "The ID of the request used to get the results of the RNG service"
        },
        "returns": {
          "isCompleted": "True if the request has completed and a random number is available, false otherwise"
        }
      },
      "requestRandomNumber()": {
        "details": "Some services will complete the request immediately, others may have a time-delaySome services require payment in the form of a token, such as $LINK for Chainlink VRF",
        "returns": {
          "lockBlock": "The block number at which the RNG service will start generating time-delayed randomness. The calling contract should \"lock\" all activity until the result is available via the `requestId`",
          "requestId": "The ID of the request used to get the results of the RNG service"
        }
      },
      "setKeyhash(bytes32)": {
        "details": "This function is only callable by the owner.",
        "params": {
          "keyHash": "Chainlink VRF keyHash"
        }
      },
      "setSubscriptionId(uint64)": {
        "details": "This function is only callable by the owner.",
        "params": {
          "subscriptionId": "Chainlink VRF subscription id"
        }
      }
    },
    "stateVariables": {
      "chainlinkRequestIds": {
        "details": "A mapping from Chainlink request ids to internal request ids"
      },
      "keyHash": {
        "details": "Hash of the public key used to verify the VRF proof"
      },
      "randomNumbers": {
        "details": "A list of random numbers from past requests mapped by request id"
      },
      "requestCounter": {
        "details": "A counter for the number of requests made used for request ids"
      },
      "requestLockBlock": {
        "details": "A list of blocks to be locked at based on past requests mapped by request id"
      },
      "subscriptionId": {
        "details": "Chainlink VRF subscription id"
      },
      "vrfCoordinator": {
        "details": "Reference to the VRFCoordinatorV2 deployed contract"
      }
    },
    "version": 1
  },
  "userdoc": {
    "events": {
      "KeyHashSet(bytes32)": {
        "notice": "Emitted when the Chainlink VRF keyHash is set"
      },
      "RandomNumberCompleted(uint32,uint256[])": {
        "notice": "Emitted when an existing request for a random number has been completed"
      },
      "RandomNumberRequested(uint32,address)": {
        "notice": "Emitted when a new request for a random number has been submitted"
      },
      "SubscriptionIdSet(uint64)": {
        "notice": "Emitted when the Chainlink VRF subscription id is set"
      },
      "VrfCoordinatorSet(address)": {
        "notice": "Emitted when the Chainlink VRF Coordinator address is set"
      }
    },
    "kind": "user",
    "methods": {
      "constructor": {
        "notice": "Constructor of the contract"
      },
      "getKeyHash()": {
        "notice": "Get Chainlink VRF keyHash associated with this contract."
      },
      "getLastRequestId()": {
        "notice": "Gets the last request id used by the RNG service"
      },
      "getRequestFee()": {
        "notice": "Gets the Fee for making a Request against an RNG service"
      },
      "getSubscriptionId()": {
        "notice": "Get Chainlink VRF subscription id associated with this contract."
      },
      "getVrfCoordinator()": {
        "notice": "Get Chainlink VRF coordinator contract address associated with this contract."
      },
      "isRequestComplete(uint32)": {
        "notice": "Checks if the request for randomness from the 3rd-party service has completed"
      },
      "requestRandomNumber()": {
        "notice": "Sends a request for a random number to the 3rd-party service"
      },
      "setKeyhash(bytes32)": {
        "notice": "Set Chainlink VRF keyHash."
      },
      "setSubscriptionId(uint64)": {
        "notice": "Set Chainlink VRF subscription id associated with this contract."
      }
    },
    "notice": "SE UTILIZA LA RED DE PRUEBAS GOERLI",
    "version": 1
  }
}