{
  "contractName": "Shares",
  "abi": [
    {
      "inputs": [
        {
          "internalType": "address",
          "name": "_to",
          "type": "address"
        },
        {
          "internalType": "uint256",
          "name": "_amount",
          "type": "uint256"
        },
        {
          "internalType": "address",
          "name": "_contractOwner",
          "type": "address"
        }
      ],
      "stateMutability": "nonpayable",
      "type": "constructor"
    },
    {
      "anonymous": false,
      "inputs": [
        {
          "indexed": true,
          "internalType": "address",
          "name": "owner",
          "type": "address"
        },
        {
          "indexed": true,
          "internalType": "address",
          "name": "spender",
          "type": "address"
        },
        {
          "indexed": false,
          "internalType": "uint256",
          "name": "value",
          "type": "uint256"
        }
      ],
      "name": "Approval",
      "type": "event"
    },
    {
      "anonymous": false,
      "inputs": [
        {
          "indexed": true,
          "internalType": "address",
          "name": "from",
          "type": "address"
        },
        {
          "indexed": true,
          "internalType": "address",
          "name": "to",
          "type": "address"
        },
        {
          "indexed": false,
          "internalType": "uint256",
          "name": "value",
          "type": "uint256"
        }
      ],
      "name": "Transfer",
      "type": "event"
    },
    {
      "inputs": [],
      "name": "decimals",
      "outputs": [
        {
          "internalType": "uint8",
          "name": "",
          "type": "uint8"
        }
      ],
      "stateMutability": "view",
      "type": "function"
    },
    {
      "inputs": [],
      "name": "totalSupply",
      "outputs": [
        {
          "internalType": "uint256",
          "name": "",
          "type": "uint256"
        }
      ],
      "stateMutability": "view",
      "type": "function"
    },
    {
      "inputs": [
        {
          "internalType": "address",
          "name": "account",
          "type": "address"
        }
      ],
      "name": "balanceOf",
      "outputs": [
        {
          "internalType": "uint256",
          "name": "",
          "type": "uint256"
        }
      ],
      "stateMutability": "view",
      "type": "function"
    },
    {
      "inputs": [
        {
          "internalType": "address",
          "name": "owner",
          "type": "address"
        },
        {
          "internalType": "address",
          "name": "spender",
          "type": "address"
        },
        {
          "internalType": "uint256",
          "name": "amount",
          "type": "uint256"
        }
      ],
      "name": "approve",
      "outputs": [
        {
          "internalType": "bool",
          "name": "",
          "type": "bool"
        }
      ],
      "stateMutability": "nonpayable",
      "type": "function"
    },
    {
      "inputs": [
        {
          "internalType": "address",
          "name": "owner",
          "type": "address"
        },
        {
          "internalType": "address",
          "name": "spender",
          "type": "address"
        }
      ],
      "name": "allowance",
      "outputs": [
        {
          "internalType": "uint256",
          "name": "",
          "type": "uint256"
        }
      ],
      "stateMutability": "view",
      "type": "function"
    },
    {
      "inputs": [
        {
          "internalType": "address",
          "name": "from",
          "type": "address"
        },
        {
          "internalType": "address",
          "name": "to",
          "type": "address"
        },
        {
          "internalType": "uint256",
          "name": "amount",
          "type": "uint256"
        }
      ],
      "name": "transferFrom",
      "outputs": [
        {
          "internalType": "bool",
          "name": "",
          "type": "bool"
        }
      ],
      "stateMutability": "nonpayable",
      "type": "function"
    },
    {
      "inputs": [
        {
          "internalType": "address",
          "name": "account",
          "type": "address"
        },
        {
          "internalType": "uint256",
          "name": "amount",
          "type": "uint256"
        }
      ],
      "name": "burn",
      "outputs": [],
      "stateMutability": "nonpayable",
      "type": "function"
    }
  ],
  "bytecode": "0x60806040523480156200001157600080fd5b506040516200174038038062001740833981810160405281019062000037919062000288565b80600260006101000a81548173ffffffffffffffffffffffffffffffffffffffff021916908373ffffffffffffffffffffffffffffffffffffffff1602179055506200008a83836200009360201b60201c565b50505062000421565b600073ffffffffffffffffffffffffffffffffffffffff168273ffffffffffffffffffffffffffffffffffffffff160362000105576040517f08c379a0000000000000000000000000000000000000000000000000000000008152600401620000fc9062000345565b60405180910390fd5b806003600082825462000119919062000396565b92505081905550806000808473ffffffffffffffffffffffffffffffffffffffff1673ffffffffffffffffffffffffffffffffffffffff168152602001908152602001600020600082825462000170919062000396565b925050819055508173ffffffffffffffffffffffffffffffffffffffff16600073ffffffffffffffffffffffffffffffffffffffff167fddf252ad1be2c89b69c2b068fc378daa952ba7f163c4a11628f55a4df523b3ef83604051620001d7919062000404565b60405180910390a35050565b600080fd5b600073ffffffffffffffffffffffffffffffffffffffff82169050919050565b60006200021582620001e8565b9050919050565b620002278162000208565b81146200023357600080fd5b50565b60008151905062000247816200021c565b92915050565b6000819050919050565b62000262816200024d565b81146200026e57600080fd5b50565b600081519050620002828162000257565b92915050565b600080600060608486031215620002a457620002a3620001e3565b5b6000620002b48682870162000236565b9350506020620002c78682870162000271565b9250506040620002da8682870162000236565b9150509250925092565b600082825260208201905092915050565b7f45524332303a206d696e7420746f20746865207a65726f206164647265737300600082015250565b60006200032d601f83620002e4565b91506200033a82620002f5565b602082019050919050565b6000602082019050818103600083015262000360816200031e565b9050919050565b7f4e487b7100000000000000000000000000000000000000000000000000000000600052601160045260246000fd5b6000620003a3826200024d565b9150620003b0836200024d565b9250827fffffffffffffffffffffffffffffffffffffffffffffffffffffffffffffffff03821115620003e857620003e762000367565b5b828201905092915050565b620003fe816200024d565b82525050565b60006020820190506200041b6000830184620003f3565b92915050565b61130f80620004316000396000f3fe608060405234801561001057600080fd5b506004361061007d5760003560e01c806370a082311161005b57806370a08231146100ee5780639dc29fac1461011e578063dd62ed3e1461013a578063e1f21c671461016a5761007d565b806318160ddd1461008257806323b872dd146100a0578063313ce567146100d0575b600080fd5b61008a61019a565b6040516100979190610b22565b60405180910390f35b6100ba60048036038101906100b59190610bcc565b6101a4565b6040516100c79190610c3a565b60405180910390f35b6100d861024c565b6040516100e59190610c71565b60405180910390f35b61010860048036038101906101039190610c8c565b610251565b6040516101159190610b22565b60405180910390f35b61013860048036038101906101339190610cb9565b610299565b005b610154600480360381019061014f9190610cf9565b6104d7565b6040516101619190610b22565b60405180910390f35b610184600480360381019061017f9190610bcc565b6105ee565b6040516101919190610c3a565b60405180910390f35b6000600354905090565b6000600260009054906101000a900473ffffffffffffffffffffffffffffffffffffffff1673ffffffffffffffffffffffffffffffffffffffff163373ffffffffffffffffffffffffffffffffffffffff1614610236576040517f08c379a000000000000000000000000000000000000000000000000000000000815260040161022d90610d96565b60405180910390fd5b61024184848461084f565b600190509392505050565b600090565b60008060008373ffffffffffffffffffffffffffffffffffffffff1673ffffffffffffffffffffffffffffffffffffffff168152602001908152602001600020549050919050565b600260009054906101000a900473ffffffffffffffffffffffffffffffffffffffff1673ffffffffffffffffffffffffffffffffffffffff163373ffffffffffffffffffffffffffffffffffffffff1614610329576040517f08c379a000000000000000000000000000000000000000000000000000000000815260040161032090610d96565b60405180910390fd5b600073ffffffffffffffffffffffffffffffffffffffff168273ffffffffffffffffffffffffffffffffffffffff1603610398576040517f08c379a000000000000000000000000000000000000000000000000000000000815260040161038f90610e28565b60405180910390fd5b60008060008473ffffffffffffffffffffffffffffffffffffffff1673ffffffffffffffffffffffffffffffffffffffff1681526020019081526020016000205490508181101561041e576040517f08c379a000000000000000000000000000000000000000000000000000000000815260040161041590610eba565b60405180910390fd5b818161042a9190610f09565b6000808573ffffffffffffffffffffffffffffffffffffffff1673ffffffffffffffffffffffffffffffffffffffff16815260200190815260200160002081905550600073ffffffffffffffffffffffffffffffffffffffff168373ffffffffffffffffffffffffffffffffffffffff167fddf252ad1be2c89b69c2b068fc378daa952ba7f163c4a11628f55a4df523b3ef846040516104ca9190610b22565b60405180910390a3505050565b6000600260009054906101000a900473ffffffffffffffffffffffffffffffffffffffff1673ffffffffffffffffffffffffffffffffffffffff163373ffffffffffffffffffffffffffffffffffffffff1614610569576040517f08c379a000000000000000000000000000000000000000000000000000000000815260040161056090610d96565b60405180910390fd5b600160008473ffffffffffffffffffffffffffffffffffffffff1673ffffffffffffffffffffffffffffffffffffffff16815260200190815260200160002060008373ffffffffffffffffffffffffffffffffffffffff1673ffffffffffffffffffffffffffffffffffffffff16815260200190815260200160002054905092915050565b6000600260009054906101000a900473ffffffffffffffffffffffffffffffffffffffff1673ffffffffffffffffffffffffffffffffffffffff163373ffffffffffffffffffffffffffffffffffffffff1614610680576040517f08c379a000000000000000000000000000000000000000000000000000000000815260040161067790610d96565b60405180910390fd5b600073ffffffffffffffffffffffffffffffffffffffff168473ffffffffffffffffffffffffffffffffffffffff16036106ef576040517f08c379a00000000000000000000000000000000000000000000000000000000081526004016106e690610faf565b60405180910390fd5b600073ffffffffffffffffffffffffffffffffffffffff168373ffffffffffffffffffffffffffffffffffffffff160361075e576040517f08c379a000000000000000000000000000000000000000000000000000000000815260040161075590611041565b60405180910390fd5b81600160008673ffffffffffffffffffffffffffffffffffffffff1673ffffffffffffffffffffffffffffffffffffffff16815260200190815260200160002060008573ffffffffffffffffffffffffffffffffffffffff1673ffffffffffffffffffffffffffffffffffffffff168152602001908152602001600020819055508273ffffffffffffffffffffffffffffffffffffffff168473ffffffffffffffffffffffffffffffffffffffff167f8c5be1e5ebec7d5bd14f71427d1e84f3dd0314c0f7b2291e5b200ac8c7c3b9258460405161083c9190610b22565b60405180910390a3600190509392505050565b600073ffffffffffffffffffffffffffffffffffffffff168373ffffffffffffffffffffffffffffffffffffffff16036108be576040517f08c379a00000000000000000000000000000000000000000000000000000000081526004016108b5906110d3565b60405180910390fd5b600073ffffffffffffffffffffffffffffffffffffffff168273ffffffffffffffffffffffffffffffffffffffff160361092d576040517f08c379a000000000000000000000000000000000000000000000000000000000815260040161092490611165565b60405180910390fd5b600061093984846104d7565b905081811461097d576040517f08c379a0000000000000000000000000000000000000000000000000000000008152600401610974906111d1565b60405180910390fd5b60008060008673ffffffffffffffffffffffffffffffffffffffff1673ffffffffffffffffffffffffffffffffffffffff16815260200190815260200160002054905082811015610a03576040517f08c379a00000000000000000000000000000000000000000000000000000000081526004016109fa90611263565b60405180910390fd5b8281036000808773ffffffffffffffffffffffffffffffffffffffff1673ffffffffffffffffffffffffffffffffffffffff16815260200190815260200160002081905550826000808673ffffffffffffffffffffffffffffffffffffffff1673ffffffffffffffffffffffffffffffffffffffff1681526020019081526020016000206000828254610a969190611283565b925050819055508373ffffffffffffffffffffffffffffffffffffffff168573ffffffffffffffffffffffffffffffffffffffff167fddf252ad1be2c89b69c2b068fc378daa952ba7f163c4a11628f55a4df523b3ef85604051610afa9190610b22565b60405180910390a35050505050565b6000819050919050565b610b1c81610b09565b82525050565b6000602082019050610b376000830184610b13565b92915050565b600080fd5b600073ffffffffffffffffffffffffffffffffffffffff82169050919050565b6000610b6d82610b42565b9050919050565b610b7d81610b62565b8114610b8857600080fd5b50565b600081359050610b9a81610b74565b92915050565b610ba981610b09565b8114610bb457600080fd5b50565b600081359050610bc681610ba0565b92915050565b600080600060608486031215610be557610be4610b3d565b5b6000610bf386828701610b8b565b9350506020610c0486828701610b8b565b9250506040610c1586828701610bb7565b9150509250925092565b60008115159050919050565b610c3481610c1f565b82525050565b6000602082019050610c4f6000830184610c2b565b92915050565b600060ff82169050919050565b610c6b81610c55565b82525050565b6000602082019050610c866000830184610c62565b92915050565b600060208284031215610ca257610ca1610b3d565b5b6000610cb084828501610b8b565b91505092915050565b60008060408385031215610cd057610ccf610b3d565b5b6000610cde85828601610b8b565b9250506020610cef85828601610bb7565b9150509250929050565b60008060408385031215610d1057610d0f610b3d565b5b6000610d1e85828601610b8b565b9250506020610d2f85828601610b8b565b9150509250929050565b600082825260208201905092915050565b7f43616c6c6572206973206e6f7420746865206f776e6572000000000000000000600082015250565b6000610d80601783610d39565b9150610d8b82610d4a565b602082019050919050565b60006020820190508181036000830152610daf81610d73565b9050919050565b7f45524332303a206275726e2066726f6d20746865207a65726f2061646472657360008201527f7300000000000000000000000000000000000000000000000000000000000000602082015250565b6000610e12602183610d39565b9150610e1d82610db6565b604082019050919050565b60006020820190508181036000830152610e4181610e05565b9050919050565b7f45524332303a206275726e20616d6f756e7420657863656564732062616c616e60008201527f6365000000000000000000000000000000000000000000000000000000000000602082015250565b6000610ea4602283610d39565b9150610eaf82610e48565b604082019050919050565b60006020820190508181036000830152610ed381610e97565b9050919050565b7f4e487b7100000000000000000000000000000000000000000000000000000000600052601160045260246000fd5b6000610f1482610b09565b9150610f1f83610b09565b925082821015610f3257610f31610eda565b5b828203905092915050565b7f45524332303a20617070726f76652066726f6d20746865207a65726f2061646460008201527f7265737300000000000000000000000000000000000000000000000000000000602082015250565b6000610f99602483610d39565b9150610fa482610f3d565b604082019050919050565b60006020820190508181036000830152610fc881610f8c565b9050919050565b7f45524332303a20617070726f766520746f20746865207a65726f20616464726560008201527f7373000000000000000000000000000000000000000000000000000000000000602082015250565b600061102b602283610d39565b915061103682610fcf565b604082019050919050565b6000602082019050818103600083015261105a8161101e565b9050919050565b7f45524332303a207472616e736665722066726f6d20746865207a65726f20616460008201527f6472657373000000000000000000000000000000000000000000000000000000602082015250565b60006110bd602583610d39565b91506110c882611061565b604082019050919050565b600060208201905081810360008301526110ec816110b0565b9050919050565b7f45524332303a207472616e7366657220746f20746865207a65726f206164647260008201527f6573730000000000000000000000000000000000000000000000000000000000602082015250565b600061114f602383610d39565b915061115a826110f3565b604082019050919050565b6000602082019050818103600083015261117e81611142565b9050919050565b7f45524332303a20696e73756666696369656e7420616c6c6f77616e6365000000600082015250565b60006111bb601d83610d39565b91506111c682611185565b602082019050919050565b600060208201905081810360008301526111ea816111ae565b9050919050565b7f45524332303a207472616e7366657220616d6f756e742065786365656473206260008201527f616c616e63650000000000000000000000000000000000000000000000000000602082015250565b600061124d602683610d39565b9150611258826111f1565b604082019050919050565b6000602082019050818103600083015261127c81611240565b9050919050565b600061128e82610b09565b915061129983610b09565b9250827fffffffffffffffffffffffffffffffffffffffffffffffffffffffffffffffff038211156112ce576112cd610eda565b5b82820190509291505056fea26469706673582212209152cd9bd33107228d866c4b1994826a0fa9df36c4bd5046424ab77be18e929264736f6c634300080f0033",
  "immutableReferences": {},
  "source": "// SPDX-License-Identifier: MIT\n// OpenZeppelin Contracts (last updated v4.5.0) (token/ERC20/IERC20.sol)\n\npragma solidity ^0.8.0;\nimport \"@openzeppelin/contracts/utils/Context.sol\";\nimport \"@openzeppelin/contracts/token/ERC20/IERC20.sol\";\n\n// contract Shares is IERC20,Context {\ncontract Shares is Context {\n    mapping(address => uint256) private _balances;\n    mapping(address => mapping(address => uint256)) private _allowances;\n    address contractOwner;\n\n    uint256 private _totalSupply;\n\n    event Transfer(address indexed from, address indexed to, uint256 value);\n    event Approval(address indexed owner, address indexed spender, uint256 value);\n\n    constructor(address _to,uint256 _amount,address _contractOwner){\n        contractOwner = _contractOwner;\n        _mint(_to, _amount);\n    }\n\n    modifier onlyCreator() {\n        require(msg.sender == contractOwner,\"Caller is not the owner\");\n        _;                              \n    }\n\n    function decimals() public view virtual returns (uint8) {\n        return 0;\n    }\n\n\n    function totalSupply() public view virtual returns (uint256) {\n    // function totalSupply() public view virtual override returns (uint256) {\n        return _totalSupply;\n    }\n\n    // function balanceOf(address account) public view virtual override returns (uint256) {\n    function balanceOf(address account) public view virtual returns (uint256) {\n        return _balances[account];\n    }\n\n    function approve(\n        address owner,\n        address spender,\n        uint256 amount\n    ) public virtual onlyCreator returns(bool){\n        require(owner != address(0), \"ERC20: approve from the zero address\");\n        require(spender != address(0), \"ERC20: approve to the zero address\");\n\n        _allowances[owner][spender] = amount;\n        emit Approval(owner, spender, amount);\n        return true;\n    }\n/*\n    function approve(address spender, uint256 amount) pure external returns (bool){\n        revert(\"Not implemented\");\n    }\n\n    function transfer(address to, uint256 amount) pure external returns (bool){\n        revert(\"Not implemented\");\n    }\n*/\n\n\n    function allowance(address owner, address spender) public view virtual onlyCreator returns (uint256) {\n    // function allowance(address owner, address spender) public view virtual override onlyCreator returns (uint256) {\n        return _allowances[owner][spender];\n    }\n\n\n    function transferFrom(\n        address from,\n        address to,\n        uint256 amount\n    ) public virtual onlyCreator returns (bool) {\n    // ) public virtual override onlyCreator returns (bool) {\n        _transfer(from, to, amount);\n        return true;\n    }\n\n    function burn(address account, uint256 amount) public virtual onlyCreator {\n        require(account != address(0), \"ERC20: burn from the zero address\");\n        uint256 accountBalance = _balances[account];\n        require(accountBalance >= amount, \"ERC20: burn amount exceeds balance\");\n        _balances[account] = accountBalance - amount;\n        // Overflow not possible: amount <= accountBalance <= totalSupply.\n        //_totalSupply -= amount;\n        emit Transfer(account, address(0), amount);\n    }\n\n    function _transfer(\n        address from,\n        address to,\n        uint256 amount\n    ) internal virtual {\n        require(from != address(0), \"ERC20: transfer from the zero address\");\n        require(to != address(0), \"ERC20: transfer to the zero address\");\n\n        uint256 currentAllowance = allowance(from, to);\n        require(currentAllowance == amount, \"ERC20: insufficient allowance\");\n\n\n        uint256 fromBalance = _balances[from];\n        require(fromBalance >= amount, \"ERC20: transfer amount exceeds balance\");\n        unchecked {\n            _balances[from] = fromBalance - amount;\n        }\n        _balances[to] += amount;\n\n        emit Transfer(from, to, amount);\n    }\n\n    function _mint(address account, uint256 amount) internal virtual {\n        require(account != address(0), \"ERC20: mint to the zero address\");\n\n        _totalSupply += amount;\n        _balances[account] += amount;\n        emit Transfer(address(0), account, amount);\n    }\n}\n\n\n",
  "sourcePath": "/mnt/d/pardo/Desktop/Treballs/TFG/TFG/src/contracts/Shares.sol",
  "compiler": {
    "name": "solc",
    "version": "0.8.15+commit.e14f2714.Emscripten.clang"
  },
  "schemaVersion": "3.4.7",
  "updatedAt": "2022-11-20T01:32:45.500Z",
  "devdoc": {
    "kind": "dev",
    "methods": {},
    "version": 1
  },
  "userdoc": {
    "kind": "user",
    "methods": {},
    "version": 1
  }
}